{
    "contractName": "BookKeeper",
    "abi": [
        {
            "anonymous": false,
            "inputs": [
                {
                    "indexed": false,
                    "internalType": "uint8",
                    "name": "version",
                    "type": "uint8"
                }
            ],
            "name": "Initialized",
            "type": "event"
        },
        {
            "anonymous": false,
            "inputs": [
                {
                    "indexed": true,
                    "internalType": "address",
                    "name": "_caller",
                    "type": "address"
                },
                {
                    "indexed": false,
                    "internalType": "address",
                    "name": "_usr",
                    "type": "address"
                },
                {
                    "indexed": false,
                    "internalType": "int256",
                    "name": "_amount",
                    "type": "int256"
                }
            ],
            "name": "LogAddCollateral",
            "type": "event"
        },
        {
            "anonymous": false,
            "inputs": [
                {
                    "indexed": true,
                    "internalType": "address",
                    "name": "_caller",
                    "type": "address"
                },
                {
                    "indexed": false,
                    "internalType": "bytes32",
                    "name": "_collateralPoolId",
                    "type": "bytes32"
                },
                {
                    "indexed": false,
                    "internalType": "address",
                    "name": "_positionAddress",
                    "type": "address"
                },
                {
                    "indexed": false,
                    "internalType": "uint256",
                    "name": "_lockedCollateral",
                    "type": "uint256"
                },
                {
                    "indexed": false,
                    "internalType": "uint256",
                    "name": "_debtShare",
                    "type": "uint256"
                },
                {
                    "indexed": false,
                    "internalType": "uint256",
                    "name": "_positionDebtValue",
                    "type": "uint256"
                },
                {
                    "indexed": false,
                    "internalType": "int256",
                    "name": "_addCollateral",
                    "type": "int256"
                },
                {
                    "indexed": false,
                    "internalType": "int256",
                    "name": "_addDebtShare",
                    "type": "int256"
                }
            ],
            "name": "LogAdjustPosition",
            "type": "event"
        },
        {
            "anonymous": false,
            "inputs": [],
            "name": "LogCage",
            "type": "event"
        },
        {
            "anonymous": false,
            "inputs": [
                {
                    "indexed": true,
                    "internalType": "address",
                    "name": "_caller",
                    "type": "address"
                },
                {
                    "indexed": false,
                    "internalType": "bytes32",
                    "name": "_collateralPoolId",
                    "type": "bytes32"
                },
                {
                    "indexed": false,
                    "internalType": "address",
                    "name": "_src",
                    "type": "address"
                },
                {
                    "indexed": false,
                    "internalType": "address",
                    "name": "_dst",
                    "type": "address"
                },
                {
                    "indexed": false,
                    "internalType": "uint256",
                    "name": "_amount",
                    "type": "uint256"
                }
            ],
            "name": "LogMoveCollateral",
            "type": "event"
        },
        {
            "anonymous": false,
            "inputs": [
                {
                    "indexed": true,
                    "internalType": "address",
                    "name": "_caller",
                    "type": "address"
                },
                {
                    "indexed": false,
                    "internalType": "address",
                    "name": "_accessControlConfig",
                    "type": "address"
                }
            ],
            "name": "LogSetAccessControlConfig",
            "type": "event"
        },
        {
            "anonymous": false,
            "inputs": [
                {
                    "indexed": true,
                    "internalType": "address",
                    "name": "_caller",
                    "type": "address"
                },
                {
                    "indexed": false,
                    "internalType": "address",
                    "name": "_collateralPoolConfig",
                    "type": "address"
                }
            ],
            "name": "LogSetCollateralPoolConfig",
            "type": "event"
        },
        {
            "anonymous": false,
            "inputs": [
                {
                    "indexed": true,
                    "internalType": "address",
                    "name": "_caller",
                    "type": "address"
                },
                {
                    "indexed": false,
                    "internalType": "uint256",
                    "name": "_totalDebtCeiling",
                    "type": "uint256"
                }
            ],
            "name": "LogSetTotalDebtCeiling",
            "type": "event"
        },
        {
            "anonymous": false,
            "inputs": [],
            "name": "LogUncage",
            "type": "event"
        },
        {
            "anonymous": false,
            "inputs": [
                {
                    "indexed": false,
                    "internalType": "address",
                    "name": "account",
                    "type": "address"
                }
            ],
            "name": "Paused",
            "type": "event"
        },
        {
            "anonymous": false,
            "inputs": [
                {
                    "indexed": false,
                    "internalType": "address",
                    "name": "account",
                    "type": "address"
                }
            ],
            "name": "Unpaused",
            "type": "event"
        },
        {
            "anonymous": false,
            "inputs": [
                {
                    "indexed": false,
                    "internalType": "uint256",
                    "name": "_totalStablecoinIssued",
                    "type": "uint256"
                },
                {
                    "indexed": false,
                    "internalType": "bytes32",
                    "name": "_collateralPoolId",
                    "type": "bytes32"
                },
                {
                    "indexed": false,
                    "internalType": "uint256",
                    "name": "_poolStablecoinIssued",
                    "type": "uint256"
                }
            ],
            "name": "stablecoinIssuedAmount",
            "type": "event"
        },
        {
            "inputs": [],
            "name": "accessControlConfig",
            "outputs": [
                {
                    "internalType": "address",
                    "name": "",
                    "type": "address"
                }
            ],
            "stateMutability": "view",
            "type": "function"
        },
        {
            "inputs": [],
            "name": "collateralPoolConfig",
            "outputs": [
                {
                    "internalType": "address",
                    "name": "",
                    "type": "address"
                }
            ],
            "stateMutability": "view",
            "type": "function"
        },
        {
            "inputs": [
                {
                    "internalType": "bytes32",
                    "name": "",
                    "type": "bytes32"
                },
                {
                    "internalType": "address",
                    "name": "",
                    "type": "address"
                }
            ],
            "name": "collateralToken",
            "outputs": [
                {
                    "internalType": "uint256",
                    "name": "",
                    "type": "uint256"
                }
            ],
            "stateMutability": "view",
            "type": "function"
        },
        {
            "inputs": [],
            "name": "live",
            "outputs": [
                {
                    "internalType": "uint256",
                    "name": "",
                    "type": "uint256"
                }
            ],
            "stateMutability": "view",
            "type": "function"
        },
        {
            "inputs": [],
            "name": "paused",
            "outputs": [
                {
                    "internalType": "bool",
                    "name": "",
                    "type": "bool"
                }
            ],
            "stateMutability": "view",
            "type": "function"
        },
        {
            "inputs": [
                {
                    "internalType": "bytes32",
                    "name": "",
                    "type": "bytes32"
                }
            ],
            "name": "poolStablecoinIssued",
            "outputs": [
                {
                    "internalType": "uint256",
                    "name": "",
                    "type": "uint256"
                }
            ],
            "stateMutability": "view",
            "type": "function"
        },
        {
            "inputs": [
                {
                    "internalType": "address",
                    "name": "",
                    "type": "address"
                },
                {
                    "internalType": "address",
                    "name": "",
                    "type": "address"
                }
            ],
            "name": "positionWhitelist",
            "outputs": [
                {
                    "internalType": "uint256",
                    "name": "",
                    "type": "uint256"
                }
            ],
            "stateMutability": "view",
            "type": "function"
        },
        {
            "inputs": [
                {
                    "internalType": "bytes32",
                    "name": "",
                    "type": "bytes32"
                },
                {
                    "internalType": "address",
                    "name": "",
                    "type": "address"
                }
            ],
            "name": "positions",
            "outputs": [
                {
                    "internalType": "uint256",
                    "name": "lockedCollateral",
                    "type": "uint256"
                },
                {
                    "internalType": "uint256",
                    "name": "debtShare",
                    "type": "uint256"
                }
            ],
            "stateMutability": "view",
            "type": "function"
        },
        {
            "inputs": [
                {
                    "internalType": "address",
                    "name": "",
                    "type": "address"
                }
            ],
            "name": "stablecoin",
            "outputs": [
                {
                    "internalType": "uint256",
                    "name": "",
                    "type": "uint256"
                }
            ],
            "stateMutability": "view",
            "type": "function"
        },
        {
            "inputs": [
                {
                    "internalType": "address",
                    "name": "",
                    "type": "address"
                }
            ],
            "name": "systemBadDebt",
            "outputs": [
                {
                    "internalType": "uint256",
                    "name": "",
                    "type": "uint256"
                }
            ],
            "stateMutability": "view",
            "type": "function"
        },
        {
            "inputs": [],
            "name": "totalDebtCeiling",
            "outputs": [
                {
                    "internalType": "uint256",
                    "name": "",
                    "type": "uint256"
                }
            ],
            "stateMutability": "view",
            "type": "function"
        },
        {
            "inputs": [],
            "name": "totalStablecoinIssued",
            "outputs": [
                {
                    "internalType": "uint256",
                    "name": "",
                    "type": "uint256"
                }
            ],
            "stateMutability": "view",
            "type": "function"
        },
        {
            "inputs": [],
            "name": "totalUnbackedStablecoin",
            "outputs": [
                {
                    "internalType": "uint256",
                    "name": "",
                    "type": "uint256"
                }
            ],
            "stateMutability": "view",
            "type": "function"
        },
        {
            "inputs": [],
            "name": "pause",
            "outputs": [],
            "stateMutability": "nonpayable",
            "type": "function"
        },
        {
            "inputs": [],
            "name": "unpause",
            "outputs": [],
            "stateMutability": "nonpayable",
            "type": "function"
        },
        {
            "inputs": [
                {
                    "internalType": "address",
                    "name": "toBeWhitelistedAddress",
                    "type": "address"
                }
            ],
            "name": "whitelist",
            "outputs": [],
            "stateMutability": "nonpayable",
            "type": "function"
        },
        {
            "inputs": [
                {
                    "internalType": "address",
                    "name": "toBeBlacklistedAddress",
                    "type": "address"
                }
            ],
            "name": "blacklist",
            "outputs": [],
            "stateMutability": "nonpayable",
            "type": "function"
        },
        {
            "inputs": [
                {
                    "internalType": "address",
                    "name": "_collateralPoolConfig",
                    "type": "address"
                },
                {
                    "internalType": "address",
                    "name": "_accessControlConfig",
                    "type": "address"
                }
            ],
            "name": "initialize",
            "outputs": [],
            "stateMutability": "nonpayable",
            "type": "function"
        },
        {
            "inputs": [
                {
                    "internalType": "uint256",
                    "name": "_totalDebtCeiling",
                    "type": "uint256"
                }
            ],
            "name": "setTotalDebtCeiling",
            "outputs": [],
            "stateMutability": "nonpayable",
            "type": "function"
        },
        {
            "inputs": [
                {
                    "internalType": "address",
                    "name": "_accessControlConfig",
                    "type": "address"
                }
            ],
            "name": "setAccessControlConfig",
            "outputs": [],
            "stateMutability": "nonpayable",
            "type": "function"
        },
        {
            "inputs": [
                {
                    "internalType": "address",
                    "name": "_collateralPoolConfig",
                    "type": "address"
                }
            ],
            "name": "setCollateralPoolConfig",
            "outputs": [],
            "stateMutability": "nonpayable",
            "type": "function"
        },
        {
            "inputs": [],
            "name": "cage",
            "outputs": [],
            "stateMutability": "nonpayable",
            "type": "function"
        },
        {
            "inputs": [],
            "name": "uncage",
            "outputs": [],
            "stateMutability": "nonpayable",
            "type": "function"
        },
        {
            "inputs": [
                {
                    "internalType": "bytes32",
                    "name": "_collateralPoolId",
                    "type": "bytes32"
                },
                {
                    "internalType": "address",
                    "name": "_usr",
                    "type": "address"
                },
                {
                    "internalType": "int256",
                    "name": "_amount",
                    "type": "int256"
                }
            ],
            "name": "addCollateral",
            "outputs": [],
            "stateMutability": "nonpayable",
            "type": "function"
        },
        {
            "inputs": [
                {
                    "internalType": "bytes32",
                    "name": "_collateralPoolId",
                    "type": "bytes32"
                },
                {
                    "internalType": "address",
                    "name": "_src",
                    "type": "address"
                },
                {
                    "internalType": "address",
                    "name": "_dst",
                    "type": "address"
                },
                {
                    "internalType": "uint256",
                    "name": "_amount",
                    "type": "uint256"
                }
            ],
            "name": "moveCollateral",
            "outputs": [],
            "stateMutability": "nonpayable",
            "type": "function"
        },
        {
            "inputs": [
                {
                    "internalType": "address",
                    "name": "_src",
                    "type": "address"
                },
                {
                    "internalType": "address",
                    "name": "_dst",
                    "type": "address"
                },
                {
                    "internalType": "uint256",
                    "name": "_value",
                    "type": "uint256"
                }
            ],
            "name": "moveStablecoin",
            "outputs": [],
            "stateMutability": "nonpayable",
            "type": "function"
        },
        {
            "inputs": [
                {
                    "internalType": "bytes32",
                    "name": "_collateralPoolId",
                    "type": "bytes32"
                },
                {
                    "internalType": "address",
                    "name": "_positionAddress",
                    "type": "address"
                },
                {
                    "internalType": "address",
                    "name": "_collateralOwner",
                    "type": "address"
                },
                {
                    "internalType": "address",
                    "name": "_stablecoinOwner",
                    "type": "address"
                },
                {
                    "internalType": "int256",
                    "name": "_collateralValue",
                    "type": "int256"
                },
                {
                    "internalType": "int256",
                    "name": "_debtShare",
                    "type": "int256"
                }
            ],
            "name": "adjustPosition",
            "outputs": [],
            "stateMutability": "nonpayable",
            "type": "function"
        },
        {
            "inputs": [
                {
                    "internalType": "bytes32",
                    "name": "_collateralPoolId",
                    "type": "bytes32"
                },
                {
                    "internalType": "address",
                    "name": "_src",
                    "type": "address"
                },
                {
                    "internalType": "address",
                    "name": "_dst",
                    "type": "address"
                },
                {
                    "internalType": "int256",
                    "name": "_collateralAmount",
                    "type": "int256"
                },
                {
                    "internalType": "int256",
                    "name": "_debtShare",
                    "type": "int256"
                }
            ],
            "name": "movePosition",
            "outputs": [],
            "stateMutability": "nonpayable",
            "type": "function"
        },
        {
            "inputs": [
                {
                    "internalType": "bytes32",
                    "name": "_collateralPoolId",
                    "type": "bytes32"
                },
                {
                    "internalType": "address",
                    "name": "_positionAddress",
                    "type": "address"
                },
                {
                    "internalType": "address",
                    "name": "_collateralCreditor",
                    "type": "address"
                },
                {
                    "internalType": "address",
                    "name": "_stablecoinDebtor",
                    "type": "address"
                },
                {
                    "internalType": "int256",
                    "name": "_collateralAmount",
                    "type": "int256"
                },
                {
                    "internalType": "int256",
                    "name": "_debtShare",
                    "type": "int256"
                }
            ],
            "name": "confiscatePosition",
            "outputs": [],
            "stateMutability": "nonpayable",
            "type": "function"
        },
        {
            "inputs": [
                {
                    "internalType": "uint256",
                    "name": "_value",
                    "type": "uint256"
                }
            ],
            "name": "settleSystemBadDebt",
            "outputs": [],
            "stateMutability": "nonpayable",
            "type": "function"
        },
        {
            "inputs": [
                {
                    "internalType": "address",
                    "name": "_from",
                    "type": "address"
                },
                {
                    "internalType": "address",
                    "name": "_to",
                    "type": "address"
                },
                {
                    "internalType": "uint256",
                    "name": "_value",
                    "type": "uint256"
                }
            ],
            "name": "mintUnbackedStablecoin",
            "outputs": [],
            "stateMutability": "nonpayable",
            "type": "function"
        },
        {
            "inputs": [
                {
                    "internalType": "bytes32",
                    "name": "_collateralPoolId",
                    "type": "bytes32"
                },
                {
                    "internalType": "address",
                    "name": "_stabilityFeeRecipient",
                    "type": "address"
                },
                {
                    "internalType": "int256",
                    "name": "_debtAccumulatedRate",
                    "type": "int256"
                }
            ],
            "name": "accrueStabilityFee",
            "outputs": [],
            "stateMutability": "nonpayable",
            "type": "function"
        }
    ],
    "bytecode": "0x608060405234801561001057600080fd5b5061352b806100206000396000f3fe608060405234801561001057600080fd5b50600436106101f05760003560e01c8063957aa58c1161010f578063d63b23b2116100a2578063ec50009911610071578063ec50009914610458578063f635d8a71461046b578063f8be242c1461047e578063f9f92be4146104a957600080fd5b8063d63b23b2146103f2578063d8682461146103fa578063d9ea91551461040d578063e137ddc51461043857600080fd5b8063b5d99329116100de578063b5d9932914610381578063c8cc243f14610394578063d0c26ff1146103bf578063d295927a146103df57600080fd5b8063957aa58c146103325780639b19251a1461033b578063b1df25941461034e578063b4ac08bb1461036157600080fd5b806369245009116101875780638456cb59116101565780638456cb59146102f157806384e44abb146102f95780638c1578541461030c57806390d536391461031f57600080fd5b806369245009146102ba5780636a321151146102c25780636f3a3bfc146102d5578063815110ec146102de57600080fd5b806354eb03a2116101c357806354eb03a21461027157806356bd594a146102885780635b2a51211461029b5780635c975abb146102a457600080fd5b806303ab9076146101f557806329d885941461020a5780633f4ba83a14610256578063485cc9551461025e575b600080fd5b6102086102033660046130e7565b6104bc565b005b61023c610218366004613135565b60986020908152600092835260408084209091529082529020805460019091015482565b604080519283526020830191909152015b60405180910390f35b610208610916565b61020861026c366004613161565b610b13565b61027a609e5481565b60405190815260200161024d565b61020861029636600461318b565b610c63565b61027a609f5481565b60335460ff16604051901515815260200161024d565b610208611457565b6102086102d03660046131ea565b6116a2565b61027a609d5481565b6102086102ec366004613226565b611880565b610208611927565b610208610307366004613226565b611b21565b61020861031a3660046131ea565b611c74565b61020861032d36600461323f565b611d6a565b61027a60a05481565b610208610349366004613264565b61202d565b61020861035c36600461318b565b61205f565b61027a61036f366004613264565b609a6020526000908152604090205481565b61020861038f36600461327f565b61238b565b60a2546103a7906001600160a01b031681565b6040516001600160a01b03909116815260200161024d565b61027a6103cd366004613226565b609c6020526000908152604090205481565b6102086103ed36600461323f565b61261e565b6102086127f6565b60a1546103a7906001600160a01b031681565b61027a61041b366004613161565b609760209081526000928352604080842090915290825290205481565b61027a610446366004613264565b609b6020526000908152604090205481565b610208610466366004613264565b612a66565b610208610479366004613264565b612c79565b61027a61048c366004613135565b609960209081526000928352604080842090915290825290205481565b6102086104b7366004613264565b612dbb565b6002606554036104e75760405162461bcd60e51b81526004016104de906132c3565b60405180910390fd5b60026065556104f4612dec565b60a25460408051636e19aa5960e01b815290516001600160a01b039092169182916391d14854918391636e19aa599160048083019260209291908290030181865afa158015610547573d6000803e3d6000fd5b505050506040513d601f19601f8201168201806040525081019061056b91906132fa565b336040518363ffffffff1660e01b8152600401610589929190613313565b602060405180830381865afa1580156105a6573d6000803e3d6000fd5b505050506040513d601f19601f820116820180604052508101906105ca919061332a565b61060d5760405162461bcd60e51b815260206004820152601460248201527321706f736974696f6e4d616e61676572526f6c6560601b60448201526064016104de565b60008681526098602090815260408083206001600160a01b0389811685529252808320878316845281842060a15492516309023b4f60e11b8152600481018c90529194909390921690631204769e9060240160a060405180830381865afa15801561067c573d6000803e3d6000fd5b505050506040513d601f19601f820116820180604052508101906106a0919061334c565b90506106b0836000015487612e34565b835560018301546106c19086612e34565b600184015581546106d29087612e6f565b825560018201546106e39086612e6f565b826001018190555060006106ff84600101548360000151612ea3565b9050600061071584600101548460000151612ea3565b90506107326107248b33612eb6565b61072e8b33612eb6565b1690565b61078a5760405162461bcd60e51b815260206004820152602360248201527f426f6f6b4b65657065722f6d6f7665506f736974696f6e2f6e6f742d616c6c6f6044820152621dd95960ea1b60648201526084016104de565b61079c85600001548460600151612ea3565b8211156107eb5760405162461bcd60e51b815260206004820152601760248201527f426f6f6b4b65657065722f6e6f742d736166652d73726300000000000000000060448201526064016104de565b6107fd84600001548460600151612ea3565b81111561084c5760405162461bcd60e51b815260206004820152601760248201527f426f6f6b4b65657065722f6e6f742d736166652d64737400000000000000000060448201526064016104de565b608083015160018601541590831015176108a85760405162461bcd60e51b815260206004820152601960248201527f426f6f6b4b65657065722f646562742d666c6f6f722d7372630000000000000060448201526064016104de565b608083015160018501541590821015176109045760405162461bcd60e51b815260206004820152601960248201527f426f6f6b4b65657065722f646562742d666c6f6f722d6473740000000000000060448201526064016104de565b50506001606555505050505050505050565b60a2546040805163e58378bb60e01b815290516001600160a01b039092169182916391d1485491839163e58378bb9160048083019260209291908290030181865afa158015610969573d6000803e3d6000fd5b505050506040513d601f19601f8201168201806040525081019061098d91906132fa565b336040518363ffffffff1660e01b81526004016109ab929190613313565b602060405180830381865afa1580156109c8573d6000803e3d6000fd5b505050506040513d601f19601f820116820180604052508101906109ec919061332a565b80610ac25750806001600160a01b03166391d14854826001600160a01b031663b536818a6040518163ffffffff1660e01b8152600401602060405180830381865afa158015610a3f573d6000803e3d6000fd5b505050506040513d601f19601f82011682018060405250810190610a6391906132fa565b336040518363ffffffff1660e01b8152600401610a81929190613313565b602060405180830381865afa158015610a9e573d6000803e3d6000fd5b505050506040513d601f19601f82011682018060405250810190610ac2919061332a565b610b085760405162461bcd60e51b815260206004820152601760248201527621286f776e6572526f6c65206f7220676f76526f6c652960481b60448201526064016104de565b610b10612eee565b50565b600054610100900460ff1615808015610b335750600054600160ff909116105b80610b4d5750303b158015610b4d575060005460ff166001145b610bb05760405162461bcd60e51b815260206004820152602e60248201527f496e697469616c697a61626c653a20636f6e747261637420697320616c72656160448201526d191e481a5b9a5d1a585b1a5e995960921b60648201526084016104de565b6000805460ff191660011790558015610bd3576000805461ff0019166101001790555b610bdb612f40565b610be3612f6f565b60a180546001600160a01b038086166001600160a01b03199283161790925560a2805492851692909116919091179055600160a0558015610c5e576000805461ff0019169055604051600181527f7f26b83ff96e1f2b6a682f133852f6798a09c465da95921460cefb38474024989060200160405180910390a15b505050565b600260655403610c855760405162461bcd60e51b81526004016104de906132c3565b6002606555610c92612dec565b60a25460408051636e19aa5960e01b815290516001600160a01b039092169182916391d14854918391636e19aa599160048083019260209291908290030181865afa158015610ce5573d6000803e3d6000fd5b505050506040513d601f19601f82011682018060405250810190610d0991906132fa565b336040518363ffffffff1660e01b8152600401610d27929190613313565b602060405180830381865afa158015610d44573d6000803e3d6000fd5b505050506040513d601f19601f82011682018060405250810190610d68919061332a565b610dab5760405162461bcd60e51b815260206004820152601460248201527321706f736974696f6e4d616e61676572526f6c6560601b60448201526064016104de565b60a054600114610dcd5760405162461bcd60e51b81526004016104de906133ca565b60008781526098602090815260408083206001600160a01b038a8116855290835281842082518084018452815481526001909101549381019390935260a15491516309023b4f60e11b8152600481018c9052929392911690631204769e9060240160a060405180830381865afa158015610e4b573d6000803e3d6000fd5b505050506040513d601f19601f82011682018060405250810190610e6f919061334c565b8051909150600003610ece5760405162461bcd60e51b815260206004820152602260248201527f426f6f6b4b65657065722f636f6c6c61746572616c506f6f6c2d6e6f742d696e6044820152611a5d60f21b60648201526084016104de565b8151610eda9086612e6f565b82526020820151610eeb9085612e6f565b826020018181525050610f02816020015185612e6f565b6020820181905260a1546040516359d8e7d160e11b8152600481018c905260248101929092526001600160a01b03169063b3b1cfa290604401600060405180830381600087803b158015610f5557600080fd5b505af1158015610f69573d6000803e3d6000fd5b505050506000610f7d826000015186612f9e565b90506000610f9383600001518560200151612ea3565b9050610fa1609d5483612e6f565b609d5560008b8152609c6020526040902054610fbd8184612e6f565b60008d8152609c6020908152604080832084905587015190870151875193945061100693928b1315926110029291610ff491612ea3565b1115609f54609d5411151690565b1790565b6110525760405162461bcd60e51b815260206004820152601b60248201527f426f6f6b4b65657065722f6365696c696e672d6578636565646564000000000060448201526064016104de565b61107f611066600089131560008b12151690565b61107887600001518760600151612ea3565b8411151790565b6110c15760405162461bcd60e51b8152602060048201526013602482015272426f6f6b4b65657065722f6e6f742d7361666560681b60448201526064016104de565b6110df6110d5600089131560008b12151690565b6110028d33612eb6565b61113b5760405162461bcd60e51b815260206004820152602760248201527f426f6f6b4b65657065722f6e6f742d616c6c6f7765642d706f736974696f6e2d6044820152666164647265737360c81b60648201526084016104de565b61114d60008913156110028c33612eb6565b6111a95760405162461bcd60e51b815260206004820152602760248201527f426f6f6b4b65657065722f6e6f742d616c6c6f7765642d636f6c6c61746572616044820152663616b7bbb732b960c91b60648201526084016104de565b6111bb60008812156110028b33612eb6565b6112175760405162461bcd60e51b815260206004820152602760248201527f426f6f6b4b65657065722f6e6f742d616c6c6f7765642d737461626c65636f696044820152663716b7bbb732b960c91b60648201526084016104de565b6020850151608085015183101590151761126b5760405162461bcd60e51b81526020600482015260156024820152742137b7b5a5b2b2b832b917b232b13a16b33637b7b960591b60448201526064016104de565b60008c81526099602090815260408083206001600160a01b038e1684529091529020546112989089612e34565b609960008e815260200190815260200160002060008c6001600160a01b03166001600160a01b0316815260200190815260200160002081905550611301609a60008b6001600160a01b03166001600160a01b031681526020019081526020016000205484612e6f565b609a60008b6001600160a01b03166001600160a01b031681526020019081526020016000208190555084609860008e815260200190815260200160002060008d6001600160a01b03166001600160a01b031681526020019081526020016000206000820151816000015560208201518160010155905050336001600160a01b03167fc016c1d60a9423b602f4359e2e99621becf5f90f9be16c6e73cef19b916758898d8d88600001518960200151878e8e6040516113f997969594939291909687526001600160a01b0395909516602087015260408601939093526060850191909152608084015260a083015260c082015260e00190565b60405180910390a2609d5460408051918252602082018e905281018290527fb53cea29a40f92c1b41c1ae664dc8815c32408943263898c7d517ab92c9fc6bd9060600160405180910390a15050600160655550505050505050505050565b60a2546040805163e58378bb60e01b815290516001600160a01b039092169182916391d1485491839163e58378bb9160048083019260209291908290030181865afa1580156114aa573d6000803e3d6000fd5b505050506040513d601f19601f820116820180604052508101906114ce91906132fa565b336040518363ffffffff1660e01b81526004016114ec929190613313565b602060405180830381865afa158015611509573d6000803e3d6000fd5b505050506040513d601f19601f8201168201806040525081019061152d919061332a565b806116035750806001600160a01b03166391d14854826001600160a01b031663d7a47a696040518163ffffffff1660e01b8152600401602060405180830381865afa158015611580573d6000803e3d6000fd5b505050506040513d601f19601f820116820180604052508101906115a491906132fa565b336040518363ffffffff1660e01b81526004016115c2929190613313565b602060405180830381865afa1580156115df573d6000803e3d6000fd5b505050506040513d601f19601f82011682018060405250810190611603919061332a565b61164f5760405162461bcd60e51b815260206004820152601f60248201527f21286f776e6572526f6c65206f722073686f7753746f70706572526f6c65290060448201526064016104de565b60a0546001146116715760405162461bcd60e51b81526004016104de906133ca565b600060a08190556040517fbf689b4aae670d200b1d2b971ace2e0c3bef88a9c5e93f36705c7b86eab630b99190a150565b6002606554036116c45760405162461bcd60e51b81526004016104de906132c3565b60026065556116d1612dec565b60a254604080516308e45bc560e01b815290516001600160a01b039092169182916391d148549183916308e45bc59160048083019260209291908290030181865afa158015611724573d6000803e3d6000fd5b505050506040513d601f19601f8201168201806040525081019061174891906132fa565b336040518363ffffffff1660e01b8152600401611766929190613313565b602060405180830381865afa158015611783573d6000803e3d6000fd5b505050506040513d601f19601f820116820180604052508101906117a7919061332a565b6117e35760405162461bcd60e51b815260206004820152600d60248201526c216d696e7461626c65526f6c6560981b60448201526064016104de565b6001600160a01b0384166000908152609b60205260409020546118069083612fcc565b6001600160a01b038086166000908152609b60209081526040808320949094559186168152609a909152205461183c9083612fcc565b6001600160a01b0384166000908152609a6020526040902055609e546118629083612fcc565b609e55609d546118729083612fcc565b609d55505060016065555050565b6002606554036118a25760405162461bcd60e51b81526004016104de906132c3565b60026065556118af612dec565b336000908152609b60205260409020546118c99082612fd8565b336000908152609b6020908152604080832093909355609a905220546118ef9082612fd8565b336000908152609a6020526040902055609e5461190c9082612fd8565b609e55609d5461191c9082612fd8565b609d55506001606555565b60a2546040805163e58378bb60e01b815290516001600160a01b039092169182916391d1485491839163e58378bb9160048083019260209291908290030181865afa15801561197a573d6000803e3d6000fd5b505050506040513d601f19601f8201168201806040525081019061199e91906132fa565b336040518363ffffffff1660e01b81526004016119bc929190613313565b602060405180830381865afa1580156119d9573d6000803e3d6000fd5b505050506040513d601f19601f820116820180604052508101906119fd919061332a565b80611ad35750806001600160a01b03166391d14854826001600160a01b031663b536818a6040518163ffffffff1660e01b8152600401602060405180830381865afa158015611a50573d6000803e3d6000fd5b505050506040513d601f19601f82011682018060405250810190611a7491906132fa565b336040518363ffffffff1660e01b8152600401611a92929190613313565b602060405180830381865afa158015611aaf573d6000803e3d6000fd5b505050506040513d601f19601f82011682018060405250810190611ad3919061332a565b611b195760405162461bcd60e51b815260206004820152601760248201527621286f776e6572526f6c65206f7220676f76526f6c652960481b60448201526064016104de565b610b10612fe4565b60a2546040805163e58378bb60e01b815290516001600160a01b039092169182916391d1485491839163e58378bb9160048083019260209291908290030181865afa158015611b74573d6000803e3d6000fd5b505050506040513d601f19601f82011682018060405250810190611b9891906132fa565b336040518363ffffffff1660e01b8152600401611bb6929190613313565b602060405180830381865afa158015611bd3573d6000803e3d6000fd5b505050506040513d601f19601f82011682018060405250810190611bf7919061332a565b611c135760405162461bcd60e51b81526004016104de906133f7565b60a054600114611c355760405162461bcd60e51b81526004016104de906133ca565b609f82905560405182815233907f40f69e672a10878e2ae12a782e2a123f25152d75979b2f9c50295f44ff4e308d906020015b60405180910390a25050565b600260655403611c965760405162461bcd60e51b81526004016104de906132c3565b6002606555611ca3612dec565b611cad8333612eb6565b611cf25760405162461bcd60e51b8152602060048201526016602482015275109bdbdad2d9595c195c8bdb9bdd0b585b1b1bddd95960521b60448201526064016104de565b6001600160a01b0383166000908152609a6020526040902054611d159082612fd8565b6001600160a01b038085166000908152609a60205260408082209390935590841681522054611d449082612fcc565b6001600160a01b039092166000908152609a602052604090209190915550506001606555565b600260655403611d8c5760405162461bcd60e51b81526004016104de906132c3565b6002606555611d99612dec565b60a25460408051620470d160eb1b815290516001600160a01b039092169182916391d1485491839163238688009160048083019260209291908290030181865afa158015611deb573d6000803e3d6000fd5b505050506040513d601f19601f82011682018060405250810190611e0f91906132fa565b336040518363ffffffff1660e01b8152600401611e2d929190613313565b602060405180830381865afa158015611e4a573d6000803e3d6000fd5b505050506040513d601f19601f82011682018060405250810190611e6e919061332a565b611eba5760405162461bcd60e51b815260206004820152601a60248201527f2173746162696c697479466565436f6c6c6563746f72526f6c6500000000000060448201526064016104de565b60a054600114611edc5760405162461bcd60e51b81526004016104de906133ca565b60a1546040516309023b4f60e11b8152600481018690526000916001600160a01b031690631204769e9060240160a060405180830381865afa158015611f26573d6000803e3d6000fd5b505050506040513d601f19601f82011682018060405250810190611f4a919061334c565b9050611f5a816000015184612e6f565b80825260a15460405163e47f3c6f60e01b81526004810188905260248101929092526001600160a01b03169063e47f3c6f90604401600060405180830381600087803b158015611fa957600080fd5b505af1158015611fbd573d6000803e3d6000fd5b505050506000611fd1826020015185612f9e565b6001600160a01b0386166000908152609a6020526040902054909150611ff79082612e6f565b6001600160a01b0386166000908152609a6020526040902055609d5461201d9082612e6f565b609d555050600160655550505050565b612035612dec565b3360009081526097602090815260408083206001600160a01b039490941683529290522060019055565b6002606554036120815760405162461bcd60e51b81526004016104de906132c3565b600260655561208e612dec565b60a2546040805163e8ff193d60e01b815290516001600160a01b039092169182916391d1485491839163e8ff193d9160048083019260209291908290030181865afa1580156120e1573d6000803e3d6000fd5b505050506040513d601f19601f8201168201806040525081019061210591906132fa565b336040518363ffffffff1660e01b8152600401612123929190613313565b602060405180830381865afa158015612140573d6000803e3d6000fd5b505050506040513d601f19601f82011682018060405250810190612164919061332a565b6121a95760405162461bcd60e51b8152602060048201526016602482015275216c69717569646174696f6e456e67696e65526f6c6560501b60448201526064016104de565b60008781526098602090815260408083206001600160a01b038a81168552925280832060a15491516309023b4f60e11b8152600481018c90529093929190911690631204769e9060240160a060405180830381865afa158015612210573d6000803e3d6000fd5b505050506040513d601f19601f82011682018060405250810190612234919061334c565b9050612244826000015486612e6f565b825560018201546122559085612e6f565b600183015560208101516122699085612e6f565b6020820181905260a1546040516359d8e7d160e11b8152600481018c905260248101929092526001600160a01b03169063b3b1cfa290604401600060405180830381600087803b1580156122bc57600080fd5b505af11580156122d0573d6000803e3d6000fd5b5050505060006122e4826000015186612f9e565b60008b81526099602090815260408083206001600160a01b038d1684529091529020549091506123149087612e34565b60008b81526099602090815260408083206001600160a01b03808e16855290835281842094909455928a168252609b905220546123519082612e34565b6001600160a01b0388166000908152609b6020526040902055609e546123779082612e34565b609e55505060016065555050505050505050565b6002606554036123ad5760405162461bcd60e51b81526004016104de906132c3565b60026065556123ba612dec565b60a25460408051632e718ab760e01b815290516001600160a01b039092169182916391d14854918391632e718ab79160048083019260209291908290030181865afa15801561240d573d6000803e3d6000fd5b505050506040513d601f19601f8201168201806040525081019061243191906132fa565b336040518363ffffffff1660e01b815260040161244f929190613313565b602060405180830381865afa15801561246c573d6000803e3d6000fd5b505050506040513d601f19601f82011682018060405250810190612490919061332a565b6124d55760405162461bcd60e51b815260206004820152601660248201527521636f6c6c61746572616c4d616e61676572526f6c6560501b60448201526064016104de565b6124df8433612eb6565b6125395760405162461bcd60e51b815260206004820152602560248201527f426f6f6b4b65657065722f6d6f7665436f6c6c61746572616c2f6e6f742d616c6044820152641b1bddd95960da1b60648201526084016104de565b60008581526099602090815260408083206001600160a01b03881684529091529020546125669083612fd8565b60008681526099602090815260408083206001600160a01b03898116855292528083209390935585168152205461259d9083612fcc565b60008681526099602090815260408083206001600160a01b0388811680865291845293829020949094558051898152928816918301919091528101919091526060810183905233907f545a77591462bbdd247f8de3aabb8666317d6937475594c9df7e48f32b44e20a9060800160405180910390a250506001606555505050565b6002606554036126405760405162461bcd60e51b81526004016104de906132c3565b600260655561264d612dec565b60a25460408051630154417360e11b815290516001600160a01b039092169182916391d148549183916302a882e69160048083019260209291908290030181865afa1580156126a0573d6000803e3d6000fd5b505050506040513d601f19601f820116820180604052508101906126c491906132fa565b336040518363ffffffff1660e01b81526004016126e2929190613313565b602060405180830381865afa1580156126ff573d6000803e3d6000fd5b505050506040513d601f19601f82011682018060405250810190612723919061332a565b61275e5760405162461bcd60e51b815260206004820152600c60248201526b2161646170746572526f6c6560a01b60448201526064016104de565b60008481526099602090815260408083206001600160a01b038716845290915290205461278b9083612e6f565b60008581526099602090815260408083206001600160a01b03881680855290835292819020939093558251918252810184905233917ff61a861415a232c4e7fc9cc6939614aa780fd55601ac4bdf95db158bd642e274910160405180910390a2505060016065555050565b60a2546040805163e58378bb60e01b815290516001600160a01b039092169182916391d1485491839163e58378bb9160048083019260209291908290030181865afa158015612849573d6000803e3d6000fd5b505050506040513d601f19601f8201168201806040525081019061286d91906132fa565b336040518363ffffffff1660e01b815260040161288b929190613313565b602060405180830381865afa1580156128a8573d6000803e3d6000fd5b505050506040513d601f19601f820116820180604052508101906128cc919061332a565b806129a25750806001600160a01b03166391d14854826001600160a01b031663d7a47a696040518163ffffffff1660e01b8152600401602060405180830381865afa15801561291f573d6000803e3d6000fd5b505050506040513d601f19601f8201168201806040525081019061294391906132fa565b336040518363ffffffff1660e01b8152600401612961929190613313565b602060405180830381865afa15801561297e573d6000803e3d6000fd5b505050506040513d601f19601f820116820180604052508101906129a2919061332a565b6129ee5760405162461bcd60e51b815260206004820152601f60248201527f21286f776e6572526f6c65206f722073686f7753746f70706572526f6c65290060448201526064016104de565b60a05415612a355760405162461bcd60e51b8152602060048201526014602482015273109bdbdad2d9595c195c8bdb9bdd0b58d859d95960621b60448201526064016104de565b600160a0556040517f1868a6ced217213f36be87ba9aee25cde5381b42e85c8f88e73b18772c0bd07390600090a150565b60a2546040805163e58378bb60e01b815290516001600160a01b039092169182916391d1485491839163e58378bb9160048083019260209291908290030181865afa158015612ab9573d6000803e3d6000fd5b505050506040513d601f19601f82011682018060405250810190612add91906132fa565b336040518363ffffffff1660e01b8152600401612afb929190613313565b602060405180830381865afa158015612b18573d6000803e3d6000fd5b505050506040513d601f19601f82011682018060405250810190612b3c919061332a565b612b585760405162461bcd60e51b81526004016104de906133f7565b816001600160a01b03166391d14854836001600160a01b031663e58378bb6040518163ffffffff1660e01b8152600401602060405180830381865afa158015612ba5573d6000803e3d6000fd5b505050506040513d601f19601f82011682018060405250810190612bc991906132fa565b336040518363ffffffff1660e01b8152600401612be7929190613313565b602060405180830381865afa158015612c04573d6000803e3d6000fd5b505050506040513d601f19601f82011682018060405250810190612c28919061332a565b5060a280546001600160a01b0319166001600160a01b03841690811790915560405190815233907f104d594bb3ca960b0fc4fe7e747247b97b766449771c92e9a57395b370fd9a6290602001611c68565b60a2546040805163e58378bb60e01b815290516001600160a01b039092169182916391d1485491839163e58378bb9160048083019260209291908290030181865afa158015612ccc573d6000803e3d6000fd5b505050506040513d601f19601f82011682018060405250810190612cf091906132fa565b336040518363ffffffff1660e01b8152600401612d0e929190613313565b602060405180830381865afa158015612d2b573d6000803e3d6000fd5b505050506040513d601f19601f82011682018060405250810190612d4f919061332a565b612d6b5760405162461bcd60e51b81526004016104de906133f7565b60a180546001600160a01b0319166001600160a01b03841690811790915560405190815233907f0223eb47811767b900acc3004a53292afccdf30a6334f8d93984f7c7916f6ecb90602001611c68565b612dc3612dec565b3360009081526097602090815260408083206001600160a01b0394909416835292905290812055565b60335460ff1615612e325760405162461bcd60e51b815260206004820152601060248201526f14185d5cd8589b194e881c185d5cd95960821b60448201526064016104de565b565b808203600082131580612e475750828111155b612e5057600080fd5b600082121580612e605750828110155b612e6957600080fd5b92915050565b818101600082121580612e825750828111155b612e8b57600080fd5b600082131580612e60575082811015612e6957600080fd5b6000612eaf8284613431565b9392505050565b6001600160a01b038281166000818152609760209081526040808320948616808452949091528120549092612eaf9214906001141790565b612ef6613021565b6033805460ff191690557f5db9ee0a495bf2e6ff9c91a7834c1ba4fdd244a5e8aa4e537bd38aeae4b073aa335b6040516001600160a01b03909116815260200160405180910390a1565b600054610100900460ff16612f675760405162461bcd60e51b81526004016104de90613448565b612e3261306a565b600054610100900460ff16612f965760405162461bcd60e51b81526004016104de90613448565b612e3261309d565b8181026000831215612faf57600080fd5b811580612e60575082612fc28383613493565b14612e6957600080fd5b6000612eaf82846134cf565b6000612eaf82846134e2565b612fec612dec565b6033805460ff191660011790557f62e78cea01bee320cd4e420270b5ea74000d11b0c9f74754ebdbfc544b05a258612f233390565b60335460ff16612e325760405162461bcd60e51b815260206004820152601460248201527314185d5cd8589b194e881b9bdd081c185d5cd95960621b60448201526064016104de565b600054610100900460ff166130915760405162461bcd60e51b81526004016104de90613448565b6033805460ff19169055565b600054610100900460ff166130c45760405162461bcd60e51b81526004016104de90613448565b6001606555565b80356001600160a01b03811681146130e257600080fd5b919050565b600080600080600060a086880312156130ff57600080fd5b8535945061310f602087016130cb565b935061311d604087016130cb565b94979396509394606081013594506080013592915050565b6000806040838503121561314857600080fd5b82359150613158602084016130cb565b90509250929050565b6000806040838503121561317457600080fd5b61317d836130cb565b9150613158602084016130cb565b60008060008060008060c087890312156131a457600080fd5b863595506131b4602088016130cb565b94506131c2604088016130cb565b93506131d0606088016130cb565b92506080870135915060a087013590509295509295509295565b6000806000606084860312156131ff57600080fd5b613208846130cb565b9250613216602085016130cb565b9150604084013590509250925092565b60006020828403121561323857600080fd5b5035919050565b60008060006060848603121561325457600080fd5b83359250613216602085016130cb565b60006020828403121561327657600080fd5b612eaf826130cb565b6000806000806080858703121561329557600080fd5b843593506132a5602086016130cb565b92506132b3604086016130cb565b9396929550929360600135925050565b6020808252601f908201527f5265656e7472616e637947756172643a207265656e7472616e742063616c6c00604082015260600190565b60006020828403121561330c57600080fd5b5051919050565b9182526001600160a01b0316602082015260400190565b60006020828403121561333c57600080fd5b81518015158114612eaf57600080fd5b600060a0828403121561335e57600080fd5b60405160a0810181811067ffffffffffffffff8211171561338f57634e487b7160e01b600052604160045260246000fd5b806040525082518152602083015160208201526040830151604082015260608301516060820152608083015160808201528091505092915050565b602080825260139082015272426f6f6b4b65657065722f6e6f742d6c69766560681b604082015260600190565b6020808252600a9082015269216f776e6572526f6c6560b01b604082015260600190565b634e487b7160e01b600052601160045260246000fd5b8082028115828204841417612e6957612e6961341b565b6020808252602b908201527f496e697469616c697a61626c653a20636f6e7472616374206973206e6f74206960408201526a6e697469616c697a696e6760a81b606082015260800190565b6000826134b057634e487b7160e01b600052601260045260246000fd5b600160ff1b8214600019841416156134ca576134ca61341b565b500590565b80820180821115612e6957612e6961341b565b81810381811115612e6957612e6961341b56fea26469706673582212207f0d0f6f7e4e4e2f17e46b4ed0d0c3a74158700377b4aa3eedc5cffba579d81564736f6c63430008110033",
    "immutableReferences": {},
    "source": "// SPDX-License-Identifier: AGPL-3.0-or-later\npragma solidity 0.8.17;\n\nimport \"@openzeppelin/contracts-upgradeable/security/PausableUpgradeable.sol\";\nimport \"@openzeppelin/contracts-upgradeable/access/AccessControlUpgradeable.sol\";\nimport \"@openzeppelin/contracts-upgradeable/security/ReentrancyGuardUpgradeable.sol\";\n\nimport \"../interfaces/IBookKeeper.sol\";\nimport \"../interfaces/ICagable.sol\";\nimport \"../interfaces/ICollateralPoolConfig.sol\";\nimport \"../interfaces/IAccessControlConfig.sol\";\n\n/// @notice A contract which acts as a book keeper of the Fathom Stablecoin protocol. It has the ability to move collateral token and stablecoin with in the accounting state variable.\ncontract BookKeeper is IBookKeeper, PausableUpgradeable, ReentrancyGuardUpgradeable, ICagable {\n    modifier onlyOwner() {\n        IAccessControlConfig _accessControlConfig = IAccessControlConfig(accessControlConfig);\n        require(_accessControlConfig.hasRole(_accessControlConfig.OWNER_ROLE(), msg.sender), \"!ownerRole\");\n        _;\n    }\n\n    modifier onlyOwnerOrGov() {\n        IAccessControlConfig _accessControlConfig = IAccessControlConfig(accessControlConfig);\n        require(\n            _accessControlConfig.hasRole(_accessControlConfig.OWNER_ROLE(), msg.sender) ||\n                _accessControlConfig.hasRole(_accessControlConfig.GOV_ROLE(), msg.sender),\n            \"!(ownerRole or govRole)\"\n        );\n        _;\n    }\n\n    modifier onlyOwnerOrShowStopper() {\n        IAccessControlConfig _accessControlConfig = IAccessControlConfig(accessControlConfig);\n        require(\n            _accessControlConfig.hasRole(_accessControlConfig.OWNER_ROLE(), msg.sender) ||\n                _accessControlConfig.hasRole(_accessControlConfig.SHOW_STOPPER_ROLE(), msg.sender),\n            \"!(ownerRole or showStopperRole)\"\n        );\n        _;\n    }\n\n    modifier onlyPositionManager() {\n        IAccessControlConfig _accessControlConfig = IAccessControlConfig(accessControlConfig);\n        require(_accessControlConfig.hasRole(_accessControlConfig.POSITION_MANAGER_ROLE(), msg.sender), \"!positionManagerRole\");\n        _;\n    }\n\n    modifier onlyCollateralManager() {\n        IAccessControlConfig _accessControlConfig = IAccessControlConfig(accessControlConfig);\n        require(_accessControlConfig.hasRole(_accessControlConfig.COLLATERAL_MANAGER_ROLE(), msg.sender), \"!collateralManagerRole\");\n        _;\n    }\n\n    modifier onlyLiquidationEngine() {\n        IAccessControlConfig _accessControlConfig = IAccessControlConfig(accessControlConfig);\n        require(_accessControlConfig.hasRole(_accessControlConfig.LIQUIDATION_ENGINE_ROLE(), msg.sender), \"!liquidationEngineRole\");\n        _;\n    }\n\n    modifier onlyMintable() {\n        IAccessControlConfig _accessControlConfig = IAccessControlConfig(accessControlConfig);\n        require(_accessControlConfig.hasRole(_accessControlConfig.MINTABLE_ROLE(), msg.sender), \"!mintableRole\");\n        _;\n    }\n\n    modifier onlyAdapter() {\n        IAccessControlConfig _accessControlConfig = IAccessControlConfig(accessControlConfig);\n        require(_accessControlConfig.hasRole(_accessControlConfig.ADAPTER_ROLE(), msg.sender), \"!adapterRole\");\n        _;\n    }\n\n    modifier onlyStabilityFeeCollector() {\n        IAccessControlConfig _accessControlConfig = IAccessControlConfig(accessControlConfig);\n        require(_accessControlConfig.hasRole(_accessControlConfig.STABILITY_FEE_COLLECTOR_ROLE(), msg.sender), \"!stabilityFeeCollectorRole\");\n        _;\n    }\n\n    /// @dev access: OWNER_ROLE, GOV_ROLE\n    function pause() external onlyOwnerOrGov {\n        _pause();\n    }\n\n    /// @dev access: OWNER_ROLE, GOV_ROLE\n    function unpause() external onlyOwnerOrGov {\n        _unpause();\n    }\n\n    /// @dev This is the mapping which stores the consent or allowance to adjust positions by the position addresses.\n    /// @dev The position address -> The allowance delegate address -> true (1) means allowed or false (0) means not allowed\n    mapping(address => mapping(address => uint256)) public override positionWhitelist;\n\n    /// @dev Give an allowance to the `usr` address to adjust the position address who is the caller.\n    function whitelist(address toBeWhitelistedAddress) external override whenNotPaused {\n        positionWhitelist[msg.sender][toBeWhitelistedAddress] = 1;\n    }\n\n    /// @dev Revoke an allowance from the `usr` address to adjust the position address who is the caller.\n    function blacklist(address toBeBlacklistedAddress) external override whenNotPaused {\n        positionWhitelist[msg.sender][toBeBlacklistedAddress] = 0;\n    }\n\n    /// @dev Check if the `usr` address is allowed to adjust the position address (`bit`).\n    /// @param bit The position address\n    /// @param usr The address to be checked for permission\n    function wish(address bit, address usr) internal view returns (bool) {\n        return either(bit == usr, positionWhitelist[bit][usr] == 1);\n    }\n\n    struct Position {\n        uint256 lockedCollateral; // Locked collateral inside this position (used for minting)                  [wad]\n        uint256 debtShare; // The debt share of this position or the share amount of minted Fathom Stablecoin   [wad]\n    }\n\n    mapping(bytes32 => mapping(address => Position)) public override positions; // mapping of all positions by collateral pool id and position address\n    mapping(bytes32 => mapping(address => uint256)) public override collateralToken; // the accounting of collateral token which is deposited into the protocol [wad]\n    mapping(address => uint256) public override stablecoin; // the accounting of the stablecoin that is deposited or has not been withdrawn from the protocol [rad]\n    mapping(address => uint256) public override systemBadDebt; // the bad debt of the system from late liquidation [rad]\n    mapping(bytes32 => uint256) public override poolStablecoinIssued; // the accounting of the stablecoin issued per collateralPool [rad];\n\n    uint256 public override totalStablecoinIssued; // Total stable coin issued or total stalbecoin in circulation   [rad]\n    uint256 public totalUnbackedStablecoin; // Total unbacked stable coin  [rad]\n    uint256 public totalDebtCeiling; // Total debt ceiling  [rad]\n    uint256 public live; // Active Flag\n    address public override collateralPoolConfig;\n    address public override accessControlConfig;\n\n    function initialize(address _collateralPoolConfig, address _accessControlConfig) external initializer {\n        PausableUpgradeable.__Pausable_init();\n        ReentrancyGuardUpgradeable.__ReentrancyGuard_init();\n\n        collateralPoolConfig = _collateralPoolConfig;\n        accessControlConfig = _accessControlConfig;\n        live = 1;\n    }\n\n    function add(uint256 x, int256 y) internal pure returns (uint256 z) {\n        unchecked {\n            z = x + uint256(y);\n        }\n        require(y >= 0 || z <= x);\n        require(y <= 0 || z >= x);\n    }\n\n    function sub(uint256 x, int256 y) internal pure returns (uint256 z) {\n        unchecked {\n            z = x - uint256(y);\n        }\n        require(y <= 0 || z <= x);\n        require(y >= 0 || z >= x);\n    }\n\n    function mul(uint256 x, int256 y) internal pure returns (int256 z) {\n        unchecked {\n            z = int256(x) * y;\n        }\n        require(int256(x) >= 0);\n        require(y == 0 || z / y == int256(x));\n    }\n\n    function add(uint256 x, uint256 y) internal pure returns (uint256 z) {\n        z = x + y;\n    }\n\n    function sub(uint256 x, uint256 y) internal pure returns (uint256 z) {\n        z = x - y;\n    }\n\n    function mul(uint256 x, uint256 y) internal pure returns (uint256 z) {\n        z = x * y;\n    }\n\n    // --- Administration ---\n    event LogSetTotalDebtCeiling(address indexed _caller, uint256 _totalDebtCeiling);\n    event LogSetAccessControlConfig(address indexed _caller, address _accessControlConfig);\n    event LogSetCollateralPoolConfig(address indexed _caller, address _collateralPoolConfig);\n    event LogAdjustPosition(\n        address indexed _caller,\n        bytes32 _collateralPoolId,\n        address _positionAddress,\n        uint256 _lockedCollateral,\n        uint256 _debtShare,\n        uint256 _positionDebtValue,\n        int256 _addCollateral,\n        int256 _addDebtShare\n    );\n    event LogAddCollateral(address indexed _caller, address _usr, int256 _amount);\n    event LogMoveCollateral(address indexed _caller, bytes32 _collateralPoolId, address _src, address _dst, uint256 _amount);\n\n    event stablecoinIssuedAmount(uint256 _totalStablecoinIssued, bytes32 _collateralPoolId, uint256 _poolStablecoinIssued);\n\n    function setTotalDebtCeiling(uint256 _totalDebtCeiling) external onlyOwner {\n        require(live == 1, \"BookKeeper/not-live\");\n        totalDebtCeiling = _totalDebtCeiling;\n        emit LogSetTotalDebtCeiling(msg.sender, _totalDebtCeiling);\n    }\n\n    function setAccessControlConfig(address _accessControlConfig) external onlyOwner {\n        IAccessControlConfig(_accessControlConfig).hasRole(IAccessControlConfig(_accessControlConfig).OWNER_ROLE(), msg.sender); // Sanity Check Call\n        accessControlConfig = _accessControlConfig;\n\n        emit LogSetAccessControlConfig(msg.sender, _accessControlConfig);\n    }\n\n    function setCollateralPoolConfig(address _collateralPoolConfig) external onlyOwner {\n        collateralPoolConfig = _collateralPoolConfig;\n        emit LogSetCollateralPoolConfig(msg.sender, _collateralPoolConfig);\n    }\n\n    function cage() external override onlyOwnerOrShowStopper {\n        require(live == 1, \"BookKeeper/not-live\");\n        live = 0;\n\n        emit LogCage();\n    }\n\n    function uncage() external override onlyOwnerOrShowStopper {\n        require(live == 0, \"BookKeeper/not-caged\");\n        live = 1;\n\n        emit LogUncage();\n    }\n\n    function addCollateral(bytes32 _collateralPoolId, address _usr, int256 _amount) external override nonReentrant whenNotPaused onlyAdapter {\n        collateralToken[_collateralPoolId][_usr] = add(collateralToken[_collateralPoolId][_usr], _amount);\n        emit LogAddCollateral(msg.sender, _usr, _amount);\n    }\n\n    function moveCollateral(\n        bytes32 _collateralPoolId,\n        address _src,\n        address _dst,\n        uint256 _amount\n    ) external override nonReentrant whenNotPaused onlyCollateralManager {\n        require(wish(_src, msg.sender), \"BookKeeper/moveCollateral/not-allowed\");\n        collateralToken[_collateralPoolId][_src] = sub(collateralToken[_collateralPoolId][_src], _amount);\n        collateralToken[_collateralPoolId][_dst] = add(collateralToken[_collateralPoolId][_dst], _amount);\n        emit LogMoveCollateral(msg.sender, _collateralPoolId, _src, _dst, _amount);\n    }\n\n    function moveStablecoin(address _src, address _dst, uint256 _value) external override nonReentrant whenNotPaused {\n        require(wish(_src, msg.sender), \"BookKeeper/not-allowed\");\n        stablecoin[_src] = sub(stablecoin[_src], _value);\n        stablecoin[_dst] = add(stablecoin[_dst], _value);\n    }\n\n    function either(bool _x, bool _y) internal pure returns (bool _z) {\n        assembly {\n            _z := or(_x, _y)\n        }\n    }\n\n    function both(bool _x, bool _y) internal pure returns (bool _z) {\n        assembly {\n            _z := and(_x, _y)\n        }\n    }\n\n    function adjustPosition(\n        bytes32 _collateralPoolId,\n        address _positionAddress,\n        address _collateralOwner,\n        address _stablecoinOwner,\n        int256 _collateralValue,\n        int256 _debtShare\n    ) external override nonReentrant whenNotPaused onlyPositionManager {\n        require(live == 1, \"BookKeeper/not-live\");\n\n        Position memory position = positions[_collateralPoolId][_positionAddress];\n        ICollateralPoolConfig.CollateralPoolInfo memory _vars = ICollateralPoolConfig(collateralPoolConfig).getCollateralPoolInfo(_collateralPoolId);\n\n        require(_vars.debtAccumulatedRate != 0, \"BookKeeper/collateralPool-not-init\");\n        position.lockedCollateral = add(position.lockedCollateral, _collateralValue);\n        position.debtShare = add(position.debtShare, _debtShare);\n        _vars.totalDebtShare = add(_vars.totalDebtShare, _debtShare);\n        ICollateralPoolConfig(collateralPoolConfig).setTotalDebtShare(_collateralPoolId, _vars.totalDebtShare);\n\n        int256 _debtValue = mul(_vars.debtAccumulatedRate, _debtShare);\n        uint256 _positionDebtValue = mul(_vars.debtAccumulatedRate, position.debtShare);\n        totalStablecoinIssued = add(totalStablecoinIssued, _debtValue);\n        uint256 _poolStablecoinAmount = poolStablecoinIssued[_collateralPoolId];\n        poolStablecoinIssued[_collateralPoolId] = add(_poolStablecoinAmount, _debtValue);\n        _poolStablecoinAmount = poolStablecoinIssued[_collateralPoolId];\n        require(\n            either(\n                _debtShare <= 0,\n                both(mul(_vars.totalDebtShare, _vars.debtAccumulatedRate) <= _vars.debtCeiling, totalStablecoinIssued <= totalDebtCeiling)\n            ),\n            \"BookKeeper/ceiling-exceeded\"\n        );\n        //debugging 2022 Dec 30th Friday\n        //priceWithSafetyMargin is more than 0\n        require(\n            either(both(_debtShare <= 0, _collateralValue >= 0), _positionDebtValue <= mul(position.lockedCollateral, _vars.priceWithSafetyMargin)),\n            \"BookKeeper/not-safe\"\n        );\n\n        require(either(both(_debtShare <= 0, _collateralValue >= 0), wish(_positionAddress, msg.sender)), \"BookKeeper/not-allowed-position-address\");\n        require(either(_collateralValue <= 0, wish(_collateralOwner, msg.sender)), \"BookKeeper/not-allowed-collateral-owner\");\n        require(either(_debtShare >= 0, wish(_stablecoinOwner, msg.sender)), \"BookKeeper/not-allowed-stablecoin-owner\");\n\n        require(either(position.debtShare == 0, _positionDebtValue >= _vars.debtFloor), \"BookKeeper/debt-floor\");\n        collateralToken[_collateralPoolId][_collateralOwner] = sub(collateralToken[_collateralPoolId][_collateralOwner], _collateralValue);\n        stablecoin[_stablecoinOwner] = add(stablecoin[_stablecoinOwner], _debtValue);\n\n        positions[_collateralPoolId][_positionAddress] = position;\n\n        emit LogAdjustPosition(\n            msg.sender,\n            _collateralPoolId,\n            _positionAddress,\n            position.lockedCollateral,\n            position.debtShare,\n            _positionDebtValue,\n            _collateralValue,\n            _debtShare\n        );\n        emit stablecoinIssuedAmount(\n            totalStablecoinIssued,\n            _collateralPoolId,\n            _poolStablecoinAmount // [rad]\n        );\n    }\n\n    function movePosition(\n        bytes32 _collateralPoolId,\n        address _src,\n        address _dst,\n        int256 _collateralAmount,\n        int256 _debtShare\n    ) external override nonReentrant whenNotPaused onlyPositionManager {\n        Position storage _positionSrc = positions[_collateralPoolId][_src];\n        Position storage _positionDst = positions[_collateralPoolId][_dst];\n\n        ICollateralPoolConfig.CollateralPoolInfo memory _vars = ICollateralPoolConfig(collateralPoolConfig).getCollateralPoolInfo(_collateralPoolId);\n\n        _positionSrc.lockedCollateral = sub(_positionSrc.lockedCollateral, _collateralAmount);\n        _positionSrc.debtShare = sub(_positionSrc.debtShare, _debtShare);\n        _positionDst.lockedCollateral = add(_positionDst.lockedCollateral, _collateralAmount);\n        _positionDst.debtShare = add(_positionDst.debtShare, _debtShare);\n\n        uint256 _utab = mul(_positionSrc.debtShare, _vars.debtAccumulatedRate);\n        uint256 _vtab = mul(_positionDst.debtShare, _vars.debtAccumulatedRate);\n\n        require(both(wish(_src, msg.sender), wish(_dst, msg.sender)), \"BookKeeper/movePosition/not-allowed\");\n\n        require(_utab <= mul(_positionSrc.lockedCollateral, _vars.priceWithSafetyMargin), \"BookKeeper/not-safe-src\");\n        require(_vtab <= mul(_positionDst.lockedCollateral, _vars.priceWithSafetyMargin), \"BookKeeper/not-safe-dst\");\n\n        require(either(_utab >= _vars.debtFloor, _positionSrc.debtShare == 0), \"BookKeeper/debt-floor-src\");\n        require(either(_vtab >= _vars.debtFloor, _positionDst.debtShare == 0), \"BookKeeper/debt-floor-dst\");\n    }\n\n    /** @dev Confiscate position from the owner for the position to be liquidated.\n      The position will be confiscated of collateral in which these collateral will be sold through a liquidation process to repay the stablecoin debt.\n      The confiscated collateral will be seized by the Auctioneer contracts and will be moved to the corresponding liquidator addresses upon later.\n      The stablecoin debt will be mark up on the SystemDebtEngine contract first. This would signify that the system currently has a bad debt of this amount. \n      But it will be cleared later on from a successful liquidation. If this debt is not fully liquidated, the remaining debt will stay inside SystemDebtEngine as bad debt.\n    */\n    function confiscatePosition(\n        bytes32 _collateralPoolId,\n        address _positionAddress,\n        address _collateralCreditor,\n        address _stablecoinDebtor,\n        int256 _collateralAmount,\n        int256 _debtShare\n    ) external override nonReentrant whenNotPaused onlyLiquidationEngine {\n        Position storage position = positions[_collateralPoolId][_positionAddress];\n        ICollateralPoolConfig.CollateralPoolInfo memory _vars = ICollateralPoolConfig(collateralPoolConfig).getCollateralPoolInfo(_collateralPoolId);\n\n        position.lockedCollateral = add(position.lockedCollateral, _collateralAmount);\n        position.debtShare = add(position.debtShare, _debtShare);\n        _vars.totalDebtShare = add(_vars.totalDebtShare, _debtShare);\n        ICollateralPoolConfig(collateralPoolConfig).setTotalDebtShare(_collateralPoolId, _vars.totalDebtShare);\n\n        int256 _debtValue = mul(_vars.debtAccumulatedRate, _debtShare);\n\n        collateralToken[_collateralPoolId][_collateralCreditor] = sub(collateralToken[_collateralPoolId][_collateralCreditor], _collateralAmount);\n        systemBadDebt[_stablecoinDebtor] = sub(systemBadDebt[_stablecoinDebtor], _debtValue);\n        totalUnbackedStablecoin = sub(totalUnbackedStablecoin, _debtValue);\n    }\n\n    /** @dev Settle the system bad debt of the caller.\n      This function will always be called by the SystemDebtEngine which will be the contract that always incur the system debt.\n      By executing this function, the SystemDebtEngine must have enough stablecoin which will come from the Surplus of the protocol.\n      A successful `settleSystemBadDebt` would remove the bad debt from the system.\n    */\n    function settleSystemBadDebt(uint256 _value) external override nonReentrant whenNotPaused {\n        systemBadDebt[msg.sender] = sub(systemBadDebt[msg.sender], _value);\n        stablecoin[msg.sender] = sub(stablecoin[msg.sender], _value);\n        totalUnbackedStablecoin = sub(totalUnbackedStablecoin, _value);\n        totalStablecoinIssued = sub(totalStablecoinIssued, _value);\n    }\n\n    function mintUnbackedStablecoin(address _from, address _to, uint256 _value) external override nonReentrant whenNotPaused onlyMintable {\n        systemBadDebt[_from] = add(systemBadDebt[_from], _value);\n        stablecoin[_to] = add(stablecoin[_to], _value);\n        totalUnbackedStablecoin = add(totalUnbackedStablecoin, _value);\n        totalStablecoinIssued = add(totalStablecoinIssued, _value);\n    }\n\n    /** @dev Accrue stability fee or the mint interest rate.\n      This function will always be called only by the StabilityFeeCollector contract.\n      `debtAccumulatedRate` of a collateral pool is the exchange rate of the stablecoin minted from that pool (think of it like ibToken price from Lending Vault).\n      The higher the `debtAccumulatedRate` means the minter of the stablecoin will beed to pay back the debt with higher amount.\n      The point of Stability Fee is to collect a surplus amount from minters and this is technically done by incrementing the `debtAccumulatedRate` overtime.\n    */\n    function accrueStabilityFee(\n        bytes32 _collateralPoolId,\n        address _stabilityFeeRecipient,\n        int256 _debtAccumulatedRate\n    ) external override nonReentrant whenNotPaused onlyStabilityFeeCollector {\n        require(live == 1, \"BookKeeper/not-live\");\n        ICollateralPoolConfig.CollateralPoolInfo memory _vars = ICollateralPoolConfig(collateralPoolConfig).getCollateralPoolInfo(_collateralPoolId);\n\n        _vars.debtAccumulatedRate = add(_vars.debtAccumulatedRate, _debtAccumulatedRate);\n        ICollateralPoolConfig(collateralPoolConfig).setDebtAccumulatedRate(_collateralPoolId, _vars.debtAccumulatedRate);\n        int256 _value = mul(_vars.totalDebtShare, _debtAccumulatedRate); // [rad]\n        stablecoin[_stabilityFeeRecipient] = add(stablecoin[_stabilityFeeRecipient], _value);\n        totalStablecoinIssued = add(totalStablecoinIssued, _value);\n    }\n}\n",
    "sourcePath": "/Users/tarun.sharma/Tarun/Projects/stablecoin/fathom-stablecoin-smartcontract/fathom-stablecoin-smart-contracts/contracts/main/stablecoin-core/BookKeeper.sol",
    "compiler": {
        "name": "solc",
        "version": "0.8.17+commit.8df45f5f.Emscripten.clang"
    },
    "schemaVersion": "3.4.10",
    "updatedAt": "2023-01-26T07:54:25.341Z",
    "devdoc": {
        "kind": "dev",
        "methods": {
            "accrueStabilityFee(bytes32,address,int256)": {
                "details": "Accrue stability fee or the mint interest rate. This function will always be called only by the StabilityFeeCollector contract. `debtAccumulatedRate` of a collateral pool is the exchange rate of the stablecoin minted from that pool (think of it like ibToken price from Lending Vault). The higher the `debtAccumulatedRate` means the minter of the stablecoin will beed to pay back the debt with higher amount. The point of Stability Fee is to collect a surplus amount from minters and this is technically done by incrementing the `debtAccumulatedRate` overtime."
            },
            "blacklist(address)": {
                "details": "Revoke an allowance from the `usr` address to adjust the position address who is the caller."
            },
            "confiscatePosition(bytes32,address,address,address,int256,int256)": {
                "details": "Confiscate position from the owner for the position to be liquidated. The position will be confiscated of collateral in which these collateral will be sold through a liquidation process to repay the stablecoin debt. The confiscated collateral will be seized by the Auctioneer contracts and will be moved to the corresponding liquidator addresses upon later. The stablecoin debt will be mark up on the SystemDebtEngine contract first. This would signify that the system currently has a bad debt of this amount.  But it will be cleared later on from a successful liquidation. If this debt is not fully liquidated, the remaining debt will stay inside SystemDebtEngine as bad debt."
            },
            "pause()": {
                "details": "access: OWNER_ROLE, GOV_ROLE"
            },
            "paused()": {
                "details": "Returns true if the contract is paused, and false otherwise."
            },
            "settleSystemBadDebt(uint256)": {
                "details": "Settle the system bad debt of the caller. This function will always be called by the SystemDebtEngine which will be the contract that always incur the system debt. By executing this function, the SystemDebtEngine must have enough stablecoin which will come from the Surplus of the protocol. A successful `settleSystemBadDebt` would remove the bad debt from the system."
            },
            "unpause()": {
                "details": "access: OWNER_ROLE, GOV_ROLE"
            },
            "whitelist(address)": {
                "details": "Give an allowance to the `usr` address to adjust the position address who is the caller."
            }
        },
        "stateVariables": {
            "positionWhitelist": {
                "details": "This is the mapping which stores the consent or allowance to adjust positions by the position addresses.The position address -> The allowance delegate address -> true (1) means allowed or false (0) means not allowed"
            }
        },
        "version": 1
    },
    "userdoc": {
        "kind": "user",
        "methods": {},
        "notice": "A contract which acts as a book keeper of the Fathom Stablecoin protocol. It has the ability to move collateral token and stablecoin with in the accounting state variable.",
        "version": 1
    }
}