{
    "contractName": "BookKeeper",
    "abi": [
        {
            "anonymous": false,
            "inputs": [
                {
                    "indexed": false,
                    "internalType": "uint8",
                    "name": "version",
                    "type": "uint8"
                }
            ],
            "name": "Initialized",
            "type": "event"
        },
        {
            "anonymous": false,
            "inputs": [
                {
                    "indexed": true,
                    "internalType": "address",
                    "name": "_caller",
                    "type": "address"
                },
                {
                    "indexed": true,
                    "internalType": "address",
                    "name": "_usr",
                    "type": "address"
                },
                {
                    "indexed": false,
                    "internalType": "int256",
                    "name": "_amount",
                    "type": "int256"
                }
            ],
            "name": "LogAddCollateral",
            "type": "event"
        },
        {
            "anonymous": false,
            "inputs": [
                {
                    "indexed": true,
                    "internalType": "address",
                    "name": "_caller",
                    "type": "address"
                },
                {
                    "indexed": true,
                    "internalType": "bytes32",
                    "name": "_collateralPoolId",
                    "type": "bytes32"
                },
                {
                    "indexed": true,
                    "internalType": "address",
                    "name": "_positionAddress",
                    "type": "address"
                },
                {
                    "indexed": false,
                    "internalType": "uint256",
                    "name": "_lockedCollateral",
                    "type": "uint256"
                },
                {
                    "indexed": false,
                    "internalType": "uint256",
                    "name": "_debtShare",
                    "type": "uint256"
                },
                {
                    "indexed": false,
                    "internalType": "uint256",
                    "name": "_positionDebtValue",
                    "type": "uint256"
                },
                {
                    "indexed": false,
                    "internalType": "int256",
                    "name": "_addCollateral",
                    "type": "int256"
                },
                {
                    "indexed": false,
                    "internalType": "int256",
                    "name": "_addDebtShare",
                    "type": "int256"
                }
            ],
            "name": "LogAdjustPosition",
            "type": "event"
        },
        {
            "anonymous": false,
            "inputs": [],
            "name": "LogCage",
            "type": "event"
        },
        {
            "anonymous": false,
            "inputs": [
                {
                    "indexed": true,
                    "internalType": "address",
                    "name": "_caller",
                    "type": "address"
                },
                {
                    "indexed": true,
                    "internalType": "bytes32",
                    "name": "_collateralPoolId",
                    "type": "bytes32"
                },
                {
                    "indexed": false,
                    "internalType": "address",
                    "name": "_src",
                    "type": "address"
                },
                {
                    "indexed": true,
                    "internalType": "address",
                    "name": "_dst",
                    "type": "address"
                },
                {
                    "indexed": false,
                    "internalType": "uint256",
                    "name": "_amount",
                    "type": "uint256"
                }
            ],
            "name": "LogMoveCollateral",
            "type": "event"
        },
        {
            "anonymous": false,
            "inputs": [
                {
                    "indexed": true,
                    "internalType": "address",
                    "name": "_caller",
                    "type": "address"
                },
                {
                    "indexed": false,
                    "internalType": "address",
                    "name": "_src",
                    "type": "address"
                },
                {
                    "indexed": true,
                    "internalType": "address",
                    "name": "_dst",
                    "type": "address"
                },
                {
                    "indexed": false,
                    "internalType": "uint256",
                    "name": "_amount",
                    "type": "uint256"
                }
            ],
            "name": "LogMoveStablecoin",
            "type": "event"
        },
        {
            "anonymous": false,
            "inputs": [
                {
                    "indexed": true,
                    "internalType": "address",
                    "name": "_caller",
                    "type": "address"
                },
                {
                    "indexed": false,
                    "internalType": "address",
                    "name": "_accessControlConfig",
                    "type": "address"
                }
            ],
            "name": "LogSetAccessControlConfig",
            "type": "event"
        },
        {
            "anonymous": false,
            "inputs": [
                {
                    "indexed": true,
                    "internalType": "address",
                    "name": "_caller",
                    "type": "address"
                },
                {
                    "indexed": false,
                    "internalType": "address",
                    "name": "_collateralPoolConfig",
                    "type": "address"
                }
            ],
            "name": "LogSetCollateralPoolConfig",
            "type": "event"
        },
        {
            "anonymous": false,
            "inputs": [
                {
                    "indexed": true,
                    "internalType": "address",
                    "name": "_caller",
                    "type": "address"
                },
                {
                    "indexed": false,
                    "internalType": "uint256",
                    "name": "_totalDebtCeiling",
                    "type": "uint256"
                }
            ],
            "name": "LogSetTotalDebtCeiling",
            "type": "event"
        },
        {
            "anonymous": false,
            "inputs": [
                {
                    "indexed": false,
                    "internalType": "address",
                    "name": "account",
                    "type": "address"
                }
            ],
            "name": "Paused",
            "type": "event"
        },
        {
            "anonymous": false,
            "inputs": [
                {
                    "indexed": false,
                    "internalType": "uint256",
                    "name": "_totalStablecoinIssued",
                    "type": "uint256"
                },
                {
                    "indexed": true,
                    "internalType": "bytes32",
                    "name": "_collateralPoolId",
                    "type": "bytes32"
                },
                {
                    "indexed": false,
                    "internalType": "uint256",
                    "name": "_poolStablecoinIssued",
                    "type": "uint256"
                }
            ],
            "name": "StablecoinIssuedAmount",
            "type": "event"
        },
        {
            "anonymous": false,
            "inputs": [
                {
                    "indexed": false,
                    "internalType": "address",
                    "name": "account",
                    "type": "address"
                }
            ],
            "name": "Unpaused",
            "type": "event"
        },
        {
            "inputs": [],
            "name": "accessControlConfig",
            "outputs": [
                {
                    "internalType": "address",
                    "name": "",
                    "type": "address"
                }
            ],
            "stateMutability": "view",
            "type": "function"
        },
        {
            "inputs": [],
            "name": "collateralPoolConfig",
            "outputs": [
                {
                    "internalType": "address",
                    "name": "",
                    "type": "address"
                }
            ],
            "stateMutability": "view",
            "type": "function"
        },
        {
            "inputs": [
                {
                    "internalType": "bytes32",
                    "name": "",
                    "type": "bytes32"
                },
                {
                    "internalType": "address",
                    "name": "",
                    "type": "address"
                }
            ],
            "name": "collateralToken",
            "outputs": [
                {
                    "internalType": "uint256",
                    "name": "",
                    "type": "uint256"
                }
            ],
            "stateMutability": "view",
            "type": "function"
        },
        {
            "inputs": [],
            "name": "live",
            "outputs": [
                {
                    "internalType": "uint256",
                    "name": "",
                    "type": "uint256"
                }
            ],
            "stateMutability": "view",
            "type": "function"
        },
        {
            "inputs": [],
            "name": "paused",
            "outputs": [
                {
                    "internalType": "bool",
                    "name": "",
                    "type": "bool"
                }
            ],
            "stateMutability": "view",
            "type": "function"
        },
        {
            "inputs": [
                {
                    "internalType": "bytes32",
                    "name": "",
                    "type": "bytes32"
                }
            ],
            "name": "poolStablecoinIssued",
            "outputs": [
                {
                    "internalType": "uint256",
                    "name": "",
                    "type": "uint256"
                }
            ],
            "stateMutability": "view",
            "type": "function"
        },
        {
            "inputs": [
                {
                    "internalType": "address",
                    "name": "",
                    "type": "address"
                },
                {
                    "internalType": "address",
                    "name": "",
                    "type": "address"
                }
            ],
            "name": "positionWhitelist",
            "outputs": [
                {
                    "internalType": "uint256",
                    "name": "",
                    "type": "uint256"
                }
            ],
            "stateMutability": "view",
            "type": "function"
        },
        {
            "inputs": [
                {
                    "internalType": "bytes32",
                    "name": "",
                    "type": "bytes32"
                },
                {
                    "internalType": "address",
                    "name": "",
                    "type": "address"
                }
            ],
            "name": "positions",
            "outputs": [
                {
                    "internalType": "uint256",
                    "name": "lockedCollateral",
                    "type": "uint256"
                },
                {
                    "internalType": "uint256",
                    "name": "debtShare",
                    "type": "uint256"
                }
            ],
            "stateMutability": "view",
            "type": "function"
        },
        {
            "inputs": [
                {
                    "internalType": "address",
                    "name": "",
                    "type": "address"
                }
            ],
            "name": "stablecoin",
            "outputs": [
                {
                    "internalType": "uint256",
                    "name": "",
                    "type": "uint256"
                }
            ],
            "stateMutability": "view",
            "type": "function"
        },
        {
            "inputs": [
                {
                    "internalType": "address",
                    "name": "",
                    "type": "address"
                }
            ],
            "name": "systemBadDebt",
            "outputs": [
                {
                    "internalType": "uint256",
                    "name": "",
                    "type": "uint256"
                }
            ],
            "stateMutability": "view",
            "type": "function"
        },
        {
            "inputs": [],
            "name": "totalDebtCeiling",
            "outputs": [
                {
                    "internalType": "uint256",
                    "name": "",
                    "type": "uint256"
                }
            ],
            "stateMutability": "view",
            "type": "function"
        },
        {
            "inputs": [],
            "name": "totalStablecoinIssued",
            "outputs": [
                {
                    "internalType": "uint256",
                    "name": "",
                    "type": "uint256"
                }
            ],
            "stateMutability": "view",
            "type": "function"
        },
        {
            "inputs": [],
            "name": "totalUnbackedStablecoin",
            "outputs": [
                {
                    "internalType": "uint256",
                    "name": "",
                    "type": "uint256"
                }
            ],
            "stateMutability": "view",
            "type": "function"
        },
        {
            "inputs": [
                {
                    "internalType": "address",
                    "name": "_collateralPoolConfig",
                    "type": "address"
                },
                {
                    "internalType": "address",
                    "name": "_accessControlConfig",
                    "type": "address"
                }
            ],
            "name": "initialize",
            "outputs": [],
            "stateMutability": "nonpayable",
            "type": "function"
        },
        {
            "inputs": [
                {
                    "internalType": "uint256",
                    "name": "_totalDebtCeiling",
                    "type": "uint256"
                }
            ],
            "name": "setTotalDebtCeiling",
            "outputs": [],
            "stateMutability": "nonpayable",
            "type": "function"
        },
        {
            "inputs": [
                {
                    "internalType": "address",
                    "name": "_accessControlConfig",
                    "type": "address"
                }
            ],
            "name": "setAccessControlConfig",
            "outputs": [],
            "stateMutability": "nonpayable",
            "type": "function"
        },
        {
            "inputs": [
                {
                    "internalType": "address",
                    "name": "_collateralPoolConfig",
                    "type": "address"
                }
            ],
            "name": "setCollateralPoolConfig",
            "outputs": [],
            "stateMutability": "nonpayable",
            "type": "function"
        },
        {
            "inputs": [],
            "name": "cage",
            "outputs": [],
            "stateMutability": "nonpayable",
            "type": "function"
        },
        {
            "inputs": [],
            "name": "pause",
            "outputs": [],
            "stateMutability": "nonpayable",
            "type": "function"
        },
        {
            "inputs": [],
            "name": "unpause",
            "outputs": [],
            "stateMutability": "nonpayable",
            "type": "function"
        },
        {
            "inputs": [
                {
                    "internalType": "address",
                    "name": "toBeWhitelistedAddress",
                    "type": "address"
                }
            ],
            "name": "whitelist",
            "outputs": [],
            "stateMutability": "nonpayable",
            "type": "function"
        },
        {
            "inputs": [
                {
                    "internalType": "address",
                    "name": "toBeBlacklistedAddress",
                    "type": "address"
                }
            ],
            "name": "blacklist",
            "outputs": [],
            "stateMutability": "nonpayable",
            "type": "function"
        },
        {
            "inputs": [
                {
                    "internalType": "bytes32",
                    "name": "_collateralPoolId",
                    "type": "bytes32"
                },
                {
                    "internalType": "address",
                    "name": "_usr",
                    "type": "address"
                },
                {
                    "internalType": "int256",
                    "name": "_amount",
                    "type": "int256"
                }
            ],
            "name": "addCollateral",
            "outputs": [],
            "stateMutability": "nonpayable",
            "type": "function"
        },
        {
            "inputs": [
                {
                    "internalType": "bytes32",
                    "name": "_collateralPoolId",
                    "type": "bytes32"
                },
                {
                    "internalType": "address",
                    "name": "_src",
                    "type": "address"
                },
                {
                    "internalType": "address",
                    "name": "_dst",
                    "type": "address"
                },
                {
                    "internalType": "uint256",
                    "name": "_amount",
                    "type": "uint256"
                }
            ],
            "name": "moveCollateral",
            "outputs": [],
            "stateMutability": "nonpayable",
            "type": "function"
        },
        {
            "inputs": [
                {
                    "internalType": "address",
                    "name": "_src",
                    "type": "address"
                },
                {
                    "internalType": "address",
                    "name": "_dst",
                    "type": "address"
                },
                {
                    "internalType": "uint256",
                    "name": "_value",
                    "type": "uint256"
                }
            ],
            "name": "moveStablecoin",
            "outputs": [],
            "stateMutability": "nonpayable",
            "type": "function"
        },
        {
            "inputs": [
                {
                    "internalType": "bytes32",
                    "name": "_collateralPoolId",
                    "type": "bytes32"
                },
                {
                    "internalType": "address",
                    "name": "_positionAddress",
                    "type": "address"
                },
                {
                    "internalType": "address",
                    "name": "_collateralOwner",
                    "type": "address"
                },
                {
                    "internalType": "address",
                    "name": "_stablecoinOwner",
                    "type": "address"
                },
                {
                    "internalType": "int256",
                    "name": "_collateralValue",
                    "type": "int256"
                },
                {
                    "internalType": "int256",
                    "name": "_debtShare",
                    "type": "int256"
                }
            ],
            "name": "adjustPosition",
            "outputs": [],
            "stateMutability": "nonpayable",
            "type": "function"
        },
        {
            "inputs": [
                {
                    "internalType": "bytes32",
                    "name": "_collateralPoolId",
                    "type": "bytes32"
                },
                {
                    "internalType": "address",
                    "name": "_src",
                    "type": "address"
                },
                {
                    "internalType": "address",
                    "name": "_dst",
                    "type": "address"
                },
                {
                    "internalType": "int256",
                    "name": "_collateralAmount",
                    "type": "int256"
                },
                {
                    "internalType": "int256",
                    "name": "_debtShare",
                    "type": "int256"
                }
            ],
            "name": "movePosition",
            "outputs": [],
            "stateMutability": "nonpayable",
            "type": "function"
        },
        {
            "inputs": [
                {
                    "internalType": "bytes32",
                    "name": "_collateralPoolId",
                    "type": "bytes32"
                },
                {
                    "internalType": "address",
                    "name": "_positionAddress",
                    "type": "address"
                },
                {
                    "internalType": "address",
                    "name": "_collateralCreditor",
                    "type": "address"
                },
                {
                    "internalType": "address",
                    "name": "_stablecoinDebtor",
                    "type": "address"
                },
                {
                    "internalType": "int256",
                    "name": "_collateralAmount",
                    "type": "int256"
                },
                {
                    "internalType": "int256",
                    "name": "_debtShare",
                    "type": "int256"
                }
            ],
            "name": "confiscatePosition",
            "outputs": [],
            "stateMutability": "nonpayable",
            "type": "function"
        },
        {
            "inputs": [
                {
                    "internalType": "uint256",
                    "name": "_value",
                    "type": "uint256"
                }
            ],
            "name": "settleSystemBadDebt",
            "outputs": [],
            "stateMutability": "nonpayable",
            "type": "function"
        },
        {
            "inputs": [
                {
                    "internalType": "address",
                    "name": "_from",
                    "type": "address"
                },
                {
                    "internalType": "address",
                    "name": "_to",
                    "type": "address"
                },
                {
                    "internalType": "uint256",
                    "name": "_value",
                    "type": "uint256"
                }
            ],
            "name": "mintUnbackedStablecoin",
            "outputs": [],
            "stateMutability": "nonpayable",
            "type": "function"
        },
        {
            "inputs": [
                {
                    "internalType": "bytes32",
                    "name": "_collateralPoolId",
                    "type": "bytes32"
                },
                {
                    "internalType": "address",
                    "name": "_stabilityFeeRecipient",
                    "type": "address"
                },
                {
                    "internalType": "int256",
                    "name": "_debtAccumulatedRate",
                    "type": "int256"
                }
            ],
            "name": "accrueStabilityFee",
            "outputs": [],
            "stateMutability": "nonpayable",
            "type": "function"
        }
    ],
    "bytecode": "0x608060405234801561001057600080fd5b506134ae806100206000396000f3fe608060405234801561001057600080fd5b50600436106101e55760003560e01c806390d536391161010f578063d295927a116100a2578063ec50009911610071578063ec50009914610445578063f635d8a714610458578063f8be242c1461046b578063f9f92be41461049657600080fd5b8063d295927a146103d4578063d8682461146103e7578063d9ea9155146103fa578063e137ddc51461042557600080fd5b8063b4ac08bb116100de578063b4ac08bb14610356578063b5d9932914610376578063c8cc243f14610389578063d0c26ff1146103b457600080fd5b806390d5363914610314578063957aa58c146103275780639b19251a14610330578063b1df25941461034357600080fd5b80635c975abb11610187578063815110ec11610156578063815110ec146102d35780638456cb59146102e657806384e44abb146102ee5780638c1578541461030157600080fd5b80635c975abb1461029957806369245009146102af5780636a321151146102b75780636f3a3bfc146102ca57600080fd5b8063485cc955116101c3578063485cc9551461025357806354eb03a21461026657806356bd594a1461027d5780635b2a51211461029057600080fd5b806303ab9076146101ea57806329d88594146101ff5780633f4ba83a1461024b575b600080fd5b6101fd6101f8366004613011565b6104a9565b005b61023161020d36600461305f565b60976020908152600092835260408084209091529082529020805460019091015482565b604080519283526020830191909152015b60405180910390f35b6101fd61094e565b6101fd61026136600461308b565b610b4b565b61026f609e5481565b604051908152602001610242565b6101fd61028b3660046130b5565b610e05565b61026f609f5481565b60335460ff166040519015158152602001610242565b6101fd6115c4565b6101fd6102c5366004613114565b6117f7565b61026f609d5481565b6101fd6102e1366004613150565b6119b8565b6101fd611a4a565b6101fd6102fc366004613150565b611c44565b6101fd61030f366004613114565b611d7d565b6101fd610322366004613169565b611e43565b61026f60a05481565b6101fd61033e36600461318e565b6120f5565b6101fd6103513660046130b5565b612127565b61026f61036436600461318e565b60996020526000908152604090205481565b6101fd6103843660046131a9565b612454565b60a25461039c906001600160a01b031681565b6040516001600160a01b039091168152602001610242565b61026f6103c2366004613150565b609b6020526000908152604090205481565b6101fd6103e2366004613169565b612652565b60a15461039c906001600160a01b031681565b61026f61040836600461308b565b609c60209081526000928352604080842090915290825290205481565b61026f61043336600461318e565b609a6020526000908152604090205481565b6101fd61045336600461318e565b61280d565b6101fd61046636600461318e565b612a92565b61026f61047936600461305f565b609860209081526000928352604080842090915290825290205481565b6101fd6104a436600461318e565b612bfb565b6104b1612c2c565b6104b9612c85565b60a25460408051636e19aa5960e01b815290516001600160a01b039092169182916391d14854918391636e19aa599160048083019260209291908290030181865afa15801561050c573d6000803e3d6000fd5b505050506040513d601f19601f8201168201806040525081019061053091906131ed565b336040518363ffffffff1660e01b815260040161054e929190613206565b602060405180830381865afa15801561056b573d6000803e3d6000fd5b505050506040513d601f19601f8201168201806040525081019061058f919061321d565b6105d75760405162461bcd60e51b815260206004820152601460248201527321706f736974696f6e4d616e61676572526f6c6560601b60448201526064015b60405180910390fd5b60008681526097602090815260408083206001600160a01b0389811685529252808320878316845281842060a15492516309023b4f60e11b8152600481018c90529194909390921690631204769e9060240160c060405180830381865afa158015610646573d6000803e3d6000fd5b505050506040513d601f19601f8201168201806040525081019061066a919061323f565b905061067a836000015487612ccd565b8355600183015461068b9086612ccd565b6001840155815461069c9087612d08565b825560018201546106ad9086612d08565b6001808401919091558151908401546000916106c8916132dd565b90506000826000015184600101546106e091906132dd565b90506106fd6106ef8b33612d3c565b6106f98b33612d3c565b1690565b6107555760405162461bcd60e51b815260206004820152602360248201527f426f6f6b4b65657065722f6d6f7665506f736974696f6e2f6e6f742d616c6c6f6044820152621dd95960ea1b60648201526084016105ce565b6060830151855461076691906132dd565b8211156107b55760405162461bcd60e51b815260206004820152601760248201527f426f6f6b4b65657065722f6e6f742d736166652d73726300000000000000000060448201526064016105ce565b606083015184546107c691906132dd565b8111156108155760405162461bcd60e51b815260206004820152601760248201527f426f6f6b4b65657065722f6e6f742d736166652d64737400000000000000000060448201526064016105ce565b608083015160018601541590831015176108715760405162461bcd60e51b815260206004820152601960248201527f426f6f6b4b65657065722f646562742d666c6f6f722d7372630000000000000060448201526064016105ce565b608083015160018501541590821015176108cd5760405162461bcd60e51b815260206004820152601960248201527f426f6f6b4b65657065722f646562742d666c6f6f722d6473740000000000000060448201526064016105ce565b8260a001518111156109375760405162461bcd60e51b815260206004820152602d60248201527f426f6f6b4b65657065722f706f736974696f6e2d646562742d6365696c696e6760448201526c0b595e18d9595919590b591cdd609a1b60648201526084016105ce565b5050505050506109476001606555565b5050505050565b60a2546040805163e58378bb60e01b815290516001600160a01b039092169182916391d1485491839163e58378bb9160048083019260209291908290030181865afa1580156109a1573d6000803e3d6000fd5b505050506040513d601f19601f820116820180604052508101906109c591906131ed565b336040518363ffffffff1660e01b81526004016109e3929190613206565b602060405180830381865afa158015610a00573d6000803e3d6000fd5b505050506040513d601f19601f82011682018060405250810190610a24919061321d565b80610afa5750806001600160a01b03166391d14854826001600160a01b031663b536818a6040518163ffffffff1660e01b8152600401602060405180830381865afa158015610a77573d6000803e3d6000fd5b505050506040513d601f19601f82011682018060405250810190610a9b91906131ed565b336040518363ffffffff1660e01b8152600401610ab9929190613206565b602060405180830381865afa158015610ad6573d6000803e3d6000fd5b505050506040513d601f19601f82011682018060405250810190610afa919061321d565b610b405760405162461bcd60e51b815260206004820152601760248201527621286f776e6572526f6c65206f7220676f76526f6c652960481b60448201526064016105ce565b610b48612d82565b50565b600054610100900460ff1615808015610b6b5750600054600160ff909116105b80610b855750303b158015610b85575060005460ff166001145b610be85760405162461bcd60e51b815260206004820152602e60248201527f496e697469616c697a61626c653a20636f6e747261637420697320616c72656160448201526d191e481a5b9a5d1a585b1a5e995960921b60648201526084016105ce565b6000805460ff191660011790558015610c0b576000805461ff0019166101001790555b6001600160a01b0383163b610c325760405162461bcd60e51b81526004016105ce906132f4565b6001600160a01b0382163b610c595760405162461bcd60e51b81526004016105ce90613351565b816001600160a01b03166391d14854836001600160a01b031663e58378bb6040518163ffffffff1660e01b8152600401602060405180830381865afa158015610ca6573d6000803e3d6000fd5b505050506040513d601f19601f82011682018060405250810190610cca91906131ed565b336040518363ffffffff1660e01b8152600401610ce8929190613206565b602060405180830381865afa158015610d05573d6000803e3d6000fd5b505050506040513d601f19601f82011682018060405250810190610d29919061321d565b610d755760405162461bcd60e51b815260206004820152601e60248201527f426f6f6b4b65657065722f6d736773656e6465722d6e6f742d6f776e6572000060448201526064016105ce565b610d7d612dd4565b610d85612e03565b60a180546001600160a01b038086166001600160a01b03199283161790925560a2805492851692909116919091179055600160a0558015610e00576000805461ff0019169055604051600181527f7f26b83ff96e1f2b6a682f133852f6798a09c465da95921460cefb38474024989060200160405180910390a15b505050565b610e0d612c2c565b610e15612c85565b60a25460408051636e19aa5960e01b815290516001600160a01b039092169182916391d14854918391636e19aa599160048083019260209291908290030181865afa158015610e68573d6000803e3d6000fd5b505050506040513d601f19601f82011682018060405250810190610e8c91906131ed565b336040518363ffffffff1660e01b8152600401610eaa929190613206565b602060405180830381865afa158015610ec7573d6000803e3d6000fd5b505050506040513d601f19601f82011682018060405250810190610eeb919061321d565b610f2e5760405162461bcd60e51b815260206004820152601460248201527321706f736974696f6e4d616e61676572526f6c6560601b60448201526064016105ce565b610f36612e32565b60a1546040516309023b4f60e11b8152600481018990526000916001600160a01b031690631204769e9060240160c060405180830381865afa158015610f80573d6000803e3d6000fd5b505050506040513d601f19601f82011682018060405250810190610fa4919061323f565b80519091506000036110035760405162461bcd60e51b815260206004820152602260248201527f426f6f6b4b65657065722f636f6c6c61746572616c506f6f6c2d6e6f742d696e6044820152611a5d60f21b60648201526084016105ce565b60008881526097602090815260408083206001600160a01b038b168452825291829020825180840190935280548084526001909101549183019190915261104a9086612d08565b8152602081015161105b9085612d08565b816020018181525050611072826020015185612d08565b6020830181905260a1546040516359d8e7d160e11b8152600481018c905260248101929092526001600160a01b03169063b3b1cfa290604401600060405180830381600087803b1580156110c557600080fd5b505af11580156110d9573d6000803e3d6000fd5b5050505060006110ed836000015186612e7a565b905060008260200151846000015161110591906132dd565b9050611113609d5483612d08565b609d5560008b8152609b602052604090205461112f8184612d08565b60008d8152609b6020908152604080832084905588015188519189015193945061117793928b13159261117392611165916132dd565b1115609f54609d5411151690565b1790565b6111c35760405162461bcd60e51b815260206004820152601b60248201527f426f6f6b4b65657065722f6365696c696e672d6578636565646564000000000060448201526064016105ce565b6111ef6111d7600089131560008b12151690565b606087015186516111e891906132dd565b8411151790565b6112315760405162461bcd60e51b8152602060048201526013602482015272426f6f6b4b65657065722f6e6f742d7361666560681b60448201526064016105ce565b61124f611245600089131560008b12151690565b6111738d33612d3c565b6112ab5760405162461bcd60e51b815260206004820152602760248201527f426f6f6b4b65657065722f6e6f742d616c6c6f7765642d706f736974696f6e2d6044820152666164647265737360c81b60648201526084016105ce565b6112bd60008913156111738c33612d3c565b6113195760405162461bcd60e51b815260206004820152602760248201527f426f6f6b4b65657065722f6e6f742d616c6c6f7765642d636f6c6c61746572616044820152663616b7bbb732b960c91b60648201526084016105ce565b61132b60008812156111738b33612d3c565b6113875760405162461bcd60e51b815260206004820152602760248201527f426f6f6b4b65657065722f6e6f742d616c6c6f7765642d737461626c65636f696044820152663716b7bbb732b960c91b60648201526084016105ce565b602084015160808601518310159015176113db5760405162461bcd60e51b81526020600482015260156024820152742137b7b5a5b2b2b832b917b232b13a16b33637b7b960591b60448201526064016105ce565b8460a001518211156114415760405162461bcd60e51b815260206004820152602960248201527f426f6f6b4b65657065722f706f736974696f6e2d646562742d6365696c696e676044820152680b595e18d95959195960ba1b60648201526084016105ce565b60008c81526098602090815260408083206001600160a01b038e16845290915290205461146e9089612ccd565b609860008e815260200190815260200160002060008c6001600160a01b03166001600160a01b03168152602001908152602001600020819055506114d7609960008b6001600160a01b03166001600160a01b031681526020019081526020016000205484612d08565b6001600160a01b03808b166000908152609960209081526040808320949094558f825260978152838220928f16808352928152908390208751808255888301516001909201829055845190815291820152918201849052606082018a905260808201899052908d9033907fc016c1d60a9423b602f4359e2e99621becf5f90f9be16c6e73cef19b916758899060a00160405180910390a4609d5460408051918252602082018390528d917f565aa55f9b336b91ea15412a688c999241465222d146eb2d4d4612b1b62d6120910160405180910390a25050505050506115bc6001606555565b505050505050565b60a2546040805163e58378bb60e01b815290516001600160a01b039092169182916391d1485491839163e58378bb9160048083019260209291908290030181865afa158015611617573d6000803e3d6000fd5b505050506040513d601f19601f8201168201806040525081019061163b91906131ed565b336040518363ffffffff1660e01b8152600401611659929190613206565b602060405180830381865afa158015611676573d6000803e3d6000fd5b505050506040513d601f19601f8201168201806040525081019061169a919061321d565b806117705750806001600160a01b03166391d14854826001600160a01b031663d7a47a696040518163ffffffff1660e01b8152600401602060405180830381865afa1580156116ed573d6000803e3d6000fd5b505050506040513d601f19601f8201168201806040525081019061171191906131ed565b336040518363ffffffff1660e01b815260040161172f929190613206565b602060405180830381865afa15801561174c573d6000803e3d6000fd5b505050506040513d601f19601f82011682018060405250810190611770919061321d565b6117bc5760405162461bcd60e51b815260206004820152601f60248201527f21286f776e6572526f6c65206f722073686f7753746f70706572526f6c65290060448201526064016105ce565b60a054600103610b4857600060a08190556040517fbf689b4aae670d200b1d2b971ace2e0c3bef88a9c5e93f36705c7b86eab630b99190a150565b6117ff612c2c565b611807612c85565b60a254604080516308e45bc560e01b815290516001600160a01b039092169182916391d148549183916308e45bc59160048083019260209291908290030181865afa15801561185a573d6000803e3d6000fd5b505050506040513d601f19601f8201168201806040525081019061187e91906131ed565b336040518363ffffffff1660e01b815260040161189c929190613206565b602060405180830381865afa1580156118b9573d6000803e3d6000fd5b505050506040513d601f19601f820116820180604052508101906118dd919061321d565b6119195760405162461bcd60e51b815260206004820152600d60248201526c216d696e7461626c65526f6c6560981b60448201526064016105ce565b611921612e32565b6001600160a01b0384166000908152609a6020526040812080548492906119499084906133a7565b90915550506001600160a01b038316600090815260996020526040812080548492906119769084906133a7565b9250508190555081609e600082825461198f91906133a7565b9250508190555081609d60008282546119a891906133a7565b9091555050600160655550505050565b6119c0612c2c565b6119c8612c85565b336000908152609a6020526040812080548392906119e79084906133ba565b90915550503360009081526099602052604081208054839290611a0b9084906133ba565b9250508190555080609e6000828254611a2491906133ba565b9250508190555080609d6000828254611a3d91906133ba565b9091555050600160655550565b60a2546040805163e58378bb60e01b815290516001600160a01b039092169182916391d1485491839163e58378bb9160048083019260209291908290030181865afa158015611a9d573d6000803e3d6000fd5b505050506040513d601f19601f82011682018060405250810190611ac191906131ed565b336040518363ffffffff1660e01b8152600401611adf929190613206565b602060405180830381865afa158015611afc573d6000803e3d6000fd5b505050506040513d601f19601f82011682018060405250810190611b20919061321d565b80611bf65750806001600160a01b03166391d14854826001600160a01b031663b536818a6040518163ffffffff1660e01b8152600401602060405180830381865afa158015611b73573d6000803e3d6000fd5b505050506040513d601f19601f82011682018060405250810190611b9791906131ed565b336040518363ffffffff1660e01b8152600401611bb5929190613206565b602060405180830381865afa158015611bd2573d6000803e3d6000fd5b505050506040513d601f19601f82011682018060405250810190611bf6919061321d565b611c3c5760405162461bcd60e51b815260206004820152601760248201527621286f776e6572526f6c65206f7220676f76526f6c652960481b60448201526064016105ce565b610b48612ea8565b60a2546040805163e58378bb60e01b815290516001600160a01b039092169182916391d1485491839163e58378bb9160048083019260209291908290030181865afa158015611c97573d6000803e3d6000fd5b505050506040513d601f19601f82011682018060405250810190611cbb91906131ed565b336040518363ffffffff1660e01b8152600401611cd9929190613206565b602060405180830381865afa158015611cf6573d6000803e3d6000fd5b505050506040513d601f19601f82011682018060405250810190611d1a919061321d565b611d365760405162461bcd60e51b81526004016105ce906133cd565b611d3e612e32565b609f82905560405182815233907f40f69e672a10878e2ae12a782e2a123f25152d75979b2f9c50295f44ff4e308d906020015b60405180910390a25050565b611d85612c2c565b611d8d612c85565b611d978333612ee5565b6001600160a01b03831660009081526099602052604081208054839290611dbf9084906133ba565b90915550506001600160a01b03821660009081526099602052604081208054839290611dec9084906133a7565b9091555050604080516001600160a01b0385811682526020820184905284169133917f44ea72ea699accce65057680023c68e9bad7e88ee34ed28ec406adc276adbb19910160405180910390a3610e006001606555565b611e4b612c2c565b611e53612c85565b60a25460408051620470d160eb1b815290516001600160a01b039092169182916391d1485491839163238688009160048083019260209291908290030181865afa158015611ea5573d6000803e3d6000fd5b505050506040513d601f19601f82011682018060405250810190611ec991906131ed565b336040518363ffffffff1660e01b8152600401611ee7929190613206565b602060405180830381865afa158015611f04573d6000803e3d6000fd5b505050506040513d601f19601f82011682018060405250810190611f28919061321d565b611f745760405162461bcd60e51b815260206004820152601a60248201527f2173746162696c697479466565436f6c6c6563746f72526f6c6500000000000060448201526064016105ce565b611f7c612e32565b60a1546040516309023b4f60e11b8152600481018690526000916001600160a01b031690631204769e9060240160c060405180830381865afa158015611fc6573d6000803e3d6000fd5b505050506040513d601f19601f82011682018060405250810190611fea919061323f565b9050611ffa816000015184612d08565b80825260a15460405163e47f3c6f60e01b81526004810188905260248101929092526001600160a01b03169063e47f3c6f90604401600060405180830381600087803b15801561204957600080fd5b505af115801561205d573d6000803e3d6000fd5b505050506000612071826020015185612e7a565b6000878152609b602052604090205490915061208d8183612d08565b6000888152609b60209081526040808320939093556001600160a01b03891682526099905220546120be9083612d08565b6001600160a01b038716600090815260996020526040902055609d546120e49083612d08565b609d5550610e009250612d7b915050565b6120fd612c85565b336000908152609c602090815260408083206001600160a01b039490941683529290522060019055565b61212f612c2c565b612137612c85565b60a2546040805163e8ff193d60e01b815290516001600160a01b039092169182916391d1485491839163e8ff193d9160048083019260209291908290030181865afa15801561218a573d6000803e3d6000fd5b505050506040513d601f19601f820116820180604052508101906121ae91906131ed565b336040518363ffffffff1660e01b81526004016121cc929190613206565b602060405180830381865afa1580156121e9573d6000803e3d6000fd5b505050506040513d601f19601f8201168201806040525081019061220d919061321d565b6122525760405162461bcd60e51b8152602060048201526016602482015275216c69717569646174696f6e456e67696e65526f6c6560501b60448201526064016105ce565b60008781526097602090815260408083206001600160a01b038a81168552925280832060a15491516309023b4f60e11b8152600481018c90529093929190911690631204769e9060240160c060405180830381865afa1580156122b9573d6000803e3d6000fd5b505050506040513d601f19601f820116820180604052508101906122dd919061323f565b90506122ed826000015486612d08565b825560018201546122fe9085612d08565b600183015560208101516123129085612d08565b6020820181905260a1546040516359d8e7d160e11b8152600481018c905260248101929092526001600160a01b03169063b3b1cfa290604401600060405180830381600087803b15801561236557600080fd5b505af1158015612379573d6000803e3d6000fd5b50505050600061238d826000015186612e7a565b60008b8152609b60205260409020549091506123a98183612d08565b60008c8152609b6020908152604080832093909355609881528282206001600160a01b038d168352905220546123df9088612ccd565b60008c81526098602090815260408083206001600160a01b03808f16855290835281842094909455928b168252609a9052205461241c9083612ccd565b6001600160a01b0389166000908152609a6020526040902055609e546124429083612ccd565b609e55506115bc9350612d7b92505050565b61245c612c2c565b612464612c85565b60a25460408051632e718ab760e01b815290516001600160a01b039092169182916391d14854918391632e718ab79160048083019260209291908290030181865afa1580156124b7573d6000803e3d6000fd5b505050506040513d601f19601f820116820180604052508101906124db91906131ed565b336040518363ffffffff1660e01b81526004016124f9929190613206565b602060405180830381865afa158015612516573d6000803e3d6000fd5b505050506040513d601f19601f8201168201806040525081019061253a919061321d565b61257f5760405162461bcd60e51b815260206004820152601660248201527521636f6c6c61746572616c4d616e61676572526f6c6560501b60448201526064016105ce565b6125898433612ee5565b60008581526098602090815260408083206001600160a01b0388168452909152812080548492906125bb9084906133ba565b909155505060008581526098602090815260408083206001600160a01b0387168452909152812080548492906125f29084906133a7565b9091555050604080516001600160a01b03868116825260208201859052851691879133917f545a77591462bbdd247f8de3aabb8666317d6937475594c9df7e48f32b44e20a910160405180910390a45061264c6001606555565b50505050565b61265a612c2c565b612662612c85565b60a25460408051630154417360e11b815290516001600160a01b039092169182916391d148549183916302a882e69160048083019260209291908290030181865afa1580156126b5573d6000803e3d6000fd5b505050506040513d601f19601f820116820180604052508101906126d991906131ed565b336040518363ffffffff1660e01b81526004016126f7929190613206565b602060405180830381865afa158015612714573d6000803e3d6000fd5b505050506040513d601f19601f82011682018060405250810190612738919061321d565b6127735760405162461bcd60e51b815260206004820152600c60248201526b2161646170746572526f6c6560a01b60448201526064016105ce565b60008481526098602090815260408083206001600160a01b03871684529091529020546127a09083612d08565b60008581526098602090815260408083206001600160a01b038816808552925291829020929092555133907ff61a861415a232c4e7fc9cc6939614aa780fd55601ac4bdf95db158bd642e274906127fa9086815260200190565b60405180910390a350610e006001606555565b60a2546040805163e58378bb60e01b815290516001600160a01b039092169182916391d1485491839163e58378bb9160048083019260209291908290030181865afa158015612860573d6000803e3d6000fd5b505050506040513d601f19601f8201168201806040525081019061288491906131ed565b336040518363ffffffff1660e01b81526004016128a2929190613206565b602060405180830381865afa1580156128bf573d6000803e3d6000fd5b505050506040513d601f19601f820116820180604052508101906128e3919061321d565b6128ff5760405162461bcd60e51b81526004016105ce906133cd565b6001600160a01b0382163b6129265760405162461bcd60e51b81526004016105ce90613351565b816001600160a01b03166391d14854836001600160a01b031663e58378bb6040518163ffffffff1660e01b8152600401602060405180830381865afa158015612973573d6000803e3d6000fd5b505050506040513d601f19601f8201168201806040525081019061299791906131ed565b336040518363ffffffff1660e01b81526004016129b5929190613206565b602060405180830381865afa1580156129d2573d6000803e3d6000fd5b505050506040513d601f19601f820116820180604052508101906129f6919061321d565b612a425760405162461bcd60e51b815260206004820152601e60248201527f426f6f6b4b65657065722f6d736773656e6465722d6e6f742d6f776e6572000060448201526064016105ce565b60a280546001600160a01b0319166001600160a01b03841690811790915560405190815233907f104d594bb3ca960b0fc4fe7e747247b97b766449771c92e9a57395b370fd9a6290602001611d71565b60a2546040805163e58378bb60e01b815290516001600160a01b039092169182916391d1485491839163e58378bb9160048083019260209291908290030181865afa158015612ae5573d6000803e3d6000fd5b505050506040513d601f19601f82011682018060405250810190612b0991906131ed565b336040518363ffffffff1660e01b8152600401612b27929190613206565b602060405180830381865afa158015612b44573d6000803e3d6000fd5b505050506040513d601f19601f82011682018060405250810190612b68919061321d565b612b845760405162461bcd60e51b81526004016105ce906133cd565b6001600160a01b0382163b612bab5760405162461bcd60e51b81526004016105ce906132f4565b60a180546001600160a01b0319166001600160a01b03841690811790915560405190815233907f0223eb47811767b900acc3004a53292afccdf30a6334f8d93984f7c7916f6ecb90602001611d71565b612c03612c85565b336000908152609c602090815260408083206001600160a01b0394909416835292905290812055565b600260655403612c7e5760405162461bcd60e51b815260206004820152601f60248201527f5265656e7472616e637947756172643a207265656e7472616e742063616c6c0060448201526064016105ce565b6002606555565b60335460ff1615612ccb5760405162461bcd60e51b815260206004820152601060248201526f14185d5cd8589b194e881c185d5cd95960821b60448201526064016105ce565b565b808203600082131580612ce05750828111155b612ce957600080fd5b600082121580612cf95750828110155b612d0257600080fd5b92915050565b818101600082121580612d1b5750828111155b612d2457600080fd5b600082131580612cf9575082811015612d0257600080fd5b6001600160a01b038281166000818152609c60209081526040808320948616808452949091528120549092612d749214906001141790565b9392505050565b6001606555565b612d8a612f52565b6033805460ff191690557f5db9ee0a495bf2e6ff9c91a7834c1ba4fdd244a5e8aa4e537bd38aeae4b073aa335b6040516001600160a01b03909116815260200160405180910390a1565b600054610100900460ff16612dfb5760405162461bcd60e51b81526004016105ce906133f1565b612ccb612f9b565b600054610100900460ff16612e2a5760405162461bcd60e51b81526004016105ce906133f1565b612ccb612fce565b60a054600114612ccb5760405162461bcd60e51b8152602060048201526013602482015272426f6f6b4b65657065722f6e6f742d6c69766560681b60448201526064016105ce565b8181026000831215612e8b57600080fd5b811580612cf9575082612e9e838361343c565b14612d0257600080fd5b612eb0612c85565b6033805460ff191660011790557f62e78cea01bee320cd4e420270b5ea74000d11b0c9f74754ebdbfc544b05a258612db73390565b612eef8282612d3c565b612f4e5760405162461bcd60e51b815260206004820152602a60248201527f426f6f6b4b65657065722f6e6f742d616c6c6f7765642d706f736974696f6e2d60448201526918591a9d5cdd1b595b9d60b21b60648201526084016105ce565b5050565b60335460ff16612ccb5760405162461bcd60e51b815260206004820152601460248201527314185d5cd8589b194e881b9bdd081c185d5cd95960621b60448201526064016105ce565b600054610100900460ff16612fc25760405162461bcd60e51b81526004016105ce906133f1565b6033805460ff19169055565b600054610100900460ff16612d7b5760405162461bcd60e51b81526004016105ce906133f1565b80356001600160a01b038116811461300c57600080fd5b919050565b600080600080600060a0868803121561302957600080fd5b8535945061303960208701612ff5565b935061304760408701612ff5565b94979396509394606081013594506080013592915050565b6000806040838503121561307257600080fd5b8235915061308260208401612ff5565b90509250929050565b6000806040838503121561309e57600080fd5b6130a783612ff5565b915061308260208401612ff5565b60008060008060008060c087890312156130ce57600080fd5b863595506130de60208801612ff5565b94506130ec60408801612ff5565b93506130fa60608801612ff5565b92506080870135915060a087013590509295509295509295565b60008060006060848603121561312957600080fd5b61313284612ff5565b925061314060208501612ff5565b9150604084013590509250925092565b60006020828403121561316257600080fd5b5035919050565b60008060006060848603121561317e57600080fd5b8335925061314060208501612ff5565b6000602082840312156131a057600080fd5b612d7482612ff5565b600080600080608085870312156131bf57600080fd5b843593506131cf60208601612ff5565b92506131dd60408601612ff5565b9396929550929360600135925050565b6000602082840312156131ff57600080fd5b5051919050565b9182526001600160a01b0316602082015260400190565b60006020828403121561322f57600080fd5b81518015158114612d7457600080fd5b600060c0828403121561325157600080fd5b60405160c0810181811067ffffffffffffffff8211171561328257634e487b7160e01b600052604160045260246000fd5b8060405250825181526020830151602082015260408301516040820152606083015160608201526080830151608082015260a083015160a08201528091505092915050565b634e487b7160e01b600052601160045260246000fd5b8082028115828204841417612d0257612d026132c7565b60208082526037908201527f426f6f6b4b65657065722f636f6c6c61746572616c2d706f6f6c2d636f6e666960408201527f673a204e4f545f434f4e54524143545f41444452455353000000000000000000606082015260800190565b60208082526036908201527f426f6f6b4b65657065722f6163636573732d636f6e74726f6c2d636f6e6669676040820152753a204e4f545f434f4e54524143545f4144445245535360501b606082015260800190565b80820180821115612d0257612d026132c7565b81810381811115612d0257612d026132c7565b6020808252600a9082015269216f776e6572526f6c6560b01b604082015260600190565b6020808252602b908201527f496e697469616c697a61626c653a20636f6e7472616374206973206e6f74206960408201526a6e697469616c697a696e6760a81b606082015260800190565b60008261345957634e487b7160e01b600052601260045260246000fd5b600160ff1b821460001984141615613473576134736132c7565b50059056fea2646970667358221220e31512a5b27bed00d7fa2c478e32cd9f57d727faf90e384479b2cc10c10a83c464736f6c63430008110033",
    "immutableReferences": {},
    "source": "// SPDX-License-Identifier: AGPL-3.0-or-later\npragma solidity 0.8.17;\n\nimport \"@openzeppelin/contracts-upgradeable/security/PausableUpgradeable.sol\";\nimport \"@openzeppelin/contracts-upgradeable/security/ReentrancyGuardUpgradeable.sol\";\nimport \"@openzeppelin/contracts/utils/Address.sol\";\n\nimport \"../interfaces/IBookKeeper.sol\";\nimport \"../interfaces/ICagable.sol\";\nimport \"../interfaces/ICollateralPoolConfig.sol\";\nimport \"../interfaces/IAccessControlConfig.sol\";\nimport \"../interfaces/IPausable.sol\";\nimport \"../utils/CommonMath.sol\";\n\n/**\n * @title BookKeeper\n * @notice A contract which acts as a bookkeeper of the Fathom Stablecoin protocol.\n * It has the ability to move collateral tokens and stablecoins within the accounting state variable.\n */\n contract BookKeeper is IBookKeeper, ICagable, IPausable, CommonMath, PausableUpgradeable, ReentrancyGuardUpgradeable {\n    using Address for address;\n\n    struct Position {\n        uint256 lockedCollateral; // Locked collateral inside this position (used for minting)                  [wad]\n        uint256 debtShare; // The debt share of this position or the share amount of minted Fathom Stablecoin   [wad]\n    }\n\n    mapping(bytes32 => mapping(address => Position)) public override positions; // mapping of all positions by collateral pool id and position address\n    mapping(bytes32 => mapping(address => uint256)) public override collateralToken; // the accounting of collateral token which is deposited into the protocol [wad]\n    mapping(address => uint256) public override stablecoin; // the accounting of the stablecoin that is deposited or has not been withdrawn from the protocol [rad]\n    mapping(address => uint256) public override systemBadDebt; // the bad debt of the system from late liquidation [rad]\n    mapping(bytes32 => uint256) public override poolStablecoinIssued; // the accounting of the stablecoin issued per collateralPool [rad];\n\n    /// @dev This is the mapping which stores the consent or allowance to adjust positions by the position addresses.\n    /// @dev The position address -> The allowance delegate address -> true (1) means allowed or false (0) means not allowed\n    mapping(address => mapping(address => uint256)) public override positionWhitelist;\n\n    uint256 public override totalStablecoinIssued; // Total stable coin issued or total stalbecoin in circulation   [rad]\n    uint256 public totalUnbackedStablecoin; // Total unbacked stable coin  [rad]\n    uint256 public totalDebtCeiling; // Total debt ceiling  [rad]\n    uint256 public live; // Active Flag\n    address public override collateralPoolConfig;\n    address public override accessControlConfig;\n\n    event LogSetTotalDebtCeiling(address indexed _caller, uint256 _totalDebtCeiling);\n    event LogSetAccessControlConfig(address indexed _caller, address _accessControlConfig);\n    event LogSetCollateralPoolConfig(address indexed _caller, address _collateralPoolConfig);\n    event LogAdjustPosition(\n        address indexed _caller,\n        bytes32 indexed _collateralPoolId,\n        address indexed _positionAddress,\n        uint256 _lockedCollateral,\n        uint256 _debtShare,\n        uint256 _positionDebtValue,\n        int256 _addCollateral,\n        int256 _addDebtShare\n    );\n    event LogAddCollateral(address indexed _caller, address indexed _usr, int256 _amount);\n    event LogMoveCollateral(address indexed _caller, bytes32 indexed _collateralPoolId, address _src, address indexed _dst, uint256 _amount);\n    event LogMoveStablecoin(address indexed _caller, address _src, address indexed _dst, uint256 _amount);\n\n    event StablecoinIssuedAmount(uint256 _totalStablecoinIssued, bytes32 indexed _collateralPoolId, uint256 _poolStablecoinIssued);\n\n    modifier onlyOwner() {\n        IAccessControlConfig _accessControlConfig = IAccessControlConfig(accessControlConfig);\n        require(_accessControlConfig.hasRole(_accessControlConfig.OWNER_ROLE(), msg.sender), \"!ownerRole\");\n        _;\n    }\n\n    modifier onlyOwnerOrGov() {\n        IAccessControlConfig _accessControlConfig = IAccessControlConfig(accessControlConfig);\n        require(\n            _accessControlConfig.hasRole(_accessControlConfig.OWNER_ROLE(), msg.sender) ||\n                _accessControlConfig.hasRole(_accessControlConfig.GOV_ROLE(), msg.sender),\n            \"!(ownerRole or govRole)\"\n        );\n        _;\n    }\n\n    modifier onlyOwnerOrShowStopper() {\n        IAccessControlConfig _accessControlConfig = IAccessControlConfig(accessControlConfig);\n        require(\n            _accessControlConfig.hasRole(_accessControlConfig.OWNER_ROLE(), msg.sender) ||\n                _accessControlConfig.hasRole(_accessControlConfig.SHOW_STOPPER_ROLE(), msg.sender),\n            \"!(ownerRole or showStopperRole)\"\n        );\n        _;\n    }\n\n    modifier onlyPositionManager() {\n        IAccessControlConfig _accessControlConfig = IAccessControlConfig(accessControlConfig);\n        require(_accessControlConfig.hasRole(_accessControlConfig.POSITION_MANAGER_ROLE(), msg.sender), \"!positionManagerRole\");\n        _;\n    }\n\n    modifier onlyCollateralManager() {\n        IAccessControlConfig _accessControlConfig = IAccessControlConfig(accessControlConfig);\n        require(_accessControlConfig.hasRole(_accessControlConfig.COLLATERAL_MANAGER_ROLE(), msg.sender), \"!collateralManagerRole\");\n        _;\n    }\n\n    modifier onlyLiquidationEngine() {\n        IAccessControlConfig _accessControlConfig = IAccessControlConfig(accessControlConfig);\n        require(_accessControlConfig.hasRole(_accessControlConfig.LIQUIDATION_ENGINE_ROLE(), msg.sender), \"!liquidationEngineRole\");\n        _;\n    }\n\n    modifier onlyMintable() {\n        IAccessControlConfig _accessControlConfig = IAccessControlConfig(accessControlConfig);\n        require(_accessControlConfig.hasRole(_accessControlConfig.MINTABLE_ROLE(), msg.sender), \"!mintableRole\");\n        _;\n    }\n\n    modifier onlyAdapter() {\n        IAccessControlConfig _accessControlConfig = IAccessControlConfig(accessControlConfig);\n        require(_accessControlConfig.hasRole(_accessControlConfig.ADAPTER_ROLE(), msg.sender), \"!adapterRole\");\n        _;\n    }\n\n    modifier onlyStabilityFeeCollector() {\n        IAccessControlConfig _accessControlConfig = IAccessControlConfig(accessControlConfig);\n        require(_accessControlConfig.hasRole(_accessControlConfig.STABILITY_FEE_COLLECTOR_ROLE(), msg.sender), \"!stabilityFeeCollectorRole\");\n        _;\n    }\n\n    // --- Init ---\n\n    function initialize(address _collateralPoolConfig, address _accessControlConfig) external initializer {\n        require(_collateralPoolConfig.isContract(), \"BookKeeper/collateral-pool-config: NOT_CONTRACT_ADDRESS\");\n        require(_accessControlConfig.isContract(), \"BookKeeper/access-control-config: NOT_CONTRACT_ADDRESS\");\n        require(\n            IAccessControlConfig(_accessControlConfig).hasRole(IAccessControlConfig(_accessControlConfig).OWNER_ROLE(), msg.sender),\n            \"BookKeeper/msgsender-not-owner\"\n        ); // Sanity Check Call\n\n        PausableUpgradeable.__Pausable_init();\n        ReentrancyGuardUpgradeable.__ReentrancyGuard_init();\n\n        collateralPoolConfig = _collateralPoolConfig;\n        accessControlConfig = _accessControlConfig;\n        live = 1;\n    }\n\n    // --- Administration ---\n\n    function setTotalDebtCeiling(uint256 _totalDebtCeiling) external onlyOwner {\n        _requireLive();\n        totalDebtCeiling = _totalDebtCeiling;\n        emit LogSetTotalDebtCeiling(msg.sender, _totalDebtCeiling);\n    }\n\n    function setAccessControlConfig(address _accessControlConfig) external onlyOwner {\n        require(_accessControlConfig.isContract(), \"BookKeeper/access-control-config: NOT_CONTRACT_ADDRESS\");\n        require(\n            IAccessControlConfig(_accessControlConfig).hasRole(IAccessControlConfig(_accessControlConfig).OWNER_ROLE(), msg.sender),\n            \"BookKeeper/msgsender-not-owner\"\n        );\n\n        accessControlConfig = _accessControlConfig;\n        emit LogSetAccessControlConfig(msg.sender, _accessControlConfig);\n    }\n\n\n    function setCollateralPoolConfig(address _collateralPoolConfig) external onlyOwner {\n        require(_collateralPoolConfig.isContract(), \"BookKeeper/collateral-pool-config: NOT_CONTRACT_ADDRESS\");\n\n        collateralPoolConfig = _collateralPoolConfig;\n        emit LogSetCollateralPoolConfig(msg.sender, _collateralPoolConfig);\n    }\n\n    // --- Cage ---\n\n    function cage() external override onlyOwnerOrShowStopper {\n        if (live == 1) {\n            live = 0;\n            emit LogCage();\n        }\n    }\n\n    // --- Pause ---\n    /// @dev access: OWNER_ROLE, GOV_ROLE\n    function pause() external override onlyOwnerOrGov {\n        _pause();\n    }\n    /// @dev access: OWNER_ROLE, GOV_ROLE\n    function unpause() external override onlyOwnerOrGov {\n        _unpause();\n    }\n\n\n    // --- Whitelist ---\n\n    /**\n    * @dev Grants an allowance to the `toBeWhitelistedAddress` to adjust the position address of the caller.\n    * @notice This function can only be called when the BookKeeper contract is not paused.\n    * @param toBeWhitelistedAddress The address that is granted permission to adjust the position address of the caller.\n    * @dev Emits no events.\n    */\n    function whitelist(address toBeWhitelistedAddress) external override whenNotPaused {\n        positionWhitelist[msg.sender][toBeWhitelistedAddress] = 1;\n    }\n\n    /**\n    * @dev Revokes the allowance from the `toBeBlacklistedAddress` to adjust the position address of the caller.\n    * @notice This function can only be called when the BookKeeper contract is not paused.\n    * @param toBeBlacklistedAddress The address that is no longer allowed to adjust the position address of the caller.\n    * @dev Emits no events.\n    */\n    function blacklist(address toBeBlacklistedAddress) external override whenNotPaused {\n        positionWhitelist[msg.sender][toBeBlacklistedAddress] = 0;\n    }\n\n\n    // --- Core Logic ---\n\n    /**\n    * @dev Updates the accounting of collateral tokens deposited by a position in the specified collateral pool.\n    * @dev Although the second argument is named as _usr, addCollateral is more often used in the context of CDP manipulation, and the _usr address\n    * often represents the position's address. Refer to deposit function in CollateralTokenAdapter.\n    * @notice This function can only be called by the Adapter role when the BookKeeper contract is not paused.\n    * @param _collateralPoolId The ID of the collateral pool in which the position's collateral is being updated.\n    * @param _usr The address of the position for which collateral is being adjusted.\n    * @param _amount The amount of collateral being added (positive value) or removed (negative value) from the user's position.\n    * @dev Emits a LogAddCollateral event to record the change in the position's collateral amount.\n    */\n    function addCollateral(bytes32 _collateralPoolId, address _usr, int256 _amount) external override nonReentrant whenNotPaused onlyAdapter {\n        collateralToken[_collateralPoolId][_usr] = add(collateralToken[_collateralPoolId][_usr], _amount);\n        emit LogAddCollateral(msg.sender, _usr, _amount);\n    }\n\n\n    /**\n    * @notice Moves collateral tokens from one address (often a position address) to another in a specified collateral pool.\n    * @dev This function can only be called by an entity with the Collateral Manager role when the BookKeeper contract is not paused.\n    * @dev It also requires that the entity making the call has the authority to adjust the position (or any address that holds collateralToken), as determined by `_requireAllowedPositionAdjustment`.\n    * @param _collateralPoolId The ID of the collateral pool from which the collateral tokens are being moved.\n    * @param _src The address from which collateral tokens are being moved.\n    * @param _dst The address to which collateral tokens are being moved.\n    * @param _amount The amount of collateral tokens being moved from the source to the destination.\n    */\n\n    function moveCollateral(\n        bytes32 _collateralPoolId,\n        address _src,\n        address _dst,\n        uint256 _amount\n    ) external override nonReentrant whenNotPaused onlyCollateralManager {\n        _requireAllowedPositionAdjustment(_src, msg.sender);\n        collateralToken[_collateralPoolId][_src] -= _amount;\n        collateralToken[_collateralPoolId][_dst] += _amount;\n        emit LogMoveCollateral(msg.sender, _collateralPoolId, _src, _dst, _amount);\n    }\n\n    /**\n    * @notice Moves stablecoin from one address to another.\n    * @dev This function can only be called when the BookKeeper contract is not paused.\n    * @dev It also requires that the entity making the call is allowed to adjust the position (or any address that holds stablecoin) \n    * @dev according to `_requireAllowedPositionAdjustment`.\n    * @param _src The source address from which the stablecoin is being moved.\n    * @param _dst The destination address to which the stablecoin is being moved.\n    * @param _value The amount of stablecoin being moved from the source to the destination.\n    */\n\n    function moveStablecoin(address _src, address _dst, uint256 _value) external override nonReentrant whenNotPaused {\n        _requireAllowedPositionAdjustment(_src, msg.sender);\n        stablecoin[_src] -= _value;\n        stablecoin[_dst] += _value;\n        emit LogMoveStablecoin(msg.sender, _src, _dst, _value);\n    }\n\n    /**\n    * @notice Adjusts the collateral and debt of a position in a specific collateral pool.\n    * @dev This function can only be called by an entity with the Position Manager role when the BookKeeper contract is not paused and the collateral pool is active.\n    * @dev It ensures multiple conditions are met regarding debt and collateral values to maintain system stability and safety.\n    * @param _collateralPoolId The ID of the collateral pool where the position is located.\n    * @param _positionAddress The address of the position to be adjusted.\n    * @param _collateralOwner The address of the owner of the collateral. (positionAddress)\n    * @param _stablecoinOwner The address of the owner of the stablecoin. (positionAddress)\n    * @param _collateralValue The change in collateral value. This is added to the position's current locked collateral.\n    * @param _debtShare The change in debt share. This is added to the position's current debt share.\n    */\n    // solhint-disable function-max-lines\n    function adjustPosition(\n        bytes32 _collateralPoolId,\n        address _positionAddress,\n        address _collateralOwner,\n        address _stablecoinOwner,\n        int256 _collateralValue,\n        int256 _debtShare\n    ) external override nonReentrant whenNotPaused onlyPositionManager {\n        _requireLive();\n\n        ICollateralPoolConfig.CollateralPoolInfo memory _vars = ICollateralPoolConfig(collateralPoolConfig).getCollateralPoolInfo(_collateralPoolId);\n        require(_vars.debtAccumulatedRate != 0, \"BookKeeper/collateralPool-not-init\");\n\n        Position memory position = positions[_collateralPoolId][_positionAddress];\n        position.lockedCollateral = add(position.lockedCollateral, _collateralValue);\n        position.debtShare = add(position.debtShare, _debtShare);\n        _vars.totalDebtShare = add(_vars.totalDebtShare, _debtShare);\n        ICollateralPoolConfig(collateralPoolConfig).setTotalDebtShare(_collateralPoolId, _vars.totalDebtShare);\n\n        int256 _debtValue = mul(_vars.debtAccumulatedRate, _debtShare);\n        uint256 _positionDebtValue = _vars.debtAccumulatedRate * position.debtShare;\n        totalStablecoinIssued = add(totalStablecoinIssued, _debtValue);\n        uint256 _poolStablecoinAmount = poolStablecoinIssued[_collateralPoolId];\n        poolStablecoinIssued[_collateralPoolId] = add(_poolStablecoinAmount, _debtValue);\n        _poolStablecoinAmount = poolStablecoinIssued[_collateralPoolId];\n        require(\n            either(\n                _debtShare <= 0,\n                both(_vars.totalDebtShare * _vars.debtAccumulatedRate <= _vars.debtCeiling, totalStablecoinIssued <= totalDebtCeiling)\n            ),\n            \"BookKeeper/ceiling-exceeded\"\n        );\n\n        require(\n            either(both(_debtShare <= 0, _collateralValue >= 0), _positionDebtValue <= position.lockedCollateral * _vars.priceWithSafetyMargin),\n            \"BookKeeper/not-safe\"\n        );\n\n        require(either(both(_debtShare <= 0, _collateralValue >= 0), _wish(_positionAddress, msg.sender)), \"BookKeeper/not-allowed-position-address\");\n        require(either(_collateralValue <= 0, _wish(_collateralOwner, msg.sender)), \"BookKeeper/not-allowed-collateral-owner\");\n        require(either(_debtShare >= 0, _wish(_stablecoinOwner, msg.sender)), \"BookKeeper/not-allowed-stablecoin-owner\");\n\n        require(either(position.debtShare == 0, _positionDebtValue >= _vars.debtFloor), \"BookKeeper/debt-floor\");\n        require(_positionDebtValue <= _vars.positionDebtCeiling, \"BookKeeper/position-debt-ceiling-exceeded\");\n        collateralToken[_collateralPoolId][_collateralOwner] = sub(collateralToken[_collateralPoolId][_collateralOwner], _collateralValue);\n        stablecoin[_stablecoinOwner] = add(stablecoin[_stablecoinOwner], _debtValue);\n\n        positions[_collateralPoolId][_positionAddress] = position;\n\n        emit LogAdjustPosition(\n            msg.sender,\n            _collateralPoolId,\n            _positionAddress,\n            position.lockedCollateral,\n            position.debtShare,\n            _positionDebtValue,\n            _collateralValue,\n            _debtShare\n        );\n        emit StablecoinIssuedAmount(\n            totalStablecoinIssued,\n            _collateralPoolId,\n            _poolStablecoinAmount // [rad]\n        );\n    }\n\n    /**\n    * @notice Moves collateral and debt from one position to another in a specific collateral pool.\n    * @dev This function can only be called by an entity with the Position Manager role when the BookKeeper contract is not paused.\n    * @dev It ensures that the caller is allowed to manipulate both source and destination positions and the positions remain safe after the move.\n    * @param _collateralPoolId The ID of the collateral pool where the positions are located.\n    * @param _src The address of the source position from which collateral and debt are being moved.\n    * @param _dst The address of the destination position to which collateral and debt are being moved.\n    * @param _collateralAmount The amount of collateral being moved from the source to the destination position.\n    * @param _debtShare The amount of debt share being moved from the source to the destination position.\n    */\n    // solhint-enable function-max-lines\n    function movePosition(\n        bytes32 _collateralPoolId,\n        address _src,\n        address _dst,\n        int256 _collateralAmount,\n        int256 _debtShare\n    ) external override nonReentrant whenNotPaused onlyPositionManager {\n        Position storage _positionSrc = positions[_collateralPoolId][_src];\n        Position storage _positionDst = positions[_collateralPoolId][_dst];\n\n        ICollateralPoolConfig.CollateralPoolInfo memory _vars = ICollateralPoolConfig(collateralPoolConfig).getCollateralPoolInfo(_collateralPoolId);\n\n        _positionSrc.lockedCollateral = sub(_positionSrc.lockedCollateral, _collateralAmount);\n        _positionSrc.debtShare = sub(_positionSrc.debtShare, _debtShare);\n        _positionDst.lockedCollateral = add(_positionDst.lockedCollateral, _collateralAmount);\n        _positionDst.debtShare = add(_positionDst.debtShare, _debtShare);\n\n        uint256 _utab = _positionSrc.debtShare * _vars.debtAccumulatedRate;\n        uint256 _vtab = _positionDst.debtShare * _vars.debtAccumulatedRate;\n\n        require(both(_wish(_src, msg.sender), _wish(_dst, msg.sender)), \"BookKeeper/movePosition/not-allowed\");\n\n        require(_utab <= _positionSrc.lockedCollateral * _vars.priceWithSafetyMargin, \"BookKeeper/not-safe-src\");\n        require(_vtab <= _positionDst.lockedCollateral * _vars.priceWithSafetyMargin, \"BookKeeper/not-safe-dst\");\n\n        require(either(_utab >= _vars.debtFloor, _positionSrc.debtShare == 0), \"BookKeeper/debt-floor-src\");\n        require(either(_vtab >= _vars.debtFloor, _positionDst.debtShare == 0), \"BookKeeper/debt-floor-dst\");\n\n        require(_vtab <= _vars.positionDebtCeiling, \"BookKeeper/position-debt-ceiling-exceeded-dst\");\n    }\n\n    /**\n    * @notice Confiscates a position for liquidation. It seizes collateral and marks a debt.\n    * @dev This function can only be called by an entity with the Liquidation Engine role when the BookKeeper contract is not paused.\n    * @dev The seized collateral will be transferred to the Auctioneer contracts and later moved to the corresponding liquidator addresses.\n    * @dev The stablecoin debt will be initially marked in the SystemDebtEngine contract and will be cleared later on from a successful liquidation. \n    * @dev If the debt is not fully liquidated, the remaining debt will stay inside SystemDebtEngine as bad debt.\n    * @param _collateralPoolId The ID of the collateral pool where the positions are located.\n    * @param _positionAddress The address of the position from which collateral and debt are being confiscated.\n    * @param _collateralCreditor The address where confiscated collateral will be transferred.\n    * @param _stablecoinDebtor The address from which the stablecoin debt is being confiscated.\n    * @param _collateralAmount The amount of collateral being confiscated from the position.\n    * @param _debtShare The amount of debt share being confiscated from the position.\n    */\n    function confiscatePosition(\n        bytes32 _collateralPoolId,\n        address _positionAddress,\n        address _collateralCreditor,\n        address _stablecoinDebtor,\n        int256 _collateralAmount,\n        int256 _debtShare\n    ) external override nonReentrant whenNotPaused onlyLiquidationEngine {\n        Position storage position = positions[_collateralPoolId][_positionAddress];\n        ICollateralPoolConfig.CollateralPoolInfo memory _vars = ICollateralPoolConfig(collateralPoolConfig).getCollateralPoolInfo(_collateralPoolId);\n        // -- col from postion\n        position.lockedCollateral = add(position.lockedCollateral, _collateralAmount);\n        // -- debt from position\n        position.debtShare = add(position.debtShare, _debtShare);\n        _vars.totalDebtShare = add(_vars.totalDebtShare, _debtShare);\n        ICollateralPoolConfig(collateralPoolConfig).setTotalDebtShare(_collateralPoolId, _vars.totalDebtShare);\n\n        int256 _debtValue = mul(_vars.debtAccumulatedRate, _debtShare);\n\n        uint256 _poolStablecoinAmount = poolStablecoinIssued[_collateralPoolId];\n        poolStablecoinIssued[_collateralPoolId] = add(_poolStablecoinAmount, _debtValue);\n        // ++ col to _collateralCreditor(showStopper in case of skim/accumulateBadDebt)\n        collateralToken[_collateralPoolId][_collateralCreditor] = sub(collateralToken[_collateralPoolId][_collateralCreditor], _collateralAmount);\n        // ++ debt to systemDebyEngine\n        systemBadDebt[_stablecoinDebtor] = sub(systemBadDebt[_stablecoinDebtor], _debtValue);\n        totalUnbackedStablecoin = sub(totalUnbackedStablecoin, _debtValue);\n    }\n\n    /**\n    * @notice Settles the system's bad debt of the caller.\n    * @dev This function can only be called by the SystemDebtEngine, which incurs the system debt. The BookKeeper contract must not be paused.\n    * @dev To execute this function, the SystemDebtEngine must have enough stablecoin, which typically comes from the protocol's surplus.\n    * @dev A successful execution of this function removes the bad debt from the system.\n    * @param _value The amount of bad debt to be settled.\n    */\n    function settleSystemBadDebt(uint256 _value) external override nonReentrant whenNotPaused {\n        systemBadDebt[msg.sender] -= _value;\n        stablecoin[msg.sender] -= _value;\n        totalUnbackedStablecoin -= _value;\n        totalStablecoinIssued -= _value;\n    }\n\n    /**\n    * @notice Mints unbacked stablecoin.\n    * @dev This function can only be called by the Mintable role when the BookKeeper contract is not paused.\n    * @dev It also requires the system to be live.\n    * @param _from The address from which the unbacked stablecoin is being minted.\n    * @param _to The address to which the unbacked stablecoin is being minted.\n    * @param _value The amount of unbacked stablecoin to mint.\n    */\n    function mintUnbackedStablecoin(address _from, address _to, uint256 _value) external override nonReentrant whenNotPaused onlyMintable {\n        _requireLive();\n\n        systemBadDebt[_from] += _value;\n        stablecoin[_to] += _value;\n        totalUnbackedStablecoin += _value;\n        totalStablecoinIssued += _value;\n    }\n\n    /**\n    * @notice Accrue stability fee for a specific collateral pool.\n    * @dev This function can only be called by the StabilityFeeCollector role when the BookKeeper contract is not paused.\n    * @dev It also requires the system to be live.\n    * @param _collateralPoolId The ID of the collateral pool where the stability fee is being accrued.\n    * @param _stabilityFeeRecipient The address that will receive the accrued stability fee.\n    * @param _debtAccumulatedRate The debt accumulation rate used in the calculation of the stability fee.\n    */\n    function accrueStabilityFee(\n        bytes32 _collateralPoolId,\n        address _stabilityFeeRecipient,\n        int256 _debtAccumulatedRate\n    ) external override nonReentrant whenNotPaused onlyStabilityFeeCollector {\n        _requireLive();\n\n        ICollateralPoolConfig.CollateralPoolInfo memory _vars = ICollateralPoolConfig(collateralPoolConfig).getCollateralPoolInfo(_collateralPoolId);\n\n        _vars.debtAccumulatedRate = add(_vars.debtAccumulatedRate, _debtAccumulatedRate);\n        ICollateralPoolConfig(collateralPoolConfig).setDebtAccumulatedRate(_collateralPoolId, _vars.debtAccumulatedRate);\n        int256 _value = mul(_vars.totalDebtShare, _debtAccumulatedRate); // [rad]\n\n        uint256 _poolStablecoinAmount = poolStablecoinIssued[_collateralPoolId];\n        poolStablecoinIssued[_collateralPoolId] = add(_poolStablecoinAmount, _value);\n\n        stablecoin[_stabilityFeeRecipient] = add(stablecoin[_stabilityFeeRecipient], _value);\n        totalStablecoinIssued = add(totalStablecoinIssued, _value);\n    }\n\n    function _requireLive() internal view {\n        require(live == 1, \"BookKeeper/not-live\");\n    }\n\n    function _requireAllowedPositionAdjustment(address _positionAddress, address _usr) internal view {\n        require(_wish(_positionAddress, _usr), \"BookKeeper/not-allowed-position-adjustment\");\n    }\n\n    /// @dev Check if the `usr` address is allowed to adjust the position address (`bit`).\n    /// @param bit The position address\n    /// @param usr The address to be checked for permission\n    function _wish(address bit, address usr) internal view returns (bool) {\n        return either(bit == usr, positionWhitelist[bit][usr] == 1);\n    }\n}\n",
    "sourcePath": "/Users/sangjun.lee/Sangjun/fathom-stablecoin-smart-contracts/contracts/main/stablecoin-core/BookKeeper.sol",
    "compiler": {
        "name": "solc",
        "version": "0.8.17+commit.8df45f5f.Emscripten.clang"
    },
    "schemaVersion": "3.4.10",
    "updatedAt": "2023-09-12T23:52:26.531Z",
    "devdoc": {
        "kind": "dev",
        "methods": {
            "accrueStabilityFee(bytes32,address,int256)": {
                "details": "This function can only be called by the StabilityFeeCollector role when the BookKeeper contract is not paused.It also requires the system to be live.",
                "params": {
                    "_collateralPoolId": "The ID of the collateral pool where the stability fee is being accrued.",
                    "_debtAccumulatedRate": "The debt accumulation rate used in the calculation of the stability fee.",
                    "_stabilityFeeRecipient": "The address that will receive the accrued stability fee."
                }
            },
            "addCollateral(bytes32,address,int256)": {
                "details": "Updates the accounting of collateral tokens deposited by a position in the specified collateral pool.Although the second argument is named as _usr, addCollateral is more often used in the context of CDP manipulation, and the _usr address often represents the position's address. Refer to deposit function in CollateralTokenAdapter.Emits a LogAddCollateral event to record the change in the position's collateral amount.",
                "params": {
                    "_amount": "The amount of collateral being added (positive value) or removed (negative value) from the user's position.",
                    "_collateralPoolId": "The ID of the collateral pool in which the position's collateral is being updated.",
                    "_usr": "The address of the position for which collateral is being adjusted."
                }
            },
            "adjustPosition(bytes32,address,address,address,int256,int256)": {
                "details": "This function can only be called by an entity with the Position Manager role when the BookKeeper contract is not paused and the collateral pool is active.It ensures multiple conditions are met regarding debt and collateral values to maintain system stability and safety.",
                "params": {
                    "_collateralOwner": "The address of the owner of the collateral. (positionAddress)",
                    "_collateralPoolId": "The ID of the collateral pool where the position is located.",
                    "_collateralValue": "The change in collateral value. This is added to the position's current locked collateral.",
                    "_debtShare": "The change in debt share. This is added to the position's current debt share.",
                    "_positionAddress": "The address of the position to be adjusted.",
                    "_stablecoinOwner": "The address of the owner of the stablecoin. (positionAddress)"
                }
            },
            "blacklist(address)": {
                "details": "Revokes the allowance from the `toBeBlacklistedAddress` to adjust the position address of the caller.Emits no events.",
                "params": {
                    "toBeBlacklistedAddress": "The address that is no longer allowed to adjust the position address of the caller."
                }
            },
            "confiscatePosition(bytes32,address,address,address,int256,int256)": {
                "details": "This function can only be called by an entity with the Liquidation Engine role when the BookKeeper contract is not paused.The seized collateral will be transferred to the Auctioneer contracts and later moved to the corresponding liquidator addresses.The stablecoin debt will be initially marked in the SystemDebtEngine contract and will be cleared later on from a successful liquidation. If the debt is not fully liquidated, the remaining debt will stay inside SystemDebtEngine as bad debt.",
                "params": {
                    "_collateralAmount": "The amount of collateral being confiscated from the position.",
                    "_collateralCreditor": "The address where confiscated collateral will be transferred.",
                    "_collateralPoolId": "The ID of the collateral pool where the positions are located.",
                    "_debtShare": "The amount of debt share being confiscated from the position.",
                    "_positionAddress": "The address of the position from which collateral and debt are being confiscated.",
                    "_stablecoinDebtor": "The address from which the stablecoin debt is being confiscated."
                }
            },
            "mintUnbackedStablecoin(address,address,uint256)": {
                "details": "This function can only be called by the Mintable role when the BookKeeper contract is not paused.It also requires the system to be live.",
                "params": {
                    "_from": "The address from which the unbacked stablecoin is being minted.",
                    "_to": "The address to which the unbacked stablecoin is being minted.",
                    "_value": "The amount of unbacked stablecoin to mint."
                }
            },
            "moveCollateral(bytes32,address,address,uint256)": {
                "details": "This function can only be called by an entity with the Collateral Manager role when the BookKeeper contract is not paused.It also requires that the entity making the call has the authority to adjust the position (or any address that holds collateralToken), as determined by `_requireAllowedPositionAdjustment`.",
                "params": {
                    "_amount": "The amount of collateral tokens being moved from the source to the destination.",
                    "_collateralPoolId": "The ID of the collateral pool from which the collateral tokens are being moved.",
                    "_dst": "The address to which collateral tokens are being moved.",
                    "_src": "The address from which collateral tokens are being moved."
                }
            },
            "movePosition(bytes32,address,address,int256,int256)": {
                "details": "This function can only be called by an entity with the Position Manager role when the BookKeeper contract is not paused.It ensures that the caller is allowed to manipulate both source and destination positions and the positions remain safe after the move.",
                "params": {
                    "_collateralAmount": "The amount of collateral being moved from the source to the destination position.",
                    "_collateralPoolId": "The ID of the collateral pool where the positions are located.",
                    "_debtShare": "The amount of debt share being moved from the source to the destination position.",
                    "_dst": "The address of the destination position to which collateral and debt are being moved.",
                    "_src": "The address of the source position from which collateral and debt are being moved."
                }
            },
            "moveStablecoin(address,address,uint256)": {
                "details": "This function can only be called when the BookKeeper contract is not paused.It also requires that the entity making the call is allowed to adjust the position (or any address that holds stablecoin) according to `_requireAllowedPositionAdjustment`.",
                "params": {
                    "_dst": "The destination address to which the stablecoin is being moved.",
                    "_src": "The source address from which the stablecoin is being moved.",
                    "_value": "The amount of stablecoin being moved from the source to the destination."
                }
            },
            "pause()": {
                "details": "access: OWNER_ROLE, GOV_ROLE"
            },
            "paused()": {
                "details": "Returns true if the contract is paused, and false otherwise."
            },
            "settleSystemBadDebt(uint256)": {
                "details": "This function can only be called by the SystemDebtEngine, which incurs the system debt. The BookKeeper contract must not be paused.To execute this function, the SystemDebtEngine must have enough stablecoin, which typically comes from the protocol's surplus.A successful execution of this function removes the bad debt from the system.",
                "params": {
                    "_value": "The amount of bad debt to be settled."
                }
            },
            "unpause()": {
                "details": "access: OWNER_ROLE, GOV_ROLE"
            },
            "whitelist(address)": {
                "details": "Grants an allowance to the `toBeWhitelistedAddress` to adjust the position address of the caller.Emits no events.",
                "params": {
                    "toBeWhitelistedAddress": "The address that is granted permission to adjust the position address of the caller."
                }
            }
        },
        "stateVariables": {
            "positionWhitelist": {
                "details": "This is the mapping which stores the consent or allowance to adjust positions by the position addresses.The position address -> The allowance delegate address -> true (1) means allowed or false (0) means not allowed"
            }
        },
        "title": "BookKeeper",
        "version": 1
    },
    "userdoc": {
        "kind": "user",
        "methods": {
            "accrueStabilityFee(bytes32,address,int256)": {
                "notice": "Accrue stability fee for a specific collateral pool."
            },
            "addCollateral(bytes32,address,int256)": {
                "notice": "This function can only be called by the Adapter role when the BookKeeper contract is not paused."
            },
            "adjustPosition(bytes32,address,address,address,int256,int256)": {
                "notice": "Adjusts the collateral and debt of a position in a specific collateral pool."
            },
            "blacklist(address)": {
                "notice": "This function can only be called when the BookKeeper contract is not paused."
            },
            "confiscatePosition(bytes32,address,address,address,int256,int256)": {
                "notice": "Confiscates a position for liquidation. It seizes collateral and marks a debt."
            },
            "mintUnbackedStablecoin(address,address,uint256)": {
                "notice": "Mints unbacked stablecoin."
            },
            "moveCollateral(bytes32,address,address,uint256)": {
                "notice": "Moves collateral tokens from one address (often a position address) to another in a specified collateral pool."
            },
            "movePosition(bytes32,address,address,int256,int256)": {
                "notice": "Moves collateral and debt from one position to another in a specific collateral pool."
            },
            "moveStablecoin(address,address,uint256)": {
                "notice": "Moves stablecoin from one address to another."
            },
            "settleSystemBadDebt(uint256)": {
                "notice": "Settles the system's bad debt of the caller."
            },
            "whitelist(address)": {
                "notice": "This function can only be called when the BookKeeper contract is not paused."
            }
        },
        "notice": "A contract which acts as a bookkeeper of the Fathom Stablecoin protocol. It has the ability to move collateral tokens and stablecoins within the accounting state variable.",
        "version": 1
    }
}