{
    "contractName": "CollateralPoolConfig",
    "abi": [
        {
            "anonymous": false,
            "inputs": [
                {
                    "indexed": false,
                    "internalType": "uint8",
                    "name": "version",
                    "type": "uint8"
                }
            ],
            "name": "Initialized",
            "type": "event"
        },
        {
            "anonymous": false,
            "inputs": [
                {
                    "indexed": true,
                    "internalType": "bytes32",
                    "name": "_collateralPoolId",
                    "type": "bytes32"
                },
                {
                    "indexed": false,
                    "internalType": "uint256",
                    "name": "_debtCeiling",
                    "type": "uint256"
                },
                {
                    "indexed": false,
                    "internalType": "uint256",
                    "name": "_liquidationRatio",
                    "type": "uint256"
                },
                {
                    "indexed": false,
                    "internalType": "uint256",
                    "name": "_stabilityFeeRate",
                    "type": "uint256"
                },
                {
                    "indexed": false,
                    "internalType": "address",
                    "name": "_adapter",
                    "type": "address"
                }
            ],
            "name": "LogInitCollateralPoolId",
            "type": "event"
        },
        {
            "anonymous": false,
            "inputs": [
                {
                    "indexed": false,
                    "internalType": "address",
                    "name": "_messageSender",
                    "type": "address"
                },
                {
                    "indexed": false,
                    "internalType": "bytes32",
                    "name": "_collateralPoolId",
                    "type": "bytes32"
                },
                {
                    "indexed": false,
                    "internalType": "uint256",
                    "name": "_positionDebtCeiling",
                    "type": "uint256"
                }
            ],
            "name": "LogPositionDebtCeiling",
            "type": "event"
        },
        {
            "anonymous": false,
            "inputs": [
                {
                    "indexed": true,
                    "internalType": "address",
                    "name": "_caller",
                    "type": "address"
                },
                {
                    "indexed": true,
                    "internalType": "bytes32",
                    "name": "_collateralPoolId",
                    "type": "bytes32"
                },
                {
                    "indexed": false,
                    "internalType": "address",
                    "name": "_adapter",
                    "type": "address"
                }
            ],
            "name": "LogSetAdapter",
            "type": "event"
        },
        {
            "anonymous": false,
            "inputs": [
                {
                    "indexed": true,
                    "internalType": "address",
                    "name": "_caller",
                    "type": "address"
                },
                {
                    "indexed": true,
                    "internalType": "bytes32",
                    "name": "_collateralPoolId",
                    "type": "bytes32"
                },
                {
                    "indexed": false,
                    "internalType": "uint256",
                    "name": "_closeFactorBps",
                    "type": "uint256"
                }
            ],
            "name": "LogSetCloseFactorBps",
            "type": "event"
        },
        {
            "anonymous": false,
            "inputs": [
                {
                    "indexed": true,
                    "internalType": "address",
                    "name": "_caller",
                    "type": "address"
                },
                {
                    "indexed": true,
                    "internalType": "bytes32",
                    "name": "_collateralPoolId",
                    "type": "bytes32"
                },
                {
                    "indexed": false,
                    "internalType": "uint256",
                    "name": "_debtAccumulatedRate",
                    "type": "uint256"
                }
            ],
            "name": "LogSetDebtAccumulatedRate",
            "type": "event"
        },
        {
            "anonymous": false,
            "inputs": [
                {
                    "indexed": true,
                    "internalType": "address",
                    "name": "_caller",
                    "type": "address"
                },
                {
                    "indexed": true,
                    "internalType": "bytes32",
                    "name": "_collateralPoolId",
                    "type": "bytes32"
                },
                {
                    "indexed": false,
                    "internalType": "uint256",
                    "name": "_debtCeiling",
                    "type": "uint256"
                }
            ],
            "name": "LogSetDebtCeiling",
            "type": "event"
        },
        {
            "anonymous": false,
            "inputs": [
                {
                    "indexed": true,
                    "internalType": "address",
                    "name": "_caller",
                    "type": "address"
                },
                {
                    "indexed": true,
                    "internalType": "bytes32",
                    "name": "_collateralPoolId",
                    "type": "bytes32"
                },
                {
                    "indexed": false,
                    "internalType": "uint256",
                    "name": "_debtFloor",
                    "type": "uint256"
                }
            ],
            "name": "LogSetDebtFloor",
            "type": "event"
        },
        {
            "anonymous": false,
            "inputs": [
                {
                    "indexed": true,
                    "internalType": "address",
                    "name": "_caller",
                    "type": "address"
                },
                {
                    "indexed": true,
                    "internalType": "bytes32",
                    "name": "_poolId",
                    "type": "bytes32"
                },
                {
                    "indexed": false,
                    "internalType": "uint256",
                    "name": "_data",
                    "type": "uint256"
                }
            ],
            "name": "LogSetLiquidationRatio",
            "type": "event"
        },
        {
            "anonymous": false,
            "inputs": [
                {
                    "indexed": true,
                    "internalType": "address",
                    "name": "_caller",
                    "type": "address"
                },
                {
                    "indexed": true,
                    "internalType": "bytes32",
                    "name": "_collateralPoolId",
                    "type": "bytes32"
                },
                {
                    "indexed": false,
                    "internalType": "uint256",
                    "name": "_liquidatorIncentiveBps",
                    "type": "uint256"
                }
            ],
            "name": "LogSetLiquidatorIncentiveBps",
            "type": "event"
        },
        {
            "anonymous": false,
            "inputs": [
                {
                    "indexed": true,
                    "internalType": "address",
                    "name": "_caller",
                    "type": "address"
                },
                {
                    "indexed": true,
                    "internalType": "bytes32",
                    "name": "_poolId",
                    "type": "bytes32"
                },
                {
                    "indexed": false,
                    "internalType": "address",
                    "name": "_priceFeed",
                    "type": "address"
                }
            ],
            "name": "LogSetPriceFeed",
            "type": "event"
        },
        {
            "anonymous": false,
            "inputs": [
                {
                    "indexed": true,
                    "internalType": "address",
                    "name": "_caller",
                    "type": "address"
                },
                {
                    "indexed": true,
                    "internalType": "bytes32",
                    "name": "_collateralPoolId",
                    "type": "bytes32"
                },
                {
                    "indexed": false,
                    "internalType": "uint256",
                    "name": "_priceWithSafetyMargin",
                    "type": "uint256"
                }
            ],
            "name": "LogSetPriceWithSafetyMargin",
            "type": "event"
        },
        {
            "anonymous": false,
            "inputs": [
                {
                    "indexed": true,
                    "internalType": "address",
                    "name": "_caller",
                    "type": "address"
                },
                {
                    "indexed": true,
                    "internalType": "bytes32",
                    "name": "_poolId",
                    "type": "bytes32"
                },
                {
                    "indexed": false,
                    "internalType": "uint256",
                    "name": "_data",
                    "type": "uint256"
                }
            ],
            "name": "LogSetStabilityFeeRate",
            "type": "event"
        },
        {
            "anonymous": false,
            "inputs": [
                {
                    "indexed": true,
                    "internalType": "address",
                    "name": "_caller",
                    "type": "address"
                },
                {
                    "indexed": true,
                    "internalType": "bytes32",
                    "name": "_collateralPoolId",
                    "type": "bytes32"
                },
                {
                    "indexed": false,
                    "internalType": "address",
                    "name": "strategy",
                    "type": "address"
                }
            ],
            "name": "LogSetStrategy",
            "type": "event"
        },
        {
            "anonymous": false,
            "inputs": [
                {
                    "indexed": true,
                    "internalType": "address",
                    "name": "_caller",
                    "type": "address"
                },
                {
                    "indexed": true,
                    "internalType": "bytes32",
                    "name": "_collateralPoolId",
                    "type": "bytes32"
                },
                {
                    "indexed": false,
                    "internalType": "uint256",
                    "name": "_totalDebtShare",
                    "type": "uint256"
                }
            ],
            "name": "LogSetTotalDebtShare",
            "type": "event"
        },
        {
            "anonymous": false,
            "inputs": [
                {
                    "indexed": true,
                    "internalType": "address",
                    "name": "_caller",
                    "type": "address"
                },
                {
                    "indexed": true,
                    "internalType": "bytes32",
                    "name": "_collateralPoolId",
                    "type": "bytes32"
                },
                {
                    "indexed": false,
                    "internalType": "uint256",
                    "name": "_treasuryFeeBps",
                    "type": "uint256"
                }
            ],
            "name": "LogSetTreasuryFeesBps",
            "type": "event"
        },
        {
            "anonymous": false,
            "inputs": [
                {
                    "indexed": true,
                    "internalType": "bytes32",
                    "name": "role",
                    "type": "bytes32"
                },
                {
                    "indexed": true,
                    "internalType": "bytes32",
                    "name": "previousAdminRole",
                    "type": "bytes32"
                },
                {
                    "indexed": true,
                    "internalType": "bytes32",
                    "name": "newAdminRole",
                    "type": "bytes32"
                }
            ],
            "name": "RoleAdminChanged",
            "type": "event"
        },
        {
            "anonymous": false,
            "inputs": [
                {
                    "indexed": true,
                    "internalType": "bytes32",
                    "name": "role",
                    "type": "bytes32"
                },
                {
                    "indexed": true,
                    "internalType": "address",
                    "name": "account",
                    "type": "address"
                },
                {
                    "indexed": true,
                    "internalType": "address",
                    "name": "sender",
                    "type": "address"
                }
            ],
            "name": "RoleGranted",
            "type": "event"
        },
        {
            "anonymous": false,
            "inputs": [
                {
                    "indexed": true,
                    "internalType": "bytes32",
                    "name": "role",
                    "type": "bytes32"
                },
                {
                    "indexed": true,
                    "internalType": "address",
                    "name": "account",
                    "type": "address"
                },
                {
                    "indexed": true,
                    "internalType": "address",
                    "name": "sender",
                    "type": "address"
                }
            ],
            "name": "RoleRevoked",
            "type": "event"
        },
        {
            "inputs": [],
            "name": "DEFAULT_ADMIN_ROLE",
            "outputs": [
                {
                    "internalType": "bytes32",
                    "name": "",
                    "type": "bytes32"
                }
            ],
            "stateMutability": "view",
            "type": "function"
        },
        {
            "inputs": [],
            "name": "accessControlConfig",
            "outputs": [
                {
                    "internalType": "contract IAccessControlConfig",
                    "name": "",
                    "type": "address"
                }
            ],
            "stateMutability": "view",
            "type": "function"
        },
        {
            "inputs": [
                {
                    "internalType": "bytes32",
                    "name": "role",
                    "type": "bytes32"
                }
            ],
            "name": "getRoleAdmin",
            "outputs": [
                {
                    "internalType": "bytes32",
                    "name": "",
                    "type": "bytes32"
                }
            ],
            "stateMutability": "view",
            "type": "function"
        },
        {
            "inputs": [
                {
                    "internalType": "bytes32",
                    "name": "role",
                    "type": "bytes32"
                },
                {
                    "internalType": "address",
                    "name": "account",
                    "type": "address"
                }
            ],
            "name": "grantRole",
            "outputs": [],
            "stateMutability": "nonpayable",
            "type": "function"
        },
        {
            "inputs": [
                {
                    "internalType": "bytes32",
                    "name": "role",
                    "type": "bytes32"
                },
                {
                    "internalType": "address",
                    "name": "account",
                    "type": "address"
                }
            ],
            "name": "hasRole",
            "outputs": [
                {
                    "internalType": "bool",
                    "name": "",
                    "type": "bool"
                }
            ],
            "stateMutability": "view",
            "type": "function"
        },
        {
            "inputs": [
                {
                    "internalType": "bytes32",
                    "name": "role",
                    "type": "bytes32"
                },
                {
                    "internalType": "address",
                    "name": "account",
                    "type": "address"
                }
            ],
            "name": "renounceRole",
            "outputs": [],
            "stateMutability": "nonpayable",
            "type": "function"
        },
        {
            "inputs": [
                {
                    "internalType": "bytes32",
                    "name": "role",
                    "type": "bytes32"
                },
                {
                    "internalType": "address",
                    "name": "account",
                    "type": "address"
                }
            ],
            "name": "revokeRole",
            "outputs": [],
            "stateMutability": "nonpayable",
            "type": "function"
        },
        {
            "inputs": [
                {
                    "internalType": "bytes4",
                    "name": "interfaceId",
                    "type": "bytes4"
                }
            ],
            "name": "supportsInterface",
            "outputs": [
                {
                    "internalType": "bool",
                    "name": "",
                    "type": "bool"
                }
            ],
            "stateMutability": "view",
            "type": "function"
        },
        {
            "inputs": [
                {
                    "internalType": "address",
                    "name": "_accessControlConfig",
                    "type": "address"
                }
            ],
            "name": "initialize",
            "outputs": [],
            "stateMutability": "nonpayable",
            "type": "function"
        },
        {
            "inputs": [
                {
                    "internalType": "bytes32",
                    "name": "_collateralPoolId",
                    "type": "bytes32"
                },
                {
                    "internalType": "uint256",
                    "name": "_debtCeiling",
                    "type": "uint256"
                },
                {
                    "internalType": "uint256",
                    "name": "_debtFloor",
                    "type": "uint256"
                },
                {
                    "internalType": "uint256",
                    "name": "_positionDebtCeiling",
                    "type": "uint256"
                },
                {
                    "internalType": "address",
                    "name": "_priceFeed",
                    "type": "address"
                },
                {
                    "internalType": "uint256",
                    "name": "_liquidationRatio",
                    "type": "uint256"
                },
                {
                    "internalType": "uint256",
                    "name": "_stabilityFeeRate",
                    "type": "uint256"
                },
                {
                    "internalType": "address",
                    "name": "_adapter",
                    "type": "address"
                },
                {
                    "internalType": "uint256",
                    "name": "_closeFactorBps",
                    "type": "uint256"
                },
                {
                    "internalType": "uint256",
                    "name": "_liquidatorIncentiveBps",
                    "type": "uint256"
                },
                {
                    "internalType": "uint256",
                    "name": "_treasuryFeesBps",
                    "type": "uint256"
                },
                {
                    "internalType": "address",
                    "name": "_strategy",
                    "type": "address"
                }
            ],
            "name": "initCollateralPool",
            "outputs": [],
            "stateMutability": "nonpayable",
            "type": "function"
        },
        {
            "inputs": [
                {
                    "internalType": "bytes32",
                    "name": "_collateralPoolId",
                    "type": "bytes32"
                },
                {
                    "internalType": "uint256",
                    "name": "_priceWithSafetyMargin",
                    "type": "uint256"
                }
            ],
            "name": "setPriceWithSafetyMargin",
            "outputs": [],
            "stateMutability": "nonpayable",
            "type": "function"
        },
        {
            "inputs": [
                {
                    "internalType": "bytes32",
                    "name": "_collateralPoolId",
                    "type": "bytes32"
                },
                {
                    "internalType": "uint256",
                    "name": "_debtCeiling",
                    "type": "uint256"
                }
            ],
            "name": "setDebtCeiling",
            "outputs": [],
            "stateMutability": "nonpayable",
            "type": "function"
        },
        {
            "inputs": [
                {
                    "internalType": "bytes32",
                    "name": "_collateralPoolId",
                    "type": "bytes32"
                },
                {
                    "internalType": "uint256",
                    "name": "_debtFloor",
                    "type": "uint256"
                }
            ],
            "name": "setDebtFloor",
            "outputs": [],
            "stateMutability": "nonpayable",
            "type": "function"
        },
        {
            "inputs": [
                {
                    "internalType": "bytes32",
                    "name": "_collateralPoolId",
                    "type": "bytes32"
                },
                {
                    "internalType": "uint256",
                    "name": "_positionDebtCeiling",
                    "type": "uint256"
                }
            ],
            "name": "setPositionDebtCeiling",
            "outputs": [],
            "stateMutability": "nonpayable",
            "type": "function"
        },
        {
            "inputs": [
                {
                    "internalType": "bytes32",
                    "name": "_poolId",
                    "type": "bytes32"
                },
                {
                    "internalType": "address",
                    "name": "_priceFeed",
                    "type": "address"
                }
            ],
            "name": "setPriceFeed",
            "outputs": [],
            "stateMutability": "nonpayable",
            "type": "function"
        },
        {
            "inputs": [
                {
                    "internalType": "bytes32",
                    "name": "_poolId",
                    "type": "bytes32"
                },
                {
                    "internalType": "uint256",
                    "name": "_liquidationRatio",
                    "type": "uint256"
                }
            ],
            "name": "setLiquidationRatio",
            "outputs": [],
            "stateMutability": "nonpayable",
            "type": "function"
        },
        {
            "inputs": [
                {
                    "internalType": "bytes32",
                    "name": "_collateralPool",
                    "type": "bytes32"
                },
                {
                    "internalType": "uint256",
                    "name": "_stabilityFeeRate",
                    "type": "uint256"
                }
            ],
            "name": "setStabilityFeeRate",
            "outputs": [],
            "stateMutability": "nonpayable",
            "type": "function"
        },
        {
            "inputs": [
                {
                    "internalType": "bytes32",
                    "name": "_collateralPoolId",
                    "type": "bytes32"
                },
                {
                    "internalType": "address",
                    "name": "_adapter",
                    "type": "address"
                }
            ],
            "name": "setAdapter",
            "outputs": [],
            "stateMutability": "nonpayable",
            "type": "function"
        },
        {
            "inputs": [
                {
                    "internalType": "bytes32",
                    "name": "_collateralPoolId",
                    "type": "bytes32"
                },
                {
                    "internalType": "uint256",
                    "name": "_closeFactorBps",
                    "type": "uint256"
                }
            ],
            "name": "setCloseFactorBps",
            "outputs": [],
            "stateMutability": "nonpayable",
            "type": "function"
        },
        {
            "inputs": [
                {
                    "internalType": "bytes32",
                    "name": "_collateralPoolId",
                    "type": "bytes32"
                },
                {
                    "internalType": "uint256",
                    "name": "_liquidatorIncentiveBps",
                    "type": "uint256"
                }
            ],
            "name": "setLiquidatorIncentiveBps",
            "outputs": [],
            "stateMutability": "nonpayable",
            "type": "function"
        },
        {
            "inputs": [
                {
                    "internalType": "bytes32",
                    "name": "_collateralPoolId",
                    "type": "bytes32"
                },
                {
                    "internalType": "uint256",
                    "name": "_treasuryFeesBps",
                    "type": "uint256"
                }
            ],
            "name": "setTreasuryFeesBps",
            "outputs": [],
            "stateMutability": "nonpayable",
            "type": "function"
        },
        {
            "inputs": [
                {
                    "internalType": "bytes32",
                    "name": "_collateralPoolId",
                    "type": "bytes32"
                },
                {
                    "internalType": "uint256",
                    "name": "_totalDebtShare",
                    "type": "uint256"
                }
            ],
            "name": "setTotalDebtShare",
            "outputs": [],
            "stateMutability": "nonpayable",
            "type": "function"
        },
        {
            "inputs": [
                {
                    "internalType": "bytes32",
                    "name": "_collateralPoolId",
                    "type": "bytes32"
                },
                {
                    "internalType": "uint256",
                    "name": "_debtAccumulatedRate",
                    "type": "uint256"
                }
            ],
            "name": "setDebtAccumulatedRate",
            "outputs": [],
            "stateMutability": "nonpayable",
            "type": "function"
        },
        {
            "inputs": [
                {
                    "internalType": "bytes32",
                    "name": "_collateralPoolId",
                    "type": "bytes32"
                },
                {
                    "internalType": "address",
                    "name": "_strategy",
                    "type": "address"
                }
            ],
            "name": "setStrategy",
            "outputs": [],
            "stateMutability": "nonpayable",
            "type": "function"
        },
        {
            "inputs": [
                {
                    "internalType": "bytes32",
                    "name": "_collateralPoolId",
                    "type": "bytes32"
                }
            ],
            "name": "updateLastAccumulationTime",
            "outputs": [],
            "stateMutability": "nonpayable",
            "type": "function"
        },
        {
            "inputs": [
                {
                    "internalType": "bytes32",
                    "name": "_collateralPoolId",
                    "type": "bytes32"
                }
            ],
            "name": "collateralPools",
            "outputs": [
                {
                    "components": [
                        {
                            "internalType": "uint256",
                            "name": "totalDebtShare",
                            "type": "uint256"
                        },
                        {
                            "internalType": "uint256",
                            "name": "debtAccumulatedRate",
                            "type": "uint256"
                        },
                        {
                            "internalType": "uint256",
                            "name": "priceWithSafetyMargin",
                            "type": "uint256"
                        },
                        {
                            "internalType": "uint256",
                            "name": "debtCeiling",
                            "type": "uint256"
                        },
                        {
                            "internalType": "uint256",
                            "name": "debtFloor",
                            "type": "uint256"
                        },
                        {
                            "internalType": "address",
                            "name": "priceFeed",
                            "type": "address"
                        },
                        {
                            "internalType": "uint256",
                            "name": "liquidationRatio",
                            "type": "uint256"
                        },
                        {
                            "internalType": "uint256",
                            "name": "stabilityFeeRate",
                            "type": "uint256"
                        },
                        {
                            "internalType": "uint256",
                            "name": "lastAccumulationTime",
                            "type": "uint256"
                        },
                        {
                            "internalType": "address",
                            "name": "adapter",
                            "type": "address"
                        },
                        {
                            "internalType": "uint256",
                            "name": "closeFactorBps",
                            "type": "uint256"
                        },
                        {
                            "internalType": "uint256",
                            "name": "liquidatorIncentiveBps",
                            "type": "uint256"
                        },
                        {
                            "internalType": "uint256",
                            "name": "treasuryFeesBps",
                            "type": "uint256"
                        },
                        {
                            "internalType": "address",
                            "name": "strategy",
                            "type": "address"
                        },
                        {
                            "internalType": "uint256",
                            "name": "positionDebtCeiling",
                            "type": "uint256"
                        }
                    ],
                    "internalType": "struct ICollateralPoolConfig.CollateralPool",
                    "name": "",
                    "type": "tuple"
                }
            ],
            "stateMutability": "view",
            "type": "function"
        },
        {
            "inputs": [
                {
                    "internalType": "bytes32",
                    "name": "_collateralPoolId",
                    "type": "bytes32"
                }
            ],
            "name": "getTotalDebtShare",
            "outputs": [
                {
                    "internalType": "uint256",
                    "name": "",
                    "type": "uint256"
                }
            ],
            "stateMutability": "view",
            "type": "function"
        },
        {
            "inputs": [
                {
                    "internalType": "bytes32",
                    "name": "_collateralPoolId",
                    "type": "bytes32"
                }
            ],
            "name": "getDebtAccumulatedRate",
            "outputs": [
                {
                    "internalType": "uint256",
                    "name": "",
                    "type": "uint256"
                }
            ],
            "stateMutability": "view",
            "type": "function"
        },
        {
            "inputs": [
                {
                    "internalType": "bytes32",
                    "name": "_collateralPoolId",
                    "type": "bytes32"
                }
            ],
            "name": "getPriceWithSafetyMargin",
            "outputs": [
                {
                    "internalType": "uint256",
                    "name": "",
                    "type": "uint256"
                }
            ],
            "stateMutability": "view",
            "type": "function"
        },
        {
            "inputs": [
                {
                    "internalType": "bytes32",
                    "name": "_collateralPoolId",
                    "type": "bytes32"
                }
            ],
            "name": "getDebtCeiling",
            "outputs": [
                {
                    "internalType": "uint256",
                    "name": "",
                    "type": "uint256"
                }
            ],
            "stateMutability": "view",
            "type": "function"
        },
        {
            "inputs": [
                {
                    "internalType": "bytes32",
                    "name": "_collateralPoolId",
                    "type": "bytes32"
                }
            ],
            "name": "getPositionDebtCeiling",
            "outputs": [
                {
                    "internalType": "uint256",
                    "name": "",
                    "type": "uint256"
                }
            ],
            "stateMutability": "view",
            "type": "function"
        },
        {
            "inputs": [
                {
                    "internalType": "bytes32",
                    "name": "_collateralPoolId",
                    "type": "bytes32"
                }
            ],
            "name": "getDebtFloor",
            "outputs": [
                {
                    "internalType": "uint256",
                    "name": "",
                    "type": "uint256"
                }
            ],
            "stateMutability": "view",
            "type": "function"
        },
        {
            "inputs": [
                {
                    "internalType": "bytes32",
                    "name": "_collateralPoolId",
                    "type": "bytes32"
                }
            ],
            "name": "getPriceFeed",
            "outputs": [
                {
                    "internalType": "address",
                    "name": "",
                    "type": "address"
                }
            ],
            "stateMutability": "view",
            "type": "function"
        },
        {
            "inputs": [
                {
                    "internalType": "bytes32",
                    "name": "_collateralPoolId",
                    "type": "bytes32"
                }
            ],
            "name": "getLiquidationRatio",
            "outputs": [
                {
                    "internalType": "uint256",
                    "name": "",
                    "type": "uint256"
                }
            ],
            "stateMutability": "view",
            "type": "function"
        },
        {
            "inputs": [
                {
                    "internalType": "bytes32",
                    "name": "_collateralPoolId",
                    "type": "bytes32"
                }
            ],
            "name": "getStabilityFeeRate",
            "outputs": [
                {
                    "internalType": "uint256",
                    "name": "",
                    "type": "uint256"
                }
            ],
            "stateMutability": "view",
            "type": "function"
        },
        {
            "inputs": [
                {
                    "internalType": "bytes32",
                    "name": "_collateralPoolId",
                    "type": "bytes32"
                }
            ],
            "name": "getLastAccumulationTime",
            "outputs": [
                {
                    "internalType": "uint256",
                    "name": "",
                    "type": "uint256"
                }
            ],
            "stateMutability": "view",
            "type": "function"
        },
        {
            "inputs": [
                {
                    "internalType": "bytes32",
                    "name": "_collateralPoolId",
                    "type": "bytes32"
                }
            ],
            "name": "getAdapter",
            "outputs": [
                {
                    "internalType": "address",
                    "name": "",
                    "type": "address"
                }
            ],
            "stateMutability": "view",
            "type": "function"
        },
        {
            "inputs": [
                {
                    "internalType": "bytes32",
                    "name": "_collateralPoolId",
                    "type": "bytes32"
                }
            ],
            "name": "getCloseFactorBps",
            "outputs": [
                {
                    "internalType": "uint256",
                    "name": "",
                    "type": "uint256"
                }
            ],
            "stateMutability": "view",
            "type": "function"
        },
        {
            "inputs": [
                {
                    "internalType": "bytes32",
                    "name": "_collateralPoolId",
                    "type": "bytes32"
                }
            ],
            "name": "getLiquidatorIncentiveBps",
            "outputs": [
                {
                    "internalType": "uint256",
                    "name": "",
                    "type": "uint256"
                }
            ],
            "stateMutability": "view",
            "type": "function"
        },
        {
            "inputs": [
                {
                    "internalType": "bytes32",
                    "name": "_collateralPoolId",
                    "type": "bytes32"
                }
            ],
            "name": "getTreasuryFeesBps",
            "outputs": [
                {
                    "internalType": "uint256",
                    "name": "",
                    "type": "uint256"
                }
            ],
            "stateMutability": "view",
            "type": "function"
        },
        {
            "inputs": [
                {
                    "internalType": "bytes32",
                    "name": "_collateralPoolId",
                    "type": "bytes32"
                }
            ],
            "name": "getStrategy",
            "outputs": [
                {
                    "internalType": "address",
                    "name": "",
                    "type": "address"
                }
            ],
            "stateMutability": "view",
            "type": "function"
        },
        {
            "inputs": [
                {
                    "internalType": "bytes32",
                    "name": "_collateralPoolId",
                    "type": "bytes32"
                }
            ],
            "name": "getCollateralPoolInfo",
            "outputs": [
                {
                    "components": [
                        {
                            "internalType": "uint256",
                            "name": "debtAccumulatedRate",
                            "type": "uint256"
                        },
                        {
                            "internalType": "uint256",
                            "name": "totalDebtShare",
                            "type": "uint256"
                        },
                        {
                            "internalType": "uint256",
                            "name": "debtCeiling",
                            "type": "uint256"
                        },
                        {
                            "internalType": "uint256",
                            "name": "priceWithSafetyMargin",
                            "type": "uint256"
                        },
                        {
                            "internalType": "uint256",
                            "name": "debtFloor",
                            "type": "uint256"
                        },
                        {
                            "internalType": "uint256",
                            "name": "positionDebtCeiling",
                            "type": "uint256"
                        }
                    ],
                    "internalType": "struct ICollateralPoolConfig.CollateralPoolInfo",
                    "name": "_info",
                    "type": "tuple"
                }
            ],
            "stateMutability": "view",
            "type": "function"
        }
    ],
    "bytecode": "0x608060405234801561001057600080fd5b50613606806100206000396000f3fe608060405234801561001057600080fd5b506004361061025e5760003560e01c806391d1485411610146578063b7cc80d3116100c3578063d3fdc5e711610087578063d3fdc5e714610695578063d547741f146106a8578063d97a3649146106bb578063e47f3c6f146106db578063e73bbc79146106ee578063e73eb92e1461071157600080fd5b8063b7cc80d314610626578063bbd112a514610639578063be7c9f321461065c578063c4d66de81461066f578063c8cc243f1461068257600080fd5b8063a217fddf1161010a578063a217fddf146105c2578063a3c68b42146105ca578063a6726c81146105dd578063ad41d85d146105f0578063b3b1cfa21461061357600080fd5b806391d148541461054357806397a991b8146105565780639c1985d514610569578063a09b0fe01461058c578063a14cbb12146105af57600080fd5b806336568abe116101df57806373a4f962116101a357806373a4f962146104725780637722067b146104955780637a8bd02e146104a85780638272e138146104c85780638c0adf62146104f45780638c492d071461052057600080fd5b806336568abe146103f357806337629aa01461040657806340aa66ab1461041957806344d0c9371461043c5780635897b5711461045f57600080fd5b806328c84bbd1161022657806328c84bbd146103615780632a6af341146103a55780632f2ff15d146103ba5780632fa79780146103cd5780632fe6af44146103e057600080fd5b806301ffc9a7146102635780630ec057e51461028b5780631204769e146102bc5780631fea158d1461031b578063248a9ca31461033e575b600080fd5b610276610271366004612eff565b610724565b60405190151581526020015b60405180910390f35b6102ae610299366004612f29565b6000908152609760205260409020600b015490565b604051908152602001610282565b6102cf6102ca366004612f29565b61075b565b6040516102829190600060c082019050825182526020830151602083015260408301516040830152606083015160608301526080830151608083015260a083015160a083015292915050565b6102ae610329366004612f29565b60009081526097602052604090206007015490565b6102ae61034c366004612f29565b60009081526065602052604090206001015490565b61038d61036f366004612f29565b6000908152609760205260409020600d01546001600160a01b031690565b6040516001600160a01b039091168152602001610282565b6103b86103b3366004612f5e565b6107e6565b005b6103b86103c8366004612ffb565b610ec4565b6103b86103db366004613027565b610eee565b6103b86103ee366004613027565b61108e565b6103b8610401366004612ffb565b61120a565b6103b8610414366004612ffb565b611288565b6102ae610427366004612f29565b6000908152609760205260409020600e015490565b6102ae61044a366004612f29565b60009081526097602052604090206006015490565b6103b861046d366004613027565b611511565b6102ae610480366004612f29565b6000908152609760205260409020600c015490565b6103b86104a3366004613027565b6116aa565b6102ae6104b6366004612f29565b60009081526097602052604090205490565b61038d6104d6366004612f29565b6000908152609760205260409020600901546001600160a01b031690565b61038d610502366004612f29565b6000908152609760205260409020600501546001600160a01b031690565b6102ae61052e366004612f29565b60009081526097602052604090206002015490565b610276610551366004612ffb565b61185f565b6103b8610564366004613027565b61188a565b6102ae610577366004612f29565b60009081526097602052604090206004015490565b6102ae61059a366004612f29565b60009081526097602052604090206001015490565b6103b86105bd366004612ffb565b611a18565b6102ae600081565b6103b86105d8366004613027565b611bd3565b6103b86105eb366004612ffb565b611d85565b6102ae6105fe366004612f29565b60009081526097602052604090206003015490565b6103b8610621366004613027565b6120a4565b6103b8610634366004613027565b612205565b6102ae610647366004612f29565b60009081526097602052604090206008015490565b6103b861066a366004613027565b612377565b6103b861067d366004613049565b6124dc565b60985461038d906001600160a01b031681565b6103b86106a3366004613027565b6125f9565b6103b86106b6366004612ffb565b61275d565b6106ce6106c9366004612f29565b612782565b6040516102829190613064565b6103b86106e9366004613027565b6128df565b6102ae6106fc366004612f29565b6000908152609760205260409020600a015490565b6103b861071f366004612f29565b612ab9565b60006001600160e01b03198216637965db0b60e01b148061075557506301ffc9a760e01b6001600160e01b03198316145b92915050565b6107946040518060c001604052806000815260200160008152602001600081526020016000815260200160008152602001600081525090565b6000828152609760208181526040808420600181015486528054868401526003810154918601919091526002810154606086015260048101546080860152949092529052600e9091015460a082015290565b6098546040805163e58378bb60e01b815290516001600160a01b03909216916391d1485491839163e58378bb916004808201926020929091908290030181865afa158015610838573d6000803e3d6000fd5b505050506040513d601f19601f8201168201806040525081019061085c9190613138565b6040516001600160e01b031960e084901b1681526004810191909152336024820152604401602060405180830381865afa15801561089e573d6000803e3d6000fd5b505050506040513d601f19601f820116820180604052508101906108c29190613161565b6108e75760405162461bcd60e51b81526004016108de9061317c565b60405180910390fd5b60008c815260976020526040902060010154156109605760405162461bcd60e51b815260206004820152603160248201527f436f6c6c61746572616c506f6f6c436f6e6669672f636f6c6c61746572616c2d6044820152701c1bdbdb0b585b1c9958591e4b5a5b9a5d607a1b60648201526084016108de565b898b116109bd5760405162461bcd60e51b815260206004820152602560248201527f436f6c6c61746572616c506f6f6c436f6e6669672f696e76616c69642d6365696044820152646c69696e6760d81b60648201526084016108de565b8a89111580156109cc57508989115b6109e85760405162461bcd60e51b81526004016108de906131a0565b60008c815260976020908152604091829020676765c793fa10079d601b1b6001820155600381018e905560048082018e9055600e9091018c90558251631f06e1a760e11b815292518f936001600160a01b038d1693633e0dc34e938281019391928290030181865afa158015610a62573d6000803e3d6000fd5b505050506040513d601f19601f82011682018060405250810190610a869190613138565b14610aa35760405162461bcd60e51b81526004016108de906131ed565b876001600160a01b0316630184a92a6040518163ffffffff1660e01b8152600401602060405180830381865afa158015610ae1573d6000803e3d6000fd5b505050506040513d601f19601f82011682018060405250810190610b059190613161565b610b215760405162461bcd60e51b81526004016108de90613237565b876001600160a01b031663140d27206040518163ffffffff1660e01b815260040160408051808303816000875af1158015610b60573d6000803e3d6000fd5b505050506040513d601f19601f82011682018060405250810190610b849190613280565b505060008c815260976020526040902060050180546001600160a01b0319166001600160a01b038a16179055676765c793fa10079d601b1b871015610bdb5760405162461bcd60e51b81526004016108de906132a3565b60008c8152609760205260409020600601879055676765c793fa10079d601b1b861015610c1a5760405162461bcd60e51b81526004016108de906132f1565b6b033b2e3d523e808a07fcdc0b861115610c465760405162461bcd60e51b81526004016108de90613340565b60008c815260976020526040902060078101879055426008909101556001600160a01b038516610cc25760405162461bcd60e51b815260206004820152602160248201527f436f6c6c61746572616c506f6f6c436f6e6669672f7a65726f2d6164617074656044820152603960f91b60648201526084016108de565b8b856001600160a01b031663dca07dc56040518163ffffffff1660e01b8152600401602060405180830381865afa158015610d01573d6000803e3d6000fd5b505050506040513d601f19601f82011682018060405250810190610d259190613138565b14610d7d5760405162461bcd60e51b815260206004820152602260248201527f436f6c6c61746572616c506f6f6c436f6e6669672f77726f6e672d616461707460448201526132b960f11b60648201526084016108de565b60008c815260976020526040902060090180546001600160a01b0319166001600160a01b0387161790558315801590610db857506127108411155b610dd45760405162461bcd60e51b81526004016108de90613391565b6127108310158015610de85750614a388311155b610e045760405162461bcd60e51b81526004016108de906133de565b612328821115610e265760405162461bcd60e51b81526004016108de90613433565b60008c815260976020908152604091829020600a8101879055600b8101869055600c8101859055600d0180546001600160a01b0319166001600160a01b038581169190911790915582518e81529182018a905291810188905290861660608201528c907fec3fdce1e4d9d4d24cb287bc5e2821e9d5a279b2c904251fe845a7f95aaa73919060800160405180910390a2505050505050505050505050565b600082815260656020526040902060010154610edf81612bf7565b610ee98383612c04565b505050565b6098546040805163e58378bb60e01b815290516001600160a01b03909216916391d1485491839163e58378bb916004808201926020929091908290030181865afa158015610f40573d6000803e3d6000fd5b505050506040513d601f19601f82011682018060405250810190610f649190613138565b6040516001600160e01b031960e084901b1681526004810191909152336024820152604401602060405180830381865afa158015610fa6573d6000803e3d6000fd5b505050506040513d601f19601f82011682018060405250810190610fca9190613161565b610fe65760405162461bcd60e51b81526004016108de9061317c565b6000828152609760205260409020600301548111801590611017575060008281526097602052604090206004015481115b6110335760405162461bcd60e51b81526004016108de906131a0565b600082815260976020908152604091829020600e0183905581513381529081018490529081018290527fc3ceec01f8c54ce9a11d170612bdc0052897f1f89774b51df78b62b086f15cd9906060015b60405180910390a15050565b6098546040805163e58378bb60e01b815290516001600160a01b03909216916391d1485491839163e58378bb916004808201926020929091908290030181865afa1580156110e0573d6000803e3d6000fd5b505050506040513d601f19601f820116820180604052508101906111049190613138565b6040516001600160e01b031960e084901b1681526004810191909152336024820152604401602060405180830381865afa158015611146573d6000803e3d6000fd5b505050506040513d601f19601f8201168201806040525081019061116a9190613161565b6111865760405162461bcd60e51b81526004016108de9061317c565b60008111801561119857506127108111155b6111b45760405162461bcd60e51b81526004016108de90613391565b60008281526097602052604090819020600a0182905551829033907f42810b2bf88c5f14e5d6e5c488f36bfa8082d60183daa19bf43e57f58b43cc16906111fe9085815260200190565b60405180910390a35050565b6001600160a01b038116331461127a5760405162461bcd60e51b815260206004820152602f60248201527f416363657373436f6e74726f6c3a2063616e206f6e6c792072656e6f756e636560448201526e103937b632b9903337b91039b2b63360891b60648201526084016108de565b6112848282612c8a565b5050565b6098546040805163e58378bb60e01b815290516001600160a01b03909216916391d1485491839163e58378bb916004808201926020929091908290030181865afa1580156112da573d6000803e3d6000fd5b505050506040513d601f19601f820116820180604052508101906112fe9190613138565b6040516001600160e01b031960e084901b1681526004810191909152336024820152604401602060405180830381865afa158015611340573d6000803e3d6000fd5b505050506040513d601f19601f820116820180604052508101906113649190613161565b6113805760405162461bcd60e51b81526004016108de9061317c565b6001600160a01b0381166113eb5760405162461bcd60e51b815260206004820152602c60248201527f436f6c6c61746572616c506f6f6c436f6e6669672f736574416461707465722d60448201526b7a65726f2d6164647265737360a01b60648201526084016108de565b81816001600160a01b031663dca07dc56040518163ffffffff1660e01b8152600401602060405180830381865afa15801561142a573d6000803e3d6000fd5b505050506040513d601f19601f8201168201806040525081019061144e9190613138565b146114af5760405162461bcd60e51b815260206004820152602b60248201527f436f6c6c61746572616c506f6f6c436f6e6669672f736574416461707465722d60448201526a1ddc9bdb99d41bdbdb125960aa1b60648201526084016108de565b60008281526097602090815260409182902060090180546001600160a01b0319166001600160a01b0385169081179091559151918252839133917f6a8721e2a39a7b4c4077afea31294313cf77bb4e00db5d6ee64d9de6f37ec53e91016111fe565b6098546040805163e58378bb60e01b815290516001600160a01b03909216916391d1485491839163e58378bb916004808201926020929091908290030181865afa158015611563573d6000803e3d6000fd5b505050506040513d601f19601f820116820180604052508101906115879190613138565b6040516001600160e01b031960e084901b1681526004810191909152336024820152604401602060405180830381865afa1580156115c9573d6000803e3d6000fd5b505050506040513d601f19601f820116820180604052508101906115ed9190613161565b6116095760405162461bcd60e51b81526004016108de9061317c565b676765c793fa10079d601b1b8110156116345760405162461bcd60e51b81526004016108de906132f1565b6b033b2e3d523e808a07fcdc0b8111156116605760405162461bcd60e51b81526004016108de90613340565b6000828152609760205260409081902060070182905551829033907fa9c4195940f169a77487ff98fd68eb19e68d102a7bd11d5b0ed337661f5f8f19906111fe9085815260200190565b6098546040805163e58378bb60e01b815290516001600160a01b03909216916391d1485491839163e58378bb916004808201926020929091908290030181865afa1580156116fc573d6000803e3d6000fd5b505050506040513d601f19601f820116820180604052508101906117209190613138565b6040516001600160e01b031960e084901b1681526004810191909152336024820152604401602060405180830381865afa158015611762573d6000803e3d6000fd5b505050506040513d601f19601f820116820180604052508101906117869190613161565b6117a25760405162461bcd60e51b81526004016108de9061317c565b6000828152609760205260409020600e01548110156118155760405162461bcd60e51b815260206004820152602960248201527f436f6c6c61746572616c506f6f6c436f6e6669672f696e76616c69642d646562604482015268742d6365696c696e6760b81b60648201526084016108de565b6000828152609760205260409081902060030182905551829033907f4f4a7c062642f5f259628a4a67ff6fee09ecd64ce33f018b645635203d531ae2906111fe9085815260200190565b60009182526065602090815260408084206001600160a01b0393909316845291905290205460ff1690565b6098546040805163e58378bb60e01b815290516001600160a01b03909216916391d1485491839163e58378bb916004808201926020929091908290030181865afa1580156118dc573d6000803e3d6000fd5b505050506040513d601f19601f820116820180604052508101906119009190613138565b6040516001600160e01b031960e084901b1681526004810191909152336024820152604401602060405180830381865afa158015611942573d6000803e3d6000fd5b505050506040513d601f19601f820116820180604052508101906119669190613161565b6119825760405162461bcd60e51b81526004016108de9061317c565b676765c793fa10079d601b1b81101580156119b257506119ae676765c793fa10079d601b1b6064613497565b8111155b6119ce5760405162461bcd60e51b81526004016108de906132a3565b6000828152609760205260409081902060060182905551829033907f2dd5cec90f5c89b9886d2e3527094edb4b46a5ab75e6b277afd6393f0aa52373906111fe9085815260200190565b6098546040805163e58378bb60e01b815290516001600160a01b03909216916391d1485491839163e58378bb916004808201926020929091908290030181865afa158015611a6a573d6000803e3d6000fd5b505050506040513d601f19601f82011682018060405250810190611a8e9190613138565b6040516001600160e01b031960e084901b1681526004810191909152336024820152604401602060405180830381865afa158015611ad0573d6000803e3d6000fd5b505050506040513d601f19601f82011682018060405250810190611af49190613161565b611b105760405162461bcd60e51b81526004016108de9061317c565b6001600160a01b038116611b715760405162461bcd60e51b815260206004820152602260248201527f436f6c6c61746572616c506f6f6c436f6e6669672f7a65726f2d737472617465604482015261677960f01b60648201526084016108de565b600082815260976020908152604091829020600d0180546001600160a01b0319166001600160a01b0385169081179091559151918252839133917ff8d3f0da75258c6c4a3a31a2b4642e60db99f3b5477f0f799088fec42ac6b38d91016111fe565b6098546040805163e58378bb60e01b815290516001600160a01b03909216916391d1485491839163e58378bb916004808201926020929091908290030181865afa158015611c25573d6000803e3d6000fd5b505050506040513d601f19601f82011682018060405250810190611c499190613138565b6040516001600160e01b031960e084901b1681526004810191909152336024820152604401602060405180830381865afa158015611c8b573d6000803e3d6000fd5b505050506040513d601f19601f82011682018060405250810190611caf9190613161565b611ccb5760405162461bcd60e51b81526004016108de9061317c565b6000828152609760205260409020600e01548110611d3b5760405162461bcd60e51b815260206004820152602760248201527f436f6c6c61746572616c506f6f6c436f6e6669672f696e76616c69642d6465626044820152663a16b33637b7b960c91b60648201526084016108de565b6000828152609760205260409081902060040182905551829033907f5c7ce9b131da68fe8ad20b6cf7d870358657eb014d8c830f67d3b956d7c297ac906111fe9085815260200190565b6098546040805163e58378bb60e01b815290516001600160a01b03909216916391d1485491839163e58378bb916004808201926020929091908290030181865afa158015611dd7573d6000803e3d6000fd5b505050506040513d601f19601f82011682018060405250810190611dfb9190613138565b6040516001600160e01b031960e084901b1681526004810191909152336024820152604401602060405180830381865afa158015611e3d573d6000803e3d6000fd5b505050506040513d601f19601f82011682018060405250810190611e619190613161565b611e7d5760405162461bcd60e51b81526004016108de9061317c565b6001600160a01b038116611edf5760405162461bcd60e51b8152602060048201526024808201527f436f6c6c61746572616c506f6f6c436f6e6669672f7a65726f2d70726963652d6044820152631999595960e21b60648201526084016108de565b81816001600160a01b0316633e0dc34e6040518163ffffffff1660e01b8152600401602060405180830381865afa158015611f1e573d6000803e3d6000fd5b505050506040513d601f19601f82011682018060405250810190611f429190613138565b14611f5f5760405162461bcd60e51b81526004016108de906131ed565b806001600160a01b0316630184a92a6040518163ffffffff1660e01b8152600401602060405180830381865afa158015611f9d573d6000803e3d6000fd5b505050506040513d601f19601f82011682018060405250810190611fc19190613161565b611fdd5760405162461bcd60e51b81526004016108de90613237565b806001600160a01b031663140d27206040518163ffffffff1660e01b815260040160408051808303816000875af115801561201c573d6000803e3d6000fd5b505050506040513d601f19601f820116820180604052508101906120409190613280565b505060008281526097602090815260409182902060050180546001600160a01b0319166001600160a01b0385169081179091559151918252839133917fda0dc73df45d13e8d63f64cd1f08c36b18cb90bcb896f639ea24a122b435496d91016111fe565b60985460408051636792166f60e01b815290516001600160a01b03909216916391d14854918391636792166f916004808201926020929091908290030181865afa1580156120f6573d6000803e3d6000fd5b505050506040513d601f19601f8201168201806040525081019061211a9190613138565b6040516001600160e01b031960e084901b1681526004810191909152336024820152604401602060405180830381865afa15801561215c573d6000803e3d6000fd5b505050506040513d601f19601f820116820180604052508101906121809190613161565b6121be5760405162461bcd60e51b815260206004820152600f60248201526e21626f6f6b4b6565706572526f6c6560881b60448201526064016108de565b6000828152609760205260409081902082905551829033907f8a154f019e08f1b1da116ec99dd6d59b74b32a69be219bad788d9c095e84e46e906111fe9085815260200190565b6098546040805163e58378bb60e01b815290516001600160a01b03909216916391d1485491839163e58378bb916004808201926020929091908290030181865afa158015612257573d6000803e3d6000fd5b505050506040513d601f19601f8201168201806040525081019061227b9190613138565b6040516001600160e01b031960e084901b1681526004810191909152336024820152604401602060405180830381865afa1580156122bd573d6000803e3d6000fd5b505050506040513d601f19601f820116820180604052508101906122e19190613161565b6122fd5760405162461bcd60e51b81526004016108de9061317c565b61271081101580156123115750614a388111155b61232d5760405162461bcd60e51b81526004016108de906133de565b60008281526097602052604090819020600b0182905551829033907fcf7a2b7293b9e5c2ebff583418dad7de6abde074357224117aa5f99333712ee5906111fe9085815260200190565b6098546040805163b998902f60e01b815290516001600160a01b03909216916391d1485491839163b998902f916004808201926020929091908290030181865afa1580156123c9573d6000803e3d6000fd5b505050506040513d601f19601f820116820180604052508101906123ed9190613138565b6040516001600160e01b031960e084901b1681526004810191909152336024820152604401602060405180830381865afa15801561242f573d6000803e3d6000fd5b505050506040513d601f19601f820116820180604052508101906124539190613161565b6124925760405162461bcd60e51b815260206004820152601060248201526f2170726963654f7261636c65526f6c6560801b60448201526064016108de565b6000828152609760205260409081902060020182905551829033907f3f8d75e25e91fca161ee992d8f5334a1dee3546396e6eeeddf7bebad3def464a906111fe9085815260200190565b600054610100900460ff16158080156124fc5750600054600160ff909116105b806125165750303b158015612516575060005460ff166001145b6125795760405162461bcd60e51b815260206004820152602e60248201527f496e697469616c697a61626c653a20636f6e747261637420697320616c72656160448201526d191e481a5b9a5d1a585b1a5e995960921b60648201526084016108de565b6000805460ff19166001179055801561259c576000805461ff0019166101001790555b609880546001600160a01b0319166001600160a01b0384161790558015611284576000805461ff0019169055604051600181527f7f26b83ff96e1f2b6a682f133852f6798a09c465da95921460cefb384740249890602001611082565b6098546040805163e58378bb60e01b815290516001600160a01b03909216916391d1485491839163e58378bb916004808201926020929091908290030181865afa15801561264b573d6000803e3d6000fd5b505050506040513d601f19601f8201168201806040525081019061266f9190613138565b6040516001600160e01b031960e084901b1681526004810191909152336024820152604401602060405180830381865afa1580156126b1573d6000803e3d6000fd5b505050506040513d601f19601f820116820180604052508101906126d59190613161565b6126f15760405162461bcd60e51b81526004016108de9061317c565b6123288111156127135760405162461bcd60e51b81526004016108de90613433565b60008281526097602052604090819020600c0182905551829033907fa6cd9a2a9bff53ac1fcfcd1b85687f6127841bd5ba1e2d10afe58ba31d945845906111fe9085815260200190565b60008281526065602052604090206001015461277881612bf7565b610ee98383612c8a565b612816604051806101e00160405280600081526020016000815260200160008152602001600081526020016000815260200160006001600160a01b0316815260200160008152602001600081526020016000815260200160006001600160a01b0316815260200160008152602001600081526020016000815260200160006001600160a01b03168152602001600081525090565b5060009081526097602090815260409182902082516101e08101845281548152600182015492810192909252600281015492820192909252600382015460608201526004820154608082015260058201546001600160a01b0390811660a0830152600683015460c0830152600783015460e0830152600883015461010083015260098301548116610120830152600a830154610140830152600b830154610160830152600c830154610180830152600d830154166101a0820152600e909101546101c082015290565b60985460408051636792166f60e01b815290516001600160a01b03909216916391d14854918391636792166f916004808201926020929091908290030181865afa158015612931573d6000803e3d6000fd5b505050506040513d601f19601f820116820180604052508101906129559190613138565b6040516001600160e01b031960e084901b1681526004810191909152336024820152604401602060405180830381865afa158015612997573d6000803e3d6000fd5b505050506040513d601f19601f820116820180604052508101906129bb9190613161565b6129f95760405162461bcd60e51b815260206004820152600f60248201526e21626f6f6b4b6565706572526f6c6560881b60448201526064016108de565b676765c793fa10079d601b1b811015612a6f5760405162461bcd60e51b815260206004820152603260248201527f436f6c6c61746572616c506f6f6c436f6e6669672f696e76616c69642d646562604482015271742d616363756d756c617465642d7261746560701b60648201526084016108de565b6000828152609760205260409081902060010182905551829033907f990224c41a18cc2e5688940dc28dc43872d8b96854b6099c52b2ae5d4ed1e9d2906111fe9085815260200190565b60985460408051620470d160eb1b815290516001600160a01b03909216916391d148549183916323868800916004808201926020929091908290030181865afa158015612b0a573d6000803e3d6000fd5b505050506040513d601f19601f82011682018060405250810190612b2e9190613138565b6040516001600160e01b031960e084901b1681526004810191909152336024820152604401602060405180830381865afa158015612b70573d6000803e3d6000fd5b505050506040513d601f19601f82011682018060405250810190612b949190613161565b612be05760405162461bcd60e51b815260206004820152601a60248201527f2173746162696c697479466565436f6c6c6563746f72526f6c6500000000000060448201526064016108de565b600090815260976020526040902042600890910155565b612c018133612cf1565b50565b612c0e828261185f565b6112845760008281526065602090815260408083206001600160a01b03851684529091529020805460ff19166001179055612c463390565b6001600160a01b0316816001600160a01b0316837f2f8788117e7eff1d82e926ec794901d17c78024a50270940304540a733656f0d60405160405180910390a45050565b612c94828261185f565b156112845760008281526065602090815260408083206001600160a01b0385168085529252808320805460ff1916905551339285917ff6391f5c32d9c69d2a47ea670b442974b53935d1edc7fd64eb21e047a839171b9190a45050565b612cfb828261185f565b61128457612d0881612d4a565b612d13836020612d5c565b604051602001612d249291906134d2565b60408051601f198184030181529082905262461bcd60e51b82526108de91600401613547565b60606107556001600160a01b03831660145b60606000612d6b836002613497565b612d7690600261357a565b67ffffffffffffffff811115612d8e57612d8e61358d565b6040519080825280601f01601f191660200182016040528015612db8576020820181803683370190505b509050600360fc1b81600081518110612dd357612dd36135a3565b60200101906001600160f81b031916908160001a905350600f60fb1b81600181518110612e0257612e026135a3565b60200101906001600160f81b031916908160001a9053506000612e26846002613497565b612e3190600161357a565b90505b6001811115612ea9576f181899199a1a9b1b9c1cb0b131b232b360811b85600f1660108110612e6557612e656135a3565b1a60f81b828281518110612e7b57612e7b6135a3565b60200101906001600160f81b031916908160001a90535060049490941c93612ea2816135b9565b9050612e34565b508315612ef85760405162461bcd60e51b815260206004820181905260248201527f537472696e67733a20686578206c656e67746820696e73756666696369656e7460448201526064016108de565b9392505050565b600060208284031215612f1157600080fd5b81356001600160e01b031981168114612ef857600080fd5b600060208284031215612f3b57600080fd5b5035919050565b80356001600160a01b0381168114612f5957600080fd5b919050565b6000806000806000806000806000806000806101808d8f031215612f8157600080fd5b8c359b5060208d01359a5060408d0135995060608d01359850612fa660808e01612f42565b975060a08d0135965060c08d01359550612fc260e08e01612f42565b94506101008d013593506101208d013592506101408d01359150612fe96101608e01612f42565b90509295989b509295989b509295989b565b6000806040838503121561300e57600080fd5b8235915061301e60208401612f42565b90509250929050565b6000806040838503121561303a57600080fd5b50508035926020909101359150565b60006020828403121561305b57600080fd5b612ef882612f42565b60006101e082019050825182526020830151602083015260408301516040830152606083015160608301526080830151608083015260a08301516130b360a08401826001600160a01b03169052565b5060c083015160c083015260e083015160e0830152610100808401518184015250610120808401516130ef828501826001600160a01b03169052565b50506101408381015190830152610160808401519083015261018080840151908301526101a0808401516001600160a01b0381168285015250506101c092830151919092015290565b60006020828403121561314a57600080fd5b5051919050565b80518015158114612f5957600080fd5b60006020828403121561317357600080fd5b612ef882613151565b6020808252600a9082015269216f776e6572526f6c6560b01b604082015260600190565b6020808252602d908201527f436f6c6c61746572616c506f6f6c436f6e6669672f696e76616c69642d706f7360408201526c6974696f6e2d6365696c696e6760981b606082015260800190565b6020808252602a908201527f436f6c6c61746572616c506f6f6c436f6e6669672f77726f6e672d70726963656040820152690b599959590b5c1bdbdb60b21b606082015260800190565b60208082526029908201527f436f6c6c61746572616c506f6f6c436f6e6669672f756e6865616c7468792d706040820152681c9a58d94b5999595960ba1b606082015260800190565b6000806040838503121561329357600080fd5b8251915061301e60208401613151565b6020808252602e908201527f436f6c6c61746572616c506f6f6c436f6e6669672f696e76616c69642d6c697160408201526d7569646174696f6e2d726174696f60901b606082015260800190565b6020808252602f908201527f436f6c6c61746572616c506f6f6c436f6e6669672f696e76616c69642d73746160408201526e62696c6974792d6665652d7261746560881b606082015260800190565b60208082526031908201527f436f6c6c61746572616c506f6f6c436f6e6669672f73746162696c6974792d6660408201527065652d726174652d746f6f2d6c6172676560781b606082015260800190565b6020808252602d908201527f436f6c6c61746572616c506f6f6c436f6e6669672f696e76616c69642d636c6f60408201526c73652d666163746f722d62707360981b606082015260800190565b60208082526035908201527f436f6c6c61746572616c506f6f6c436f6e6669672f696e76616c69642d6c697160408201527475696461746f722d696e63656e746976652d62707360581b606082015260800190565b6020808252602e908201527f436f6c6c61746572616c506f6f6c436f6e6669672f696e76616c69642d74726560408201526d61737572792d666565732d62707360901b606082015260800190565b634e487b7160e01b600052601160045260246000fd5b808202811582820484141761075557610755613481565b60005b838110156134c95781810151838201526020016134b1565b50506000910152565b7f416363657373436f6e74726f6c3a206163636f756e742000000000000000000081526000835161350a8160178501602088016134ae565b7001034b99036b4b9b9b4b733903937b6329607d1b601791840191820152835161353b8160288401602088016134ae565b01602801949350505050565b60208152600082518060208401526135668160408501602087016134ae565b601f01601f19169190910160400192915050565b8082018082111561075557610755613481565b634e487b7160e01b600052604160045260246000fd5b634e487b7160e01b600052603260045260246000fd5b6000816135c8576135c8613481565b50600019019056fea264697066735822122050dc71bbd3108c775e88ba9dccb306f2cda11766f1e9cf6333112fac521056a364736f6c63430008110033",
    "immutableReferences": {},
    "source": "// SPDX-License-Identifier: AGPL-3.0-or-later\npragma solidity 0.8.17;\n\nimport \"@openzeppelin/contracts-upgradeable/access/AccessControlUpgradeable.sol\";\n\nimport \"../../interfaces/IPriceFeed.sol\";\nimport \"../../interfaces/IGenericTokenAdapter.sol\";\nimport \"../../interfaces/ICollateralPoolConfig.sol\";\nimport \"../../interfaces/IAccessControlConfig.sol\";\n\n/**\n * @title CollateralPoolConfig\n * @notice A contract can add collateral pool type to the protocol and also manage settings for a specific pool type.\n */\n\ncontract CollateralPoolConfig is AccessControlUpgradeable, ICollateralPoolConfig {\n    uint256 internal constant RAY = 10 ** 27;\n\n    mapping(bytes32 => ICollateralPoolConfig.CollateralPool) private _collateralPools;\n    IAccessControlConfig public accessControlConfig;\n\n    event LogSetPriceWithSafetyMargin(address indexed _caller, bytes32 indexed _collateralPoolId, uint256 _priceWithSafetyMargin);\n    event LogSetDebtCeiling(address indexed _caller, bytes32 indexed _collateralPoolId, uint256 _debtCeiling);\n    event LogSetDebtFloor(address indexed _caller, bytes32 indexed _collateralPoolId, uint256 _debtFloor);\n    event LogSetPriceFeed(address indexed _caller, bytes32 indexed _poolId, address _priceFeed);\n    event LogSetLiquidationRatio(address indexed _caller, bytes32 indexed _poolId, uint256 _data);\n    event LogSetStabilityFeeRate(address indexed _caller, bytes32 indexed _poolId, uint256 _data);\n    event LogSetAdapter(address indexed _caller, bytes32 indexed _collateralPoolId, address _adapter);\n    event LogSetCloseFactorBps(address indexed _caller, bytes32 indexed _collateralPoolId, uint256 _closeFactorBps);\n    event LogSetLiquidatorIncentiveBps(address indexed _caller, bytes32 indexed _collateralPoolId, uint256 _liquidatorIncentiveBps);\n    event LogSetTreasuryFeesBps(address indexed _caller, bytes32 indexed _collateralPoolId, uint256 _treasuryFeeBps);\n    event LogSetStrategy(address indexed _caller, bytes32 indexed _collateralPoolId, address strategy);\n    event LogSetTotalDebtShare(address indexed _caller, bytes32 indexed _collateralPoolId, uint256 _totalDebtShare);\n    event LogSetDebtAccumulatedRate(address indexed _caller, bytes32 indexed _collateralPoolId, uint256 _debtAccumulatedRate);\n    event LogInitCollateralPoolId(\n        bytes32 indexed _collateralPoolId,\n        uint256 _debtCeiling,\n        uint256 _liquidationRatio,\n        uint256 _stabilityFeeRate,\n        address _adapter\n    );\n    event LogPositionDebtCeiling(address _messageSender, bytes32 _collateralPoolId, uint256 _positionDebtCeiling);\n\n    modifier onlyOwner() {\n        require(accessControlConfig.hasRole(accessControlConfig.OWNER_ROLE(), msg.sender), \"!ownerRole\");\n        _;\n    }\n\n    function initialize(address _accessControlConfig) external initializer {\n        accessControlConfig = IAccessControlConfig(_accessControlConfig);\n    }\n    /**\n    //@notice this function adds a collateral pool type to Fathom protocol\n    //@dev please refer to the deployment/migration script for more detail info on units for each params.\n     */\n    function initCollateralPool(\n        bytes32 _collateralPoolId, // Identifier for a specific collateral pool.\n        uint256 _debtCeiling, // Debt ceiling of this collateral pool                                          [rad] \n        uint256 _debtFloor, // Position debt floor of this collateral pool                                     [rad]\n        uint256 _positionDebtCeiling, // position debt ceiling of this collateral pool                         [rad]\n        address _priceFeed,\n        uint256 _liquidationRatio, // Liquidation ratio or Collateral ratio, inverse of LTV                    [ray]\n        uint256 _stabilityFeeRate, //Collateral-specific, per-second stability fee debtAccumulatedRate or mint interest debtAccumulatedRate [ray]\n        address _adapter,   // collateralTokenAdapter address for a specific collateral pool\n        uint256 _closeFactorBps, // Percentage (BPS) of how much  of debt could be liquidated in a single liquidation\n        uint256 _liquidatorIncentiveBps, // Percentage (BPS) of how much additional collateral will be given to the liquidator incentive\n        uint256 _treasuryFeesBps, // Percentage (BPS) of how much additional collateral will be transferred to the treasury\n        address _strategy  // Liquidation strategy for this collateral pool\n    ) external onlyOwner {\n        require(_collateralPools[_collateralPoolId].debtAccumulatedRate == 0, \"CollateralPoolConfig/collateral-pool-already-init\");\n        require(_debtCeiling > _debtFloor, \"CollateralPoolConfig/invalid-ceiliing\");\n        require(\n            _positionDebtCeiling <= _debtCeiling && _positionDebtCeiling > _debtFloor, \n            \"CollateralPoolConfig/invalid-position-ceiling\"\n        );\n        \n        _collateralPools[_collateralPoolId].debtAccumulatedRate = RAY;\n        _collateralPools[_collateralPoolId].debtCeiling = _debtCeiling;\n        _collateralPools[_collateralPoolId].debtFloor = _debtFloor;\n        _collateralPools[_collateralPoolId].positionDebtCeiling = _positionDebtCeiling;\n\n        require(IPriceFeed(_priceFeed).poolId() == _collateralPoolId, \"CollateralPoolConfig/wrong-price-feed-pool\");\n        require(IPriceFeed(_priceFeed).isPriceOk(), \"CollateralPoolConfig/unhealthy-price-feed\");\n        IPriceFeed(_priceFeed).peekPrice(); // Sanity Check Call\n\n        _collateralPools[_collateralPoolId].priceFeed = _priceFeed;\n        require(_liquidationRatio >= RAY, \"CollateralPoolConfig/invalid-liquidation-ratio\");\n        _collateralPools[_collateralPoolId].liquidationRatio = _liquidationRatio;\n        require(_stabilityFeeRate >= RAY, \"CollateralPoolConfig/invalid-stability-fee-rate\");\n        // Maximum stability fee rate is 50% yearly\n        require(_stabilityFeeRate <= 1000000012857214317438491659, \"CollateralPoolConfig/stability-fee-rate-too-large\");\n        _collateralPools[_collateralPoolId].stabilityFeeRate = _stabilityFeeRate;\n        _collateralPools[_collateralPoolId].lastAccumulationTime = block.timestamp;\n\n        require(_adapter != address(0), \"CollateralPoolConfig/zero-adapter\");\n        require(IGenericTokenAdapter(_adapter).collateralPoolId() == _collateralPoolId, \"CollateralPoolConfig/wrong-adapter\");\n        _collateralPools[_collateralPoolId].adapter = _adapter;\n        require(_closeFactorBps > 0 && _closeFactorBps <= 10000, \"CollateralPoolConfig/invalid-close-factor-bps\");\n        require(_liquidatorIncentiveBps >= 10000 && _liquidatorIncentiveBps <= 19000, \"CollateralPoolConfig/invalid-liquidator-incentive-bps\");\n        require(_treasuryFeesBps <= 9000, \"CollateralPoolConfig/invalid-treasury-fees-bps\");\n        _collateralPools[_collateralPoolId].closeFactorBps = _closeFactorBps;\n        _collateralPools[_collateralPoolId].liquidatorIncentiveBps = _liquidatorIncentiveBps;\n        _collateralPools[_collateralPoolId].treasuryFeesBps = _treasuryFeesBps;\n        _collateralPools[_collateralPoolId].strategy = _strategy;\n\n        emit LogInitCollateralPoolId(_collateralPoolId, _debtCeiling, _liquidationRatio, _stabilityFeeRate, _adapter);\n    }\n\n    function setPriceWithSafetyMargin(bytes32 _collateralPoolId, uint256 _priceWithSafetyMargin) external override {\n        require(accessControlConfig.hasRole(accessControlConfig.PRICE_ORACLE_ROLE(), msg.sender), \"!priceOracleRole\");\n        _collateralPools[_collateralPoolId].priceWithSafetyMargin = _priceWithSafetyMargin;\n        emit LogSetPriceWithSafetyMargin(msg.sender, _collateralPoolId, _priceWithSafetyMargin);\n    }\n\n    function setDebtCeiling(bytes32 _collateralPoolId, uint256 _debtCeiling) external onlyOwner {\n        require(\n            _debtCeiling >= _collateralPools[_collateralPoolId].positionDebtCeiling, \n            \"CollateralPoolConfig/invalid-debt-ceiling\"\n        );\n\n        _collateralPools[_collateralPoolId].debtCeiling = _debtCeiling;\n        emit LogSetDebtCeiling(msg.sender, _collateralPoolId, _debtCeiling);\n    }\n\n    function setDebtFloor(bytes32 _collateralPoolId, uint256 _debtFloor) external onlyOwner {\n        require(_debtFloor < _collateralPools[_collateralPoolId].positionDebtCeiling, \"CollateralPoolConfig/invalid-debt-floor\");\n        _collateralPools[_collateralPoolId].debtFloor = _debtFloor;\n        emit LogSetDebtFloor(msg.sender, _collateralPoolId, _debtFloor);\n    }\n\n    function setPositionDebtCeiling(bytes32 _collateralPoolId, uint256 _positionDebtCeiling) external override onlyOwner {\n        require(\n            _positionDebtCeiling <= _collateralPools[_collateralPoolId].debtCeiling &&\n                _positionDebtCeiling > _collateralPools[_collateralPoolId].debtFloor,\n            \"CollateralPoolConfig/invalid-position-ceiling\"\n        );\n        _collateralPools[_collateralPoolId].positionDebtCeiling = _positionDebtCeiling;\n        emit LogPositionDebtCeiling(msg.sender, _collateralPoolId, _positionDebtCeiling);\n    }\n\n    function setPriceFeed(bytes32 _poolId, address _priceFeed) external onlyOwner {\n        require(_priceFeed != address(0), \"CollateralPoolConfig/zero-price-feed\");\n        require(IPriceFeed(_priceFeed).poolId() == _poolId, \"CollateralPoolConfig/wrong-price-feed-pool\");\n        require(IPriceFeed(_priceFeed).isPriceOk(), \"CollateralPoolConfig/unhealthy-price-feed\");\n\n        IPriceFeed(_priceFeed).peekPrice();\n\n        _collateralPools[_poolId].priceFeed = _priceFeed;\n        emit LogSetPriceFeed(msg.sender, _poolId, _priceFeed);\n    }\n\n    function setLiquidationRatio(bytes32 _poolId, uint256 _liquidationRatio) external onlyOwner {\n        require(_liquidationRatio >= RAY && _liquidationRatio <= RAY * 100, \"CollateralPoolConfig/invalid-liquidation-ratio\");\n        _collateralPools[_poolId].liquidationRatio = _liquidationRatio;\n        emit LogSetLiquidationRatio(msg.sender, _poolId, _liquidationRatio);\n    }\n\n    /** @dev Set the stability fee rate of the collateral pool.\n      The rate to be set here is the `r` in:\n          r^N = APR\n      Where:\n        r = stability fee rate\n        N = Accumulation frequency which is per-second in this case; the value will be 60*60*24*365 = 31536000 to signify the number of seconds within a year.\n        APR = the annual percentage rate\n    For example, to achieve 0.5% APR for stability fee rate:\n          r^31536000 = 1.005\n    Find the 31536000th root of 1.005 and we will get:\n          r = 1.000000000158153903837946258002097...\n    The rate is in [ray] format, so the actual value of `stabilityFeeRate` will be:\n          stabilityFeeRate = 1000000000158153903837946258\n    The above `stabilityFeeRate` will be the value we will use in this contract.\n  */\n    function setStabilityFeeRate(bytes32 _collateralPool, uint256 _stabilityFeeRate) external onlyOwner {\n        require(_stabilityFeeRate >= RAY, \"CollateralPoolConfig/invalid-stability-fee-rate\");\n        // Maximum stability fee rate is 50% yearly\n        require(_stabilityFeeRate <= 1000000012857214317438491659, \"CollateralPoolConfig/stability-fee-rate-too-large\");\n        _collateralPools[_collateralPool].stabilityFeeRate = _stabilityFeeRate;\n        emit LogSetStabilityFeeRate(msg.sender, _collateralPool, _stabilityFeeRate);\n    }\n\n    function setAdapter(bytes32 _collateralPoolId, address _adapter) external onlyOwner {\n        require(_adapter != address(0), \"CollateralPoolConfig/setAdapter-zero-address\");\n        require(IGenericTokenAdapter(_adapter).collateralPoolId() == _collateralPoolId, \"CollateralPoolConfig/setAdapter-wrongPoolId\");\n        _collateralPools[_collateralPoolId].adapter = _adapter;\n        emit LogSetAdapter(msg.sender, _collateralPoolId, _adapter);\n    }\n\n    function setCloseFactorBps(bytes32 _collateralPoolId, uint256 _closeFactorBps) external onlyOwner {\n        require(_closeFactorBps > 0 && _closeFactorBps <= 10000, \"CollateralPoolConfig/invalid-close-factor-bps\");\n        _collateralPools[_collateralPoolId].closeFactorBps = _closeFactorBps;\n        emit LogSetCloseFactorBps(msg.sender, _collateralPoolId, _closeFactorBps);\n    }\n\n    function setLiquidatorIncentiveBps(bytes32 _collateralPoolId, uint256 _liquidatorIncentiveBps) external onlyOwner {\n        require(_liquidatorIncentiveBps >= 10000 && _liquidatorIncentiveBps <= 19000, \"CollateralPoolConfig/invalid-liquidator-incentive-bps\");\n        _collateralPools[_collateralPoolId].liquidatorIncentiveBps = _liquidatorIncentiveBps;\n        emit LogSetLiquidatorIncentiveBps(msg.sender, _collateralPoolId, _liquidatorIncentiveBps);\n    }\n\n    function setTreasuryFeesBps(bytes32 _collateralPoolId, uint256 _treasuryFeesBps) external onlyOwner {\n        require(_treasuryFeesBps <= 9000, \"CollateralPoolConfig/invalid-treasury-fees-bps\");\n        _collateralPools[_collateralPoolId].treasuryFeesBps = _treasuryFeesBps;\n        emit LogSetTreasuryFeesBps(msg.sender, _collateralPoolId, _treasuryFeesBps);\n    }\n\n    function setTotalDebtShare(bytes32 _collateralPoolId, uint256 _totalDebtShare) external override {\n        require(accessControlConfig.hasRole(accessControlConfig.BOOK_KEEPER_ROLE(), msg.sender), \"!bookKeeperRole\");\n        _collateralPools[_collateralPoolId].totalDebtShare = _totalDebtShare;\n        emit LogSetTotalDebtShare(msg.sender, _collateralPoolId, _totalDebtShare);\n    }\n\n    function setDebtAccumulatedRate(bytes32 _collateralPoolId, uint256 _debtAccumulatedRate) external override {\n        require(accessControlConfig.hasRole(accessControlConfig.BOOK_KEEPER_ROLE(), msg.sender), \"!bookKeeperRole\");\n        require(_debtAccumulatedRate >= RAY, \"CollateralPoolConfig/invalid-debt-accumulated-rate\");\n        _collateralPools[_collateralPoolId].debtAccumulatedRate = _debtAccumulatedRate;\n        emit LogSetDebtAccumulatedRate(msg.sender, _collateralPoolId, _debtAccumulatedRate);\n    }\n\n    function setStrategy(bytes32 _collateralPoolId, address _strategy) external onlyOwner {\n        require(_strategy != address(0), \"CollateralPoolConfig/zero-strategy\");\n\n        _collateralPools[_collateralPoolId].strategy = _strategy;\n        emit LogSetStrategy(msg.sender, _collateralPoolId, address(_strategy));\n    }\n\n    function updateLastAccumulationTime(bytes32 _collateralPoolId) external override {\n        require(accessControlConfig.hasRole(accessControlConfig.STABILITY_FEE_COLLECTOR_ROLE(), msg.sender), \"!stabilityFeeCollectorRole\");\n        _collateralPools[_collateralPoolId].lastAccumulationTime = block.timestamp;\n    }\n\n    function collateralPools(bytes32 _collateralPoolId) external view override returns (ICollateralPoolConfig.CollateralPool memory) {\n        return _collateralPools[_collateralPoolId];\n    }\n\n    function getTotalDebtShare(bytes32 _collateralPoolId) external view override returns (uint256) {\n        return _collateralPools[_collateralPoolId].totalDebtShare;\n    }\n\n    function getDebtAccumulatedRate(bytes32 _collateralPoolId) external view override returns (uint256) {\n        return _collateralPools[_collateralPoolId].debtAccumulatedRate;\n    }\n\n    function getPriceWithSafetyMargin(bytes32 _collateralPoolId) external view override returns (uint256) {\n        return _collateralPools[_collateralPoolId].priceWithSafetyMargin;\n    }\n\n    function getDebtCeiling(bytes32 _collateralPoolId) external view override returns (uint256) {\n        return _collateralPools[_collateralPoolId].debtCeiling;\n    }\n\n    function getPositionDebtCeiling(bytes32 _collateralPoolId) external view override returns (uint256) {\n        return _collateralPools[_collateralPoolId].positionDebtCeiling;\n    }\n\n    function getDebtFloor(bytes32 _collateralPoolId) external view override returns (uint256) {\n        return _collateralPools[_collateralPoolId].debtFloor;\n    }\n\n    function getPriceFeed(bytes32 _collateralPoolId) external view override returns (address) {\n        return _collateralPools[_collateralPoolId].priceFeed;\n    }\n\n    function getLiquidationRatio(bytes32 _collateralPoolId) external view override returns (uint256) {\n        return _collateralPools[_collateralPoolId].liquidationRatio;\n    }\n\n    function getStabilityFeeRate(bytes32 _collateralPoolId) external view override returns (uint256) {\n        return _collateralPools[_collateralPoolId].stabilityFeeRate;\n    }\n\n    function getLastAccumulationTime(bytes32 _collateralPoolId) external view override returns (uint256) {\n        return _collateralPools[_collateralPoolId].lastAccumulationTime;\n    }\n\n    function getAdapter(bytes32 _collateralPoolId) external view override returns (address) {\n        return _collateralPools[_collateralPoolId].adapter;\n    }\n\n    function getCloseFactorBps(bytes32 _collateralPoolId) external view override returns (uint256) {\n        return _collateralPools[_collateralPoolId].closeFactorBps;\n    }\n\n    function getLiquidatorIncentiveBps(bytes32 _collateralPoolId) external view override returns (uint256) {\n        return _collateralPools[_collateralPoolId].liquidatorIncentiveBps;\n    }\n\n    function getTreasuryFeesBps(bytes32 _collateralPoolId) external view override returns (uint256) {\n        return _collateralPools[_collateralPoolId].treasuryFeesBps;\n    }\n\n    function getStrategy(bytes32 _collateralPoolId) external view override returns (address) {\n        return _collateralPools[_collateralPoolId].strategy;\n    }\n\n    function getCollateralPoolInfo(bytes32 _collateralPoolId) external view override returns (CollateralPoolInfo memory _info) {\n        _info.debtAccumulatedRate = _collateralPools[_collateralPoolId].debtAccumulatedRate;\n        _info.totalDebtShare = _collateralPools[_collateralPoolId].totalDebtShare;\n        _info.debtCeiling = _collateralPools[_collateralPoolId].debtCeiling;\n        _info.priceWithSafetyMargin = _collateralPools[_collateralPoolId].priceWithSafetyMargin;\n        _info.debtFloor = _collateralPools[_collateralPoolId].debtFloor;\n        _info.positionDebtCeiling = _collateralPools[_collateralPoolId].positionDebtCeiling;\n    }\n}\n",
    "sourcePath": "/Users/sangjun.lee/Sangjun/fathom-stablecoin-smart-contracts/contracts/main/stablecoin-core/config/CollateralPoolConfig.sol",
    "compiler": {
        "name": "solc",
        "version": "0.8.17+commit.8df45f5f.Emscripten.clang"
    },
    "schemaVersion": "3.4.10",
    "updatedAt": "2023-09-12T23:52:26.617Z",
    "devdoc": {
        "kind": "dev",
        "methods": {
            "getRoleAdmin(bytes32)": {
                "details": "Returns the admin role that controls `role`. See {grantRole} and {revokeRole}. To change a role's admin, use {_setRoleAdmin}."
            },
            "grantRole(bytes32,address)": {
                "details": "Grants `role` to `account`. If `account` had not been already granted `role`, emits a {RoleGranted} event. Requirements: - the caller must have ``role``'s admin role. May emit a {RoleGranted} event."
            },
            "hasRole(bytes32,address)": {
                "details": "Returns `true` if `account` has been granted `role`."
            },
            "initCollateralPool(bytes32,uint256,uint256,uint256,address,uint256,uint256,address,uint256,uint256,uint256,address)": {
                "details": "please refer to the deployment/migration script for more detail info on units for each params."
            },
            "renounceRole(bytes32,address)": {
                "details": "Revokes `role` from the calling account. Roles are often managed via {grantRole} and {revokeRole}: this function's purpose is to provide a mechanism for accounts to lose their privileges if they are compromised (such as when a trusted device is misplaced). If the calling account had been revoked `role`, emits a {RoleRevoked} event. Requirements: - the caller must be `account`. May emit a {RoleRevoked} event."
            },
            "revokeRole(bytes32,address)": {
                "details": "Revokes `role` from `account`. If `account` had been granted `role`, emits a {RoleRevoked} event. Requirements: - the caller must have ``role``'s admin role. May emit a {RoleRevoked} event."
            },
            "setStabilityFeeRate(bytes32,uint256)": {
                "details": "Set the stability fee rate of the collateral pool. The rate to be set here is the `r` in: r^N = APR Where: r = stability fee rate N = Accumulation frequency which is per-second in this case; the value will be 60*60*24*365 = 31536000 to signify the number of seconds within a year. APR = the annual percentage rate For example, to achieve 0.5% APR for stability fee rate: r^31536000 = 1.005 Find the 31536000th root of 1.005 and we will get: r = 1.000000000158153903837946258002097... The rate is in [ray] format, so the actual value of `stabilityFeeRate` will be: stabilityFeeRate = 1000000000158153903837946258 The above `stabilityFeeRate` will be the value we will use in this contract."
            },
            "supportsInterface(bytes4)": {
                "details": "See {IERC165-supportsInterface}."
            }
        },
        "title": "CollateralPoolConfig",
        "version": 1
    },
    "userdoc": {
        "kind": "user",
        "methods": {
            "initCollateralPool(bytes32,uint256,uint256,uint256,address,uint256,uint256,address,uint256,uint256,uint256,address)": {
                "notice": "this function adds a collateral pool type to Fathom protocol"
            }
        },
        "notice": "A contract can add collateral pool type to the protocol and also manage settings for a specific pool type.",
        "version": 1
    }
}