{
    "contractName": "FixedSpreadLiquidationStrategy",
    "abi": [
        {
            "anonymous": false,
            "inputs": [
                {
                    "indexed": false,
                    "internalType": "uint8",
                    "name": "version",
                    "type": "uint8"
                }
            ],
            "name": "Initialized",
            "type": "event"
        },
        {
            "anonymous": false,
            "inputs": [
                {
                    "indexed": true,
                    "internalType": "bytes32",
                    "name": "_collateralPoolId",
                    "type": "bytes32"
                },
                {
                    "indexed": false,
                    "internalType": "uint256",
                    "name": "_positionDebtShare",
                    "type": "uint256"
                },
                {
                    "indexed": false,
                    "internalType": "uint256",
                    "name": "_positionCollateralAmount",
                    "type": "uint256"
                },
                {
                    "indexed": true,
                    "internalType": "address",
                    "name": "_positionAddress",
                    "type": "address"
                },
                {
                    "indexed": false,
                    "internalType": "uint256",
                    "name": "_debtShareToBeLiquidated",
                    "type": "uint256"
                },
                {
                    "indexed": false,
                    "internalType": "uint256",
                    "name": "_maxDebtShareToBeLiquidated",
                    "type": "uint256"
                },
                {
                    "indexed": true,
                    "internalType": "address",
                    "name": "_liquidatorAddress",
                    "type": "address"
                },
                {
                    "indexed": false,
                    "internalType": "address",
                    "name": "_collateralRecipient",
                    "type": "address"
                },
                {
                    "indexed": false,
                    "internalType": "uint256",
                    "name": "_actualDebtShareToBeLiquidated",
                    "type": "uint256"
                },
                {
                    "indexed": false,
                    "internalType": "uint256",
                    "name": "_actualDebtValueToBeLiquidated",
                    "type": "uint256"
                },
                {
                    "indexed": false,
                    "internalType": "uint256",
                    "name": "_collateralAmountToBeLiquidated",
                    "type": "uint256"
                },
                {
                    "indexed": false,
                    "internalType": "uint256",
                    "name": "_treasuryFees",
                    "type": "uint256"
                }
            ],
            "name": "LogFixedSpreadLiquidate",
            "type": "event"
        },
        {
            "anonymous": false,
            "inputs": [
                {
                    "indexed": true,
                    "internalType": "address",
                    "name": "caller",
                    "type": "address"
                },
                {
                    "indexed": false,
                    "internalType": "uint256",
                    "name": "_flashLendingEnabled",
                    "type": "uint256"
                }
            ],
            "name": "LogSetFlashLendingEnabled",
            "type": "event"
        },
        {
            "anonymous": false,
            "inputs": [
                {
                    "indexed": false,
                    "internalType": "address",
                    "name": "account",
                    "type": "address"
                }
            ],
            "name": "Paused",
            "type": "event"
        },
        {
            "anonymous": false,
            "inputs": [
                {
                    "indexed": false,
                    "internalType": "address",
                    "name": "account",
                    "type": "address"
                }
            ],
            "name": "Unpaused",
            "type": "event"
        },
        {
            "inputs": [],
            "name": "bookKeeper",
            "outputs": [
                {
                    "internalType": "contract IBookKeeper",
                    "name": "",
                    "type": "address"
                }
            ],
            "stateMutability": "view",
            "type": "function"
        },
        {
            "inputs": [],
            "name": "flashLendingEnabled",
            "outputs": [
                {
                    "internalType": "uint256",
                    "name": "",
                    "type": "uint256"
                }
            ],
            "stateMutability": "view",
            "type": "function"
        },
        {
            "inputs": [],
            "name": "liquidationEngine",
            "outputs": [
                {
                    "internalType": "contract ILiquidationEngine",
                    "name": "",
                    "type": "address"
                }
            ],
            "stateMutability": "view",
            "type": "function"
        },
        {
            "inputs": [],
            "name": "paused",
            "outputs": [
                {
                    "internalType": "bool",
                    "name": "",
                    "type": "bool"
                }
            ],
            "stateMutability": "view",
            "type": "function"
        },
        {
            "inputs": [],
            "name": "priceOracle",
            "outputs": [
                {
                    "internalType": "contract IPriceOracle",
                    "name": "",
                    "type": "address"
                }
            ],
            "stateMutability": "view",
            "type": "function"
        },
        {
            "inputs": [],
            "name": "stablecoinAdapter",
            "outputs": [
                {
                    "internalType": "contract IStablecoinAdapter",
                    "name": "",
                    "type": "address"
                }
            ],
            "stateMutability": "view",
            "type": "function"
        },
        {
            "inputs": [],
            "name": "systemDebtEngine",
            "outputs": [
                {
                    "internalType": "contract ISystemDebtEngine",
                    "name": "",
                    "type": "address"
                }
            ],
            "stateMutability": "view",
            "type": "function"
        },
        {
            "inputs": [
                {
                    "internalType": "address",
                    "name": "_bookKeeper",
                    "type": "address"
                },
                {
                    "internalType": "address",
                    "name": "_priceOracle",
                    "type": "address"
                },
                {
                    "internalType": "address",
                    "name": "_liquidationEngine",
                    "type": "address"
                },
                {
                    "internalType": "address",
                    "name": "_systemDebtEngine",
                    "type": "address"
                },
                {
                    "internalType": "address",
                    "name": "_stablecoinAdapter",
                    "type": "address"
                }
            ],
            "name": "initialize",
            "outputs": [],
            "stateMutability": "nonpayable",
            "type": "function"
        },
        {
            "inputs": [
                {
                    "internalType": "uint256",
                    "name": "_flashLendingEnabled",
                    "type": "uint256"
                }
            ],
            "name": "setFlashLendingEnabled",
            "outputs": [],
            "stateMutability": "nonpayable",
            "type": "function"
        },
        {
            "inputs": [
                {
                    "internalType": "bytes32",
                    "name": "_collateralPoolId",
                    "type": "bytes32"
                },
                {
                    "internalType": "uint256",
                    "name": "_positionDebtShare",
                    "type": "uint256"
                },
                {
                    "internalType": "uint256",
                    "name": "_positionCollateralAmount",
                    "type": "uint256"
                },
                {
                    "internalType": "address",
                    "name": "_positionAddress",
                    "type": "address"
                },
                {
                    "internalType": "uint256",
                    "name": "_debtShareToBeLiquidated",
                    "type": "uint256"
                },
                {
                    "internalType": "uint256",
                    "name": "_maxDebtShareToBeLiquidated",
                    "type": "uint256"
                },
                {
                    "internalType": "address",
                    "name": "_liquidatorAddress",
                    "type": "address"
                },
                {
                    "internalType": "address",
                    "name": "_collateralRecipient",
                    "type": "address"
                },
                {
                    "internalType": "bytes",
                    "name": "_data",
                    "type": "bytes"
                }
            ],
            "name": "execute",
            "outputs": [],
            "stateMutability": "nonpayable",
            "type": "function"
        },
        {
            "inputs": [],
            "name": "pause",
            "outputs": [],
            "stateMutability": "nonpayable",
            "type": "function"
        },
        {
            "inputs": [],
            "name": "unpause",
            "outputs": [],
            "stateMutability": "nonpayable",
            "type": "function"
        }
    ],
    "bytecode": "0x608060405234801561001057600080fd5b50612af8806100206000396000f3fe608060405234801561001057600080fd5b50600436106100b45760003560e01c806346a311d31161007157806346a311d31461013f5780635c975abb146101525780638456cb5914610168578063df1a4b7314610170578063e3b3932a14610187578063f79b9f4a1461019a57600080fd5b80631459457a146100b957806316d8d291146100ce5780632630c12f146100e157806328e49a42146101115780633f4ba83a1461012457806344bf3c721461012c575b600080fd5b6100cc6100c7366004612675565b6101ad565b005b6100cc6100dc3660046126e6565b610503565b609a546100f4906001600160a01b031681565b6040516001600160a01b0390911681526020015b60405180910390f35b6099546100f4906001600160a01b031681565b6100cc611117565b6098546100f4906001600160a01b031681565b609b546100f4906001600160a01b031681565b60335460ff166040519015158152602001610108565b6100cc611362565b610179609c5481565b604051908152602001610108565b6097546100f4906001600160a01b031681565b6100cc6101a83660046127c2565b6115aa565b600054610100900460ff16158080156101cd5750600054600160ff909116105b806101e75750303b1580156101e7575060005460ff166001145b61024f5760405162461bcd60e51b815260206004820152602e60248201527f496e697469616c697a61626c653a20636f6e747261637420697320616c72656160448201526d191e481a5b9a5d1a585b1a5e995960921b60648201526084015b60405180910390fd5b6000805460ff191660011790558015610272576000805461ff0019166101001790555b61027a611828565b610282611859565b856001600160a01b0316636f3a3bfc6040518163ffffffff1660e01b81526004016020604051808303816000875af11580156102c2573d6000803e3d6000fd5b505050506040513d601f19601f820116820180604052508101906102e691906127db565b5085609760006101000a8154816001600160a01b0302191690836001600160a01b03160217905550846001600160a01b0316639d1eea786040518163ffffffff1660e01b8152600401602060405180830381865afa15801561034c573d6000803e3d6000fd5b505050506040513d601f19601f8201168201806040525081019061037091906127db565b5084609a60006101000a8154816001600160a01b0302191690836001600160a01b03160217905550836001600160a01b031663957aa58c6040518163ffffffff1660e01b8152600401602060405180830381865afa1580156103d6573d6000803e3d6000fd5b505050506040513d601f19601f820116820180604052508101906103fa91906127db565b5083609860006101000a8154816001600160a01b0302191690836001600160a01b03160217905550826001600160a01b0316632a608d5b6040518163ffffffff1660e01b8152600401602060405180830381865afa158015610460573d6000803e3d6000fd5b505050506040513d601f19601f8201168201806040525081019061048491906127db565b50609980546001600160a01b038086166001600160a01b031992831617909255609b80549285169290911691909117905580156104fb576000805461ff0019169055604051600181527f7f26b83ff96e1f2b6a682f133852f6798a09c465da95921460cefb38474024989060200160405180910390a15b505050505050565b6002606554036105555760405162461bcd60e51b815260206004820152601f60248201527f5265656e7472616e637947756172643a207265656e7472616e742063616c6c006044820152606401610246565b6002606555610562611888565b609760009054906101000a90046001600160a01b03166001600160a01b031663c8cc243f6040518163ffffffff1660e01b8152600401602060405180830381865afa1580156105b5573d6000803e3d6000fd5b505050506040513d601f19601f820116820180604052508101906105d991906127f4565b604051632474521560e21b81527f73cc1824a5ac1764c2e141cf3615a9dcb73677c4e5be5154addc88d3e0cc148060048201523360248201526001600160a01b0391909116906391d1485490604401602060405180830381865afa158015610645573d6000803e3d6000fd5b505050506040513d601f19601f82011682018060405250810190610669919061282d565b6106ae5760405162461bcd60e51b8152602060048201526016602482015275216c69717569646174696f6e456e67696e67526f6c6560501b6044820152606401610246565b600089116106fd5760405162461bcd60e51b81526020600482015260286024820152600080516020612aa3833981519152604482015267195c9bcb5919589d60c21b6064820152608401610246565b600088116107595760405162461bcd60e51b81526020600482015260356024820152600080516020612aa3833981519152604482015274195c9bcb58dbdb1b185d195c985b0b585b5bdd5b9d605a1b6064820152608401610246565b6001600160a01b0387166107ba5760405162461bcd60e51b81526020600482015260346024820152600080516020612aa383398151915260448201527365726f2d706f736974696f6e2d6164647265737360601b6064820152608401610246565b60006107c58b6118ce565b9050600081116108225760405162461bcd60e51b81526020600482015260346024820152600080516020612aa383398151915260448201527365726f2d636f6c6c61746572616c2d707269636560601b6064820152608401610246565b60006108318c89848d8f611b20565b9050868160a0015111156108bb5760405162461bcd60e51b815260206004820152604560248201527f46697865645370726561644c69717569646174696f6e53747261746567792f6560448201527f78636565642d6d61782d646562742d76616c75652d746f2d62652d6c6971756960648201526419185d195960da1b608482015260a401610246565b600160ff1b8160c001511080156108d95750600160ff1b8160a00151105b6109355760405162461bcd60e51b815260206004820152602760248201527f46697865645370726561644c69717569646174696f6e53747261746567792f6f604482015266766572666c6f7760c81b6064820152608401610246565b609760009054906101000a90046001600160a01b03166001600160a01b031663b1df25948d8b30609960009054906101000a90046001600160a01b03168660c001516109809061285e565b8760a0015161098e9061285e565b6040516001600160e01b031960e089901b16815260048101969096526001600160a01b039485166024870152928416604486015292166064840152608483019190915260a482015260c401600060405180830381600087803b1580156109f357600080fd5b505af1158015610a07573d6000803e3d6000fd5b505050506000609760009054906101000a90046001600160a01b03166001600160a01b031663d86824616040518163ffffffff1660e01b8152600401602060405180830381865afa158015610a60573d6000803e3d6000fd5b505050506040513d601f19601f82011682018060405250810190610a8491906127f4565b6001600160a01b0316638272e1388e6040518263ffffffff1660e01b8152600401610ab191815260200190565b602060405180830381865afa158015610ace573d6000803e3d6000fd5b505050506040513d601f19601f82011682018060405250810190610af291906127f4565b60c083015160408051600060208201529293506001600160a01b038416926399443616928e923092016040516020818303038152906040526040518563ffffffff1660e01b8152600401610b4994939291906128ca565b600060405180830381600087803b158015610b6357600080fd5b505af1158015610b77573d6000803e3d6000fd5b5050505060e082015115610cc357609760009054906101000a90046001600160a01b03166001600160a01b031663b5d993298e30609960009054906101000a90046001600160a01b03168660e001516040518563ffffffff1660e01b8152600401610c0594939291909384526001600160a01b03928316602085015291166040830152606082015260800190565b600060405180830381600087803b158015610c1f57600080fd5b505af1158015610c33573d6000803e3d6000fd5b505060995460e085015160408051600060208201526001600160a01b038781169650639944361695503094169291016040516020818303038152906040526040518563ffffffff1660e01b8152600401610c9094939291906128ca565b600060405180830381600087803b158015610caa57600080fd5b505af1158015610cbe573d6000803e3d6000fd5b505050505b806001600160a01b03166331f0926587610cee8560e001518660c0015161223f90919063ffffffff16565b6040805160006020820152016040516020818303038152906040526040518463ffffffff1660e01b8152600401610d27939291906128fd565b600060405180830381600087803b158015610d4157600080fd5b505af1158015610d55573d6000803e3d6000fd5b50505050609c546001148015610d6a57508315155b8015610d8457506097546001600160a01b03878116911614155b8015610d9e57506098546001600160a01b03878116911614155b15610e2857856001600160a01b031663af7bd142338460800151610dd38660e001518760c0015161223f90919063ffffffff16565b89896040518663ffffffff1660e01b8152600401610df595949392919061292d565b600060405180830381600087803b158015610e0f57600080fd5b505af1158015610e23573d6000803e3d6000fd5b505050505b609b54604080516374e5ec1160e11b815290516000926001600160a01b03169163e9cbd822916004808301926020929190829003018187875af1158015610e73573d6000803e3d6000fd5b505050506040513d601f19601f82011682018060405250810190610e9791906127f4565b9050610ed787306b033b2e3c9fd0803ce80000008660800151610eba9190612979565b610ec590600161299b565b6001600160a01b038516929190612254565b609b546080840151610f20916001600160a01b031690610f04906b033b2e3c9fd0803ce800000090612979565b610f0f90600161299b565b6001600160a01b0384169190612364565b609b546080840151604080516000602080830191909152825180830390910181528183019283905263653623ab60e01b9092526001600160a01b039093169263653623ab92610f73928c926044016128fd565b600060405180830381600087803b158015610f8d57600080fd5b505af1158015610fa1573d6000803e3d6000fd5b505060975460995460808701516040516323055e1560e21b81526001600160a01b038d811660048301529283166024820152604481019190915291169250638c1578549150606401600060405180830381600087803b15801561100357600080fd5b505af1158015611017573d6000803e3d6000fd5b505050508c8360000181815250508b8360200181815250508983604001818152505088836060018181525050876001600160a01b03168b6001600160a01b03168f7f498293dc3e787b3f04a320f39b6d8853b395dbbccb2abadfb92ec74a01f1338186600001518760200151886040015189606001518e8b60a001518c608001518d60c001518e60e001516040516110fa999897969594939291909889526020890197909752604088019590955260608701939093526001600160a01b0391909116608086015260a085015260c084015260e08301526101008201526101200190565b60405180910390a450506001606555505050505050505050505050565b6097546040805163c8cc243f60e01b815290516000926001600160a01b03169163c8cc243f9160048083019260209291908290030181865afa158015611161573d6000803e3d6000fd5b505050506040513d601f19601f8201168201806040525081019061118591906127f4565b9050806001600160a01b03166391d14854826001600160a01b031663e58378bb6040518163ffffffff1660e01b8152600401602060405180830381865afa1580156111d4573d6000803e3d6000fd5b505050506040513d601f19601f820116820180604052508101906111f891906127db565b6040516001600160e01b031960e084901b1681526004810191909152336024820152604401602060405180830381865afa15801561123a573d6000803e3d6000fd5b505050506040513d601f19601f8201168201806040525081019061125e919061282d565b8061133b5750806001600160a01b03166391d14854826001600160a01b031663b536818a6040518163ffffffff1660e01b8152600401602060405180830381865afa1580156112b1573d6000803e3d6000fd5b505050506040513d601f19601f820116820180604052508101906112d591906127db565b6040516001600160e01b031960e084901b1681526004810191909152336024820152604401602060405180830381865afa158015611317573d6000803e3d6000fd5b505050506040513d601f19601f8201168201806040525081019061133b919061282d565b6113575760405162461bcd60e51b8152600401610246906129ae565b61135f61246e565b50565b6097546040805163c8cc243f60e01b815290516000926001600160a01b03169163c8cc243f9160048083019260209291908290030181865afa1580156113ac573d6000803e3d6000fd5b505050506040513d601f19601f820116820180604052508101906113d091906127f4565b9050806001600160a01b03166391d14854826001600160a01b031663e58378bb6040518163ffffffff1660e01b8152600401602060405180830381865afa15801561141f573d6000803e3d6000fd5b505050506040513d601f19601f8201168201806040525081019061144391906127db565b6040516001600160e01b031960e084901b1681526004810191909152336024820152604401602060405180830381865afa158015611485573d6000803e3d6000fd5b505050506040513d601f19601f820116820180604052508101906114a9919061282d565b806115865750806001600160a01b03166391d14854826001600160a01b031663b536818a6040518163ffffffff1660e01b8152600401602060405180830381865afa1580156114fc573d6000803e3d6000fd5b505050506040513d601f19601f8201168201806040525081019061152091906127db565b6040516001600160e01b031960e084901b1681526004810191909152336024820152604401602060405180830381865afa158015611562573d6000803e3d6000fd5b505050506040513d601f19601f82011682018060405250810190611586919061282d565b6115a25760405162461bcd60e51b8152600401610246906129ae565b61135f6124c0565b6097546040805163c8cc243f60e01b815290516000926001600160a01b03169163c8cc243f9160048083019260209291908290030181865afa1580156115f4573d6000803e3d6000fd5b505050506040513d601f19601f8201168201806040525081019061161891906127f4565b9050806001600160a01b03166391d14854826001600160a01b031663e58378bb6040518163ffffffff1660e01b8152600401602060405180830381865afa158015611667573d6000803e3d6000fd5b505050506040513d601f19601f8201168201806040525081019061168b91906127db565b6040516001600160e01b031960e084901b1681526004810191909152336024820152604401602060405180830381865afa1580156116cd573d6000803e3d6000fd5b505050506040513d601f19601f820116820180604052508101906116f1919061282d565b806117ce5750806001600160a01b03166391d14854826001600160a01b031663b536818a6040518163ffffffff1660e01b8152600401602060405180830381865afa158015611744573d6000803e3d6000fd5b505050506040513d601f19601f8201168201806040525081019061176891906127db565b6040516001600160e01b031960e084901b1681526004810191909152336024820152604401602060405180830381865afa1580156117aa573d6000803e3d6000fd5b505050506040513d601f19601f820116820180604052508101906117ce919061282d565b6117ea5760405162461bcd60e51b8152600401610246906129ae565b609c82905560405182815233907f684f8e172a780a0039365d294d89561032ab348a858ed68283e8f531a22981079060200160405180910390a25050565b600054610100900460ff1661184f5760405162461bcd60e51b8152600401610246906129e5565b6118576124fd565b565b600054610100900460ff166118805760405162461bcd60e51b8152600401610246906129e5565b611857612530565b60335460ff16156118575760405162461bcd60e51b815260206004820152601060248201526f14185d5cd8589b194e881c185d5cd95960821b6044820152606401610246565b600080609760009054906101000a90046001600160a01b03166001600160a01b031663d86824616040518163ffffffff1660e01b8152600401602060405180830381865afa158015611924573d6000803e3d6000fd5b505050506040513d601f19601f8201168201806040525081019061194891906127f4565b6001600160a01b0316638c0adf62846040518263ffffffff1660e01b815260040161197591815260200190565b602060405180830381865afa158015611992573d6000803e3d6000fd5b505050506040513d601f19601f820116820180604052508101906119b691906127f4565b90506000819050600080826001600160a01b031663140d27206040518163ffffffff1660e01b815260040160408051808303816000875af11580156119ff573d6000803e3d6000fd5b505050506040513d601f19601f82011682018060405250810190611a239190612a30565b9150915080611a895760405162461bcd60e51b815260206004820152602c60248201527f46697865645370726561644c69717569646174696f6e53747261746567792f6960448201526b6e76616c69642d707269636560a01b6064820152608401610246565b611b16611a9a83633b9aca0061255e565b609a60009054906101000a90046001600160a01b03166001600160a01b0316639d1eea786040518163ffffffff1660e01b8152600401602060405180830381865afa158015611aed573d6000803e3d6000fd5b505050506040513d601f19601f82011682018060405250810190611b1191906127db565b61258b565b9695505050505050565b611b6f6040518061012001604052806000815260200160008152602001600081526020016000815260200160008152602001600081526020016000815260200160008152602001600081525090565b611ba16040518060a0016040528060008152602001600081526020016000815260200160008152602001600081525090565b609760009054906101000a90046001600160a01b03166001600160a01b031663d86824616040518163ffffffff1660e01b8152600401602060405180830381865afa158015611bf4573d6000803e3d6000fd5b505050506040513d601f19601f82011682018060405250810190611c1891906127f4565b6001600160a01b031663a09b0fe0886040518263ffffffff1660e01b8152600401611c4591815260200190565b602060405180830381865afa158015611c62573d6000803e3d6000fd5b505050506040513d601f19601f82011682018060405250810190611c8691906127db565b81526097546040805163d868246160e01b815290516001600160a01b039092169163d8682461916004808201926020929091908290030181865afa158015611cd2573d6000803e3d6000fd5b505050506040513d601f19601f82011682018060405250810190611cf691906127f4565b6001600160a01b031663e73bbc79886040518263ffffffff1660e01b8152600401611d2391815260200190565b602060405180830381865afa158015611d40573d6000803e3d6000fd5b505050506040513d601f19601f82011682018060405250810190611d6491906127db565b6020808301919091526097546040805163d868246160e01b815290516001600160a01b039092169263d8682461926004808401938290030181865afa158015611db1573d6000803e3d6000fd5b505050506040513d601f19601f82011682018060405250810190611dd591906127f4565b6001600160a01b0316630ec057e5886040518263ffffffff1660e01b8152600401611e0291815260200190565b602060405180830381865afa158015611e1f573d6000803e3d6000fd5b505050506040513d601f19601f82011682018060405250810190611e4391906127db565b604080830191909152609754815163d868246160e01b815291516001600160a01b039091169163d86824619160048083019260209291908290030181865afa158015611e93573d6000803e3d6000fd5b505050506040513d601f19601f82011682018060405250810190611eb791906127f4565b6001600160a01b0316639c1985d5886040518263ffffffff1660e01b8152600401611ee491815260200190565b602060405180830381865afa158015611f01573d6000803e3d6000fd5b505050506040513d601f19601f82011682018060405250810190611f2591906127db565b60608201526097546040805163d868246160e01b815290516001600160a01b039092169163d8682461916004808201926020929091908290030181865afa158015611f74573d6000803e3d6000fd5b505050506040513d601f19601f82011682018060405250810190611f9891906127f4565b6001600160a01b03166373a4f962886040518263ffffffff1660e01b8152600401611fc591815260200190565b602060405180830381865afa158015611fe2573d6000803e3d6000fd5b505050506040513d601f19601f8201168201806040525081019061200691906127db565b6080820152805160009061201b9085906125ff565b905060008260200151116120975760405162461bcd60e51b815260206004820152603760248201527f46697865645370726561644c69717569646174696f6e53747261746567792f6360448201527f6c6f73652d666163746f722d6270732d6e6f742d7365740000000000000000006064820152608401610246565b6120ba6127106120b48460200151876125ff90919063ffffffff16565b9061260b565b610100840181905287116120ce57866120d5565b8261010001515b60a0840181905282516120e891906125ff565b60808401819052604083015160009161210c9189916120b4916127109183916125ff565b90508581118061213d5750608084015161212790839061223f565b61213b88612135898561223f565b906125ff565b105b1561216c5760c084018690526040830151612162906120b46127106121358b8b6125ff565b60808501526121cb565b83608001518211801561219157506060830151608085015161218f90849061223f565b105b156121c3576080840182905260408301516121b99088906120b49061271090829087906125ff565b60c08501526121cb565b60c084018190525b825160808501516121db9161260b565b60a0850152604083015160c085015160009161220d9161220291906120b4906127106125ff565b60c08701519061223f565b905061222c6127106120b48660800151846125ff90919063ffffffff16565b60e0860152509298975050505050505050565b600061224b8284612a5c565b90505b92915050565b604080516001600160a01b0385811660248301528481166044830152606480830185905283518084039091018152608490920183526020820180516001600160e01b03166323b872dd60e01b17905291516000928392908816916122b89190612a6f565b6000604051808303816000865af19150503d80600081146122f5576040519150601f19603f3d011682016040523d82523d6000602084013e6122fa565b606091505b5091509150818015612324575080511580612324575080806020019051810190612324919061282d565b6104fb5760405162461bcd60e51b815260206004820152601160248201527021736166655472616e7366657246726f6d60781b6044820152606401610246565b604080516001600160a01b038481166024830152604480830185905283518084039091018152606490920183526020820180516001600160e01b031663095ea7b360e01b17905291516000928392908716916123c09190612a6f565b6000604051808303816000865af19150503d80600081146123fd576040519150601f19603f3d011682016040523d82523d6000602084013e612402565b606091505b509150915081801561242c57508051158061242c57508080602001905181019061242c919061282d565b6124675760405162461bcd60e51b815260206004820152600c60248201526b2173616665417070726f766560a01b6044820152606401610246565b5050505050565b612476612617565b6033805460ff191690557f5db9ee0a495bf2e6ff9c91a7834c1ba4fdd244a5e8aa4e537bd38aeae4b073aa335b6040516001600160a01b03909116815260200160405180910390a1565b6124c8611888565b6033805460ff191660011790557f62e78cea01bee320cd4e420270b5ea74000d11b0c9f74754ebdbfc544b05a2586124a33390565b600054610100900460ff166125245760405162461bcd60e51b8152600401610246906129e5565b6033805460ff19169055565b600054610100900460ff166125575760405162461bcd60e51b8152600401610246906129e5565b6001606555565b6000811580612582575082826125748183612a8b565b92506125809083612979565b145b61224e57600080fd5b60008082116125de5760405162461bcd60e51b815260206004820152602b6024820152600080516020612aa383398151915260448201526a32b93796b234bb34b9b7b960a91b6064820152608401610246565b816125f5846b033b2e3c9fd0803ce800000061255e565b61224b9190612979565b600061224b8284612a8b565b600061224b8284612979565b60335460ff166118575760405162461bcd60e51b815260206004820152601460248201527314185d5cd8589b194e881b9bdd081c185d5cd95960621b6044820152606401610246565b6001600160a01b038116811461135f57600080fd5b600080600080600060a0868803121561268d57600080fd5b853561269881612660565b945060208601356126a881612660565b935060408601356126b881612660565b925060608601356126c881612660565b915060808601356126d881612660565b809150509295509295909350565b6000806000806000806000806000806101208b8d03121561270657600080fd5b8a35995060208b0135985060408b0135975060608b013561272681612660565b965060808b0135955060a08b0135945060c08b013561274481612660565b935060e08b013561275481612660565b92506101008b013567ffffffffffffffff8082111561277257600080fd5b818d0191508d601f83011261278657600080fd5b81358181111561279557600080fd5b8e60208285010111156127a757600080fd5b6020830194508093505050509295989b9194979a5092959850565b6000602082840312156127d457600080fd5b5035919050565b6000602082840312156127ed57600080fd5b5051919050565b60006020828403121561280657600080fd5b815161281181612660565b9392505050565b8051801515811461282857600080fd5b919050565b60006020828403121561283f57600080fd5b61224b82612818565b634e487b7160e01b600052601160045260246000fd5b6000600160ff1b820161287357612873612848565b5060000390565b60005b8381101561289557818101518382015260200161287d565b50506000910152565b600081518084526128b681602086016020860161287a565b601f01601f19169290920160200192915050565b6001600160a01b0385811682528416602082015260408101839052608060608201819052600090611b169083018461289e565b60018060a01b0384168152826020820152606060408201526000612924606083018461289e565b95945050505050565b60018060a01b038616815284602082015283604082015260806060820152816080820152818360a0830137600081830160a090810191909152601f909201601f19160101949350505050565b60008261299657634e487b7160e01b600052601260045260246000fd5b500490565b8082018082111561224e5761224e612848565b60208082526017908201527f21286f776e6572526f6c65206f7220676f76526f6c6529000000000000000000604082015260600190565b6020808252602b908201527f496e697469616c697a61626c653a20636f6e7472616374206973206e6f74206960408201526a6e697469616c697a696e6760a81b606082015260800190565b60008060408385031215612a4357600080fd5b82519150612a5360208401612818565b90509250929050565b8181038181111561224e5761224e612848565b60008251612a8181846020870161287a565b9190910192915050565b808202811582820484141761224e5761224e61284856fe46697865645370726561644c69717569646174696f6e53747261746567792f7aa26469706673582212203ed0f19983efb3cd8e1dfdd1bdad6f15587282e72ce45c0704c7cdc5bec538f364736f6c63430008110033",
    "immutableReferences": {},
    "source": "// SPDX-License-Identifier: AGPL-3.0-or-later\npragma solidity 0.8.17;\n\nimport \"@openzeppelin/contracts-upgradeable/security/PausableUpgradeable.sol\";\nimport \"@openzeppelin/contracts-upgradeable/access/AccessControlUpgradeable.sol\";\nimport \"@openzeppelin/contracts-upgradeable/security/ReentrancyGuardUpgradeable.sol\";\nimport \"@openzeppelin/contracts-upgradeable/utils/math/SafeMathUpgradeable.sol\";\n\nimport \"../../interfaces/IBookKeeper.sol\";\nimport \"../../interfaces/IPriceFeed.sol\";\nimport \"../../interfaces/IPriceOracle.sol\";\nimport \"../../interfaces/ILiquidationEngine.sol\";\nimport \"../../interfaces/ILiquidationStrategy.sol\";\nimport \"../../interfaces/ISystemDebtEngine.sol\";\nimport \"../../interfaces/IFlashLendingCallee.sol\";\nimport \"../../interfaces/IGenericTokenAdapter.sol\";\nimport \"../../interfaces/IManager.sol\";\nimport \"../../interfaces/IStablecoinAdapter.sol\";\nimport \"../../utils/SafeToken.sol\";\n\ncontract FixedSpreadLiquidationStrategy is PausableUpgradeable, ReentrancyGuardUpgradeable, ILiquidationStrategy {\n    using SafeMathUpgradeable for uint256;\n    using SafeToken for address;\n\n    struct LiquidationInfo {\n        uint256 positionDebtShare; // [wad]\n        uint256 positionCollateralAmount; // [wad]\n        uint256 debtShareToBeLiquidated; // [wad]\n        uint256 maxDebtShareToBeLiquidated; // [wad]\n        uint256 actualDebtValueToBeLiquidated; // [rad]\n        uint256 actualDebtShareToBeLiquidated; // [wad]\n        uint256 collateralAmountToBeLiquidated; // [wad]\n        uint256 treasuryFees; // [wad]\n        uint256 maxLiquidatableDebtShare; // [wad]\n    }\n\n    struct LocalVars {\n        uint256 debtAccumulatedRate; // [ray]\n        uint256 closeFactorBps;\n        uint256 liquidatorIncentiveBps;\n        uint256 debtFloor; // [rad]\n        uint256 treasuryFeesBps;\n    }\n\n    IBookKeeper public bookKeeper; // Core CDP Engine\n    ILiquidationEngine public liquidationEngine; // Liquidation module\n    ISystemDebtEngine public systemDebtEngine; // Recipient of FUSD raised in auctions\n    IPriceOracle public priceOracle; // Collateral price module\n    IStablecoinAdapter public stablecoinAdapter; //StablecoinAdapter to deposit FXD to bookKeeper\n\n    uint256 public flashLendingEnabled;\n\n    event LogFixedSpreadLiquidate(\n        bytes32 indexed _collateralPoolId,\n        uint256 _positionDebtShare,\n        uint256 _positionCollateralAmount,\n        address indexed _positionAddress,\n        uint256 _debtShareToBeLiquidated,\n        uint256 _maxDebtShareToBeLiquidated,\n        address indexed _liquidatorAddress,\n        address _collateralRecipient,\n        uint256 _actualDebtShareToBeLiquidated,\n        uint256 _actualDebtValueToBeLiquidated,\n        uint256 _collateralAmountToBeLiquidated,\n        uint256 _treasuryFees\n    );\n    event LogSetFlashLendingEnabled(address indexed caller, uint256 _flashLendingEnabled);\n\n    modifier onlyOwnerOrGov() {\n        IAccessControlConfig _accessControlConfig = IAccessControlConfig(IBookKeeper(bookKeeper).accessControlConfig());\n        require(\n            _accessControlConfig.hasRole(_accessControlConfig.OWNER_ROLE(), msg.sender) ||\n                _accessControlConfig.hasRole(_accessControlConfig.GOV_ROLE(), msg.sender),\n            \"!(ownerRole or govRole)\"\n        );\n        _;\n    }\n\n    function initialize(address _bookKeeper, address _priceOracle, address _liquidationEngine, address _systemDebtEngine, address _stablecoinAdapter) external initializer {\n        PausableUpgradeable.__Pausable_init();\n        ReentrancyGuardUpgradeable.__ReentrancyGuard_init();\n\n        IBookKeeper(_bookKeeper).totalStablecoinIssued(); // Sanity Check Call\n        bookKeeper = IBookKeeper(_bookKeeper);\n\n        IPriceOracle(_priceOracle).stableCoinReferencePrice(); // Sanity Check Call\n        priceOracle = IPriceOracle(_priceOracle);\n\n        ILiquidationEngine(_liquidationEngine).live(); // Sanity Check Call\n        liquidationEngine = ILiquidationEngine(_liquidationEngine);\n\n        ISystemDebtEngine(_systemDebtEngine).surplusBuffer(); // Sanity Check Call\n        systemDebtEngine = ISystemDebtEngine(_systemDebtEngine);\n\n        stablecoinAdapter = IStablecoinAdapter(_stablecoinAdapter); //StablecoinAdapter to deposit FXD to bookKeeper\n\n    }\n\n    uint256 constant BLN = 10 ** 9;\n    uint256 constant WAD = 10 ** 18;\n    uint256 constant RAY = 10 ** 27;\n\n    function mul(uint256 x, uint256 y) internal pure returns (uint256 z) {\n        require(y == 0 || (z = x * y) / y == x);\n    }\n\n    function rdiv(uint256 x, uint256 y) internal pure returns (uint256 z) {\n        require(y > 0, \"FixedSpreadLiquidationStrategy/zero-divisor\");\n        z = mul(x, RAY) / y;\n    }\n\n    function setFlashLendingEnabled(uint256 _flashLendingEnabled) external onlyOwnerOrGov {\n        flashLendingEnabled = _flashLendingEnabled;\n        emit LogSetFlashLendingEnabled(msg.sender, _flashLendingEnabled);\n    }\n\n    function getFeedPrice(bytes32 collateralPoolId) internal returns (uint256 feedPrice) {\n        address _priceFeedAddress = ICollateralPoolConfig(bookKeeper.collateralPoolConfig()).getPriceFeed(collateralPoolId);\n        IPriceFeed _priceFeed = IPriceFeed(_priceFeedAddress);\n        (bytes32 price, bool priceOk) = _priceFeed.peekPrice();\n        require(priceOk, \"FixedSpreadLiquidationStrategy/invalid-price\");\n        // (price [wad] * BLN [10 ** 9] ) [ray] / priceOracle.stableCoinReferencePrice [ray]\n        feedPrice = rdiv(mul(uint256(price), BLN), priceOracle.stableCoinReferencePrice()); // [ray]\n    }\n\n    function _calculateLiquidationInfo(\n        bytes32 _collateralPoolId,\n        uint256 _debtShareToBeLiquidated,\n        uint256 _currentCollateralPrice,\n        uint256 _positionCollateralAmount,\n        uint256 _positionDebtShare\n    ) internal view returns (LiquidationInfo memory info) {\n        LocalVars memory _vars;\n        _vars.debtAccumulatedRate = ICollateralPoolConfig(bookKeeper.collateralPoolConfig()).getDebtAccumulatedRate(_collateralPoolId); // [ray]\n        _vars.closeFactorBps = ICollateralPoolConfig(bookKeeper.collateralPoolConfig()).getCloseFactorBps(_collateralPoolId);\n        _vars.liquidatorIncentiveBps = ICollateralPoolConfig(bookKeeper.collateralPoolConfig()).getLiquidatorIncentiveBps(_collateralPoolId);\n        _vars.debtFloor = ICollateralPoolConfig(bookKeeper.collateralPoolConfig()).getDebtFloor(_collateralPoolId); // [rad]\n        _vars.treasuryFeesBps = ICollateralPoolConfig(bookKeeper.collateralPoolConfig()).getTreasuryFeesBps(_collateralPoolId);\n\n        uint256 _positionDebtValue = _positionDebtShare.mul(_vars.debtAccumulatedRate);\n\n        require(_vars.closeFactorBps > 0, \"FixedSpreadLiquidationStrategy/close-factor-bps-not-set\");\n        info.maxLiquidatableDebtShare = _positionDebtShare.mul(_vars.closeFactorBps).div(10000); // [wad]\n\n        info.actualDebtShareToBeLiquidated = _debtShareToBeLiquidated > info.maxLiquidatableDebtShare\n            ? info.maxLiquidatableDebtShare\n            : _debtShareToBeLiquidated; // [wad]\n        info.actualDebtValueToBeLiquidated = info.actualDebtShareToBeLiquidated.mul(_vars.debtAccumulatedRate); // [rad]\n\n        uint256 _maxCollateralAmountToBeLiquidated = info.actualDebtValueToBeLiquidated.mul(_vars.liquidatorIncentiveBps).div(10000).div(\n            _currentCollateralPrice\n        ); // [wad]\n\n        if (\n            _maxCollateralAmountToBeLiquidated > _positionCollateralAmount ||\n            _positionCollateralAmount.sub(_maxCollateralAmountToBeLiquidated).mul(_currentCollateralPrice) <\n            _positionDebtValue.sub(info.actualDebtValueToBeLiquidated)\n        ) {\n            info.collateralAmountToBeLiquidated = _positionCollateralAmount;\n            info.actualDebtValueToBeLiquidated = _currentCollateralPrice.mul(_positionCollateralAmount).mul(10000).div(_vars.liquidatorIncentiveBps); // [rad]\n        } else {\n            if (\n                _positionDebtValue > info.actualDebtValueToBeLiquidated &&\n                _positionDebtValue.sub(info.actualDebtValueToBeLiquidated) < _vars.debtFloor\n            ) {\n                info.actualDebtValueToBeLiquidated = _positionDebtValue; // [rad]\n                info.collateralAmountToBeLiquidated = info.actualDebtValueToBeLiquidated.mul(_vars.liquidatorIncentiveBps).div(10000).div(\n                    _currentCollateralPrice\n                ); // [wad]\n            } else {\n                info.collateralAmountToBeLiquidated = _maxCollateralAmountToBeLiquidated; // [wad]\n            }\n        }\n\n        info.actualDebtShareToBeLiquidated = info.actualDebtValueToBeLiquidated.div(_vars.debtAccumulatedRate); // [wad]\n\n        // collateralAmountToBeLiquidated - (collateralAmountToBeLiquidated * 10000 / liquidatorIncentiveBps)\n        // 1 - (1 * 10000 / 10500) = 0.047619048 which is roughly around 0.05\n        uint256 liquidatorIncentiveCollectedFromPosition = info.collateralAmountToBeLiquidated.sub(\n            info.collateralAmountToBeLiquidated.mul(10000).div(_vars.liquidatorIncentiveBps)\n        ); // [wad]\n\n        // liquidatorIncentiveCollectedFromPosition * (treasuryFeesBps) / 10000\n        // 0.047619048 * 5000 / 10000\n        info.treasuryFees = liquidatorIncentiveCollectedFromPosition.mul(_vars.treasuryFeesBps).div(10000); // [wad]\n    }\n\n    function execute(\n        bytes32 _collateralPoolId,\n        uint256 _positionDebtShare, // Debt Value                  [rad]\n        uint256 _positionCollateralAmount, // Collateral Amount           [wad]\n        address _positionAddress, // Address that will receive any leftover collateral\n        uint256 _debtShareToBeLiquidated, // The value of debt to be liquidated as specified by the liquidator [rad]\n        uint256 _maxDebtShareToBeLiquidated, // The maximum value of debt to be liquidated as specified by the liquidator in case of full liquidation for slippage control [rad]\n        address _liquidatorAddress,  //<- liq. engine's address\n        address _collateralRecipient,\n        bytes calldata _data // Data to pass in external call; if length 0, no call is done\n    ) external override nonReentrant whenNotPaused {\n        require(\n            IAccessControlConfig(bookKeeper.accessControlConfig()).hasRole(keccak256(\"LIQUIDATION_ENGINE_ROLE\"), msg.sender),\n            \"!liquidationEngingRole\"\n        );\n\n        require(_positionDebtShare > 0, \"FixedSpreadLiquidationStrategy/zero-debt\");\n        require(_positionCollateralAmount > 0, \"FixedSpreadLiquidationStrategy/zero-collateral-amount\");\n        require(_positionAddress != address(0), \"FixedSpreadLiquidationStrategy/zero-position-address\");\n\n        uint256 _currentCollateralPrice = getFeedPrice(_collateralPoolId); // [ray]\n        require(_currentCollateralPrice > 0, \"FixedSpreadLiquidationStrategy/zero-collateral-price\");\n\n        LiquidationInfo memory info = _calculateLiquidationInfo(\n            _collateralPoolId,\n            _debtShareToBeLiquidated,\n            _currentCollateralPrice,\n            _positionCollateralAmount,\n            _positionDebtShare\n        );\n\n        require(\n            info.actualDebtShareToBeLiquidated <= _maxDebtShareToBeLiquidated,\n            \"FixedSpreadLiquidationStrategy/exceed-max-debt-value-to-be-liquidated\"\n        );\n        require(\n            info.collateralAmountToBeLiquidated < 2 ** 255 && info.actualDebtShareToBeLiquidated < 2 ** 255,\n            \"FixedSpreadLiquidationStrategy/overflow\"\n        );\n\n        bookKeeper.confiscatePosition(\n            _collateralPoolId,\n            _positionAddress,\n            address(this),\n            address(systemDebtEngine),\n            -int256(info.collateralAmountToBeLiquidated),\n            -int256(info.actualDebtShareToBeLiquidated)\n        );\n        IGenericTokenAdapter _adapter = IGenericTokenAdapter(ICollateralPoolConfig(bookKeeper.collateralPoolConfig()).getAdapter(_collateralPoolId));\n\n        _adapter.onMoveCollateral(_positionAddress, address(this), info.collateralAmountToBeLiquidated, abi.encode(0));\n\n        if (info.treasuryFees > 0) {\n            bookKeeper.moveCollateral(_collateralPoolId, address(this), address(systemDebtEngine), info.treasuryFees);\n            _adapter.onMoveCollateral(address(this), address(systemDebtEngine), info.treasuryFees, abi.encode(0));\n        }\n        _adapter.withdraw(_collateralRecipient, info.collateralAmountToBeLiquidated.sub(info.treasuryFees), abi.encode(0));\n\n        if (\n            flashLendingEnabled == 1 &&\n            _data.length > 0 &&\n            _collateralRecipient != address(bookKeeper) &&\n            _collateralRecipient != address(liquidationEngine)\n        ) {\n            IFlashLendingCallee(_collateralRecipient).flashLendingCall(\n                msg.sender,\n                info.actualDebtValueToBeLiquidated,\n                info.collateralAmountToBeLiquidated.sub(info.treasuryFees),\n                _data\n            );\n        }\n\n        address _stablecoin = address(stablecoinAdapter.stablecoin());\n        _stablecoin.safeTransferFrom(_collateralRecipient, address(this), ((info.actualDebtValueToBeLiquidated / RAY) + 1));\n        _stablecoin.safeApprove(address(stablecoinAdapter), ((info.actualDebtValueToBeLiquidated / RAY) + 1));\n        stablecoinAdapter.depositRAD(_collateralRecipient, info.actualDebtValueToBeLiquidated, abi.encode(0));\n        bookKeeper.moveStablecoin(_collateralRecipient, address(systemDebtEngine), info.actualDebtValueToBeLiquidated);\n\n        info.positionDebtShare = _positionDebtShare;\n        info.positionCollateralAmount = _positionCollateralAmount;\n        info.debtShareToBeLiquidated = _debtShareToBeLiquidated;\n        info.maxDebtShareToBeLiquidated = _maxDebtShareToBeLiquidated;\n        emit LogFixedSpreadLiquidate(\n            _collateralPoolId,\n            info.positionDebtShare,\n            info.positionCollateralAmount,\n            _positionAddress,\n            info.debtShareToBeLiquidated,\n            info.maxDebtShareToBeLiquidated,\n            _liquidatorAddress,\n            _collateralRecipient,\n            info.actualDebtShareToBeLiquidated,\n            info.actualDebtValueToBeLiquidated,\n            info.collateralAmountToBeLiquidated,\n            info.treasuryFees\n        );\n    }\n\n    function pause() external onlyOwnerOrGov {\n        _pause();\n    }\n\n    function unpause() external onlyOwnerOrGov {\n        _unpause();\n    }\n}\n",
    "sourcePath": "/Users/tarun.sharma/Tarun/Projects/stablecoin/fathom-stablecoin-smartcontract/fathom-stablecoin-smart-contracts/contracts/main/stablecoin-core/liquidation-strategies/FixedSpreadLiquidationStrategy.sol",
    "compiler": {
        "name": "solc",
        "version": "0.8.17+commit.8df45f5f.Emscripten.clang"
    },
    "schemaVersion": "3.4.10",
    "updatedAt": "2023-01-26T12:28:45.936Z",
    "devdoc": {
        "kind": "dev",
        "methods": {
            "paused()": {
                "details": "Returns true if the contract is paused, and false otherwise."
            }
        },
        "version": 1
    },
    "userdoc": {
        "kind": "user",
        "methods": {},
        "version": 1
    }
}