{
  "_format": "hh-sol-artifact-1",
  "contractName": "FixedSpreadLiquidationStrategy",
  "sourceName": "contracts/main/stablecoin-core/liquidation-strategies/FixedSpreadLiquidationStrategy.sol",
  "abi": [
    {
      "anonymous": false,
      "inputs": [
        {
          "indexed": false,
          "internalType": "uint8",
          "name": "version",
          "type": "uint8"
        }
      ],
      "name": "Initialized",
      "type": "event"
    },
    {
      "anonymous": false,
      "inputs": [
        {
          "indexed": true,
          "internalType": "bytes32",
          "name": "_collateralPoolId",
          "type": "bytes32"
        },
        {
          "indexed": false,
          "internalType": "uint256",
          "name": "_positionDebtShare",
          "type": "uint256"
        },
        {
          "indexed": false,
          "internalType": "uint256",
          "name": "_positionCollateralAmount",
          "type": "uint256"
        },
        {
          "indexed": true,
          "internalType": "address",
          "name": "_positionAddress",
          "type": "address"
        },
        {
          "indexed": false,
          "internalType": "uint256",
          "name": "_debtShareToBeLiquidated",
          "type": "uint256"
        },
        {
          "indexed": false,
          "internalType": "uint256",
          "name": "_maxDebtShareToBeLiquidated",
          "type": "uint256"
        },
        {
          "indexed": true,
          "internalType": "address",
          "name": "_liquidatorAddress",
          "type": "address"
        },
        {
          "indexed": false,
          "internalType": "address",
          "name": "_collateralRecipient",
          "type": "address"
        },
        {
          "indexed": false,
          "internalType": "uint256",
          "name": "_actualDebtShareToBeLiquidated",
          "type": "uint256"
        },
        {
          "indexed": false,
          "internalType": "uint256",
          "name": "_actualDebtValueToBeLiquidated",
          "type": "uint256"
        },
        {
          "indexed": false,
          "internalType": "uint256",
          "name": "_collateralAmountToBeLiquidated",
          "type": "uint256"
        },
        {
          "indexed": false,
          "internalType": "uint256",
          "name": "_treasuryFees",
          "type": "uint256"
        }
      ],
      "name": "LogFixedSpreadLiquidate",
      "type": "event"
    },
    {
      "anonymous": false,
      "inputs": [
        {
          "indexed": false,
          "internalType": "address",
          "name": "_newAddress",
          "type": "address"
        }
      ],
      "name": "LogSetBookKeeper",
      "type": "event"
    },
    {
      "anonymous": false,
      "inputs": [
        {
          "indexed": true,
          "internalType": "address",
          "name": "_caller",
          "type": "address"
        },
        {
          "indexed": false,
          "internalType": "bool",
          "name": "_flashLendingEnabled",
          "type": "bool"
        }
      ],
      "name": "LogSetFlashLendingEnabled",
      "type": "event"
    },
    {
      "anonymous": false,
      "inputs": [
        {
          "indexed": false,
          "internalType": "address",
          "name": "account",
          "type": "address"
        }
      ],
      "name": "Paused",
      "type": "event"
    },
    {
      "anonymous": false,
      "inputs": [
        {
          "indexed": false,
          "internalType": "address",
          "name": "account",
          "type": "address"
        }
      ],
      "name": "Unpaused",
      "type": "event"
    },
    {
      "inputs": [],
      "name": "bookKeeper",
      "outputs": [
        {
          "internalType": "contract IBookKeeper",
          "name": "",
          "type": "address"
        }
      ],
      "stateMutability": "view",
      "type": "function"
    },
    {
      "inputs": [
        {
          "internalType": "bytes32",
          "name": "_collateralPoolId",
          "type": "bytes32"
        },
        {
          "internalType": "uint256",
          "name": "_positionDebtShare",
          "type": "uint256"
        },
        {
          "internalType": "uint256",
          "name": "_positionCollateralAmount",
          "type": "uint256"
        },
        {
          "internalType": "address",
          "name": "_positionAddress",
          "type": "address"
        },
        {
          "internalType": "uint256",
          "name": "_debtShareToBeLiquidated",
          "type": "uint256"
        },
        {
          "internalType": "uint256",
          "name": "_maxDebtShareToBeLiquidated",
          "type": "uint256"
        },
        {
          "internalType": "address",
          "name": "_liquidatorAddress",
          "type": "address"
        },
        {
          "internalType": "address",
          "name": "_collateralRecipient",
          "type": "address"
        },
        {
          "internalType": "bytes",
          "name": "_data",
          "type": "bytes"
        }
      ],
      "name": "execute",
      "outputs": [],
      "stateMutability": "nonpayable",
      "type": "function"
    },
    {
      "inputs": [],
      "name": "flashLendingEnabled",
      "outputs": [
        {
          "internalType": "bool",
          "name": "",
          "type": "bool"
        }
      ],
      "stateMutability": "view",
      "type": "function"
    },
    {
      "inputs": [
        {
          "internalType": "address",
          "name": "_bookKeeper",
          "type": "address"
        },
        {
          "internalType": "address",
          "name": "_priceOracle",
          "type": "address"
        },
        {
          "internalType": "address",
          "name": "_liquidationEngine",
          "type": "address"
        },
        {
          "internalType": "address",
          "name": "_systemDebtEngine",
          "type": "address"
        },
        {
          "internalType": "address",
          "name": "_stablecoinAdapter",
          "type": "address"
        }
      ],
      "name": "initialize",
      "outputs": [],
      "stateMutability": "nonpayable",
      "type": "function"
    },
    {
      "inputs": [],
      "name": "liquidationEngine",
      "outputs": [
        {
          "internalType": "contract ILiquidationEngine",
          "name": "",
          "type": "address"
        }
      ],
      "stateMutability": "view",
      "type": "function"
    },
    {
      "inputs": [],
      "name": "pause",
      "outputs": [],
      "stateMutability": "nonpayable",
      "type": "function"
    },
    {
      "inputs": [],
      "name": "paused",
      "outputs": [
        {
          "internalType": "bool",
          "name": "",
          "type": "bool"
        }
      ],
      "stateMutability": "view",
      "type": "function"
    },
    {
      "inputs": [],
      "name": "priceOracle",
      "outputs": [
        {
          "internalType": "contract IPriceOracle",
          "name": "",
          "type": "address"
        }
      ],
      "stateMutability": "view",
      "type": "function"
    },
    {
      "inputs": [
        {
          "internalType": "address",
          "name": "_bookKeeper",
          "type": "address"
        }
      ],
      "name": "setBookKeeper",
      "outputs": [],
      "stateMutability": "nonpayable",
      "type": "function"
    },
    {
      "inputs": [
        {
          "internalType": "bool",
          "name": "_flashLendingEnabled",
          "type": "bool"
        }
      ],
      "name": "setFlashLendingEnabled",
      "outputs": [],
      "stateMutability": "nonpayable",
      "type": "function"
    },
    {
      "inputs": [
        {
          "internalType": "address",
          "name": "_liquidationEngine",
          "type": "address"
        }
      ],
      "name": "setLiquidationEngine",
      "outputs": [],
      "stateMutability": "nonpayable",
      "type": "function"
    },
    {
      "inputs": [
        {
          "internalType": "address",
          "name": "_priceOracle",
          "type": "address"
        }
      ],
      "name": "setPriceOracle",
      "outputs": [],
      "stateMutability": "nonpayable",
      "type": "function"
    },
    {
      "inputs": [],
      "name": "stablecoinAdapter",
      "outputs": [
        {
          "internalType": "contract IStablecoinAdapter",
          "name": "",
          "type": "address"
        }
      ],
      "stateMutability": "view",
      "type": "function"
    },
    {
      "inputs": [],
      "name": "systemDebtEngine",
      "outputs": [
        {
          "internalType": "contract ISystemDebtEngine",
          "name": "",
          "type": "address"
        }
      ],
      "stateMutability": "view",
      "type": "function"
    },
    {
      "inputs": [],
      "name": "unpause",
      "outputs": [],
      "stateMutability": "nonpayable",
      "type": "function"
    }
  ],
  "bytecode": "0x608060405234801561001057600080fd5b506134ed806100206000396000f3fe608060405234801561001057600080fd5b50600436106100f55760003560e01c806346a311d3116100975780638456cb59116100665780638456cb59146101e3578063dabb91a1146101eb578063df1a4b73146101fe578063e3b3932a1461021257600080fd5b806346a311d3146101935780634d298abd146101a6578063530e784f146101b95780635c975abb146101cc57600080fd5b80632630c12f116100d35780632630c12f1461013557806328e49a42146101655780633f4ba83a1461017857806344bf3c721461018057600080fd5b806307d8bd88146100fa5780631459457a1461010f57806316d8d29114610122575b600080fd5b61010d610108366004612f29565b610225565b005b61010d61011d366004612f46565b6103e6565b61010d610130366004612fb7565b61085d565b609a54610148906001600160a01b031681565b6040516001600160a01b0390911681526020015b60405180910390f35b609954610148906001600160a01b031681565b61010d611328565b609854610148906001600160a01b031681565b609b54610148906001600160a01b031681565b61010d6101b4366004612f29565b611573565b61010d6101c7366004612f29565b61177a565b60335460ff165b604051901515815260200161015c565b61010d611982565b61010d6101f93660046130a1565b611bca565b609b546101d390600160a01b900460ff1681565b609754610148906001600160a01b031681565b6097546040805163c8cc243f60e01b815290516000926001600160a01b03169163c8cc243f9160048083019260209291908290030181865afa15801561026f573d6000803e3d6000fd5b505050506040513d601f19601f8201168201806040525081019061029391906130be565b9050806001600160a01b03166391d14854826001600160a01b031663e58378bb6040518163ffffffff1660e01b8152600401602060405180830381865afa1580156102e2573d6000803e3d6000fd5b505050506040513d601f19601f8201168201806040525081019061030691906130db565b6040516001600160e01b031960e084901b1681526004810191909152336024820152604401602060405180830381865afa158015610348573d6000803e3d6000fd5b505050506040513d601f19601f8201168201806040525081019061036c91906130f4565b6103915760405162461bcd60e51b815260040161038890613111565b60405180910390fd5b609780546001600160a01b0319166001600160a01b0384169081179091556040519081527f7a8340164c528a427c59f24f72b03b1a5fb97d097abd77c96f4ff13a668e5be99060200160405180910390a15050565b600054610100900460ff16158080156104065750600054600160ff909116105b806104205750303b158015610420575060005460ff166001145b6104835760405162461bcd60e51b815260206004820152602e60248201527f496e697469616c697a61626c653a20636f6e747261637420697320616c72656160448201526d191e481a5b9a5d1a585b1a5e995960921b6064820152608401610388565b6000805460ff1916600117905580156104a6576000805461ff0019166101001790555b6104ae611e65565b6104b6611e96565b85609760006101000a8154816001600160a01b0302191690836001600160a01b031602179055506000856001600160a01b0316639d1eea786040518163ffffffff1660e01b8152600401602060405180830381865afa15801561051d573d6000803e3d6000fd5b505050506040513d601f19601f8201168201806040525081019061054191906130db565b101561055f5760405162461bcd60e51b815260040161038890613135565b84609a60006101000a8154816001600160a01b0302191690836001600160a01b03160217905550836001600160a01b031663957aa58c6040518163ffffffff1660e01b8152600401602060405180830381865afa1580156105c4573d6000803e3d6000fd5b505050506040513d601f19601f820116820180604052508101906105e891906130db565b6001146106075760405162461bcd60e51b815260040161038890613175565b83609860006101000a8154816001600160a01b0302191690836001600160a01b031602179055506000836001600160a01b0316632a608d5b6040518163ffffffff1660e01b8152600401602060405180830381865afa15801561066e573d6000803e3d6000fd5b505050506040513d601f19601f8201168201806040525081019061069291906130db565b10156106f45760405162461bcd60e51b8152602060048201526037602482015260008051602061349883398151915260448201527f6e76616c69642d73797374656d44656274456e67696e650000000000000000006064820152608401610388565b82609960006101000a8154816001600160a01b0302191690836001600160a01b0316021790555060006001600160a01b0316826001600160a01b031663e9cbd8226040518163ffffffff1660e01b81526004016020604051808303816000875af1158015610766573d6000803e3d6000fd5b505050506040513d601f19601f8201168201806040525081019061078a91906130be565b6001600160a01b0316036107f45760405162461bcd60e51b8152602060048201526038602482015260008051602061349883398151915260448201527f6e76616c69642d737461626c65636f696e4164617074657200000000000000006064820152608401610388565b609b80546001600160a01b0319166001600160a01b0384161790558015610855576000805461ff0019169055604051600181527f7f26b83ff96e1f2b6a682f133852f6798a09c465da95921460cefb38474024989060200160405180910390a15b505050505050565b610865611ec5565b61086d611f1e565b609760009054906101000a90046001600160a01b03166001600160a01b031663c8cc243f6040518163ffffffff1660e01b8152600401602060405180830381865afa1580156108c0573d6000803e3d6000fd5b505050506040513d601f19601f820116820180604052508101906108e491906130be565b6001600160a01b03166391d14854609760009054906101000a90046001600160a01b03166001600160a01b031663c8cc243f6040518163ffffffff1660e01b8152600401602060405180830381865afa158015610945573d6000803e3d6000fd5b505050506040513d601f19601f8201168201806040525081019061096991906130be565b6001600160a01b031663e8ff193d6040518163ffffffff1660e01b8152600401602060405180830381865afa1580156109a6573d6000803e3d6000fd5b505050506040513d601f19601f820116820180604052508101906109ca91906130db565b6040516001600160e01b031960e084901b1681526004810191909152336024820152604401602060405180830381865afa158015610a0c573d6000803e3d6000fd5b505050506040513d601f19601f82011682018060405250810190610a3091906130f4565b610a755760405162461bcd60e51b8152602060048201526016602482015275216c69717569646174696f6e456e67696e65526f6c6560501b6044820152606401610388565b610a818a8a8a8a611f64565b6000610a988b88610a918e6120d9565b8c8e612319565b9050858160a001511115610b225760405162461bcd60e51b815260206004820152604560248201527f46697865645370726561644c69717569646174696f6e53747261746567792f6560448201527f78636565642d6d61782d646562742d76616c75652d746f2d62652d6c6971756960648201526419185d195960da1b608482015260a401610388565b600160ff1b8160c00151108015610b405750600160ff1b8160a00151105b610b5c5760405162461bcd60e51b8152600401610388906131d2565b60975460995460c08301516001600160a01b039283169263b1df2594928f928d9230921690610b8a90612a5e565b610b939061322f565b610ba08860a00151612a5e565b610ba99061322f565b6040516001600160e01b031960e089901b16815260048101969096526001600160a01b039485166024870152928416604486015292166064840152608483019190915260a482015260c401600060405180830381600087803b158015610c0e57600080fd5b505af1158015610c22573d6000803e3d6000fd5b5050505060e081015115610cac5760975460995460e083015160405163b5d9932960e01b8152600481018f90523060248201526001600160a01b039283166044820152606481019190915291169063b5d9932990608401600060405180830381600087803b158015610c9357600080fd5b505af1158015610ca7573d6000803e3d6000fd5b505050505b609b54600160a01b900460ff1615156001148015610cc957508115155b8015610ce357506097546001600160a01b03858116911614155b8015610cfd57506098546001600160a01b03858116911614155b8015610d7357506040516301ffc9a760e01b81526357bde8a160e11b60048201526001600160a01b038516906301ffc9a790602401602060405180830381865afa158015610d4f573d6000803e3d6000fd5b505050506040513d601f19601f82011682018060405250810190610d7391906130f4565b15610e965760975460e082015160c08301516001600160a01b039092169163b5d99329918e9130918991610da7919061324b565b6040516001600160e01b031960e087901b16815260048101949094526001600160a01b039283166024850152911660448301526064820152608401600060405180830381600087803b158015610dfc57600080fd5b505af1158015610e10573d6000803e3d6000fd5b50505050836001600160a01b031663af7bd1423383608001518460e001518560c00151610e3d919061324b565b87876040518663ffffffff1660e01b8152600401610e5f959493929190613264565b600060405180830381600087803b158015610e7957600080fd5b505af1158015610e8d573d6000803e3d6000fd5b505050506111b4565b609760009054906101000a90046001600160a01b03166001600160a01b031663d86824616040518163ffffffff1660e01b8152600401602060405180830381865afa158015610ee9573d6000803e3d6000fd5b505050506040513d601f19601f82011682018060405250810190610f0d91906130be565b6001600160a01b0316638272e1388c6040518263ffffffff1660e01b8152600401610f3a91815260200190565b602060405180830381865afa158015610f57573d6000803e3d6000fd5b505050506040513d601f19601f82011682018060405250810190610f7b91906130be565b6001600160a01b03166331f09265858360e001518460c00151610f9e919061324b565b6040805160006020820152016040516020818303038152906040526040518463ffffffff1660e01b8152600401610fd793929190613300565b600060405180830381600087803b158015610ff157600080fd5b505af1158015611005573d6000803e3d6000fd5b505050506000609b60009054906101000a90046001600160a01b03166001600160a01b031663e9cbd8226040518163ffffffff1660e01b81526004016020604051808303816000875af1158015611060573d6000803e3d6000fd5b505050506040513d601f19601f8201168201806040525081019061108491906130be565b90506110c486306b033b2e3c9fd0803ce800000085608001516110a79190613330565b6110b2906001613352565b6001600160a01b038516929190612a84565b609b54608083015161110d916001600160a01b0316906110f1906b033b2e3c9fd0803ce800000090613330565b6110fc906001613352565b6001600160a01b0384169190612bf8565b609b60009054906101000a90046001600160a01b03166001600160a01b031662e1a79f8784608001518f6000604051602001611152919060ff91909116815260200190565b6040516020818303038152906040526040518563ffffffff1660e01b81526004016111809493929190613365565b600060405180830381600087803b15801561119a57600080fd5b505af11580156111ae573d6000803e3d6000fd5b50505050505b60975460995460808301516040516323055e1560e21b81526001600160a01b03898116600483015292831660248201526044810191909152911690638c15785490606401600060405180830381600087803b15801561121257600080fd5b505af1158015611226573d6000803e3d6000fd5b5050505089816000018181525050888160200181815250508681604001818152505085816060018181525050846001600160a01b0316886001600160a01b03168c7f498293dc3e787b3f04a320f39b6d8853b395dbbccb2abadfb92ec74a01f1338184600001518560200151866040015187606001518b8960a001518a608001518b60c001518c60e00151604051611309999897969594939291909889526020890197909752604088019590955260608701939093526001600160a01b0391909116608086015260a085015260c084015260e08301526101008201526101200190565b60405180910390a45061131c6001606555565b50505050505050505050565b6097546040805163c8cc243f60e01b815290516000926001600160a01b03169163c8cc243f9160048083019260209291908290030181865afa158015611372573d6000803e3d6000fd5b505050506040513d601f19601f8201168201806040525081019061139691906130be565b9050806001600160a01b03166391d14854826001600160a01b031663e58378bb6040518163ffffffff1660e01b8152600401602060405180830381865afa1580156113e5573d6000803e3d6000fd5b505050506040513d601f19601f8201168201806040525081019061140991906130db565b6040516001600160e01b031960e084901b1681526004810191909152336024820152604401602060405180830381865afa15801561144b573d6000803e3d6000fd5b505050506040513d601f19601f8201168201806040525081019061146f91906130f4565b8061154c5750806001600160a01b03166391d14854826001600160a01b031663b536818a6040518163ffffffff1660e01b8152600401602060405180830381865afa1580156114c2573d6000803e3d6000fd5b505050506040513d601f19601f820116820180604052508101906114e691906130db565b6040516001600160e01b031960e084901b1681526004810191909152336024820152604401602060405180830381865afa158015611528573d6000803e3d6000fd5b505050506040513d601f19601f8201168201806040525081019061154c91906130f4565b6115685760405162461bcd60e51b815260040161038890613392565b611570612d68565b50565b6097546040805163c8cc243f60e01b815290516000926001600160a01b03169163c8cc243f9160048083019260209291908290030181865afa1580156115bd573d6000803e3d6000fd5b505050506040513d601f19601f820116820180604052508101906115e191906130be565b9050806001600160a01b03166391d14854826001600160a01b031663e58378bb6040518163ffffffff1660e01b8152600401602060405180830381865afa158015611630573d6000803e3d6000fd5b505050506040513d601f19601f8201168201806040525081019061165491906130db565b6040516001600160e01b031960e084901b1681526004810191909152336024820152604401602060405180830381865afa158015611696573d6000803e3d6000fd5b505050506040513d601f19601f820116820180604052508101906116ba91906130f4565b6116d65760405162461bcd60e51b815260040161038890613111565b816001600160a01b031663957aa58c6040518163ffffffff1660e01b8152600401602060405180830381865afa158015611714573d6000803e3d6000fd5b505050506040513d601f19601f8201168201806040525081019061173891906130db565b6001146117575760405162461bcd60e51b815260040161038890613175565b50609880546001600160a01b0319166001600160a01b0392909216919091179055565b6097546040805163c8cc243f60e01b815290516000926001600160a01b03169163c8cc243f9160048083019260209291908290030181865afa1580156117c4573d6000803e3d6000fd5b505050506040513d601f19601f820116820180604052508101906117e891906130be565b9050806001600160a01b03166391d14854826001600160a01b031663e58378bb6040518163ffffffff1660e01b8152600401602060405180830381865afa158015611837573d6000803e3d6000fd5b505050506040513d601f19601f8201168201806040525081019061185b91906130db565b6040516001600160e01b031960e084901b1681526004810191909152336024820152604401602060405180830381865afa15801561189d573d6000803e3d6000fd5b505050506040513d601f19601f820116820180604052508101906118c191906130f4565b6118dd5760405162461bcd60e51b815260040161038890613111565b6000826001600160a01b0316639d1eea786040518163ffffffff1660e01b8152600401602060405180830381865afa15801561191d573d6000803e3d6000fd5b505050506040513d601f19601f8201168201806040525081019061194191906130db565b101561195f5760405162461bcd60e51b815260040161038890613135565b50609a80546001600160a01b0319166001600160a01b0392909216919091179055565b6097546040805163c8cc243f60e01b815290516000926001600160a01b03169163c8cc243f9160048083019260209291908290030181865afa1580156119cc573d6000803e3d6000fd5b505050506040513d601f19601f820116820180604052508101906119f091906130be565b9050806001600160a01b03166391d14854826001600160a01b031663e58378bb6040518163ffffffff1660e01b8152600401602060405180830381865afa158015611a3f573d6000803e3d6000fd5b505050506040513d601f19601f82011682018060405250810190611a6391906130db565b6040516001600160e01b031960e084901b1681526004810191909152336024820152604401602060405180830381865afa158015611aa5573d6000803e3d6000fd5b505050506040513d601f19601f82011682018060405250810190611ac991906130f4565b80611ba65750806001600160a01b03166391d14854826001600160a01b031663b536818a6040518163ffffffff1660e01b8152600401602060405180830381865afa158015611b1c573d6000803e3d6000fd5b505050506040513d601f19601f82011682018060405250810190611b4091906130db565b6040516001600160e01b031960e084901b1681526004810191909152336024820152604401602060405180830381865afa158015611b82573d6000803e3d6000fd5b505050506040513d601f19601f82011682018060405250810190611ba691906130f4565b611bc25760405162461bcd60e51b815260040161038890613392565b611570612dba565b6097546040805163c8cc243f60e01b815290516000926001600160a01b03169163c8cc243f9160048083019260209291908290030181865afa158015611c14573d6000803e3d6000fd5b505050506040513d601f19601f82011682018060405250810190611c3891906130be565b9050806001600160a01b03166391d14854826001600160a01b031663e58378bb6040518163ffffffff1660e01b8152600401602060405180830381865afa158015611c87573d6000803e3d6000fd5b505050506040513d601f19601f82011682018060405250810190611cab91906130db565b6040516001600160e01b031960e084901b1681526004810191909152336024820152604401602060405180830381865afa158015611ced573d6000803e3d6000fd5b505050506040513d601f19601f82011682018060405250810190611d1191906130f4565b80611dee5750806001600160a01b03166391d14854826001600160a01b031663b536818a6040518163ffffffff1660e01b8152600401602060405180830381865afa158015611d64573d6000803e3d6000fd5b505050506040513d601f19601f82011682018060405250810190611d8891906130db565b6040516001600160e01b031960e084901b1681526004810191909152336024820152604401602060405180830381865afa158015611dca573d6000803e3d6000fd5b505050506040513d601f19601f82011682018060405250810190611dee91906130f4565b611e0a5760405162461bcd60e51b815260040161038890613392565b609b8054831515600160a01b0260ff60a01b1990911617905560405133907f7e3da2eacc500bde7f64a7ea01e1462e8cfc7297b92389940acbe234d6469c6490611e5990851515815260200190565b60405180910390a25050565b600054610100900460ff16611e8c5760405162461bcd60e51b8152600401610388906133c9565b611e94612df7565b565b600054610100900460ff16611ebd5760405162461bcd60e51b8152600401610388906133c9565b611e94612e2a565b600260655403611f175760405162461bcd60e51b815260206004820152601f60248201527f5265656e7472616e637947756172643a207265656e7472616e742063616c6c006044820152606401610388565b6002606555565b60335460ff1615611e945760405162461bcd60e51b815260206004820152601060248201526f14185d5cd8589b194e881c185d5cd95960821b6044820152606401610388565b60008311611fb35760405162461bcd60e51b81526020600482015260286024820152600080516020613478833981519152604482015267195c9bcb5919589d60c21b6064820152608401610388565b6000821161200f5760405162461bcd60e51b81526020600482015260356024820152600080516020613478833981519152604482015274195c9bcb58dbdb1b185d195c985b0b585b5bdd5b9d605a1b6064820152608401610388565b6001600160a01b0381166120705760405162461bcd60e51b8152602060048201526034602482015260008051602061347883398151915260448201527365726f2d706f736974696f6e2d6164647265737360601b6064820152608401610388565b600061207b856120d9565b116120d35760405162461bcd60e51b8152602060048201526034602482015260008051602061347883398151915260448201527365726f2d636f6c6c61746572616c2d707269636560601b6064820152608401610388565b50505050565b600080609760009054906101000a90046001600160a01b03166001600160a01b031663d86824616040518163ffffffff1660e01b8152600401602060405180830381865afa15801561212f573d6000803e3d6000fd5b505050506040513d601f19601f8201168201806040525081019061215391906130be565b6001600160a01b0316638c0adf62846040518263ffffffff1660e01b815260040161218091815260200190565b602060405180830381865afa15801561219d573d6000803e3d6000fd5b505050506040513d601f19601f820116820180604052508101906121c191906130be565b90506000819050600080826001600160a01b031663140d27206040518163ffffffff1660e01b815260040160408051808303816000875af115801561220a573d6000803e3d6000fd5b505050506040513d601f19601f8201168201806040525081019061222e9190613414565b91509150806122825760405162461bcd60e51b815260206004820152602c602482015260008051602061349883398151915260448201526b6e76616c69642d707269636560a01b6064820152608401610388565b61230f612293633b9aca0084613444565b609a60009054906101000a90046001600160a01b03166001600160a01b0316639d1eea786040518163ffffffff1660e01b8152600401602060405180830381865afa1580156122e6573d6000803e3d6000fd5b505050506040513d601f19601f8201168201806040525081019061230a91906130db565b612e51565b9695505050505050565b6123686040518061012001604052806000815260200160008152602001600081526020016000815260200160008152602001600081526020016000815260200160008152602001600081525090565b61239a6040518060a0016040528060008152602001600081526020016000815260200160008152602001600081525090565b609760009054906101000a90046001600160a01b03166001600160a01b031663d86824616040518163ffffffff1660e01b8152600401602060405180830381865afa1580156123ed573d6000803e3d6000fd5b505050506040513d601f19601f8201168201806040525081019061241191906130be565b6001600160a01b031663a09b0fe0886040518263ffffffff1660e01b815260040161243e91815260200190565b602060405180830381865afa15801561245b573d6000803e3d6000fd5b505050506040513d601f19601f8201168201806040525081019061247f91906130db565b81526097546040805163d868246160e01b815290516001600160a01b039092169163d8682461916004808201926020929091908290030181865afa1580156124cb573d6000803e3d6000fd5b505050506040513d601f19601f820116820180604052508101906124ef91906130be565b6001600160a01b031663e73bbc79886040518263ffffffff1660e01b815260040161251c91815260200190565b602060405180830381865afa158015612539573d6000803e3d6000fd5b505050506040513d601f19601f8201168201806040525081019061255d91906130db565b6020808301919091526097546040805163d868246160e01b815290516001600160a01b039092169263d8682461926004808401938290030181865afa1580156125aa573d6000803e3d6000fd5b505050506040513d601f19601f820116820180604052508101906125ce91906130be565b6001600160a01b0316630ec057e5886040518263ffffffff1660e01b81526004016125fb91815260200190565b602060405180830381865afa158015612618573d6000803e3d6000fd5b505050506040513d601f19601f8201168201806040525081019061263c91906130db565b604080830191909152609754815163d868246160e01b815291516001600160a01b039091169163d86824619160048083019260209291908290030181865afa15801561268c573d6000803e3d6000fd5b505050506040513d601f19601f820116820180604052508101906126b091906130be565b6001600160a01b0316639c1985d5886040518263ffffffff1660e01b81526004016126dd91815260200190565b602060405180830381865afa1580156126fa573d6000803e3d6000fd5b505050506040513d601f19601f8201168201806040525081019061271e91906130db565b60608201526097546040805163d868246160e01b815290516001600160a01b039092169163d8682461916004808201926020929091908290030181865afa15801561276d573d6000803e3d6000fd5b505050506040513d601f19601f8201168201806040525081019061279191906130be565b6001600160a01b03166373a4f962886040518263ffffffff1660e01b81526004016127be91815260200190565b602060405180830381865afa1580156127db573d6000803e3d6000fd5b505050506040513d601f19601f820116820180604052508101906127ff91906130db565b608082015280516000906128139085613444565b9050600082602001511161288f5760405162461bcd60e51b815260206004820152603760248201527f46697865645370726561644c69717569646174696f6e53747261746567792f6360448201527f6c6f73652d666163746f722d6270732d6e6f742d7365740000000000000000006064820152608401610388565b6127108260200151856128a29190613444565b6128ac9190613330565b610100840181905287116128c057866128c7565b8261010001515b60a0840181905282516128d991613444565b6080840181905260408301516000918891612710916128f89190613444565b6129029190613330565b61290c9190613330565b90508581118061293d57506080840151612926908361324b565b87612931838961324b565b61293b9190613444565b105b156129785760c0840186905260408301516129588789613444565b61296490612710613444565b61296e9190613330565b60808501526129e3565b83608001518211801561299c57506060830151608085015161299a908461324b565b105b156129db576080840182905260408301518790612710906129bd9085613444565b6129c79190613330565b6129d19190613330565b60c08501526129e3565b60c084018190525b825160808501516129f49190613330565b60a0850152604083015160c085015160009190612a1390612710613444565b612a1d9190613330565b8560c00151612a2c919061324b565b9050612710846080015182612a419190613444565b612a4b9190613330565b60e0860152509298975050505050505050565b600080821215612a805760405162461bcd60e51b8152600401610388906131d2565b5090565b6001600160a01b0384163b612aea5760405162461bcd60e51b815260206004820152602660248201527f736166655472616e7366657246726f6d3a206e6f6e2d636f6e7472616374206160448201526564647265737360d01b6064820152608401610388565b6040516001600160a01b038481166024830152838116604483015260648201839052600091829187169060840160408051601f198184030181529181526020820180516001600160e01b03166323b872dd60e01b17905251612b4c919061345b565b6000604051808303816000865af19150503d8060008114612b89576040519150601f19603f3d011682016040523d82523d6000602084013e612b8e565b606091505b5091509150818015612bb8575080511580612bb8575080806020019051810190612bb891906130f4565b6108555760405162461bcd60e51b815260206004820152601160248201527021736166655472616e7366657246726f6d60781b6044820152606401610388565b6001600160a01b0383163b612c595760405162461bcd60e51b815260206004820152602160248201527f73616665417070726f76653a206e6f6e2d636f6e7472616374206164647265736044820152607360f81b6064820152608401610388565b6040516001600160a01b03838116602483015260448201839052600091829186169060640160408051601f198184030181529181526020820180516001600160e01b031663095ea7b360e01b17905251612cb3919061345b565b6000604051808303816000865af19150503d8060008114612cf0576040519150601f19603f3d011682016040523d82523d6000602084013e612cf5565b606091505b5091509150818015612d1f575080511580612d1f575080806020019051810190612d1f91906130f4565b612d5a5760405162461bcd60e51b815260206004820152600c60248201526b2173616665417070726f766560a01b6044820152606401610388565b5050505050565b6001606555565b612d70612ecb565b6033805460ff191690557f5db9ee0a495bf2e6ff9c91a7834c1ba4fdd244a5e8aa4e537bd38aeae4b073aa335b6040516001600160a01b03909116815260200160405180910390a1565b612dc2611f1e565b6033805460ff191660011790557f62e78cea01bee320cd4e420270b5ea74000d11b0c9f74754ebdbfc544b05a258612d9d3390565b600054610100900460ff16612e1e5760405162461bcd60e51b8152600401610388906133c9565b6033805460ff19169055565b600054610100900460ff16612d615760405162461bcd60e51b8152600401610388906133c9565b600081600003612ea35760405162461bcd60e51b815260206004820152601860248201527f436f6d6d6f6e4d6174682f7a65726f2d6469766973696f6e00000000000000006044820152606401610388565b81612eba6b033b2e3c9fd0803ce800000085613444565b612ec49190613330565b9392505050565b60335460ff16611e945760405162461bcd60e51b815260206004820152601460248201527314185d5cd8589b194e881b9bdd081c185d5cd95960621b6044820152606401610388565b6001600160a01b038116811461157057600080fd5b600060208284031215612f3b57600080fd5b8135612ec481612f14565b600080600080600060a08688031215612f5e57600080fd5b8535612f6981612f14565b94506020860135612f7981612f14565b93506040860135612f8981612f14565b92506060860135612f9981612f14565b91506080860135612fa981612f14565b809150509295509295909350565b6000806000806000806000806000806101208b8d031215612fd757600080fd5b8a35995060208b0135985060408b0135975060608b0135612ff781612f14565b965060808b0135955060a08b0135945060c08b013561301581612f14565b935060e08b013561302581612f14565b92506101008b013567ffffffffffffffff8082111561304357600080fd5b818d0191508d601f83011261305757600080fd5b81358181111561306657600080fd5b8e602082850101111561307857600080fd5b6020830194508093505050509295989b9194979a5092959850565b801515811461157057600080fd5b6000602082840312156130b357600080fd5b8135612ec481613093565b6000602082840312156130d057600080fd5b8151612ec481612f14565b6000602082840312156130ed57600080fd5b5051919050565b60006020828403121561310657600080fd5b8151612ec481613093565b6020808252600a9082015269216f776e6572526f6c6560b01b604082015260600190565b60208082526032908201526000805160206134988339815191526040820152716e76616c69642d70726963654f7261636c6560701b606082015260800190565b60208082526039908201527f46697865645370726561644c69717569646174696f6e53747261746567792f6c60408201527f69717569646174696f6e456e67696e652d6e6f742d6c69766500000000000000606082015260800190565b60208082526027908201527f46697865645370726561644c69717569646174696f6e53747261746567792f6f604082015266766572666c6f7760c81b606082015260800190565b634e487b7160e01b600052601160045260246000fd5b6000600160ff1b820161324457613244613219565b5060000390565b8181038181111561325e5761325e613219565b92915050565b60018060a01b038616815284602082015283604082015260806060820152816080820152818360a0830137600081830160a090810191909152601f909201601f19160101949350505050565b60005b838110156132cb5781810151838201526020016132b3565b50506000910152565b600081518084526132ec8160208601602086016132b0565b601f01601f19169290920160200192915050565b60018060a01b038416815282602082015260606040820152600061332760608301846132d4565b95945050505050565b60008261334d57634e487b7160e01b600052601260045260246000fd5b500490565b8082018082111561325e5761325e613219565b60018060a01b038516815283602082015282604082015260806060820152600061230f60808301846132d4565b60208082526017908201527f21286f776e6572526f6c65206f7220676f76526f6c6529000000000000000000604082015260600190565b6020808252602b908201527f496e697469616c697a61626c653a20636f6e7472616374206973206e6f74206960408201526a6e697469616c697a696e6760a81b606082015260800190565b6000806040838503121561342757600080fd5b82519150602083015161343981613093565b809150509250929050565b808202811582820484141761325e5761325e613219565b6000825161346d8184602087016132b0565b919091019291505056fe46697865645370726561644c69717569646174696f6e53747261746567792f7a46697865645370726561644c69717569646174696f6e53747261746567792f69a2646970667358221220077170dbb9f8877e19a1f6de3983d3ab80e0942727362956c09e0f35db9e2dca64736f6c63430008110033",
  "linkReferences": {},
  "deployedLinkReferences": {}
}