{
    "contractName": "FixedSpreadLiquidationStrategy",
    "abi": [
        {
            "anonymous": false,
            "inputs": [
                {
                    "indexed": false,
                    "internalType": "uint8",
                    "name": "version",
                    "type": "uint8"
                }
            ],
            "name": "Initialized",
            "type": "event"
        },
        {
            "anonymous": false,
            "inputs": [
                {
                    "indexed": true,
                    "internalType": "bytes32",
                    "name": "_collateralPoolId",
                    "type": "bytes32"
                },
                {
                    "indexed": false,
                    "internalType": "uint256",
                    "name": "_positionDebtShare",
                    "type": "uint256"
                },
                {
                    "indexed": false,
                    "internalType": "uint256",
                    "name": "_positionCollateralAmount",
                    "type": "uint256"
                },
                {
                    "indexed": true,
                    "internalType": "address",
                    "name": "_positionAddress",
                    "type": "address"
                },
                {
                    "indexed": false,
                    "internalType": "uint256",
                    "name": "_debtShareToBeLiquidated",
                    "type": "uint256"
                },
                {
                    "indexed": false,
                    "internalType": "uint256",
                    "name": "_maxDebtShareToBeLiquidated",
                    "type": "uint256"
                },
                {
                    "indexed": true,
                    "internalType": "address",
                    "name": "_liquidatorAddress",
                    "type": "address"
                },
                {
                    "indexed": false,
                    "internalType": "address",
                    "name": "_collateralRecipient",
                    "type": "address"
                },
                {
                    "indexed": false,
                    "internalType": "uint256",
                    "name": "_actualDebtShareToBeLiquidated",
                    "type": "uint256"
                },
                {
                    "indexed": false,
                    "internalType": "uint256",
                    "name": "_actualDebtValueToBeLiquidated",
                    "type": "uint256"
                },
                {
                    "indexed": false,
                    "internalType": "uint256",
                    "name": "_collateralAmountToBeLiquidated",
                    "type": "uint256"
                },
                {
                    "indexed": false,
                    "internalType": "uint256",
                    "name": "_treasuryFees",
                    "type": "uint256"
                }
            ],
            "name": "LogFixedSpreadLiquidate",
            "type": "event"
        },
        {
            "anonymous": false,
            "inputs": [
                {
                    "indexed": true,
                    "internalType": "address",
                    "name": "caller",
                    "type": "address"
                },
                {
                    "indexed": false,
                    "internalType": "uint256",
                    "name": "_flashLendingEnabled",
                    "type": "uint256"
                }
            ],
            "name": "LogSetFlashLendingEnabled",
            "type": "event"
        },
        {
            "anonymous": false,
            "inputs": [
                {
                    "indexed": false,
                    "internalType": "address",
                    "name": "account",
                    "type": "address"
                }
            ],
            "name": "Paused",
            "type": "event"
        },
        {
            "anonymous": false,
            "inputs": [
                {
                    "indexed": false,
                    "internalType": "address",
                    "name": "account",
                    "type": "address"
                }
            ],
            "name": "Unpaused",
            "type": "event"
        },
        {
            "inputs": [],
            "name": "bookKeeper",
            "outputs": [
                {
                    "internalType": "contract IBookKeeper",
                    "name": "",
                    "type": "address"
                }
            ],
            "stateMutability": "view",
            "type": "function"
        },
        {
            "inputs": [],
            "name": "flashLendingEnabled",
            "outputs": [
                {
                    "internalType": "uint256",
                    "name": "",
                    "type": "uint256"
                }
            ],
            "stateMutability": "view",
            "type": "function"
        },
        {
            "inputs": [],
            "name": "liquidationEngine",
            "outputs": [
                {
                    "internalType": "contract ILiquidationEngine",
                    "name": "",
                    "type": "address"
                }
            ],
            "stateMutability": "view",
            "type": "function"
        },
        {
            "inputs": [],
            "name": "paused",
            "outputs": [
                {
                    "internalType": "bool",
                    "name": "",
                    "type": "bool"
                }
            ],
            "stateMutability": "view",
            "type": "function"
        },
        {
            "inputs": [],
            "name": "priceOracle",
            "outputs": [
                {
                    "internalType": "contract IPriceOracle",
                    "name": "",
                    "type": "address"
                }
            ],
            "stateMutability": "view",
            "type": "function"
        },
        {
            "inputs": [],
            "name": "stablecoinAdapter",
            "outputs": [
                {
                    "internalType": "contract IStablecoinAdapter",
                    "name": "",
                    "type": "address"
                }
            ],
            "stateMutability": "view",
            "type": "function"
        },
        {
            "inputs": [],
            "name": "systemDebtEngine",
            "outputs": [
                {
                    "internalType": "contract ISystemDebtEngine",
                    "name": "",
                    "type": "address"
                }
            ],
            "stateMutability": "view",
            "type": "function"
        },
        {
            "inputs": [
                {
                    "internalType": "address",
                    "name": "_bookKeeper",
                    "type": "address"
                },
                {
                    "internalType": "address",
                    "name": "_priceOracle",
                    "type": "address"
                },
                {
                    "internalType": "address",
                    "name": "_liquidationEngine",
                    "type": "address"
                },
                {
                    "internalType": "address",
                    "name": "_systemDebtEngine",
                    "type": "address"
                },
                {
                    "internalType": "address",
                    "name": "_stablecoinAdapter",
                    "type": "address"
                }
            ],
            "name": "initialize",
            "outputs": [],
            "stateMutability": "nonpayable",
            "type": "function"
        },
        {
            "inputs": [],
            "name": "pause",
            "outputs": [],
            "stateMutability": "nonpayable",
            "type": "function"
        },
        {
            "inputs": [],
            "name": "unpause",
            "outputs": [],
            "stateMutability": "nonpayable",
            "type": "function"
        },
        {
            "inputs": [
                {
                    "internalType": "uint256",
                    "name": "_flashLendingEnabled",
                    "type": "uint256"
                }
            ],
            "name": "setFlashLendingEnabled",
            "outputs": [],
            "stateMutability": "nonpayable",
            "type": "function"
        },
        {
            "inputs": [
                {
                    "internalType": "bytes32",
                    "name": "_collateralPoolId",
                    "type": "bytes32"
                },
                {
                    "internalType": "uint256",
                    "name": "_positionDebtShare",
                    "type": "uint256"
                },
                {
                    "internalType": "uint256",
                    "name": "_positionCollateralAmount",
                    "type": "uint256"
                },
                {
                    "internalType": "address",
                    "name": "_positionAddress",
                    "type": "address"
                },
                {
                    "internalType": "uint256",
                    "name": "_debtShareToBeLiquidated",
                    "type": "uint256"
                },
                {
                    "internalType": "uint256",
                    "name": "_maxDebtShareToBeLiquidated",
                    "type": "uint256"
                },
                {
                    "internalType": "address",
                    "name": "_liquidatorAddress",
                    "type": "address"
                },
                {
                    "internalType": "address",
                    "name": "_collateralRecipient",
                    "type": "address"
                },
                {
                    "internalType": "bytes",
                    "name": "_data",
                    "type": "bytes"
                }
            ],
            "name": "execute",
            "outputs": [],
            "stateMutability": "nonpayable",
            "type": "function"
        },
        {
            "inputs": [
                {
                    "internalType": "address",
                    "name": "_priceOracle",
                    "type": "address"
                }
            ],
            "name": "setPriceOracle",
            "outputs": [],
            "stateMutability": "nonpayable",
            "type": "function"
        },
        {
            "inputs": [
                {
                    "internalType": "address",
                    "name": "_bookKeeper",
                    "type": "address"
                }
            ],
            "name": "setBookKeeper",
            "outputs": [],
            "stateMutability": "nonpayable",
            "type": "function"
        },
        {
            "inputs": [
                {
                    "internalType": "address",
                    "name": "_liquidationEngine",
                    "type": "address"
                }
            ],
            "name": "setLiquidationEngine",
            "outputs": [],
            "stateMutability": "nonpayable",
            "type": "function"
        }
    ],
    "bytecode": "0x608060405234801561001057600080fd5b50613641806100206000396000f3fe608060405234801561001057600080fd5b50600436106100f55760003560e01c806346a311d3116100975780638456cb59116100665780638456cb59146101e2578063df1a4b73146101ea578063e3b3932a14610201578063f79b9f4a1461021457600080fd5b806346a311d3146101935780634d298abd146101a6578063530e784f146101b95780635c975abb146101cc57600080fd5b80632630c12f116100d35780632630c12f1461013557806328e49a42146101655780633f4ba83a1461017857806344bf3c721461018057600080fd5b806307d8bd88146100fa5780631459457a1461010f57806316d8d29114610122575b600080fd5b61010d610108366004613081565b610227565b005b61010d61011d3660046130a5565b61043a565b61010d610130366004613116565b610935565b609a54610148906001600160a01b031681565b6040516001600160a01b0390911681526020015b60405180910390f35b609954610148906001600160a01b031681565b61010d6116cd565b609854610148906001600160a01b031681565b609b54610148906001600160a01b031681565b61010d6101b4366004613081565b611918565b61010d6101c7366004613081565b611b1f565b60335460ff16604051901515815260200161015c565b61010d611d27565b6101f3609c5481565b60405190815260200161015c565b609754610148906001600160a01b031681565b61010d6102223660046131f2565b611f6f565b6097546040805163c8cc243f60e01b815290516000926001600160a01b03169163c8cc243f9160048083019260209291908290030181865afa158015610271573d6000803e3d6000fd5b505050506040513d601f19601f82011682018060405250810190610295919061320b565b9050806001600160a01b03166391d14854826001600160a01b031663e58378bb6040518163ffffffff1660e01b8152600401602060405180830381865afa1580156102e4573d6000803e3d6000fd5b505050506040513d601f19601f820116820180604052508101906103089190613228565b6040516001600160e01b031960e084901b1681526004810191909152336024820152604401602060405180830381865afa15801561034a573d6000803e3d6000fd5b505050506040513d601f19601f8201168201806040525081019061036e9190613256565b6103935760405162461bcd60e51b815260040161038a90613271565b60405180910390fd5b6000826001600160a01b0316636f3a3bfc6040518163ffffffff1660e01b81526004016020604051808303816000875af11580156103d5573d6000803e3d6000fd5b505050506040513d601f19601f820116820180604052508101906103f99190613228565b10156104175760405162461bcd60e51b815260040161038a90613295565b50609780546001600160a01b0319166001600160a01b0392909216919091179055565b600054610100900460ff161580801561045a5750600054600160ff909116105b806104745750303b158015610474575060005460ff166001145b6104d75760405162461bcd60e51b815260206004820152602e60248201527f496e697469616c697a61626c653a20636f6e747261637420697320616c72656160448201526d191e481a5b9a5d1a585b1a5e995960921b606482015260840161038a565b6000805460ff1916600117905580156104fa576000805461ff0019166101001790555b6105026121ed565b61050a61221e565b6000866001600160a01b0316636f3a3bfc6040518163ffffffff1660e01b81526004016020604051808303816000875af115801561054c573d6000803e3d6000fd5b505050506040513d601f19601f820116820180604052508101906105709190613228565b101561058e5760405162461bcd60e51b815260040161038a90613295565b85609760006101000a8154816001600160a01b0302191690836001600160a01b031602179055506000856001600160a01b0316639d1eea786040518163ffffffff1660e01b8152600401602060405180830381865afa1580156105f5573d6000803e3d6000fd5b505050506040513d601f19601f820116820180604052508101906106199190613228565b10156106375760405162461bcd60e51b815260040161038a906132d4565b84609a60006101000a8154816001600160a01b0302191690836001600160a01b03160217905550836001600160a01b031663957aa58c6040518163ffffffff1660e01b8152600401602060405180830381865afa15801561069c573d6000803e3d6000fd5b505050506040513d601f19601f820116820180604052508101906106c09190613228565b6001146106df5760405162461bcd60e51b815260040161038a90613314565b83609860006101000a8154816001600160a01b0302191690836001600160a01b031602179055506000836001600160a01b0316632a608d5b6040518163ffffffff1660e01b8152600401602060405180830381865afa158015610746573d6000803e3d6000fd5b505050506040513d601f19601f8201168201806040525081019061076a9190613228565b10156107cc5760405162461bcd60e51b815260206004820152603760248201526000805160206135ec83398151915260448201527f6e76616c69642d73797374656d44656274456e67696e65000000000000000000606482015260840161038a565b82609960006101000a8154816001600160a01b0302191690836001600160a01b0316021790555060006001600160a01b0316826001600160a01b031663e9cbd8226040518163ffffffff1660e01b81526004016020604051808303816000875af115801561083e573d6000803e3d6000fd5b505050506040513d601f19601f82011682018060405250810190610862919061320b565b6001600160a01b0316036108cc5760405162461bcd60e51b815260206004820152603860248201526000805160206135ec83398151915260448201527f6e76616c69642d737461626c65636f696e416461707465720000000000000000606482015260840161038a565b609b80546001600160a01b0319166001600160a01b038416179055801561092d576000805461ff0019169055604051600181527f7f26b83ff96e1f2b6a682f133852f6798a09c465da95921460cefb38474024989060200160405180910390a15b505050505050565b61093d61224d565b6109456122a6565b609760009054906101000a90046001600160a01b03166001600160a01b031663c8cc243f6040518163ffffffff1660e01b8152600401602060405180830381865afa158015610998573d6000803e3d6000fd5b505050506040513d601f19601f820116820180604052508101906109bc919061320b565b604051632474521560e21b81527f73cc1824a5ac1764c2e141cf3615a9dcb73677c4e5be5154addc88d3e0cc148060048201523360248201526001600160a01b0391909116906391d1485490604401602060405180830381865afa158015610a28573d6000803e3d6000fd5b505050506040513d601f19601f82011682018060405250810190610a4c9190613256565b610a915760405162461bcd60e51b8152602060048201526016602482015275216c69717569646174696f6e456e67696e67526f6c6560501b604482015260640161038a565b60008911610ae05760405162461bcd60e51b815260206004820152602860248201526000805160206135cc833981519152604482015267195c9bcb5919589d60c21b606482015260840161038a565b60008811610b3c5760405162461bcd60e51b815260206004820152603560248201526000805160206135cc833981519152604482015274195c9bcb58dbdb1b185d195c985b0b585b5bdd5b9d605a1b606482015260840161038a565b6001600160a01b038716610b9d5760405162461bcd60e51b815260206004820152603460248201526000805160206135cc83398151915260448201527365726f2d706f736974696f6e2d6164647265737360601b606482015260840161038a565b6000610ba88b6122ec565b905060008111610c055760405162461bcd60e51b815260206004820152603460248201526000805160206135cc83398151915260448201527365726f2d636f6c6c61746572616c2d707269636560601b606482015260840161038a565b6000610c148c89848d8f61252c565b9050868160a001511115610c9e5760405162461bcd60e51b815260206004820152604560248201527f46697865645370726561644c69717569646174696f6e53747261746567792f6560448201527f78636565642d6d61782d646562742d76616c75652d746f2d62652d6c6971756960648201526419185d195960da1b608482015260a40161038a565b600160ff1b8160c00151108015610cbc5750600160ff1b8160a00151105b610d185760405162461bcd60e51b815260206004820152602760248201527f46697865645370726561644c69717569646174696f6e53747261746567792f6f604482015266766572666c6f7760c81b606482015260840161038a565b609760009054906101000a90046001600160a01b03166001600160a01b031663b1df25948d8b30609960009054906101000a90046001600160a01b03168660c00151610d6390613387565b8760a00151610d7190613387565b6040516001600160e01b031960e089901b16815260048101969096526001600160a01b039485166024870152928416604486015292166064840152608483019190915260a482015260c401600060405180830381600087803b158015610dd657600080fd5b505af1158015610dea573d6000803e3d6000fd5b505050506000609760009054906101000a90046001600160a01b03166001600160a01b031663d86824616040518163ffffffff1660e01b8152600401602060405180830381865afa158015610e43573d6000803e3d6000fd5b505050506040513d601f19601f82011682018060405250810190610e67919061320b565b6001600160a01b0316638272e1388e6040518263ffffffff1660e01b8152600401610e9491815260200190565b602060405180830381865afa158015610eb1573d6000803e3d6000fd5b505050506040513d601f19601f82011682018060405250810190610ed5919061320b565b60c083015160408051600060208201529293506001600160a01b038416926399443616928e923092016040516020818303038152906040526040518563ffffffff1660e01b8152600401610f2c94939291906133f3565b600060405180830381600087803b158015610f4657600080fd5b505af1158015610f5a573d6000803e3d6000fd5b5050505060e0820151156110a657609760009054906101000a90046001600160a01b03166001600160a01b031663b5d993298e30609960009054906101000a90046001600160a01b03168660e001516040518563ffffffff1660e01b8152600401610fe894939291909384526001600160a01b03928316602085015291166040830152606082015260800190565b600060405180830381600087803b15801561100257600080fd5b505af1158015611016573d6000803e3d6000fd5b505060995460e085015160408051600060208201526001600160a01b038781169650639944361695503094169291016040516020818303038152906040526040518563ffffffff1660e01b815260040161107394939291906133f3565b600060405180830381600087803b15801561108d57600080fd5b505af11580156110a1573d6000803e3d6000fd5b505050505b609c5460011480156110b757508315155b80156110d157506097546001600160a01b03878116911614155b80156110eb57506098546001600160a01b03878116911614155b801561116157506040516301ffc9a760e01b81526357bde8a160e11b60048201526001600160a01b038716906301ffc9a790602401602060405180830381865afa15801561113d573d6000803e3d6000fd5b505050506040513d601f19601f820116820180604052508101906111619190613256565b1561133657609760009054906101000a90046001600160a01b03166001600160a01b031663b5d993298e30896111a88760e001518860c00151612c4b90919063ffffffff16565b6040516001600160e01b031960e087901b16815260048101949094526001600160a01b039283166024850152911660448301526064820152608401600060405180830381600087803b1580156111fd57600080fd5b505af1158015611211573d6000803e3d6000fd5b50505050806001600160a01b0316639944361630886112418660e001518760c00151612c4b90919063ffffffff16565b6040805160006020820152016040516020818303038152906040526040518563ffffffff1660e01b815260040161127b94939291906133f3565b600060405180830381600087803b15801561129557600080fd5b505af11580156112a9573d6000803e3d6000fd5b50505050856001600160a01b031663af7bd1423384608001516112dd8660e001518760c00151612c4b90919063ffffffff16565b89896040518663ffffffff1660e01b81526004016112ff959493929190613426565b600060405180830381600087803b15801561131957600080fd5b505af115801561132d573d6000803e3d6000fd5b50505050611557565b806001600160a01b03166331f09265876113618560e001518660c00151612c4b90919063ffffffff16565b6040805160006020820152016040516020818303038152906040526040518463ffffffff1660e01b815260040161139a93929190613472565b600060405180830381600087803b1580156113b457600080fd5b505af11580156113c8573d6000803e3d6000fd5b505050506000609b60009054906101000a90046001600160a01b03166001600160a01b031663e9cbd8226040518163ffffffff1660e01b81526004016020604051808303816000875af1158015611423573d6000803e3d6000fd5b505050506040513d601f19601f82011682018060405250810190611447919061320b565b905061148788306b033b2e3c9fd0803ce8000000866080015161146a91906134a2565b6114759060016134c4565b6001600160a01b038516929190612c60565b609b5460808401516114d0916001600160a01b0316906114b4906b033b2e3c9fd0803ce8000000906134a2565b6114bf9060016134c4565b6001600160a01b0384169190612d70565b609b546080840151604080516000602080830191909152825180830390910181528183019283905263653623ab60e01b9092526001600160a01b039093169263653623ab92611523928d92604401613472565b600060405180830381600087803b15801561153d57600080fd5b505af1158015611551573d6000803e3d6000fd5b50505050505b60975460995460808401516040516323055e1560e21b81526001600160a01b038b8116600483015292831660248201526044810191909152911690638c15785490606401600060405180830381600087803b1580156115b557600080fd5b505af11580156115c9573d6000803e3d6000fd5b505050508b8260000181815250508a8260200181815250508882604001818152505087826060018181525050866001600160a01b03168a6001600160a01b03168e7f498293dc3e787b3f04a320f39b6d8853b395dbbccb2abadfb92ec74a01f1338185600001518660200151876040015188606001518d8a60a001518b608001518c60c001518d60e001516040516116ac999897969594939291909889526020890197909752604088019590955260608701939093526001600160a01b0391909116608086015260a085015260c084015260e08301526101008201526101200190565b60405180910390a45050506116c16001606555565b50505050505050505050565b6097546040805163c8cc243f60e01b815290516000926001600160a01b03169163c8cc243f9160048083019260209291908290030181865afa158015611717573d6000803e3d6000fd5b505050506040513d601f19601f8201168201806040525081019061173b919061320b565b9050806001600160a01b03166391d14854826001600160a01b031663e58378bb6040518163ffffffff1660e01b8152600401602060405180830381865afa15801561178a573d6000803e3d6000fd5b505050506040513d601f19601f820116820180604052508101906117ae9190613228565b6040516001600160e01b031960e084901b1681526004810191909152336024820152604401602060405180830381865afa1580156117f0573d6000803e3d6000fd5b505050506040513d601f19601f820116820180604052508101906118149190613256565b806118f15750806001600160a01b03166391d14854826001600160a01b031663b536818a6040518163ffffffff1660e01b8152600401602060405180830381865afa158015611867573d6000803e3d6000fd5b505050506040513d601f19601f8201168201806040525081019061188b9190613228565b6040516001600160e01b031960e084901b1681526004810191909152336024820152604401602060405180830381865afa1580156118cd573d6000803e3d6000fd5b505050506040513d601f19601f820116820180604052508101906118f19190613256565b61190d5760405162461bcd60e51b815260040161038a906134d7565b611915612e81565b50565b6097546040805163c8cc243f60e01b815290516000926001600160a01b03169163c8cc243f9160048083019260209291908290030181865afa158015611962573d6000803e3d6000fd5b505050506040513d601f19601f82011682018060405250810190611986919061320b565b9050806001600160a01b03166391d14854826001600160a01b031663e58378bb6040518163ffffffff1660e01b8152600401602060405180830381865afa1580156119d5573d6000803e3d6000fd5b505050506040513d601f19601f820116820180604052508101906119f99190613228565b6040516001600160e01b031960e084901b1681526004810191909152336024820152604401602060405180830381865afa158015611a3b573d6000803e3d6000fd5b505050506040513d601f19601f82011682018060405250810190611a5f9190613256565b611a7b5760405162461bcd60e51b815260040161038a90613271565b816001600160a01b031663957aa58c6040518163ffffffff1660e01b8152600401602060405180830381865afa158015611ab9573d6000803e3d6000fd5b505050506040513d601f19601f82011682018060405250810190611add9190613228565b600114611afc5760405162461bcd60e51b815260040161038a90613314565b50609880546001600160a01b0319166001600160a01b0392909216919091179055565b6097546040805163c8cc243f60e01b815290516000926001600160a01b03169163c8cc243f9160048083019260209291908290030181865afa158015611b69573d6000803e3d6000fd5b505050506040513d601f19601f82011682018060405250810190611b8d919061320b565b9050806001600160a01b03166391d14854826001600160a01b031663e58378bb6040518163ffffffff1660e01b8152600401602060405180830381865afa158015611bdc573d6000803e3d6000fd5b505050506040513d601f19601f82011682018060405250810190611c009190613228565b6040516001600160e01b031960e084901b1681526004810191909152336024820152604401602060405180830381865afa158015611c42573d6000803e3d6000fd5b505050506040513d601f19601f82011682018060405250810190611c669190613256565b611c825760405162461bcd60e51b815260040161038a90613271565b6000826001600160a01b0316639d1eea786040518163ffffffff1660e01b8152600401602060405180830381865afa158015611cc2573d6000803e3d6000fd5b505050506040513d601f19601f82011682018060405250810190611ce69190613228565b1015611d045760405162461bcd60e51b815260040161038a906132d4565b50609a80546001600160a01b0319166001600160a01b0392909216919091179055565b6097546040805163c8cc243f60e01b815290516000926001600160a01b03169163c8cc243f9160048083019260209291908290030181865afa158015611d71573d6000803e3d6000fd5b505050506040513d601f19601f82011682018060405250810190611d95919061320b565b9050806001600160a01b03166391d14854826001600160a01b031663e58378bb6040518163ffffffff1660e01b8152600401602060405180830381865afa158015611de4573d6000803e3d6000fd5b505050506040513d601f19601f82011682018060405250810190611e089190613228565b6040516001600160e01b031960e084901b1681526004810191909152336024820152604401602060405180830381865afa158015611e4a573d6000803e3d6000fd5b505050506040513d601f19601f82011682018060405250810190611e6e9190613256565b80611f4b5750806001600160a01b03166391d14854826001600160a01b031663b536818a6040518163ffffffff1660e01b8152600401602060405180830381865afa158015611ec1573d6000803e3d6000fd5b505050506040513d601f19601f82011682018060405250810190611ee59190613228565b6040516001600160e01b031960e084901b1681526004810191909152336024820152604401602060405180830381865afa158015611f27573d6000803e3d6000fd5b505050506040513d601f19601f82011682018060405250810190611f4b9190613256565b611f675760405162461bcd60e51b815260040161038a906134d7565b611915612ed3565b6097546040805163c8cc243f60e01b815290516000926001600160a01b03169163c8cc243f9160048083019260209291908290030181865afa158015611fb9573d6000803e3d6000fd5b505050506040513d601f19601f82011682018060405250810190611fdd919061320b565b9050806001600160a01b03166391d14854826001600160a01b031663e58378bb6040518163ffffffff1660e01b8152600401602060405180830381865afa15801561202c573d6000803e3d6000fd5b505050506040513d601f19601f820116820180604052508101906120509190613228565b6040516001600160e01b031960e084901b1681526004810191909152336024820152604401602060405180830381865afa158015612092573d6000803e3d6000fd5b505050506040513d601f19601f820116820180604052508101906120b69190613256565b806121935750806001600160a01b03166391d14854826001600160a01b031663b536818a6040518163ffffffff1660e01b8152600401602060405180830381865afa158015612109573d6000803e3d6000fd5b505050506040513d601f19601f8201168201806040525081019061212d9190613228565b6040516001600160e01b031960e084901b1681526004810191909152336024820152604401602060405180830381865afa15801561216f573d6000803e3d6000fd5b505050506040513d601f19601f820116820180604052508101906121939190613256565b6121af5760405162461bcd60e51b815260040161038a906134d7565b609c82905560405182815233907f684f8e172a780a0039365d294d89561032ab348a858ed68283e8f531a22981079060200160405180910390a25050565b600054610100900460ff166122145760405162461bcd60e51b815260040161038a9061350e565b61221c612f10565b565b600054610100900460ff166122455760405162461bcd60e51b815260040161038a9061350e565b61221c612f43565b60026065540361229f5760405162461bcd60e51b815260206004820152601f60248201527f5265656e7472616e637947756172643a207265656e7472616e742063616c6c00604482015260640161038a565b6002606555565b60335460ff161561221c5760405162461bcd60e51b815260206004820152601060248201526f14185d5cd8589b194e881c185d5cd95960821b604482015260640161038a565b600080609760009054906101000a90046001600160a01b03166001600160a01b031663d86824616040518163ffffffff1660e01b8152600401602060405180830381865afa158015612342573d6000803e3d6000fd5b505050506040513d601f19601f82011682018060405250810190612366919061320b565b6001600160a01b0316638c0adf62846040518263ffffffff1660e01b815260040161239391815260200190565b602060405180830381865afa1580156123b0573d6000803e3d6000fd5b505050506040513d601f19601f820116820180604052508101906123d4919061320b565b90506000819050600080826001600160a01b031663140d27206040518163ffffffff1660e01b815260040160408051808303816000875af115801561241d573d6000803e3d6000fd5b505050506040513d601f19601f820116820180604052508101906124419190613559565b91509150806124955760405162461bcd60e51b815260206004820152602c60248201526000805160206135ec83398151915260448201526b6e76616c69642d707269636560a01b606482015260840161038a565b6125226124a683633b9aca00612f6a565b609a60009054906101000a90046001600160a01b03166001600160a01b0316639d1eea786040518163ffffffff1660e01b8152600401602060405180830381865afa1580156124f9573d6000803e3d6000fd5b505050506040513d601f19601f8201168201806040525081019061251d9190613228565b612f97565b9695505050505050565b61257b6040518061012001604052806000815260200160008152602001600081526020016000815260200160008152602001600081526020016000815260200160008152602001600081525090565b6125ad6040518060a0016040528060008152602001600081526020016000815260200160008152602001600081525090565b609760009054906101000a90046001600160a01b03166001600160a01b031663d86824616040518163ffffffff1660e01b8152600401602060405180830381865afa158015612600573d6000803e3d6000fd5b505050506040513d601f19601f82011682018060405250810190612624919061320b565b6001600160a01b031663a09b0fe0886040518263ffffffff1660e01b815260040161265191815260200190565b602060405180830381865afa15801561266e573d6000803e3d6000fd5b505050506040513d601f19601f820116820180604052508101906126929190613228565b81526097546040805163d868246160e01b815290516001600160a01b039092169163d8682461916004808201926020929091908290030181865afa1580156126de573d6000803e3d6000fd5b505050506040513d601f19601f82011682018060405250810190612702919061320b565b6001600160a01b031663e73bbc79886040518263ffffffff1660e01b815260040161272f91815260200190565b602060405180830381865afa15801561274c573d6000803e3d6000fd5b505050506040513d601f19601f820116820180604052508101906127709190613228565b6020808301919091526097546040805163d868246160e01b815290516001600160a01b039092169263d8682461926004808401938290030181865afa1580156127bd573d6000803e3d6000fd5b505050506040513d601f19601f820116820180604052508101906127e1919061320b565b6001600160a01b0316630ec057e5886040518263ffffffff1660e01b815260040161280e91815260200190565b602060405180830381865afa15801561282b573d6000803e3d6000fd5b505050506040513d601f19601f8201168201806040525081019061284f9190613228565b604080830191909152609754815163d868246160e01b815291516001600160a01b039091169163d86824619160048083019260209291908290030181865afa15801561289f573d6000803e3d6000fd5b505050506040513d601f19601f820116820180604052508101906128c3919061320b565b6001600160a01b0316639c1985d5886040518263ffffffff1660e01b81526004016128f091815260200190565b602060405180830381865afa15801561290d573d6000803e3d6000fd5b505050506040513d601f19601f820116820180604052508101906129319190613228565b60608201526097546040805163d868246160e01b815290516001600160a01b039092169163d8682461916004808201926020929091908290030181865afa158015612980573d6000803e3d6000fd5b505050506040513d601f19601f820116820180604052508101906129a4919061320b565b6001600160a01b03166373a4f962886040518263ffffffff1660e01b81526004016129d191815260200190565b602060405180830381865afa1580156129ee573d6000803e3d6000fd5b505050506040513d601f19601f82011682018060405250810190612a129190613228565b60808201528051600090612a2790859061300b565b90506000826020015111612aa35760405162461bcd60e51b815260206004820152603760248201527f46697865645370726561644c69717569646174696f6e53747261746567792f6360448201527f6c6f73652d666163746f722d6270732d6e6f742d736574000000000000000000606482015260840161038a565b612ac6612710612ac084602001518761300b90919063ffffffff16565b90613017565b61010084018190528711612ada5786612ae1565b8261010001515b60a084018190528251612af4919061300b565b608084018190526040830151600091612b18918991612ac09161271091839161300b565b905085811180612b4957506080840151612b33908390612c4b565b612b4788612b418985612c4b565b9061300b565b105b15612b785760c084018690526040830151612b6e90612ac0612710612b418b8b61300b565b6080850152612bd7565b836080015182118015612b9d575060608301516080850151612b9b908490612c4b565b105b15612bcf57608084018290526040830151612bc5908890612ac090612710908290879061300b565b60c0850152612bd7565b60c084018190525b82516080850151612be791613017565b60a0850152604083015160c0850151600091612c1991612c0e9190612ac09061271061300b565b60c087015190612c4b565b9050612c38612710612ac086608001518461300b90919063ffffffff16565b60e0860152509298975050505050505050565b6000612c578284613585565b90505b92915050565b604080516001600160a01b0385811660248301528481166044830152606480830185905283518084039091018152608490920183526020820180516001600160e01b03166323b872dd60e01b1790529151600092839290881691612cc49190613598565b6000604051808303816000865af19150503d8060008114612d01576040519150601f19603f3d011682016040523d82523d6000602084013e612d06565b606091505b5091509150818015612d30575080511580612d30575080806020019051810190612d309190613256565b61092d5760405162461bcd60e51b815260206004820152601160248201527021736166655472616e7366657246726f6d60781b604482015260640161038a565b604080516001600160a01b038481166024830152604480830185905283518084039091018152606490920183526020820180516001600160e01b031663095ea7b360e01b1790529151600092839290871691612dcc9190613598565b6000604051808303816000865af19150503d8060008114612e09576040519150601f19603f3d011682016040523d82523d6000602084013e612e0e565b606091505b5091509150818015612e38575080511580612e38575080806020019051810190612e389190613256565b612e735760405162461bcd60e51b815260206004820152600c60248201526b2173616665417070726f766560a01b604482015260640161038a565b5050505050565b6001606555565b612e89613023565b6033805460ff191690557f5db9ee0a495bf2e6ff9c91a7834c1ba4fdd244a5e8aa4e537bd38aeae4b073aa335b6040516001600160a01b03909116815260200160405180910390a1565b612edb6122a6565b6033805460ff191660011790557f62e78cea01bee320cd4e420270b5ea74000d11b0c9f74754ebdbfc544b05a258612eb63390565b600054610100900460ff16612f375760405162461bcd60e51b815260040161038a9061350e565b6033805460ff19169055565b600054610100900460ff16612e7a5760405162461bcd60e51b815260040161038a9061350e565b6000811580612f8e57508282612f8081836135b4565b9250612f8c90836134a2565b145b612c5a57600080fd5b6000808211612fea5760405162461bcd60e51b815260206004820152602b60248201526000805160206135cc83398151915260448201526a32b93796b234bb34b9b7b960a91b606482015260840161038a565b81613001846b033b2e3c9fd0803ce8000000612f6a565b612c5791906134a2565b6000612c5782846135b4565b6000612c5782846134a2565b60335460ff1661221c5760405162461bcd60e51b815260206004820152601460248201527314185d5cd8589b194e881b9bdd081c185d5cd95960621b604482015260640161038a565b6001600160a01b038116811461191557600080fd5b60006020828403121561309357600080fd5b813561309e8161306c565b9392505050565b600080600080600060a086880312156130bd57600080fd5b85356130c88161306c565b945060208601356130d88161306c565b935060408601356130e88161306c565b925060608601356130f88161306c565b915060808601356131088161306c565b809150509295509295909350565b6000806000806000806000806000806101208b8d03121561313657600080fd5b8a35995060208b0135985060408b0135975060608b01356131568161306c565b965060808b0135955060a08b0135945060c08b01356131748161306c565b935060e08b01356131848161306c565b92506101008b013567ffffffffffffffff808211156131a257600080fd5b818d0191508d601f8301126131b657600080fd5b8135818111156131c557600080fd5b8e60208285010111156131d757600080fd5b6020830194508093505050509295989b9194979a5092959850565b60006020828403121561320457600080fd5b5035919050565b60006020828403121561321d57600080fd5b815161309e8161306c565b60006020828403121561323a57600080fd5b5051919050565b8051801515811461325157600080fd5b919050565b60006020828403121561326857600080fd5b612c5782613241565b6020808252600a9082015269216f776e6572526f6c6560b01b604082015260600190565b60208082526031908201526000805160206135ec833981519152604082015270373b30b634b216b137b7b5a5b2b2b832b960791b606082015260800190565b60208082526032908201526000805160206135ec8339815191526040820152716e76616c69642d70726963654f7261636c6560701b606082015260800190565b60208082526039908201527f46697865645370726561644c69717569646174696f6e53747261746567792f6c60408201527f69717569646174696f6e456e67696e652d6e6f742d6c69766500000000000000606082015260800190565b634e487b7160e01b600052601160045260246000fd5b6000600160ff1b820161339c5761339c613371565b5060000390565b60005b838110156133be5781810151838201526020016133a6565b50506000910152565b600081518084526133df8160208601602086016133a3565b601f01601f19169290920160200192915050565b6001600160a01b0385811682528416602082015260408101839052608060608201819052600090612522908301846133c7565b60018060a01b038616815284602082015283604082015260806060820152816080820152818360a0830137600081830160a090810191909152601f909201601f19160101949350505050565b60018060a01b038416815282602082015260606040820152600061349960608301846133c7565b95945050505050565b6000826134bf57634e487b7160e01b600052601260045260246000fd5b500490565b80820180821115612c5a57612c5a613371565b60208082526017908201527f21286f776e6572526f6c65206f7220676f76526f6c6529000000000000000000604082015260600190565b6020808252602b908201527f496e697469616c697a61626c653a20636f6e7472616374206973206e6f74206960408201526a6e697469616c697a696e6760a81b606082015260800190565b6000806040838503121561356c57600080fd5b8251915061357c60208401613241565b90509250929050565b81810381811115612c5a57612c5a613371565b600082516135aa8184602087016133a3565b9190910192915050565b8082028115828204841417612c5a57612c5a61337156fe46697865645370726561644c69717569646174696f6e53747261746567792f7a46697865645370726561644c69717569646174696f6e53747261746567792f69a2646970667358221220a074e20fab8146f56392e5a6a9d48cb192d7bc47a4b8a2eb6ad68308267525b164736f6c63430008110033",
    "immutableReferences": {},
    "source": "// SPDX-License-Identifier: AGPL-3.0-or-later\npragma solidity 0.8.17;\n\nimport \"@openzeppelin/contracts-upgradeable/security/PausableUpgradeable.sol\";\nimport \"@openzeppelin/contracts-upgradeable/access/AccessControlUpgradeable.sol\";\nimport \"@openzeppelin/contracts-upgradeable/security/ReentrancyGuardUpgradeable.sol\";\nimport \"@openzeppelin/contracts-upgradeable/utils/math/SafeMathUpgradeable.sol\";\n\nimport \"../../interfaces/IBookKeeper.sol\";\nimport \"../../interfaces/IPriceFeed.sol\";\nimport \"../../interfaces/IPriceOracle.sol\";\nimport \"../../interfaces/ILiquidationEngine.sol\";\nimport \"../../interfaces/ILiquidationStrategy.sol\";\nimport \"../../interfaces/ISystemDebtEngine.sol\";\nimport \"../../interfaces/IFlashLendingCallee.sol\";\nimport \"../../interfaces/IGenericTokenAdapter.sol\";\nimport \"../../interfaces/IManager.sol\";\nimport \"../../interfaces/IStablecoinAdapter.sol\";\nimport \"../../interfaces/IERC165.sol\";\nimport \"../../utils/SafeToken.sol\";\n\ncontract FixedSpreadLiquidationStrategyMath {\n    uint256 internal constant BLN = 10 ** 9;\n    uint256 internal constant WAD = 10 ** 18;\n    uint256 internal constant RAY = 10 ** 27;\n\n    function mul(uint256 x, uint256 y) internal pure returns (uint256 z) {\n        require(y == 0 || (z = x * y) / y == x);\n    }\n\n    function rdiv(uint256 x, uint256 y) internal pure returns (uint256 z) {\n        require(y > 0, \"FixedSpreadLiquidationStrategy/zero-divisor\");\n        z = mul(x, RAY) / y;\n    }\n}\n\ncontract FixedSpreadLiquidationStrategy is FixedSpreadLiquidationStrategyMath, PausableUpgradeable, ReentrancyGuardUpgradeable, ILiquidationStrategy {\n    using SafeMathUpgradeable for uint256;\n    using SafeToken for address;\n\n    struct LiquidationInfo {\n        uint256 positionDebtShare; // [wad]\n        uint256 positionCollateralAmount; // [wad]\n        uint256 debtShareToBeLiquidated; // [wad]\n        uint256 maxDebtShareToBeLiquidated; // [wad]\n        uint256 actualDebtValueToBeLiquidated; // [rad]\n        uint256 actualDebtShareToBeLiquidated; // [wad]\n        uint256 collateralAmountToBeLiquidated; // [wad]\n        uint256 treasuryFees; // [wad]\n        uint256 maxLiquidatableDebtShare; // [wad]\n    }\n\n    struct LocalVars {\n        uint256 debtAccumulatedRate; // [ray]\n        uint256 closeFactorBps;\n        uint256 liquidatorIncentiveBps;\n        uint256 debtFloor; // [rad]\n        uint256 treasuryFeesBps;\n    }\n\n    IBookKeeper public bookKeeper; // Core CDP Engine\n    ILiquidationEngine public liquidationEngine; // Liquidation module\n    ISystemDebtEngine public systemDebtEngine; // Recipient of FUSD raised in auctions\n    IPriceOracle public priceOracle; // Collateral price module\n    IStablecoinAdapter public stablecoinAdapter; //StablecoinAdapter to deposit FXD to bookKeeper\n\n    uint256 public flashLendingEnabled;\n\n    bytes4 internal constant FLASH_LENDING_ID = 0xaf7bd142;\n\n    event LogFixedSpreadLiquidate(\n        bytes32 indexed _collateralPoolId,\n        uint256 _positionDebtShare,\n        uint256 _positionCollateralAmount,\n        address indexed _positionAddress,\n        uint256 _debtShareToBeLiquidated,\n        uint256 _maxDebtShareToBeLiquidated,\n        address indexed _liquidatorAddress,\n        address _collateralRecipient,\n        uint256 _actualDebtShareToBeLiquidated,\n        uint256 _actualDebtValueToBeLiquidated,\n        uint256 _collateralAmountToBeLiquidated,\n        uint256 _treasuryFees\n    );\n    event LogSetFlashLendingEnabled(address indexed caller, uint256 _flashLendingEnabled);\n\n    modifier onlyOwnerOrGov() {\n        IAccessControlConfig _accessControlConfig = IAccessControlConfig(IBookKeeper(bookKeeper).accessControlConfig());\n        require(\n            _accessControlConfig.hasRole(_accessControlConfig.OWNER_ROLE(), msg.sender) ||\n                _accessControlConfig.hasRole(_accessControlConfig.GOV_ROLE(), msg.sender),\n            \"!(ownerRole or govRole)\"\n        );\n        _;\n    }\n\n    modifier onlyOwner() {\n        IAccessControlConfig _accessControlConfig = IAccessControlConfig(IBookKeeper(bookKeeper).accessControlConfig());\n        require(_accessControlConfig.hasRole(_accessControlConfig.OWNER_ROLE(), msg.sender), \"!ownerRole\");\n        _;\n    }\n\n    function initialize(\n        address _bookKeeper,\n        address _priceOracle,\n        address _liquidationEngine,\n        address _systemDebtEngine,\n        address _stablecoinAdapter\n    ) external initializer {\n        PausableUpgradeable.__Pausable_init();\n        ReentrancyGuardUpgradeable.__ReentrancyGuard_init();\n\n        require(IBookKeeper(_bookKeeper).totalStablecoinIssued() >= 0, \"FixedSpreadLiquidationStrategy/invalid-bookKeeper\"); // Sanity Check Call\n        bookKeeper = IBookKeeper(_bookKeeper);\n\n        require(IPriceOracle(_priceOracle).stableCoinReferencePrice() >= 0, \"FixedSpreadLiquidationStrategy/invalid-priceOracle\"); // Sanity Check Call\n        priceOracle = IPriceOracle(_priceOracle);\n\n        require(ILiquidationEngine(_liquidationEngine).live() == 1, \"FixedSpreadLiquidationStrategy/liquidationEngine-not-live\"); // Sanity Check Call\n        liquidationEngine = ILiquidationEngine(_liquidationEngine);\n\n        require(ISystemDebtEngine(_systemDebtEngine).surplusBuffer() >= 0, \"FixedSpreadLiquidationStrategy/invalid-systemDebtEngine\"); // Sanity Check Call\n        systemDebtEngine = ISystemDebtEngine(_systemDebtEngine);\n\n        require(\n            address(IStablecoinAdapter(_stablecoinAdapter).stablecoin()) != address(0),\n            \"FixedSpreadLiquidationStrategy/invalid-stablecoinAdapter\"\n        ); // Sanity Check Call\n        stablecoinAdapter = IStablecoinAdapter(_stablecoinAdapter); //StablecoinAdapter to deposit FXD to bookKeeper\n    }\n\n    function pause() external onlyOwnerOrGov {\n        _pause();\n    }\n\n    function unpause() external onlyOwnerOrGov {\n        _unpause();\n    }\n\n    function setFlashLendingEnabled(uint256 _flashLendingEnabled) external onlyOwnerOrGov {\n        flashLendingEnabled = _flashLendingEnabled;\n        emit LogSetFlashLendingEnabled(msg.sender, _flashLendingEnabled);\n    }\n\n    // solhint-disable function-max-lines\n    function execute(\n        bytes32 _collateralPoolId,\n        uint256 _positionDebtShare, // Debt Value                  [rad]\n        uint256 _positionCollateralAmount, // Collateral Amount           [wad]\n        address _positionAddress, // Address that will receive any leftover collateral\n        uint256 _debtShareToBeLiquidated, // The value of debt to be liquidated as specified by the liquidator [rad]\n        uint256 _maxDebtShareToBeLiquidated, // The maximum value of debt to be liquidated as specified by the liquidator in case of full liquidation for slippage control [rad]\n        address _liquidatorAddress,\n        address _collateralRecipient,\n        bytes calldata _data // Data to pass in external call; if length 0, no call is done\n    ) external override nonReentrant whenNotPaused {\n        require(\n            IAccessControlConfig(bookKeeper.accessControlConfig()).hasRole(keccak256(\"LIQUIDATION_ENGINE_ROLE\"), msg.sender),\n            \"!liquidationEngingRole\"\n        );\n        require(_positionDebtShare > 0, \"FixedSpreadLiquidationStrategy/zero-debt\");\n        require(_positionCollateralAmount > 0, \"FixedSpreadLiquidationStrategy/zero-collateral-amount\");\n        require(_positionAddress != address(0), \"FixedSpreadLiquidationStrategy/zero-position-address\");\n\n        uint256 _currentCollateralPrice = getFeedPrice(_collateralPoolId); // [ray]\n        require(_currentCollateralPrice > 0, \"FixedSpreadLiquidationStrategy/zero-collateral-price\");\n\n        LiquidationInfo memory info = _calculateLiquidationInfo(\n            _collateralPoolId,\n            _debtShareToBeLiquidated,\n            _currentCollateralPrice,\n            _positionCollateralAmount,\n            _positionDebtShare\n        );\n\n        require(\n            info.actualDebtShareToBeLiquidated <= _maxDebtShareToBeLiquidated,\n            \"FixedSpreadLiquidationStrategy/exceed-max-debt-value-to-be-liquidated\"\n        );\n        require(\n            info.collateralAmountToBeLiquidated < 2 ** 255 && info.actualDebtShareToBeLiquidated < 2 ** 255,\n            \"FixedSpreadLiquidationStrategy/overflow\"\n        );\n\n        bookKeeper.confiscatePosition(\n            _collateralPoolId,\n            _positionAddress,\n            address(this),\n            address(systemDebtEngine),\n            -int256(info.collateralAmountToBeLiquidated),\n            -int256(info.actualDebtShareToBeLiquidated)\n        );\n        IGenericTokenAdapter _adapter = IGenericTokenAdapter(ICollateralPoolConfig(bookKeeper.collateralPoolConfig()).getAdapter(_collateralPoolId));\n\n        _adapter.onMoveCollateral(_positionAddress, address(this), info.collateralAmountToBeLiquidated, abi.encode(0));\n\n        if (info.treasuryFees > 0) {\n            bookKeeper.moveCollateral(_collateralPoolId, address(this), address(systemDebtEngine), info.treasuryFees);\n            _adapter.onMoveCollateral(address(this), address(systemDebtEngine), info.treasuryFees, abi.encode(0));\n        }\n\n        if (\n            flashLendingEnabled == 1 &&\n            _data.length > 0 &&\n            _collateralRecipient != address(bookKeeper) &&\n            _collateralRecipient != address(liquidationEngine) && \n            IERC165(_collateralRecipient).supportsInterface(FLASH_LENDING_ID)\n        ) {\n            //there should be ERC165 function selector check added to above condition\n            bookKeeper.moveCollateral(\n                _collateralPoolId,\n                address(this),\n                _collateralRecipient,\n                info.collateralAmountToBeLiquidated.sub(info.treasuryFees)\n            );\n            _adapter.onMoveCollateral(\n                address(this),\n                _collateralRecipient,\n                info.collateralAmountToBeLiquidated.sub(info.treasuryFees),\n                abi.encode(0)\n            );\n            IFlashLendingCallee(_collateralRecipient).flashLendingCall(\n                msg.sender,\n                info.actualDebtValueToBeLiquidated,\n                info.collateralAmountToBeLiquidated.sub(info.treasuryFees),\n                _data\n            );\n        } else {\n            _adapter.withdraw(_collateralRecipient, info.collateralAmountToBeLiquidated.sub(info.treasuryFees), abi.encode(0));\n            address _stablecoin = address(stablecoinAdapter.stablecoin());\n            _stablecoin.safeTransferFrom(_liquidatorAddress, address(this), ((info.actualDebtValueToBeLiquidated / RAY) + 1));\n            _stablecoin.safeApprove(address(stablecoinAdapter), ((info.actualDebtValueToBeLiquidated / RAY) + 1));\n            stablecoinAdapter.depositRAD(_liquidatorAddress, info.actualDebtValueToBeLiquidated, abi.encode(0));\n        }\n\n        bookKeeper.moveStablecoin(_liquidatorAddress, address(systemDebtEngine), info.actualDebtValueToBeLiquidated);\n\n        info.positionDebtShare = _positionDebtShare;\n        info.positionCollateralAmount = _positionCollateralAmount;\n        info.debtShareToBeLiquidated = _debtShareToBeLiquidated;\n        info.maxDebtShareToBeLiquidated = _maxDebtShareToBeLiquidated;\n        emit LogFixedSpreadLiquidate(\n            _collateralPoolId,\n            info.positionDebtShare,\n            info.positionCollateralAmount,\n            _positionAddress,\n            info.debtShareToBeLiquidated,\n            info.maxDebtShareToBeLiquidated,\n            _liquidatorAddress,\n            _collateralRecipient,\n            info.actualDebtShareToBeLiquidated,\n            info.actualDebtValueToBeLiquidated,\n            info.collateralAmountToBeLiquidated,\n            info.treasuryFees\n        );\n    }\n\n    // solhint-enable function-max-lines\n\n    function setPriceOracle(address _priceOracle) external onlyOwner {\n        require(IPriceOracle(_priceOracle).stableCoinReferencePrice() >= 0, \"FixedSpreadLiquidationStrategy/invalid-priceOracle\"); // Sanity Check Call\n        priceOracle = IPriceOracle(_priceOracle);\n    }\n\n    function setBookKeeper(address _bookKeeper) external onlyOwner {\n        require(IBookKeeper(_bookKeeper).totalStablecoinIssued() >= 0, \"FixedSpreadLiquidationStrategy/invalid-bookKeeper\"); // Sanity Check Call\n        bookKeeper = IBookKeeper(_bookKeeper);\n    }\n\n    function setLiquidationEngine(address _liquidationEngine) external onlyOwner {\n        require(ILiquidationEngine(_liquidationEngine).live() == 1, \"FixedSpreadLiquidationStrategy/liquidationEngine-not-live\"); // Sanity Check Call\n        liquidationEngine = ILiquidationEngine(_liquidationEngine);\n    }\n\n    function getFeedPrice(bytes32 collateralPoolId) internal returns (uint256 feedPrice) {\n        address _priceFeedAddress = ICollateralPoolConfig(bookKeeper.collateralPoolConfig()).getPriceFeed(collateralPoolId);\n        IPriceFeed _priceFeed = IPriceFeed(_priceFeedAddress);\n        (bytes32 price, bool priceOk) = _priceFeed.peekPrice();\n        require(priceOk, \"FixedSpreadLiquidationStrategy/invalid-price\");\n        // (price [wad] * BLN [10 ** 9] ) [ray] / priceOracle.stableCoinReferencePrice [ray]\n        feedPrice = rdiv(mul(uint256(price), BLN), priceOracle.stableCoinReferencePrice()); // [ray]\n    }\n\n    // solhint-disable function-max-lines\n    function _calculateLiquidationInfo(\n        bytes32 _collateralPoolId,\n        uint256 _debtShareToBeLiquidated,\n        uint256 _currentCollateralPrice,\n        uint256 _positionCollateralAmount,\n        uint256 _positionDebtShare\n    ) internal view returns (LiquidationInfo memory info) {\n        LocalVars memory _vars;\n        _vars.debtAccumulatedRate = ICollateralPoolConfig(bookKeeper.collateralPoolConfig()).getDebtAccumulatedRate(_collateralPoolId); // [ray]\n        _vars.closeFactorBps = ICollateralPoolConfig(bookKeeper.collateralPoolConfig()).getCloseFactorBps(_collateralPoolId);\n        _vars.liquidatorIncentiveBps = ICollateralPoolConfig(bookKeeper.collateralPoolConfig()).getLiquidatorIncentiveBps(_collateralPoolId);\n        _vars.debtFloor = ICollateralPoolConfig(bookKeeper.collateralPoolConfig()).getDebtFloor(_collateralPoolId); // [rad]\n        _vars.treasuryFeesBps = ICollateralPoolConfig(bookKeeper.collateralPoolConfig()).getTreasuryFeesBps(_collateralPoolId);\n\n        uint256 _positionDebtValue = _positionDebtShare.mul(_vars.debtAccumulatedRate);\n\n        require(_vars.closeFactorBps > 0, \"FixedSpreadLiquidationStrategy/close-factor-bps-not-set\");\n        info.maxLiquidatableDebtShare = _positionDebtShare.mul(_vars.closeFactorBps).div(10000); // [wad]\n\n        info.actualDebtShareToBeLiquidated = _debtShareToBeLiquidated > info.maxLiquidatableDebtShare\n            ? info.maxLiquidatableDebtShare\n            : _debtShareToBeLiquidated; // [wad]\n        info.actualDebtValueToBeLiquidated = info.actualDebtShareToBeLiquidated.mul(_vars.debtAccumulatedRate); // [rad]\n\n        uint256 _maxCollateralAmountToBeLiquidated = info.actualDebtValueToBeLiquidated.mul(_vars.liquidatorIncentiveBps).div(10000).div(\n            _currentCollateralPrice\n        ); // [wad]\n\n        if (\n            _maxCollateralAmountToBeLiquidated > _positionCollateralAmount ||\n            _positionCollateralAmount.sub(_maxCollateralAmountToBeLiquidated).mul(_currentCollateralPrice) <\n            _positionDebtValue.sub(info.actualDebtValueToBeLiquidated)\n        ) {\n            info.collateralAmountToBeLiquidated = _positionCollateralAmount;\n            info.actualDebtValueToBeLiquidated = _currentCollateralPrice.mul(_positionCollateralAmount).mul(10000).div(_vars.liquidatorIncentiveBps); // [rad]\n        } else {\n            if (\n                _positionDebtValue > info.actualDebtValueToBeLiquidated &&\n                _positionDebtValue.sub(info.actualDebtValueToBeLiquidated) < _vars.debtFloor\n            ) {\n                info.actualDebtValueToBeLiquidated = _positionDebtValue; // [rad]\n                info.collateralAmountToBeLiquidated = info.actualDebtValueToBeLiquidated.mul(_vars.liquidatorIncentiveBps).div(10000).div(\n                    _currentCollateralPrice\n                ); // [wad]\n            } else {\n                info.collateralAmountToBeLiquidated = _maxCollateralAmountToBeLiquidated; // [wad]\n            }\n        }\n\n        info.actualDebtShareToBeLiquidated = info.actualDebtValueToBeLiquidated.div(_vars.debtAccumulatedRate); // [wad]\n\n        // collateralAmountToBeLiquidated - (collateralAmountToBeLiquidated * 10000 / liquidatorIncentiveBps)\n        // 1 - (1 * 10000 / 10500) = 0.047619048 which is roughly around 0.05\n        uint256 liquidatorIncentiveCollectedFromPosition = info.collateralAmountToBeLiquidated.sub(\n            info.collateralAmountToBeLiquidated.mul(10000).div(_vars.liquidatorIncentiveBps)\n        ); // [wad]\n\n        // liquidatorIncentiveCollectedFromPosition * (treasuryFeesBps) / 10000\n        // 0.047619048 * 5000 / 10000\n        info.treasuryFees = liquidatorIncentiveCollectedFromPosition.mul(_vars.treasuryFeesBps).div(10000); // [wad]\n    }\n    // solhint-enable function-max-lines\n}\n",
    "sourcePath": "/Users/sangjun.lee/Sangjun/fathom-stablecoin-smart-contracts/contracts/main/stablecoin-core/liquidation-strategies/FixedSpreadLiquidationStrategy.sol",
    "compiler": {
        "name": "solc",
        "version": "0.8.17+commit.8df45f5f.Emscripten.clang"
    },
    "schemaVersion": "3.4.10",
    "updatedAt": "2023-04-19T13:15:27.368Z",
    "devdoc": {
        "kind": "dev",
        "methods": {
            "paused()": {
                "details": "Returns true if the contract is paused, and false otherwise."
            }
        },
        "version": 1
    },
    "userdoc": {
        "kind": "user",
        "methods": {},
        "version": 1
    }
}