{
    "contractName": "LiquidationEngine",
    "abi": [
        {
            "anonymous": false,
            "inputs": [
                {
                    "indexed": false,
                    "internalType": "uint8",
                    "name": "version",
                    "type": "uint8"
                }
            ],
            "name": "Initialized",
            "type": "event"
        },
        {
            "anonymous": false,
            "inputs": [
                {
                    "indexed": false,
                    "internalType": "bytes32",
                    "name": "_collateralPoolIds",
                    "type": "bytes32"
                },
                {
                    "indexed": false,
                    "internalType": "address",
                    "name": "_positionAddresses",
                    "type": "address"
                },
                {
                    "indexed": false,
                    "internalType": "address",
                    "name": "_liquidator",
                    "type": "address"
                },
                {
                    "indexed": false,
                    "internalType": "string",
                    "name": "reason",
                    "type": "string"
                }
            ],
            "name": "LiquidationFail",
            "type": "event"
        },
        {
            "anonymous": false,
            "inputs": [],
            "name": "LogCage",
            "type": "event"
        },
        {
            "anonymous": false,
            "inputs": [],
            "name": "LogUncage",
            "type": "event"
        },
        {
            "anonymous": false,
            "inputs": [
                {
                    "indexed": false,
                    "internalType": "address",
                    "name": "account",
                    "type": "address"
                }
            ],
            "name": "Paused",
            "type": "event"
        },
        {
            "anonymous": false,
            "inputs": [
                {
                    "indexed": false,
                    "internalType": "address",
                    "name": "account",
                    "type": "address"
                }
            ],
            "name": "Unpaused",
            "type": "event"
        },
        {
            "inputs": [],
            "name": "bookKeeper",
            "outputs": [
                {
                    "internalType": "contract IBookKeeper",
                    "name": "",
                    "type": "address"
                }
            ],
            "stateMutability": "view",
            "type": "function"
        },
        {
            "inputs": [
                {
                    "internalType": "address",
                    "name": "",
                    "type": "address"
                }
            ],
            "name": "liquidatorsWhitelist",
            "outputs": [
                {
                    "internalType": "uint256",
                    "name": "",
                    "type": "uint256"
                }
            ],
            "stateMutability": "view",
            "type": "function"
        },
        {
            "inputs": [],
            "name": "live",
            "outputs": [
                {
                    "internalType": "uint256",
                    "name": "",
                    "type": "uint256"
                }
            ],
            "stateMutability": "view",
            "type": "function"
        },
        {
            "inputs": [],
            "name": "paused",
            "outputs": [
                {
                    "internalType": "bool",
                    "name": "",
                    "type": "bool"
                }
            ],
            "stateMutability": "view",
            "type": "function"
        },
        {
            "inputs": [],
            "name": "priceOracle",
            "outputs": [
                {
                    "internalType": "address",
                    "name": "",
                    "type": "address"
                }
            ],
            "stateMutability": "view",
            "type": "function"
        },
        {
            "inputs": [],
            "name": "systemDebtEngine",
            "outputs": [
                {
                    "internalType": "contract ISystemDebtEngine",
                    "name": "",
                    "type": "address"
                }
            ],
            "stateMutability": "view",
            "type": "function"
        },
        {
            "inputs": [
                {
                    "internalType": "address",
                    "name": "_bookKeeper",
                    "type": "address"
                },
                {
                    "internalType": "address",
                    "name": "_systemDebtEngine",
                    "type": "address"
                },
                {
                    "internalType": "address",
                    "name": "_priceOracle",
                    "type": "address"
                }
            ],
            "name": "initialize",
            "outputs": [],
            "stateMutability": "nonpayable",
            "type": "function"
        },
        {
            "inputs": [
                {
                    "internalType": "address",
                    "name": "toBeWhitelisted",
                    "type": "address"
                }
            ],
            "name": "whitelist",
            "outputs": [],
            "stateMutability": "nonpayable",
            "type": "function"
        },
        {
            "inputs": [
                {
                    "internalType": "address",
                    "name": "toBeRemoved",
                    "type": "address"
                }
            ],
            "name": "blacklist",
            "outputs": [],
            "stateMutability": "nonpayable",
            "type": "function"
        },
        {
            "inputs": [
                {
                    "internalType": "bytes32[]",
                    "name": "_collateralPoolIds",
                    "type": "bytes32[]"
                },
                {
                    "internalType": "address[]",
                    "name": "_positionAddresses",
                    "type": "address[]"
                },
                {
                    "internalType": "uint256[]",
                    "name": "_debtShareToBeLiquidateds",
                    "type": "uint256[]"
                },
                {
                    "internalType": "uint256[]",
                    "name": "_maxDebtShareToBeLiquidateds",
                    "type": "uint256[]"
                },
                {
                    "internalType": "address[]",
                    "name": "_collateralRecipients",
                    "type": "address[]"
                },
                {
                    "internalType": "bytes[]",
                    "name": "datas",
                    "type": "bytes[]"
                }
            ],
            "name": "batchLiquidate",
            "outputs": [],
            "stateMutability": "nonpayable",
            "type": "function"
        },
        {
            "inputs": [
                {
                    "internalType": "bytes32",
                    "name": "_collateralPoolId",
                    "type": "bytes32"
                },
                {
                    "internalType": "address",
                    "name": "_positionAddress",
                    "type": "address"
                },
                {
                    "internalType": "uint256",
                    "name": "_debtShareToBeLiquidated",
                    "type": "uint256"
                },
                {
                    "internalType": "uint256",
                    "name": "_maxDebtShareToBeLiquidated",
                    "type": "uint256"
                },
                {
                    "internalType": "address",
                    "name": "_collateralRecipient",
                    "type": "address"
                },
                {
                    "internalType": "bytes",
                    "name": "_data",
                    "type": "bytes"
                },
                {
                    "internalType": "address",
                    "name": "sender",
                    "type": "address"
                }
            ],
            "name": "liquidateForBatch",
            "outputs": [],
            "stateMutability": "nonpayable",
            "type": "function"
        },
        {
            "inputs": [
                {
                    "internalType": "bytes32",
                    "name": "_collateralPoolId",
                    "type": "bytes32"
                },
                {
                    "internalType": "address",
                    "name": "_positionAddress",
                    "type": "address"
                },
                {
                    "internalType": "uint256",
                    "name": "_debtShareToBeLiquidated",
                    "type": "uint256"
                },
                {
                    "internalType": "uint256",
                    "name": "_maxDebtShareToBeLiquidated",
                    "type": "uint256"
                },
                {
                    "internalType": "address",
                    "name": "_collateralRecipient",
                    "type": "address"
                },
                {
                    "internalType": "bytes",
                    "name": "_data",
                    "type": "bytes"
                }
            ],
            "name": "liquidate",
            "outputs": [],
            "stateMutability": "nonpayable",
            "type": "function"
        },
        {
            "inputs": [
                {
                    "internalType": "address",
                    "name": "_priceOracle",
                    "type": "address"
                }
            ],
            "name": "setPriceOracle",
            "outputs": [],
            "stateMutability": "nonpayable",
            "type": "function"
        },
        {
            "inputs": [
                {
                    "internalType": "address",
                    "name": "_bookKeeper",
                    "type": "address"
                }
            ],
            "name": "setBookKeeper",
            "outputs": [],
            "stateMutability": "nonpayable",
            "type": "function"
        },
        {
            "inputs": [],
            "name": "cage",
            "outputs": [],
            "stateMutability": "nonpayable",
            "type": "function"
        },
        {
            "inputs": [],
            "name": "uncage",
            "outputs": [],
            "stateMutability": "nonpayable",
            "type": "function"
        },
        {
            "inputs": [],
            "name": "pause",
            "outputs": [],
            "stateMutability": "nonpayable",
            "type": "function"
        },
        {
            "inputs": [],
            "name": "unpause",
            "outputs": [],
            "stateMutability": "nonpayable",
            "type": "function"
        }
    ],
    "bytecode": "0x608060405234801561001057600080fd5b506135f5806100206000396000f3fe608060405234801561001057600080fd5b50600436106101165760003560e01c806369a5038a116100a2578063c0c53b8b11610071578063c0c53b8b14610217578063c23fdbc71461022a578063d63b23b21461024a578063e3b3932a14610252578063f9f92be41461026557600080fd5b806369a5038a146101d25780638456cb59146101e5578063957aa58c146101ed5780639b19251a1461020457600080fd5b806328e49a42116100e957806328e49a42146101865780633f4ba83a14610199578063530e784f146101a15780635c975abb146101b457806369245009146101ca57600080fd5b806307d8bd881461011b5780631cc0353c146101305780631ebce593146101435780632630c12f14610156575b600080fd5b61012e610129366004612d0d565b610278565b005b61012e61013e366004612d72565b6104c6565b61012e610151366004612e0a565b610537565b609754610169906001600160a01b031681565b6040516001600160a01b0390911681526020015b60405180910390f35b609954610169906001600160a01b031681565b61012e610599565b61012e6101af366004612d0d565b6107e4565b60335460ff16604051901515815260200161017d565b61012e610aeb565b61012e6101e0366004612ed3565b610d66565b61012e6111a3565b6101f6609a5481565b60405190815260200161017d565b61012e610212366004612d0d565b6113eb565b61012e610225366004613010565b6116b2565b6101f6610238366004612d0d565b609b6020526000908152604090205481565b61012e611a07565b609854610169906001600160a01b031681565b61012e610273366004612d0d565b611cc8565b6098546040805163c8cc243f60e01b815290516000926001600160a01b03169163c8cc243f9160048083019260209291908290030181865afa1580156102c2573d6000803e3d6000fd5b505050506040513d601f19601f820116820180604052508101906102e6919061305b565b9050806001600160a01b03166391d14854826001600160a01b031663e58378bb6040518163ffffffff1660e01b8152600401602060405180830381865afa158015610335573d6000803e3d6000fd5b505050506040513d601f19601f820116820180604052508101906103599190613078565b6040516001600160e01b031960e084901b1681526004810191909152336024820152604401602060405180830381865afa15801561039b573d6000803e3d6000fd5b505050506040513d601f19601f820116820180604052508101906103bf9190613091565b6103fd5760405162461bcd60e51b815260206004820152600a602482015269216f776e6572526f6c6560b01b60448201526064015b60405180910390fd5b609a5460011461041f5760405162461bcd60e51b81526004016103f4906130b3565b6000826001600160a01b0316636f3a3bfc6040518163ffffffff1660e01b81526004016020604051808303816000875af1158015610461573d6000803e3d6000fd5b505050506040513d601f19601f820116820180604052508101906104859190613078565b10156104a35760405162461bcd60e51b81526004016103f4906130ea565b50609880546001600160a01b0319166001600160a01b0392909216919091179055565b6104ce611f23565b33301461051d5760405162461bcd60e51b815260206004820181905260248201527f4c69717569646174696f6e456e67696e652f696e76616c69642d73656e64657260448201526064016103f4565b61052d8888888888888888611f6b565b5050505050505050565b61053f612994565b610547611f23565b336000908152609b60205260409020546001146105765760405162461bcd60e51b81526004016103f49061312e565b6105868787878787878733611f6b565b6105906001606555565b50505050505050565b6098546040805163c8cc243f60e01b815290516000926001600160a01b03169163c8cc243f9160048083019260209291908290030181865afa1580156105e3573d6000803e3d6000fd5b505050506040513d601f19601f82011682018060405250810190610607919061305b565b9050806001600160a01b03166391d14854826001600160a01b031663e58378bb6040518163ffffffff1660e01b8152600401602060405180830381865afa158015610656573d6000803e3d6000fd5b505050506040513d601f19601f8201168201806040525081019061067a9190613078565b6040516001600160e01b031960e084901b1681526004810191909152336024820152604401602060405180830381865afa1580156106bc573d6000803e3d6000fd5b505050506040513d601f19601f820116820180604052508101906106e09190613091565b806107bd5750806001600160a01b03166391d14854826001600160a01b031663b536818a6040518163ffffffff1660e01b8152600401602060405180830381865afa158015610733573d6000803e3d6000fd5b505050506040513d601f19601f820116820180604052508101906107579190613078565b6040516001600160e01b031960e084901b1681526004810191909152336024820152604401602060405180830381865afa158015610799573d6000803e3d6000fd5b505050506040513d601f19601f820116820180604052508101906107bd9190613091565b6107d95760405162461bcd60e51b81526004016103f49061317a565b6107e16129f4565b50565b6098546040805163c8cc243f60e01b815290516000926001600160a01b03169163c8cc243f9160048083019260209291908290030181865afa15801561082e573d6000803e3d6000fd5b505050506040513d601f19601f82011682018060405250810190610852919061305b565b9050806001600160a01b03166391d14854826001600160a01b031663e58378bb6040518163ffffffff1660e01b8152600401602060405180830381865afa1580156108a1573d6000803e3d6000fd5b505050506040513d601f19601f820116820180604052508101906108c59190613078565b6040516001600160e01b031960e084901b1681526004810191909152336024820152604401602060405180830381865afa158015610907573d6000803e3d6000fd5b505050506040513d601f19601f8201168201806040525081019061092b9190613091565b80610a085750806001600160a01b03166391d14854826001600160a01b031663d7a47a696040518163ffffffff1660e01b8152600401602060405180830381865afa15801561097e573d6000803e3d6000fd5b505050506040513d601f19601f820116820180604052508101906109a29190613078565b6040516001600160e01b031960e084901b1681526004810191909152336024820152604401602060405180830381865afa1580156109e4573d6000803e3d6000fd5b505050506040513d601f19601f82011682018060405250810190610a089190613091565b610a245760405162461bcd60e51b81526004016103f4906131b1565b609a54600114610a465760405162461bcd60e51b81526004016103f4906130b3565b6000826001600160a01b0316639d1eea786040518163ffffffff1660e01b8152600401602060405180830381865afa158015610a86573d6000803e3d6000fd5b505050506040513d601f19601f82011682018060405250810190610aaa9190613078565b1015610ac85760405162461bcd60e51b81526004016103f4906131e8565b50609780546001600160a01b0319166001600160a01b0392909216919091179055565b6098546040805163c8cc243f60e01b815290516000926001600160a01b03169163c8cc243f9160048083019260209291908290030181865afa158015610b35573d6000803e3d6000fd5b505050506040513d601f19601f82011682018060405250810190610b59919061305b565b9050806001600160a01b03166391d14854826001600160a01b031663e58378bb6040518163ffffffff1660e01b8152600401602060405180830381865afa158015610ba8573d6000803e3d6000fd5b505050506040513d601f19601f82011682018060405250810190610bcc9190613078565b6040516001600160e01b031960e084901b1681526004810191909152336024820152604401602060405180830381865afa158015610c0e573d6000803e3d6000fd5b505050506040513d601f19601f82011682018060405250810190610c329190613091565b80610d0f5750806001600160a01b03166391d14854826001600160a01b031663d7a47a696040518163ffffffff1660e01b8152600401602060405180830381865afa158015610c85573d6000803e3d6000fd5b505050506040513d601f19601f82011682018060405250810190610ca99190613078565b6040516001600160e01b031960e084901b1681526004810191909152336024820152604401602060405180830381865afa158015610ceb573d6000803e3d6000fd5b505050506040513d601f19601f82011682018060405250810190610d0f9190613091565b610d2b5760405162461bcd60e51b81526004016103f4906131b1565b609a546001036107e1576000609a8190556040517fbf689b4aae670d200b1d2b971ace2e0c3bef88a9c5e93f36705c7b86eab630b99190a150565b610d6e612994565b610d76611f23565b336000908152609b6020526040902054600114610da55760405162461bcd60e51b81526004016103f49061312e565b8a89148015610db357508a87145b8015610dbe57508a85145b8015610dc957508a83145b8015610dd457508a81145b610e3b5760405162461bcd60e51b815260206004820152603260248201527f4c69717569646174696f6e456e67696e652f62617463684c69717569646174656044820152712d696e76616c69642d617267756d656e747360701b60648201526084016103f4565b60005b8b81101561118a5730631cc0353c8e8e84818110610e5e57610e5e61322d565b905060200201358d8d85818110610e7757610e7761322d565b9050602002016020810190610e8c9190612d0d565b8c8c86818110610e9e57610e9e61322d565b905060200201358b8b87818110610eb757610eb761322d565b905060200201358a8a88818110610ed057610ed061322d565b9050602002016020810190610ee59190612d0d565b898989818110610ef757610ef761322d565b9050602002810190610f099190613243565b336040518963ffffffff1660e01b8152600401610f2d9897969594939291906132b2565b600060405180830381600087803b158015610f4757600080fd5b505af1925050508015610f58575060015b61117857610f64613307565b806308c379a0036110045750610f7861335d565b80610f8357506110c9565b7f3124ec396126035055c8fd11bb0fec0ecf617636253ea71590eb014448176d208e8e84818110610fb657610fb661322d565b905060200201358d8d85818110610fcf57610fcf61322d565b9050602002016020810190610fe49190612d0d565b3384604051610ff694939291906133e6565b60405180910390a150611178565b634e487b71036110c957611016613456565b9061102157506110c9565b7f3124ec396126035055c8fd11bb0fec0ecf617636253ea71590eb014448176d208e8e848181106110545761105461322d565b905060200201358d8d8581811061106d5761106d61322d565b90506020020160208101906110829190612d0d565b604080519283526001600160a01b0390911660208301523390820152608060608201819052600b908201526a3830b734b19032b93937b960a91b60a082015260c001610ff6565b3d8080156110f3576040519150601f19603f3d011682016040523d82523d6000602084013e6110f8565b606091505b50807f3124ec396126035055c8fd11bb0fec0ecf617636253ea71590eb014448176d208f8f8581811061112d5761112d61322d565b905060200201358e8e868181106111465761114661322d565b905060200201602081019061115b9190612d0d565b338460405161116d94939291906133e6565b60405180910390a150505b806111828161348c565b915050610e3e565b506111956001606555565b505050505050505050505050565b6098546040805163c8cc243f60e01b815290516000926001600160a01b03169163c8cc243f9160048083019260209291908290030181865afa1580156111ed573d6000803e3d6000fd5b505050506040513d601f19601f82011682018060405250810190611211919061305b565b9050806001600160a01b03166391d14854826001600160a01b031663e58378bb6040518163ffffffff1660e01b8152600401602060405180830381865afa158015611260573d6000803e3d6000fd5b505050506040513d601f19601f820116820180604052508101906112849190613078565b6040516001600160e01b031960e084901b1681526004810191909152336024820152604401602060405180830381865afa1580156112c6573d6000803e3d6000fd5b505050506040513d601f19601f820116820180604052508101906112ea9190613091565b806113c75750806001600160a01b03166391d14854826001600160a01b031663b536818a6040518163ffffffff1660e01b8152600401602060405180830381865afa15801561133d573d6000803e3d6000fd5b505050506040513d601f19601f820116820180604052508101906113619190613078565b6040516001600160e01b031960e084901b1681526004810191909152336024820152604401602060405180830381865afa1580156113a3573d6000803e3d6000fd5b505050506040513d601f19601f820116820180604052508101906113c79190613091565b6113e35760405162461bcd60e51b81526004016103f49061317a565b6107e1612a46565b6098546040805163c8cc243f60e01b815290516000926001600160a01b03169163c8cc243f9160048083019260209291908290030181865afa158015611435573d6000803e3d6000fd5b505050506040513d601f19601f82011682018060405250810190611459919061305b565b9050806001600160a01b03166391d14854826001600160a01b031663e58378bb6040518163ffffffff1660e01b8152600401602060405180830381865afa1580156114a8573d6000803e3d6000fd5b505050506040513d601f19601f820116820180604052508101906114cc9190613078565b6040516001600160e01b031960e084901b1681526004810191909152336024820152604401602060405180830381865afa15801561150e573d6000803e3d6000fd5b505050506040513d601f19601f820116820180604052508101906115329190613091565b8061160f5750806001600160a01b03166391d14854826001600160a01b031663b536818a6040518163ffffffff1660e01b8152600401602060405180830381865afa158015611585573d6000803e3d6000fd5b505050506040513d601f19601f820116820180604052508101906115a99190613078565b6040516001600160e01b031960e084901b1681526004810191909152336024820152604401602060405180830381865afa1580156115eb573d6000803e3d6000fd5b505050506040513d601f19601f8201168201806040525081019061160f9190613091565b61162b5760405162461bcd60e51b81526004016103f49061317a565b6001600160a01b0382166116945760405162461bcd60e51b815260206004820152602a60248201527f4c69717569646174696f6e456e67696e652f77686974656c6973742d696e76616044820152696c69644164647265737360b01b60648201526084016103f4565b506001600160a01b03166000908152609b6020526040902060019055565b600054610100900460ff16158080156116d25750600054600160ff909116105b806116ec5750303b1580156116ec575060005460ff166001145b61174f5760405162461bcd60e51b815260206004820152602e60248201527f496e697469616c697a61626c653a20636f6e747261637420697320616c72656160448201526d191e481a5b9a5d1a585b1a5e995960921b60648201526084016103f4565b6000805460ff191660011790558015611772576000805461ff0019166101001790555b61177a612a83565b611782612ab2565b6000846001600160a01b0316636f3a3bfc6040518163ffffffff1660e01b81526004016020604051808303816000875af11580156117c4573d6000803e3d6000fd5b505050506040513d601f19601f820116820180604052508101906117e89190613078565b10156118065760405162461bcd60e51b81526004016103f4906130ea565b83609860006101000a8154816001600160a01b0302191690836001600160a01b031602179055506000836001600160a01b0316632a608d5b6040518163ffffffff1660e01b8152600401602060405180830381865afa15801561186d573d6000803e3d6000fd5b505050506040513d601f19601f820116820180604052508101906118919190613078565b10156118f25760405162461bcd60e51b815260206004820152602a60248201527f4c69717569646174696f6e456e67696e652f696e76616c69642d73797374656d60448201526944656274456e67696e6560b01b60648201526084016103f4565b82609960006101000a8154816001600160a01b0302191690836001600160a01b031602179055506000826001600160a01b0316639d1eea786040518163ffffffff1660e01b8152600401602060405180830381865afa158015611959573d6000803e3d6000fd5b505050506040513d601f19601f8201168201806040525081019061197d9190613078565b101561199b5760405162461bcd60e51b81526004016103f4906131e8565b609780546001600160a01b0319166001600160a01b0384161790556001609a558015611a01576000805461ff0019169055604051600181527f7f26b83ff96e1f2b6a682f133852f6798a09c465da95921460cefb38474024989060200160405180910390a15b50505050565b6098546040805163c8cc243f60e01b815290516000926001600160a01b03169163c8cc243f9160048083019260209291908290030181865afa158015611a51573d6000803e3d6000fd5b505050506040513d601f19601f82011682018060405250810190611a75919061305b565b9050806001600160a01b03166391d14854826001600160a01b031663e58378bb6040518163ffffffff1660e01b8152600401602060405180830381865afa158015611ac4573d6000803e3d6000fd5b505050506040513d601f19601f82011682018060405250810190611ae89190613078565b6040516001600160e01b031960e084901b1681526004810191909152336024820152604401602060405180830381865afa158015611b2a573d6000803e3d6000fd5b505050506040513d601f19601f82011682018060405250810190611b4e9190613091565b80611c2b5750806001600160a01b03166391d14854826001600160a01b031663d7a47a696040518163ffffffff1660e01b8152600401602060405180830381865afa158015611ba1573d6000803e3d6000fd5b505050506040513d601f19601f82011682018060405250810190611bc59190613078565b6040516001600160e01b031960e084901b1681526004810191909152336024820152604401602060405180830381865afa158015611c07573d6000803e3d6000fd5b505050506040513d601f19601f82011682018060405250810190611c2b9190613091565b611c475760405162461bcd60e51b81526004016103f4906131b1565b609a5415611c975760405162461bcd60e51b815260206004820152601b60248201527f4c69717569646174696f6e456e67696e652f6e6f742d6361676564000000000060448201526064016103f4565b6001609a556040517f1868a6ced217213f36be87ba9aee25cde5381b42e85c8f88e73b18772c0bd07390600090a150565b6098546040805163c8cc243f60e01b815290516000926001600160a01b03169163c8cc243f9160048083019260209291908290030181865afa158015611d12573d6000803e3d6000fd5b505050506040513d601f19601f82011682018060405250810190611d36919061305b565b9050806001600160a01b03166391d14854826001600160a01b031663e58378bb6040518163ffffffff1660e01b8152600401602060405180830381865afa158015611d85573d6000803e3d6000fd5b505050506040513d601f19601f82011682018060405250810190611da99190613078565b6040516001600160e01b031960e084901b1681526004810191909152336024820152604401602060405180830381865afa158015611deb573d6000803e3d6000fd5b505050506040513d601f19601f82011682018060405250810190611e0f9190613091565b80611eec5750806001600160a01b03166391d14854826001600160a01b031663b536818a6040518163ffffffff1660e01b8152600401602060405180830381865afa158015611e62573d6000803e3d6000fd5b505050506040513d601f19601f82011682018060405250810190611e869190613078565b6040516001600160e01b031960e084901b1681526004810191909152336024820152604401602060405180830381865afa158015611ec8573d6000803e3d6000fd5b505050506040513d601f19601f82011682018060405250810190611eec9190613091565b611f085760405162461bcd60e51b81526004016103f49061317a565b506001600160a01b03166000908152609b6020526040812055565b60335460ff1615611f695760405162461bcd60e51b815260206004820152601060248201526f14185d5cd8589b194e881c185d5cd95960821b60448201526064016103f4565b565b609a54600114611f8d5760405162461bcd60e51b81526004016103f4906130b3565b85600003611ff85760405162461bcd60e51b815260206004820152603260248201527f4c69717569646174696f6e456e67696e652f7a65726f2d646562742d76616c75604482015271194b5d1bcb58994b5b1a5c5d5a59185d195960721b60648201526084016103f4565b846000036120675760405162461bcd60e51b815260206004820152603660248201527f4c69717569646174696f6e456e67696e652f7a65726f2d6d61782d646562742d6044820152751d985b1d594b5d1bcb58994b5b1a5c5d5a59185d195960521b60648201526084016103f4565b61207088612ae1565b6120cb5760405162461bcd60e51b815260206004820152602660248201527f4c69717569646174696f6e456e67696e652f70726963652d69732d6e6f742d6860448201526565616c74687960d01b60648201526084016103f4565b6121046040518060c001604052806000815260200160008152602001600081526020016000815260200160008152602001600081525090565b609854604051630a76216560e21b8152600481018b90526001600160a01b038a81166024830152909116906329d88594906044016040805180830381865afa158015612154573d6000803e3d6000fd5b505050506040513d601f19601f8201168201806040525081019061217891906134a5565b60208381019190915290825260408051606081018252600080825281840181905281830152609854825163d868246160e01b8152925191936001600160a01b039091169263d868246192600480830193928290030181865afa1580156121e2573d6000803e3d6000fd5b505050506040513d601f19601f82011682018060405250810190612206919061305b565b6001600160a01b03166328c84bbd8b6040518263ffffffff1660e01b815260040161223391815260200190565b602060405180830381865afa158015612250573d6000803e3d6000fd5b505050506040513d601f19601f82011682018060405250810190612274919061305b565b6001600160a01b0390811682526098546040805163d868246160e01b81529051919092169163d86824619160048083019260209291908290030181865afa1580156122c3573d6000803e3d6000fd5b505050506040513d601f19601f820116820180604052508101906122e7919061305b565b6001600160a01b0316638c492d078b6040518263ffffffff1660e01b815260040161231491815260200190565b602060405180830381865afa158015612331573d6000803e3d6000fd5b505050506040513d601f19601f820116820180604052508101906123559190613078565b6020808301919091526098546040805163d868246160e01b815290516001600160a01b039092169263d8682461926004808401938290030181865afa1580156123a2573d6000803e3d6000fd5b505050506040513d601f19601f820116820180604052508101906123c6919061305b565b6001600160a01b031663a09b0fe08b6040518263ffffffff1660e01b81526004016123f391815260200190565b602060405180830381865afa158015612410573d6000803e3d6000fd5b505050506040513d601f19601f820116820180604052508101906124349190613078565b604082015280516001600160a01b03811661249c5760405162461bcd60e51b815260206004820152602260248201527f4c69717569646174696f6e456e67696e652f6e6f742d7365742d737472617465604482015261677960f01b60648201526084016103f4565b600082602001511180156124d05750604082015160208401516124be91612c34565b602083015184516124ce91612c34565b105b6125275760405162461bcd60e51b815260206004820152602260248201527f4c69717569646174696f6e456e67696e652f706f736974696f6e2d69732d7361604482015261666560f01b60648201526084016103f4565b60985460995460405163b4ac08bb60e01b81526001600160a01b03918216600482015291169063b4ac08bb90602401602060405180830381865afa158015612573573d6000803e3d6000fd5b505050506040513d601f19601f820116820180604052508101906125979190613078565b836040018181525050806001600160a01b03166316d8d2918c856020015186600001518e8e8e8b8f8f8f6040518b63ffffffff1660e01b81526004016125e69a999897969594939291906134c9565b600060405180830381600087803b15801561260057600080fd5b505af1158015612614573d6000803e3d6000fd5b5050609854604051630a76216560e21b8152600481018f90526001600160a01b038e8116602483015290911692506329d8859491506044016040805180830381865afa158015612668573d6000803e3d6000fd5b505050506040513d601f19601f8201168201806040525081019061268c91906134a5565b6080850181905260608501919091526020840151116126fb5760405162461bcd60e51b815260206004820152602560248201527f4c69717569646174696f6e456e67696e652f646562742d6e6f742d6c6971756960448201526419185d195960da1b60648201526084016103f4565b612724826040015161271e85608001518660200151612c4990919063ffffffff16565b90612c34565b60a08401819052604080850151609854609954925163b4ac08bb60e01b81526001600160a01b0393841660048201526127ab939091169063b4ac08bb90602401602060405180830381865afa158015612781573d6000803e3d6000fd5b505050506040513d601f19601f820116820180604052508101906127a59190613078565b90612c49565b10156128085760405162461bcd60e51b815260206004820152602660248201527f4c69717569646174696f6e456e67696e652f7061796d656e742d6e6f742d726560448201526518d95a5d995960d21b60648201526084016103f4565b606083015115801561281e575060008360800151115b1561292957600160ff1b83608001511061287a5760405162461bcd60e51b815260206004820152601a60248201527f4c69717569646174696f6e456e67696e652f6f766572666c6f7700000000000060448201526064016103f4565b60985460995460808501516001600160a01b039283169263b1df2594928f928f92839216906000906128ab9061352e565b6040516001600160e01b031960e089901b16815260048101969096526001600160a01b039485166024870152928416604486015292166064840152608483019190915260a482015260c401600060405180830381600087803b15801561291057600080fd5b505af1158015612924573d6000803e3d6000fd5b505050505b60975460405163285da53b60e01b8152600481018d90526001600160a01b039091169063285da53b90602401600060405180830381600087803b15801561296f57600080fd5b505af1158015612983573d6000803e3d6000fd5b505050505050505050505050505050565b6002606554036129e65760405162461bcd60e51b815260206004820152601f60248201527f5265656e7472616e637947756172643a207265656e7472616e742063616c6c0060448201526064016103f4565b6002606555565b6001606555565b6129fc612c55565b6033805460ff191690557f5db9ee0a495bf2e6ff9c91a7834c1ba4fdd244a5e8aa4e537bd38aeae4b073aa335b6040516001600160a01b03909116815260200160405180910390a1565b612a4e611f23565b6033805460ff191660011790557f62e78cea01bee320cd4e420270b5ea74000d11b0c9f74754ebdbfc544b05a258612a293390565b600054610100900460ff16612aaa5760405162461bcd60e51b81526004016103f49061354a565b611f69612c9e565b600054610100900460ff16612ad95760405162461bcd60e51b81526004016103f49061354a565b611f69612cd1565b600080609860009054906101000a90046001600160a01b03166001600160a01b031663d86824616040518163ffffffff1660e01b8152600401602060405180830381865afa158015612b37573d6000803e3d6000fd5b505050506040513d601f19601f82011682018060405250810190612b5b919061305b565b6001600160a01b0316638c0adf62846040518263ffffffff1660e01b8152600401612b8891815260200190565b602060405180830381865afa158015612ba5573d6000803e3d6000fd5b505050506040513d601f19601f82011682018060405250810190612bc9919061305b565b9050806001600160a01b0316630184a92a6040518163ffffffff1660e01b8152600401602060405180830381865afa158015612c09573d6000803e3d6000fd5b505050506040513d601f19601f82011682018060405250810190612c2d9190613091565b9392505050565b6000612c408284613595565b90505b92915050565b6000612c4082846135ac565b60335460ff16611f695760405162461bcd60e51b815260206004820152601460248201527314185d5cd8589b194e881b9bdd081c185d5cd95960621b60448201526064016103f4565b600054610100900460ff16612cc55760405162461bcd60e51b81526004016103f49061354a565b6033805460ff19169055565b600054610100900460ff166129ed5760405162461bcd60e51b81526004016103f49061354a565b6001600160a01b03811681146107e157600080fd5b600060208284031215612d1f57600080fd5b8135612c2d81612cf8565b60008083601f840112612d3c57600080fd5b5081356001600160401b03811115612d5357600080fd5b602083019150836020828501011115612d6b57600080fd5b9250929050565b60008060008060008060008060e0898b031215612d8e57600080fd5b883597506020890135612da081612cf8565b965060408901359550606089013594506080890135612dbe81612cf8565b935060a08901356001600160401b03811115612dd957600080fd5b612de58b828c01612d2a565b90945092505060c0890135612df981612cf8565b809150509295985092959890939650565b600080600080600080600060c0888a031215612e2557600080fd5b873596506020880135612e3781612cf8565b955060408801359450606088013593506080880135612e5581612cf8565b925060a08801356001600160401b03811115612e7057600080fd5b612e7c8a828b01612d2a565b989b979a50959850939692959293505050565b60008083601f840112612ea157600080fd5b5081356001600160401b03811115612eb857600080fd5b6020830191508360208260051b8501011115612d6b57600080fd5b60008060008060008060008060008060008060c08d8f031215612ef557600080fd5b6001600160401b038d351115612f0a57600080fd5b612f178e8e358f01612e8f565b909c509a506001600160401b0360208e01351115612f3457600080fd5b612f448e60208f01358f01612e8f565b909a5098506001600160401b0360408e01351115612f6157600080fd5b612f718e60408f01358f01612e8f565b90985096506001600160401b0360608e01351115612f8e57600080fd5b612f9e8e60608f01358f01612e8f565b90965094506001600160401b0360808e01351115612fbb57600080fd5b612fcb8e60808f01358f01612e8f565b90945092506001600160401b0360a08e01351115612fe857600080fd5b612ff88e60a08f01358f01612e8f565b81935080925050509295989b509295989b509295989b565b60008060006060848603121561302557600080fd5b833561303081612cf8565b9250602084013561304081612cf8565b9150604084013561305081612cf8565b809150509250925092565b60006020828403121561306d57600080fd5b8151612c2d81612cf8565b60006020828403121561308a57600080fd5b5051919050565b6000602082840312156130a357600080fd5b81518015158114612c2d57600080fd5b6020808252601a908201527f4c69717569646174696f6e456e67696e652f6e6f742d6c697665000000000000604082015260600190565b60208082526024908201527f4c69717569646174696f6e456e67696e652f696e76616c69642d626f6f6b4b6560408201526332b832b960e11b606082015260800190565b6020808252602c908201527f4c69717569646174696f6e456e67696e652f6c697175696461746f722d6e6f7460408201526b0b5dda1a5d195b1a5cdd195960a21b606082015260800190565b60208082526017908201527f21286f776e6572526f6c65206f7220676f76526f6c6529000000000000000000604082015260600190565b6020808252601f908201527f21286f776e6572526f6c65206f722073686f7753746f70706572526f6c652900604082015260600190565b60208082526025908201527f4c69717569646174696f6e456e67696e652f696e76616c69642d70726963654f6040820152647261636c6560d81b606082015260800190565b634e487b7160e01b600052603260045260246000fd5b6000808335601e1984360301811261325a57600080fd5b8301803591506001600160401b0382111561327457600080fd5b602001915036819003821315612d6b57600080fd5b81835281816020850137506000828201602090810191909152601f909101601f19169091010190565b888152600060018060a01b03808a166020840152886040840152876060840152808716608084015260e060a08401526132ef60e084018688613289565b915080841660c0840152509998505050505050505050565b600060033d11156133205760046000803e5060005160e01c5b90565b601f8201601f191681016001600160401b038111828210171561335657634e487b7160e01b600052604160045260246000fd5b6040525050565b600060443d101561336b5790565b6040516003193d81016004833e81513d6001600160401b03816024840111818411171561339a57505050505090565b82850191508151818111156133b25750505050505090565b843d87010160208285010111156133cc5750505050505090565b6133db60208286010187613323565b509095945050505050565b8481526000602060018060a01b038087168285015280861660408501525060806060840152835180608085015260005b818110156134325785810183015185820160a001528201613416565b50600060a0828601015260a0601f19601f8301168501019250505095945050505050565b60008060233d1115613472576020600460003e50506000516001905b9091565b634e487b7160e01b600052601160045260246000fd5b60006001820161349e5761349e613476565b5060010190565b600080604083850312156134b857600080fd5b505080516020909101519092909150565b60006101208c83528b60208401528a604084015260018060a01b03808b1660608501528960808501528860a085015280881660c085015280871660e0850152508061010084015261351d8184018587613289565b9d9c50505050505050505050505050565b6000600160ff1b820161354357613543613476565b5060000390565b6020808252602b908201527f496e697469616c697a61626c653a20636f6e7472616374206973206e6f74206960408201526a6e697469616c697a696e6760a81b606082015260800190565b8082028115828204841417612c4357612c43613476565b81810381811115612c4357612c4361347656fea2646970667358221220d0f4c8977c3995c396ead69e6759eb41d276b0c60e7de6db4f0a58011afc707b64736f6c63430008110033",
    "immutableReferences": {},
    "source": "// SPDX-License-Identifier: AGPL-3.0-or-later\n\npragma solidity 0.8.17;\npragma experimental ABIEncoderV2;\n\nimport \"@openzeppelin/contracts-upgradeable/security/PausableUpgradeable.sol\";\nimport \"@openzeppelin/contracts-upgradeable/access/AccessControlUpgradeable.sol\";\nimport \"@openzeppelin/contracts-upgradeable/security/ReentrancyGuardUpgradeable.sol\";\nimport \"@openzeppelin/contracts-upgradeable/utils/math/SafeMathUpgradeable.sol\";\n\nimport \"../interfaces/IBookKeeper.sol\";\nimport \"../interfaces/ISystemDebtEngine.sol\";\nimport \"../interfaces/ILiquidationEngine.sol\";\nimport \"../interfaces/ILiquidationStrategy.sol\";\nimport \"../interfaces/ICagable.sol\";\nimport \"../interfaces/ISetPrice.sol\";\nimport \"../interfaces/IPriceOracle.sol\";\nimport \"../interfaces/IPausable.sol\";\n\n/// @title LiquidationEngine\n/** @notice A contract which is the manager for all of the liquidations of the protocol.\n    LiquidationEngine will be the interface for the liquidator to trigger any positions into the liquidation process.\n*/\n\ncontract LiquidationEngine is PausableUpgradeable, ReentrancyGuardUpgradeable, ICagable, ILiquidationEngine, IPausable {\n    using SafeMathUpgradeable for uint256;\n\n    struct LocalVars {\n        uint256 positionLockedCollateral;\n        uint256 positionDebtShare;\n        uint256 systemDebtEngineStablecoinBefore;\n        uint256 newPositionLockedCollateral;\n        uint256 newPositionDebtShare;\n        uint256 wantStablecoinValueFromLiquidation;\n    }\n\n    struct CollateralPoolLocalVars {\n        address strategy;\n        uint256 priceWithSafetyMargin; // [ray]\n        uint256 debtAccumulatedRate; // [ray]\n    }\n\n    // --- Math ---\n    uint256 internal constant WAD = 10 ** 18;\n\n    address public priceOracle;\n\n    IBookKeeper public bookKeeper; // CDP Engine\n    ISystemDebtEngine public systemDebtEngine; // Debt Engine\n    uint256 public override live; // Active Flag\n    mapping(address => uint256) public liquidatorsWhitelist;\n\n    event LiquidationFail(bytes32 _collateralPoolIds, address _positionAddresses, address _liquidator, string reason);\n\n    modifier onlyOwnerOrShowStopper() {\n        IAccessControlConfig _accessControlConfig = IAccessControlConfig(IBookKeeper(bookKeeper).accessControlConfig());\n        require(\n            _accessControlConfig.hasRole(_accessControlConfig.OWNER_ROLE(), msg.sender) ||\n                _accessControlConfig.hasRole(_accessControlConfig.SHOW_STOPPER_ROLE(), msg.sender),\n            \"!(ownerRole or showStopperRole)\"\n        );\n        _;\n    }\n\n    modifier onlyOwnerOrGov() {\n        IAccessControlConfig _accessControlConfig = IAccessControlConfig(IBookKeeper(bookKeeper).accessControlConfig());\n        require(\n            _accessControlConfig.hasRole(_accessControlConfig.OWNER_ROLE(), msg.sender) ||\n                _accessControlConfig.hasRole(_accessControlConfig.GOV_ROLE(), msg.sender),\n            \"!(ownerRole or govRole)\"\n        );\n        _;\n    }\n\n    modifier onlyOwner() {\n        IAccessControlConfig _accessControlConfig = IAccessControlConfig(IBookKeeper(bookKeeper).accessControlConfig());\n        require(_accessControlConfig.hasRole(_accessControlConfig.OWNER_ROLE(), msg.sender), \"!ownerRole\");\n        _;\n    }\n\n    modifier onlyWhitelisted() {\n        require(liquidatorsWhitelist[msg.sender] == 1, \"LiquidationEngine/liquidator-not-whitelisted\");\n        _;\n    }\n\n    modifier isLive() {\n        require(live == 1, \"LiquidationEngine/not-live\");\n        _;\n    }\n\n    // --- Init ---\n    function initialize(address _bookKeeper, address _systemDebtEngine, address _priceOracle) external initializer {\n        PausableUpgradeable.__Pausable_init();\n        ReentrancyGuardUpgradeable.__ReentrancyGuard_init();\n        require(IBookKeeper(_bookKeeper).totalStablecoinIssued() >= 0, \"LiquidationEngine/invalid-bookKeeper\"); // Sanity Check Call\n        bookKeeper = IBookKeeper(_bookKeeper);\n        require(ISystemDebtEngine(_systemDebtEngine).surplusBuffer() >= 0, \"LiquidationEngine/invalid-systemDebtEngine\"); // Sanity Check Call\n        systemDebtEngine = ISystemDebtEngine(_systemDebtEngine);\n        require(IPriceOracle(_priceOracle).stableCoinReferencePrice() >= 0, \"LiquidationEngine/invalid-priceOracle\"); // Sanity Check Call\n        priceOracle = _priceOracle;\n\n        live = 1;\n    }\n\n    function whitelist(address toBeWhitelisted) external onlyOwnerOrGov {\n        require(toBeWhitelisted != address(0), \"LiquidationEngine/whitelist-invalidAddress\");\n        liquidatorsWhitelist[toBeWhitelisted] = 1;\n    }\n\n    function blacklist(address toBeRemoved) external onlyOwnerOrGov {\n        liquidatorsWhitelist[toBeRemoved] = 0;\n    }\n\n    function batchLiquidate(\n        bytes32[] calldata _collateralPoolIds,\n        address[] calldata _positionAddresses,\n        uint256[] calldata _debtShareToBeLiquidateds, // [rad]\n        uint256[] calldata _maxDebtShareToBeLiquidateds, // [rad]\n        address[] calldata _collateralRecipients,\n        bytes[] calldata datas\n    ) external override nonReentrant whenNotPaused onlyWhitelisted {\n        require(\n            _collateralPoolIds.length == _positionAddresses.length &&\n                _collateralPoolIds.length == _debtShareToBeLiquidateds.length &&\n                _collateralPoolIds.length == _maxDebtShareToBeLiquidateds.length &&\n                _collateralPoolIds.length == _collateralRecipients.length &&\n                _collateralPoolIds.length == datas.length,\n            \"LiquidationEngine/batchLiquidate-invalid-arguments\"\n        );\n\n        for (uint i = 0; i < _collateralPoolIds.length; i++) {\n            try\n                this.liquidateForBatch(\n                    _collateralPoolIds[i],\n                    _positionAddresses[i],\n                    _debtShareToBeLiquidateds[i],\n                    _maxDebtShareToBeLiquidateds[i],\n                    _collateralRecipients[i],\n                    datas[i],\n                    msg.sender\n                )\n            {} catch Error(string memory reason) {\n                emit LiquidationFail(_collateralPoolIds[i], _positionAddresses[i], msg.sender, reason);\n                continue;\n            } catch Panic(uint) {\n                emit LiquidationFail(_collateralPoolIds[i], _positionAddresses[i], msg.sender, \"panic error\");\n                continue;\n            } catch (bytes memory lowLevelData) {\n                string memory errorData = string(lowLevelData);\n                emit LiquidationFail(_collateralPoolIds[i], _positionAddresses[i], msg.sender, errorData);\n                continue;\n            }\n        }\n    }\n\n    //This function is overload implementation of liquidate() and will only be called from LiquidationEngine contract to support batch liquidation,\n    function liquidateForBatch(\n        bytes32 _collateralPoolId,\n        address _positionAddress,\n        uint256 _debtShareToBeLiquidated, // [rad]\n        uint256 _maxDebtShareToBeLiquidated, // [wad]\n        address _collateralRecipient,\n        bytes calldata _data,\n        address sender\n    ) external override whenNotPaused {\n        require(msg.sender == address(this), \"LiquidationEngine/invalid-sender\");\n        _liquidate(_collateralPoolId, _positionAddress, _debtShareToBeLiquidated, _maxDebtShareToBeLiquidated, _collateralRecipient, _data, sender);\n    }\n\n    function liquidate(\n        bytes32 _collateralPoolId,\n        address _positionAddress,\n        uint256 _debtShareToBeLiquidated, // [rad]\n        uint256 _maxDebtShareToBeLiquidated, // [wad]\n        address _collateralRecipient,\n        bytes calldata _data\n    ) external override nonReentrant whenNotPaused onlyWhitelisted {\n        _liquidate(\n            _collateralPoolId,\n            _positionAddress,\n            _debtShareToBeLiquidated,\n            _maxDebtShareToBeLiquidated,\n            _collateralRecipient,\n            _data,\n            msg.sender\n        );\n    }\n\n    function setPriceOracle(address _priceOracle) external onlyOwnerOrShowStopper isLive {\n        require(IPriceOracle(_priceOracle).stableCoinReferencePrice() >= 0, \"LiquidationEngine/invalid-priceOracle\"); // Sanity Check Call\n        priceOracle = _priceOracle;\n    }\n\n    function setBookKeeper(address _bookKeeper) external onlyOwner isLive {\n        require(IBookKeeper(_bookKeeper).totalStablecoinIssued() >= 0, \"LiquidationEngine/invalid-bookKeeper\"); // Sanity Check Call\n        bookKeeper = IBookKeeper(_bookKeeper);\n    }\n\n    /// @dev access: OWNER_ROLE, SHOW_STOPPER_ROLE\n    function cage() external override onlyOwnerOrShowStopper {\n        if (live == 1) {\n            live = 0;\n            emit LogCage();\n        }\n    }\n\n    /// @dev access: OWNER_ROLE, SHOW_STOPPER_ROLE\n    function uncage() external override onlyOwnerOrShowStopper {\n        require(live == 0, \"LiquidationEngine/not-caged\");\n        live = 1;\n        emit LogUncage();\n    }\n\n    // --- pause ---\n    /// @dev access: OWNER_ROLE, GOV_ROLE\n    function pause() external override onlyOwnerOrGov {\n        _pause();\n    }\n\n    /// @dev access: OWNER_ROLE, GOV_ROLE\n    function unpause() external override onlyOwnerOrGov {\n        _unpause();\n    }\n\n    // solhint-disable function-max-lines\n    function _liquidate(\n        bytes32 _collateralPoolId,\n        address _positionAddress,\n        uint256 _debtShareToBeLiquidated, // [rad]\n        uint256 _maxDebtShareToBeLiquidated, // [wad]\n        address _collateralRecipient,\n        bytes calldata _data,\n        address sender\n    ) internal isLive {\n        require(_debtShareToBeLiquidated != 0, \"LiquidationEngine/zero-debt-value-to-be-liquidated\");\n        require(_maxDebtShareToBeLiquidated != 0, \"LiquidationEngine/zero-max-debt-value-to-be-liquidated\");\n        require(_isPriceOk(_collateralPoolId), \"LiquidationEngine/price-is-not-healthy\");\n\n        LocalVars memory _vars;\n\n        (_vars.positionLockedCollateral, _vars.positionDebtShare) = bookKeeper.positions(_collateralPoolId, _positionAddress);\n        // 1. Check if the position is underwater\n        CollateralPoolLocalVars memory _collateralPoolLocalVars;\n        _collateralPoolLocalVars.strategy = ICollateralPoolConfig(bookKeeper.collateralPoolConfig()).getStrategy(_collateralPoolId);\n        _collateralPoolLocalVars.priceWithSafetyMargin = ICollateralPoolConfig(bookKeeper.collateralPoolConfig()).getPriceWithSafetyMargin(\n            _collateralPoolId\n        ); // [ray]\n        _collateralPoolLocalVars.debtAccumulatedRate = ICollateralPoolConfig(bookKeeper.collateralPoolConfig()).getDebtAccumulatedRate(\n            _collateralPoolId\n        ); // [ray]\n\n        ILiquidationStrategy _strategy = ILiquidationStrategy(_collateralPoolLocalVars.strategy);\n        require(address(_strategy) != address(0), \"LiquidationEngine/not-set-strategy\");\n\n        // (positionLockedCollateral [wad] * priceWithSafetyMargin [ray]) [rad]\n        // (positionDebtShare [wad] * debtAccumulatedRate [ray]) [rad]\n        require(\n            _collateralPoolLocalVars.priceWithSafetyMargin > 0 &&\n                _vars.positionLockedCollateral.mul(_collateralPoolLocalVars.priceWithSafetyMargin) <\n                _vars.positionDebtShare.mul(_collateralPoolLocalVars.debtAccumulatedRate),\n            \"LiquidationEngine/position-is-safe\"\n        );\n\n        _vars.systemDebtEngineStablecoinBefore = bookKeeper.stablecoin(address(systemDebtEngine));\n\n        _strategy.execute(\n            _collateralPoolId,\n            _vars.positionDebtShare,\n            _vars.positionLockedCollateral,\n            _positionAddress,\n            _debtShareToBeLiquidated,\n            _maxDebtShareToBeLiquidated,\n            sender,\n            _collateralRecipient,\n            _data\n        );\n\n        (_vars.newPositionLockedCollateral, _vars.newPositionDebtShare) = bookKeeper.positions(_collateralPoolId, _positionAddress);\n        require(_vars.newPositionDebtShare < _vars.positionDebtShare, \"LiquidationEngine/debt-not-liquidated\");\n\n        // (positionDebtShare [wad] - newPositionDebtShare [wad]) * debtAccumulatedRate [ray]\n\n        _vars.wantStablecoinValueFromLiquidation = _vars.positionDebtShare.sub(_vars.newPositionDebtShare).mul(\n            _collateralPoolLocalVars.debtAccumulatedRate\n        ); // [rad]\n        require(\n            bookKeeper.stablecoin(address(systemDebtEngine)).sub(_vars.systemDebtEngineStablecoinBefore) >= _vars.wantStablecoinValueFromLiquidation,\n            \"LiquidationEngine/payment-not-received\"\n        );\n\n        // If collateral has been depleted from liquidation whilst there is remaining debt in the position\n        if (_vars.newPositionLockedCollateral == 0 && _vars.newPositionDebtShare > 0) {\n            // Overflow check\n            require(_vars.newPositionDebtShare < 2 ** 255, \"LiquidationEngine/overflow\");\n            // Record the bad debt to the system and close the position\n            bookKeeper.confiscatePosition(\n                _collateralPoolId,\n                _positionAddress,\n                _positionAddress,\n                address(systemDebtEngine),\n                0,\n                -int256(_vars.newPositionDebtShare)\n            );\n        }\n\n        ISetPrice(priceOracle).setPrice(_collateralPoolId);\n    }\n\n    // solhint-enable function-max-lines\n\n    function _isPriceOk(bytes32 _collateralPoolId) internal view returns (bool) {\n        IPriceFeed _priceFeed = IPriceFeed(ICollateralPoolConfig(IBookKeeper(bookKeeper).collateralPoolConfig()).getPriceFeed(_collateralPoolId));\n        return _priceFeed.isPriceOk();\n    }\n}\n",
    "sourcePath": "/Users/sangjun.lee/Sangjun/fathom-stablecoin-smart-contracts/contracts/main/stablecoin-core/LiquidationEngine.sol",
    "compiler": {
        "name": "solc",
        "version": "0.8.17+commit.8df45f5f.Emscripten.clang"
    },
    "schemaVersion": "3.4.10",
    "updatedAt": "2023-04-17T09:23:54.855Z",
    "devdoc": {
        "kind": "dev",
        "methods": {
            "cage()": {
                "details": "access: OWNER_ROLE, SHOW_STOPPER_ROLE"
            },
            "pause()": {
                "details": "access: OWNER_ROLE, GOV_ROLE"
            },
            "paused()": {
                "details": "Returns true if the contract is paused, and false otherwise."
            },
            "uncage()": {
                "details": "access: OWNER_ROLE, SHOW_STOPPER_ROLE"
            },
            "unpause()": {
                "details": "access: OWNER_ROLE, GOV_ROLE"
            }
        },
        "version": 1
    },
    "userdoc": {
        "kind": "user",
        "methods": {},
        "notice": "A contract which is the manager for all of the liquidations of the protocol. LiquidationEngine will be the interface for the liquidator to trigger any positions into the liquidation process.",
        "version": 1
    }
}