{
    "contractName": "LiquidationEngine",
    "abi": [
        {
            "anonymous": false,
            "inputs": [
                {
                    "indexed": false,
                    "internalType": "uint8",
                    "name": "version",
                    "type": "uint8"
                }
            ],
            "name": "Initialized",
            "type": "event"
        },
        {
            "anonymous": false,
            "inputs": [
                {
                    "indexed": false,
                    "internalType": "bytes32",
                    "name": "_collateralPoolIds",
                    "type": "bytes32"
                },
                {
                    "indexed": false,
                    "internalType": "address",
                    "name": "_positionAddresses",
                    "type": "address"
                },
                {
                    "indexed": false,
                    "internalType": "address",
                    "name": "_liquidator",
                    "type": "address"
                },
                {
                    "indexed": false,
                    "internalType": "string",
                    "name": "reason",
                    "type": "string"
                }
            ],
            "name": "LiquidationFail",
            "type": "event"
        },
        {
            "anonymous": false,
            "inputs": [],
            "name": "LogCage",
            "type": "event"
        },
        {
            "anonymous": false,
            "inputs": [],
            "name": "LogUncage",
            "type": "event"
        },
        {
            "anonymous": false,
            "inputs": [
                {
                    "indexed": false,
                    "internalType": "address",
                    "name": "account",
                    "type": "address"
                }
            ],
            "name": "Paused",
            "type": "event"
        },
        {
            "anonymous": false,
            "inputs": [
                {
                    "indexed": false,
                    "internalType": "address",
                    "name": "account",
                    "type": "address"
                }
            ],
            "name": "Unpaused",
            "type": "event"
        },
        {
            "inputs": [],
            "name": "bookKeeper",
            "outputs": [
                {
                    "internalType": "contract IBookKeeper",
                    "name": "",
                    "type": "address"
                }
            ],
            "stateMutability": "view",
            "type": "function"
        },
        {
            "inputs": [
                {
                    "internalType": "address",
                    "name": "",
                    "type": "address"
                }
            ],
            "name": "liquidatorsWhitelist",
            "outputs": [
                {
                    "internalType": "uint256",
                    "name": "",
                    "type": "uint256"
                }
            ],
            "stateMutability": "view",
            "type": "function"
        },
        {
            "inputs": [],
            "name": "live",
            "outputs": [
                {
                    "internalType": "uint256",
                    "name": "",
                    "type": "uint256"
                }
            ],
            "stateMutability": "view",
            "type": "function"
        },
        {
            "inputs": [],
            "name": "paused",
            "outputs": [
                {
                    "internalType": "bool",
                    "name": "",
                    "type": "bool"
                }
            ],
            "stateMutability": "view",
            "type": "function"
        },
        {
            "inputs": [],
            "name": "priceOracle",
            "outputs": [
                {
                    "internalType": "address",
                    "name": "",
                    "type": "address"
                }
            ],
            "stateMutability": "view",
            "type": "function"
        },
        {
            "inputs": [],
            "name": "systemDebtEngine",
            "outputs": [
                {
                    "internalType": "contract ISystemDebtEngine",
                    "name": "",
                    "type": "address"
                }
            ],
            "stateMutability": "view",
            "type": "function"
        },
        {
            "inputs": [
                {
                    "internalType": "address",
                    "name": "_bookKeeper",
                    "type": "address"
                },
                {
                    "internalType": "address",
                    "name": "_systemDebtEngine",
                    "type": "address"
                },
                {
                    "internalType": "address",
                    "name": "_priceOracle",
                    "type": "address"
                }
            ],
            "name": "initialize",
            "outputs": [],
            "stateMutability": "nonpayable",
            "type": "function"
        },
        {
            "inputs": [
                {
                    "internalType": "address",
                    "name": "toBeWhitelisted",
                    "type": "address"
                }
            ],
            "name": "whitelist",
            "outputs": [],
            "stateMutability": "nonpayable",
            "type": "function"
        },
        {
            "inputs": [
                {
                    "internalType": "address",
                    "name": "toBeRemoved",
                    "type": "address"
                }
            ],
            "name": "blacklist",
            "outputs": [],
            "stateMutability": "nonpayable",
            "type": "function"
        },
        {
            "inputs": [
                {
                    "internalType": "bytes32[]",
                    "name": "_collateralPoolIds",
                    "type": "bytes32[]"
                },
                {
                    "internalType": "address[]",
                    "name": "_positionAddresses",
                    "type": "address[]"
                },
                {
                    "internalType": "uint256[]",
                    "name": "_debtShareToBeLiquidateds",
                    "type": "uint256[]"
                },
                {
                    "internalType": "uint256[]",
                    "name": "_maxDebtShareToBeLiquidateds",
                    "type": "uint256[]"
                },
                {
                    "internalType": "address[]",
                    "name": "_collateralRecipients",
                    "type": "address[]"
                },
                {
                    "internalType": "bytes[]",
                    "name": "datas",
                    "type": "bytes[]"
                }
            ],
            "name": "batchLiquidate",
            "outputs": [],
            "stateMutability": "nonpayable",
            "type": "function"
        },
        {
            "inputs": [
                {
                    "internalType": "bytes32",
                    "name": "_collateralPoolId",
                    "type": "bytes32"
                },
                {
                    "internalType": "address",
                    "name": "_positionAddress",
                    "type": "address"
                },
                {
                    "internalType": "uint256",
                    "name": "_debtShareToBeLiquidated",
                    "type": "uint256"
                },
                {
                    "internalType": "uint256",
                    "name": "_maxDebtShareToBeLiquidated",
                    "type": "uint256"
                },
                {
                    "internalType": "address",
                    "name": "_collateralRecipient",
                    "type": "address"
                },
                {
                    "internalType": "bytes",
                    "name": "_data",
                    "type": "bytes"
                }
            ],
            "name": "liquidate",
            "outputs": [],
            "stateMutability": "nonpayable",
            "type": "function"
        },
        {
            "inputs": [
                {
                    "internalType": "bytes32",
                    "name": "_collateralPoolId",
                    "type": "bytes32"
                },
                {
                    "internalType": "address",
                    "name": "_positionAddress",
                    "type": "address"
                },
                {
                    "internalType": "uint256",
                    "name": "_debtShareToBeLiquidated",
                    "type": "uint256"
                },
                {
                    "internalType": "uint256",
                    "name": "_maxDebtShareToBeLiquidated",
                    "type": "uint256"
                },
                {
                    "internalType": "address",
                    "name": "_collateralRecipient",
                    "type": "address"
                },
                {
                    "internalType": "bytes",
                    "name": "_data",
                    "type": "bytes"
                },
                {
                    "internalType": "address",
                    "name": "sender",
                    "type": "address"
                }
            ],
            "name": "liquidate",
            "outputs": [],
            "stateMutability": "nonpayable",
            "type": "function"
        },
        {
            "inputs": [
                {
                    "internalType": "address",
                    "name": "_priceOracle",
                    "type": "address"
                }
            ],
            "name": "setPriceOracle",
            "outputs": [],
            "stateMutability": "nonpayable",
            "type": "function"
        },
        {
            "inputs": [],
            "name": "cage",
            "outputs": [],
            "stateMutability": "nonpayable",
            "type": "function"
        },
        {
            "inputs": [],
            "name": "uncage",
            "outputs": [],
            "stateMutability": "nonpayable",
            "type": "function"
        },
        {
            "inputs": [],
            "name": "pause",
            "outputs": [],
            "stateMutability": "nonpayable",
            "type": "function"
        },
        {
            "inputs": [],
            "name": "unpause",
            "outputs": [],
            "stateMutability": "nonpayable",
            "type": "function"
        }
    ],
    "bytecode": "0x608060405234801561001057600080fd5b50612f9c806100206000396000f3fe608060405234801561001057600080fd5b506004361061010b5760003560e01c80638456cb59116100a2578063c23fdbc711610071578063c23fdbc7146101f9578063d63b23b214610219578063da20cd4514610221578063e3b3932a14610234578063f9f92be41461024757600080fd5b80638456cb59146101b4578063957aa58c146101bc5780639b19251a146101d3578063c0c53b8b146101e657600080fd5b8063530e784f116100de578063530e784f146101705780635c975abb14610183578063692450091461019957806369a5038a146101a157600080fd5b80631ebce593146101105780632630c12f1461012557806328e49a42146101555780633f4ba83a14610168575b600080fd5b61012361011e3660046127a5565b61025a565b005b609754610138906001600160a01b031681565b6040516001600160a01b0390911681526020015b60405180910390f35b609954610138906001600160a01b031681565b61012361030b565b61012361017e36600461282a565b610556565b60335460ff16604051901515815260200161014c565b61012361083d565b6101236101af36600461288b565b610ad0565b610123610d59565b6101c5609a5481565b60405190815260200161014c565b6101236101e136600461282a565b610fa1565b6101236101f43660046129c8565b6111ff565b6101c561020736600461282a565b609b6020526000908152604090205481565b61012361143f565b61012361022f366004612a13565b611700565b609854610138906001600160a01b031681565b61012361025536600461282a565b611771565b6002606554036102b15760405162461bcd60e51b815260206004820152601f60248201527f5265656e7472616e637947756172643a207265656e7472616e742063616c6c0060448201526064015b60405180910390fd5b60026065556102be6119cc565b336000908152609b60205260409020546001146102ed5760405162461bcd60e51b81526004016102a890612aab565b6102fd8787878787878733611a14565b505060016065555050505050565b6098546040805163c8cc243f60e01b815290516000926001600160a01b03169163c8cc243f9160048083019260209291908290030181865afa158015610355573d6000803e3d6000fd5b505050506040513d601f19601f820116820180604052508101906103799190612af7565b9050806001600160a01b03166391d14854826001600160a01b031663e58378bb6040518163ffffffff1660e01b8152600401602060405180830381865afa1580156103c8573d6000803e3d6000fd5b505050506040513d601f19601f820116820180604052508101906103ec9190612b14565b6040516001600160e01b031960e084901b1681526004810191909152336024820152604401602060405180830381865afa15801561042e573d6000803e3d6000fd5b505050506040513d601f19601f820116820180604052508101906104529190612b2d565b8061052f5750806001600160a01b03166391d14854826001600160a01b031663b536818a6040518163ffffffff1660e01b8152600401602060405180830381865afa1580156104a5573d6000803e3d6000fd5b505050506040513d601f19601f820116820180604052508101906104c99190612b14565b6040516001600160e01b031960e084901b1681526004810191909152336024820152604401602060405180830381865afa15801561050b573d6000803e3d6000fd5b505050506040513d601f19601f8201168201806040525081019061052f9190612b2d565b61054b5760405162461bcd60e51b81526004016102a890612b4f565b61055361243d565b50565b6098546040805163c8cc243f60e01b815290516000926001600160a01b03169163c8cc243f9160048083019260209291908290030181865afa1580156105a0573d6000803e3d6000fd5b505050506040513d601f19601f820116820180604052508101906105c49190612af7565b9050806001600160a01b03166391d14854826001600160a01b031663e58378bb6040518163ffffffff1660e01b8152600401602060405180830381865afa158015610613573d6000803e3d6000fd5b505050506040513d601f19601f820116820180604052508101906106379190612b14565b6040516001600160e01b031960e084901b1681526004810191909152336024820152604401602060405180830381865afa158015610679573d6000803e3d6000fd5b505050506040513d601f19601f8201168201806040525081019061069d9190612b2d565b8061077a5750806001600160a01b03166391d14854826001600160a01b031663d7a47a696040518163ffffffff1660e01b8152600401602060405180830381865afa1580156106f0573d6000803e3d6000fd5b505050506040513d601f19601f820116820180604052508101906107149190612b14565b6040516001600160e01b031960e084901b1681526004810191909152336024820152604401602060405180830381865afa158015610756573d6000803e3d6000fd5b505050506040513d601f19601f8201168201806040525081019061077a9190612b2d565b6107965760405162461bcd60e51b81526004016102a890612b86565b6001600160a01b0382166107f85760405162461bcd60e51b815260206004820152602360248201527f5f70726963654f7261636c652063616e6e6f74206265207a65726f206164647260448201526265737360e81b60648201526084016102a8565b609a5460011461081a5760405162461bcd60e51b81526004016102a890612bbd565b50609780546001600160a01b0319166001600160a01b0392909216919091179055565b6098546040805163c8cc243f60e01b815290516000926001600160a01b03169163c8cc243f9160048083019260209291908290030181865afa158015610887573d6000803e3d6000fd5b505050506040513d601f19601f820116820180604052508101906108ab9190612af7565b9050806001600160a01b03166391d14854826001600160a01b031663e58378bb6040518163ffffffff1660e01b8152600401602060405180830381865afa1580156108fa573d6000803e3d6000fd5b505050506040513d601f19601f8201168201806040525081019061091e9190612b14565b6040516001600160e01b031960e084901b1681526004810191909152336024820152604401602060405180830381865afa158015610960573d6000803e3d6000fd5b505050506040513d601f19601f820116820180604052508101906109849190612b2d565b80610a615750806001600160a01b03166391d14854826001600160a01b031663d7a47a696040518163ffffffff1660e01b8152600401602060405180830381865afa1580156109d7573d6000803e3d6000fd5b505050506040513d601f19601f820116820180604052508101906109fb9190612b14565b6040516001600160e01b031960e084901b1681526004810191909152336024820152604401602060405180830381865afa158015610a3d573d6000803e3d6000fd5b505050506040513d601f19601f82011682018060405250810190610a619190612b2d565b610a7d5760405162461bcd60e51b81526004016102a890612b86565b609a54600114610a9f5760405162461bcd60e51b81526004016102a890612bbd565b6000609a8190556040517fbf689b4aae670d200b1d2b971ace2e0c3bef88a9c5e93f36705c7b86eab630b99190a150565b600260655403610b225760405162461bcd60e51b815260206004820152601f60248201527f5265656e7472616e637947756172643a207265656e7472616e742063616c6c0060448201526064016102a8565b6002606555610b2f6119cc565b336000908152609b6020526040902054600114610b5e5760405162461bcd60e51b81526004016102a890612aab565b60005b8b811015610d45573063da20cd458e8e84818110610b8157610b81612bf4565b905060200201358d8d85818110610b9a57610b9a612bf4565b9050602002016020810190610baf919061282a565b8c8c86818110610bc157610bc1612bf4565b905060200201358b8b87818110610bda57610bda612bf4565b905060200201358a8a88818110610bf357610bf3612bf4565b9050602002016020810190610c08919061282a565b898989818110610c1a57610c1a612bf4565b9050602002810190610c2c9190612c0a565b336040518963ffffffff1660e01b8152600401610c50989796959493929190612c79565b600060405180830381600087803b158015610c6a57600080fd5b505af1925050508015610c7b575060015b610d3357610c87612cce565b806308c379a003610d275750610c9b612d24565b80610ca65750610d29565b7f3124ec396126035055c8fd11bb0fec0ecf617636253ea71590eb014448176d208e8e84818110610cd957610cd9612bf4565b905060200201358d8d85818110610cf257610cf2612bf4565b9050602002016020810190610d07919061282a565b3384604051610d199493929190612dad565b60405180910390a150610d33565b505b3d6000803e3d6000fd5b80610d3d81612e33565b915050610b61565b505060016065555050505050505050505050565b6098546040805163c8cc243f60e01b815290516000926001600160a01b03169163c8cc243f9160048083019260209291908290030181865afa158015610da3573d6000803e3d6000fd5b505050506040513d601f19601f82011682018060405250810190610dc79190612af7565b9050806001600160a01b03166391d14854826001600160a01b031663e58378bb6040518163ffffffff1660e01b8152600401602060405180830381865afa158015610e16573d6000803e3d6000fd5b505050506040513d601f19601f82011682018060405250810190610e3a9190612b14565b6040516001600160e01b031960e084901b1681526004810191909152336024820152604401602060405180830381865afa158015610e7c573d6000803e3d6000fd5b505050506040513d601f19601f82011682018060405250810190610ea09190612b2d565b80610f7d5750806001600160a01b03166391d14854826001600160a01b031663b536818a6040518163ffffffff1660e01b8152600401602060405180830381865afa158015610ef3573d6000803e3d6000fd5b505050506040513d601f19601f82011682018060405250810190610f179190612b14565b6040516001600160e01b031960e084901b1681526004810191909152336024820152604401602060405180830381865afa158015610f59573d6000803e3d6000fd5b505050506040513d601f19601f82011682018060405250810190610f7d9190612b2d565b610f995760405162461bcd60e51b81526004016102a890612b4f565b61055361248f565b6098546040805163c8cc243f60e01b815290516000926001600160a01b03169163c8cc243f9160048083019260209291908290030181865afa158015610feb573d6000803e3d6000fd5b505050506040513d601f19601f8201168201806040525081019061100f9190612af7565b9050806001600160a01b03166391d14854826001600160a01b031663e58378bb6040518163ffffffff1660e01b8152600401602060405180830381865afa15801561105e573d6000803e3d6000fd5b505050506040513d601f19601f820116820180604052508101906110829190612b14565b6040516001600160e01b031960e084901b1681526004810191909152336024820152604401602060405180830381865afa1580156110c4573d6000803e3d6000fd5b505050506040513d601f19601f820116820180604052508101906110e89190612b2d565b806111c55750806001600160a01b03166391d14854826001600160a01b031663b536818a6040518163ffffffff1660e01b8152600401602060405180830381865afa15801561113b573d6000803e3d6000fd5b505050506040513d601f19601f8201168201806040525081019061115f9190612b14565b6040516001600160e01b031960e084901b1681526004810191909152336024820152604401602060405180830381865afa1580156111a1573d6000803e3d6000fd5b505050506040513d601f19601f820116820180604052508101906111c59190612b2d565b6111e15760405162461bcd60e51b81526004016102a890612b4f565b506001600160a01b03166000908152609b6020526040902060019055565b600054610100900460ff161580801561121f5750600054600160ff909116105b806112395750303b158015611239575060005460ff166001145b61129c5760405162461bcd60e51b815260206004820152602e60248201527f496e697469616c697a61626c653a20636f6e747261637420697320616c72656160448201526d191e481a5b9a5d1a585b1a5e995960921b60648201526084016102a8565b6000805460ff1916600117905580156112bf576000805461ff0019166101001790555b6112c76124cc565b6112cf6124fb565b836001600160a01b0316636f3a3bfc6040518163ffffffff1660e01b81526004016020604051808303816000875af115801561130f573d6000803e3d6000fd5b505050506040513d601f19601f820116820180604052508101906113339190612b14565b5083609860006101000a8154816001600160a01b0302191690836001600160a01b03160217905550826001600160a01b0316632a608d5b6040518163ffffffff1660e01b8152600401602060405180830381865afa158015611399573d6000803e3d6000fd5b505050506040513d601f19601f820116820180604052508101906113bd9190612b14565b50609980546001600160a01b038086166001600160a01b03199283161790925560978054928516929091169190911790556001609a558015611439576000805461ff0019169055604051600181527f7f26b83ff96e1f2b6a682f133852f6798a09c465da95921460cefb38474024989060200160405180910390a15b50505050565b6098546040805163c8cc243f60e01b815290516000926001600160a01b03169163c8cc243f9160048083019260209291908290030181865afa158015611489573d6000803e3d6000fd5b505050506040513d601f19601f820116820180604052508101906114ad9190612af7565b9050806001600160a01b03166391d14854826001600160a01b031663e58378bb6040518163ffffffff1660e01b8152600401602060405180830381865afa1580156114fc573d6000803e3d6000fd5b505050506040513d601f19601f820116820180604052508101906115209190612b14565b6040516001600160e01b031960e084901b1681526004810191909152336024820152604401602060405180830381865afa158015611562573d6000803e3d6000fd5b505050506040513d601f19601f820116820180604052508101906115869190612b2d565b806116635750806001600160a01b03166391d14854826001600160a01b031663d7a47a696040518163ffffffff1660e01b8152600401602060405180830381865afa1580156115d9573d6000803e3d6000fd5b505050506040513d601f19601f820116820180604052508101906115fd9190612b14565b6040516001600160e01b031960e084901b1681526004810191909152336024820152604401602060405180830381865afa15801561163f573d6000803e3d6000fd5b505050506040513d601f19601f820116820180604052508101906116639190612b2d565b61167f5760405162461bcd60e51b81526004016102a890612b86565b609a54156116cf5760405162461bcd60e51b815260206004820152601b60248201527f4c69717569646174696f6e456e67696e652f6e6f742d6361676564000000000060448201526064016102a8565b6001609a556040517f1868a6ced217213f36be87ba9aee25cde5381b42e85c8f88e73b18772c0bd07390600090a150565b6117086119cc565b3330146117575760405162461bcd60e51b815260206004820181905260248201527f4c69717569646174696f6e456e67696e652f696e76616c69642d73656e64657260448201526064016102a8565b6117678888888888888888611a14565b5050505050505050565b6098546040805163c8cc243f60e01b815290516000926001600160a01b03169163c8cc243f9160048083019260209291908290030181865afa1580156117bb573d6000803e3d6000fd5b505050506040513d601f19601f820116820180604052508101906117df9190612af7565b9050806001600160a01b03166391d14854826001600160a01b031663e58378bb6040518163ffffffff1660e01b8152600401602060405180830381865afa15801561182e573d6000803e3d6000fd5b505050506040513d601f19601f820116820180604052508101906118529190612b14565b6040516001600160e01b031960e084901b1681526004810191909152336024820152604401602060405180830381865afa158015611894573d6000803e3d6000fd5b505050506040513d601f19601f820116820180604052508101906118b89190612b2d565b806119955750806001600160a01b03166391d14854826001600160a01b031663b536818a6040518163ffffffff1660e01b8152600401602060405180830381865afa15801561190b573d6000803e3d6000fd5b505050506040513d601f19601f8201168201806040525081019061192f9190612b14565b6040516001600160e01b031960e084901b1681526004810191909152336024820152604401602060405180830381865afa158015611971573d6000803e3d6000fd5b505050506040513d601f19601f820116820180604052508101906119959190612b2d565b6119b15760405162461bcd60e51b81526004016102a890612b4f565b506001600160a01b03166000908152609b6020526040812055565b60335460ff1615611a125760405162461bcd60e51b815260206004820152601060248201526f14185d5cd8589b194e881c185d5cd95960821b60448201526064016102a8565b565b609a54600114611a365760405162461bcd60e51b81526004016102a890612bbd565b85600003611aa15760405162461bcd60e51b815260206004820152603260248201527f4c69717569646174696f6e456e67696e652f7a65726f2d646562742d76616c75604482015271194b5d1bcb58994b5b1a5c5d5a59185d195960721b60648201526084016102a8565b84600003611b105760405162461bcd60e51b815260206004820152603660248201527f4c69717569646174696f6e456e67696e652f7a65726f2d6d61782d646562742d6044820152751d985b1d594b5d1bcb58994b5b1a5c5d5a59185d195960521b60648201526084016102a8565b611b198861252a565b611b745760405162461bcd60e51b815260206004820152602660248201527f4c69717569646174696f6e456e67696e652f70726963652d69732d6e6f742d6860448201526565616c74687960d01b60648201526084016102a8565b611bad6040518060c001604052806000815260200160008152602001600081526020016000815260200160008152602001600081525090565b609854604051630a76216560e21b8152600481018b90526001600160a01b038a81166024830152909116906329d88594906044016040805180830381865afa158015611bfd573d6000803e3d6000fd5b505050506040513d601f19601f82011682018060405250810190611c219190612e4c565b60208381019190915290825260408051606081018252600080825281840181905281830152609854825163d868246160e01b8152925191936001600160a01b039091169263d868246192600480830193928290030181865afa158015611c8b573d6000803e3d6000fd5b505050506040513d601f19601f82011682018060405250810190611caf9190612af7565b6001600160a01b03166328c84bbd8b6040518263ffffffff1660e01b8152600401611cdc91815260200190565b602060405180830381865afa158015611cf9573d6000803e3d6000fd5b505050506040513d601f19601f82011682018060405250810190611d1d9190612af7565b6001600160a01b0390811682526098546040805163d868246160e01b81529051919092169163d86824619160048083019260209291908290030181865afa158015611d6c573d6000803e3d6000fd5b505050506040513d601f19601f82011682018060405250810190611d909190612af7565b6001600160a01b0316638c492d078b6040518263ffffffff1660e01b8152600401611dbd91815260200190565b602060405180830381865afa158015611dda573d6000803e3d6000fd5b505050506040513d601f19601f82011682018060405250810190611dfe9190612b14565b6020808301919091526098546040805163d868246160e01b815290516001600160a01b039092169263d8682461926004808401938290030181865afa158015611e4b573d6000803e3d6000fd5b505050506040513d601f19601f82011682018060405250810190611e6f9190612af7565b6001600160a01b031663a09b0fe08b6040518263ffffffff1660e01b8152600401611e9c91815260200190565b602060405180830381865afa158015611eb9573d6000803e3d6000fd5b505050506040513d601f19601f82011682018060405250810190611edd9190612b14565b604082015280516001600160a01b038116611f455760405162461bcd60e51b815260206004820152602260248201527f4c69717569646174696f6e456e67696e652f6e6f742d7365742d737472617465604482015261677960f01b60648201526084016102a8565b60008260200151118015611f79575060408201516020840151611f679161267d565b60208301518451611f779161267d565b105b611fd05760405162461bcd60e51b815260206004820152602260248201527f4c69717569646174696f6e456e67696e652f706f736974696f6e2d69732d7361604482015261666560f01b60648201526084016102a8565b60985460995460405163b4ac08bb60e01b81526001600160a01b03918216600482015291169063b4ac08bb90602401602060405180830381865afa15801561201c573d6000803e3d6000fd5b505050506040513d601f19601f820116820180604052508101906120409190612b14565b836040018181525050806001600160a01b03166316d8d2918c856020015186600001518e8e8e8b8f8f8f6040518b63ffffffff1660e01b815260040161208f9a99989796959493929190612e70565b600060405180830381600087803b1580156120a957600080fd5b505af11580156120bd573d6000803e3d6000fd5b5050609854604051630a76216560e21b8152600481018f90526001600160a01b038e8116602483015290911692506329d8859491506044016040805180830381865afa158015612111573d6000803e3d6000fd5b505050506040513d601f19601f820116820180604052508101906121359190612e4c565b6080850181905260608501919091526020840151116121a45760405162461bcd60e51b815260206004820152602560248201527f4c69717569646174696f6e456e67696e652f646562742d6e6f742d6c6971756960448201526419185d195960da1b60648201526084016102a8565b6121cd82604001516121c78560800151866020015161269290919063ffffffff16565b9061267d565b60a08401819052604080850151609854609954925163b4ac08bb60e01b81526001600160a01b039384166004820152612254939091169063b4ac08bb90602401602060405180830381865afa15801561222a573d6000803e3d6000fd5b505050506040513d601f19601f8201168201806040525081019061224e9190612b14565b90612692565b10156122b15760405162461bcd60e51b815260206004820152602660248201527f4c69717569646174696f6e456e67696e652f7061796d656e742d6e6f742d726560448201526518d95a5d995960d21b60648201526084016102a8565b60608301511580156122c7575060008360800151115b156123d257600160ff1b8360800151106123235760405162461bcd60e51b815260206004820152601a60248201527f4c69717569646174696f6e456e67696e652f6f766572666c6f7700000000000060448201526064016102a8565b60985460995460808501516001600160a01b039283169263b1df2594928f928f928392169060009061235490612ed5565b6040516001600160e01b031960e089901b16815260048101969096526001600160a01b039485166024870152928416604486015292166064840152608483019190915260a482015260c401600060405180830381600087803b1580156123b957600080fd5b505af11580156123cd573d6000803e3d6000fd5b505050505b60975460405163285da53b60e01b8152600481018d90526001600160a01b039091169063285da53b90602401600060405180830381600087803b15801561241857600080fd5b505af115801561242c573d6000803e3d6000fd5b505050505050505050505050505050565b61244561269e565b6033805460ff191690557f5db9ee0a495bf2e6ff9c91a7834c1ba4fdd244a5e8aa4e537bd38aeae4b073aa335b6040516001600160a01b03909116815260200160405180910390a1565b6124976119cc565b6033805460ff191660011790557f62e78cea01bee320cd4e420270b5ea74000d11b0c9f74754ebdbfc544b05a2586124723390565b600054610100900460ff166124f35760405162461bcd60e51b81526004016102a890612ef1565b611a126126e7565b600054610100900460ff166125225760405162461bcd60e51b81526004016102a890612ef1565b611a1261271a565b600080609860009054906101000a90046001600160a01b03166001600160a01b031663d86824616040518163ffffffff1660e01b8152600401602060405180830381865afa158015612580573d6000803e3d6000fd5b505050506040513d601f19601f820116820180604052508101906125a49190612af7565b6001600160a01b0316638c0adf62846040518263ffffffff1660e01b81526004016125d191815260200190565b602060405180830381865afa1580156125ee573d6000803e3d6000fd5b505050506040513d601f19601f820116820180604052508101906126129190612af7565b9050806001600160a01b0316630184a92a6040518163ffffffff1660e01b8152600401602060405180830381865afa158015612652573d6000803e3d6000fd5b505050506040513d601f19601f820116820180604052508101906126769190612b2d565b9392505050565b60006126898284612f3c565b90505b92915050565b60006126898284612f53565b60335460ff16611a125760405162461bcd60e51b815260206004820152601460248201527314185d5cd8589b194e881b9bdd081c185d5cd95960621b60448201526064016102a8565b600054610100900460ff1661270e5760405162461bcd60e51b81526004016102a890612ef1565b6033805460ff19169055565b600054610100900460ff166127415760405162461bcd60e51b81526004016102a890612ef1565b6001606555565b6001600160a01b038116811461055357600080fd5b60008083601f84011261276f57600080fd5b5081356001600160401b0381111561278657600080fd5b60208301915083602082850101111561279e57600080fd5b9250929050565b600080600080600080600060c0888a0312156127c057600080fd5b8735965060208801356127d281612748565b9550604088013594506060880135935060808801356127f081612748565b925060a08801356001600160401b0381111561280b57600080fd5b6128178a828b0161275d565b989b979a50959850939692959293505050565b60006020828403121561283c57600080fd5b813561267681612748565b60008083601f84011261285957600080fd5b5081356001600160401b0381111561287057600080fd5b6020830191508360208260051b850101111561279e57600080fd5b60008060008060008060008060008060008060c08d8f0312156128ad57600080fd5b6001600160401b038d3511156128c257600080fd5b6128cf8e8e358f01612847565b909c509a506001600160401b0360208e013511156128ec57600080fd5b6128fc8e60208f01358f01612847565b909a5098506001600160401b0360408e0135111561291957600080fd5b6129298e60408f01358f01612847565b90985096506001600160401b0360608e0135111561294657600080fd5b6129568e60608f01358f01612847565b90965094506001600160401b0360808e0135111561297357600080fd5b6129838e60808f01358f01612847565b90945092506001600160401b0360a08e013511156129a057600080fd5b6129b08e60a08f01358f01612847565b81935080925050509295989b509295989b509295989b565b6000806000606084860312156129dd57600080fd5b83356129e881612748565b925060208401356129f881612748565b91506040840135612a0881612748565b809150509250925092565b60008060008060008060008060e0898b031215612a2f57600080fd5b883597506020890135612a4181612748565b965060408901359550606089013594506080890135612a5f81612748565b935060a08901356001600160401b03811115612a7a57600080fd5b612a868b828c0161275d565b90945092505060c0890135612a9a81612748565b809150509295985092959890939650565b6020808252602c908201527f4c69717569646174696f6e456e67696e652f6c697175696461746f722d6e6f7460408201526b0b5dda1a5d195b1a5cdd195960a21b606082015260800190565b600060208284031215612b0957600080fd5b815161267681612748565b600060208284031215612b2657600080fd5b5051919050565b600060208284031215612b3f57600080fd5b8151801515811461267657600080fd5b60208082526017908201527f21286f776e6572526f6c65206f7220676f76526f6c6529000000000000000000604082015260600190565b6020808252601f908201527f21286f776e6572526f6c65206f722073686f7753746f70706572526f6c652900604082015260600190565b6020808252601a908201527f4c69717569646174696f6e456e67696e652f6e6f742d6c697665000000000000604082015260600190565b634e487b7160e01b600052603260045260246000fd5b6000808335601e19843603018112612c2157600080fd5b8301803591506001600160401b03821115612c3b57600080fd5b60200191503681900382131561279e57600080fd5b81835281816020850137506000828201602090810191909152601f909101601f19169091010190565b888152600060018060a01b03808a166020840152886040840152876060840152808716608084015260e060a0840152612cb660e084018688612c50565b915080841660c0840152509998505050505050505050565b600060033d1115612ce75760046000803e5060005160e01c5b90565b601f8201601f191681016001600160401b0381118282101715612d1d57634e487b7160e01b600052604160045260246000fd5b6040525050565b600060443d1015612d325790565b6040516003193d81016004833e81513d6001600160401b038160248401118184111715612d6157505050505090565b8285019150815181811115612d795750505050505090565b843d8701016020828501011115612d935750505050505090565b612da260208286010187612cea565b509095945050505050565b8481526000602060018060a01b038087168285015280861660408501525060806060840152835180608085015260005b81811015612df95785810183015185820160a001528201612ddd565b50600060a0828601015260a0601f19601f8301168501019250505095945050505050565b634e487b7160e01b600052601160045260246000fd5b600060018201612e4557612e45612e1d565b5060010190565b60008060408385031215612e5f57600080fd5b505080516020909101519092909150565b60006101208c83528b60208401528a604084015260018060a01b03808b1660608501528960808501528860a085015280881660c085015280871660e08501525080610100840152612ec48184018587612c50565b9d9c50505050505050505050505050565b6000600160ff1b8201612eea57612eea612e1d565b5060000390565b6020808252602b908201527f496e697469616c697a61626c653a20636f6e7472616374206973206e6f74206960408201526a6e697469616c697a696e6760a81b606082015260800190565b808202811582820484141761268c5761268c612e1d565b8181038181111561268c5761268c612e1d56fea264697066735822122029abf2e9b629924416432d52d3be5d8ecf281566882fca10cc96853926717be964736f6c63430008110033",
    "immutableReferences": {},
    "source": "// SPDX-License-Identifier: AGPL-3.0-or-later\n\npragma solidity 0.8.17;\npragma experimental ABIEncoderV2;\n\nimport \"@openzeppelin/contracts-upgradeable/security/PausableUpgradeable.sol\";\nimport \"@openzeppelin/contracts-upgradeable/access/AccessControlUpgradeable.sol\";\nimport \"@openzeppelin/contracts-upgradeable/security/ReentrancyGuardUpgradeable.sol\";\nimport \"@openzeppelin/contracts-upgradeable/utils/math/SafeMathUpgradeable.sol\";\n\nimport \"../interfaces/IBookKeeper.sol\";\nimport \"../interfaces/ISystemDebtEngine.sol\";\nimport \"../interfaces/ILiquidationEngine.sol\";\nimport \"../interfaces/ILiquidationStrategy.sol\";\nimport \"../interfaces/ICagable.sol\";\nimport \"../interfaces/ISetPrice.sol\";\n\n/// @title LiquidationEngine\n/** @notice A contract which is the manager for all of the liquidations of the protocol.\n    LiquidationEngine will be the interface for the liquidator to trigger any positions into the liquidation process.\n*/\n\ncontract LiquidationEngine is PausableUpgradeable, ReentrancyGuardUpgradeable, ICagable, ILiquidationEngine {\n  using SafeMathUpgradeable for uint256;\n  address public priceOracle;\n\n  struct LocalVars {\n    uint256 positionLockedCollateral;\n    uint256 positionDebtShare;\n    uint256 systemDebtEngineStablecoinBefore;\n    uint256 newPositionLockedCollateral;\n    uint256 newPositionDebtShare;\n    uint256 wantStablecoinValueFromLiquidation;\n  }\n\n  struct CollateralPoolLocalVars {\n    address strategy;\n    uint256 priceWithSafetyMargin; // [ray]\n    uint256 debtAccumulatedRate; // [ray]\n  }\n\n  IBookKeeper public bookKeeper; // CDP Engine\n  ISystemDebtEngine public systemDebtEngine; // Debt Engine\n  uint256 public override live; // Active Flag\n  mapping(address => uint256) public liquidatorsWhitelist;\n\n  event LiquidationFail(bytes32 _collateralPoolIds, address _positionAddresses, address _liquidator, string reason);\n\n  modifier onlyOwnerOrShowStopper() {\n    IAccessControlConfig _accessControlConfig = IAccessControlConfig(IBookKeeper(bookKeeper).accessControlConfig());\n    require(\n      _accessControlConfig.hasRole(_accessControlConfig.OWNER_ROLE(), msg.sender) ||\n        _accessControlConfig.hasRole(_accessControlConfig.SHOW_STOPPER_ROLE(), msg.sender),\n      \"!(ownerRole or showStopperRole)\"\n    );\n    _;\n  }\n\n  modifier onlyOwnerOrGov() {\n    IAccessControlConfig _accessControlConfig = IAccessControlConfig(IBookKeeper(bookKeeper).accessControlConfig());\n    require(\n      _accessControlConfig.hasRole(_accessControlConfig.OWNER_ROLE(), msg.sender) ||\n        _accessControlConfig.hasRole(_accessControlConfig.GOV_ROLE(), msg.sender),\n      \"!(ownerRole or govRole)\"\n    );\n    _;\n  }\n\n    modifier onlyWhitelisted() {\n    require(liquidatorsWhitelist[msg.sender] == 1, \"LiquidationEngine/liquidator-not-whitelisted\");\n    _;\n  }\n\n  // --- Init ---\n  function initialize(address _bookKeeper, address _systemDebtEngine, address _priceOracle) external initializer {\n    PausableUpgradeable.__Pausable_init();\n    ReentrancyGuardUpgradeable.__ReentrancyGuard_init();\n\n    IBookKeeper(_bookKeeper).totalStablecoinIssued(); // Sanity Check Call\n    bookKeeper = IBookKeeper(_bookKeeper);\n\n    ISystemDebtEngine(_systemDebtEngine).surplusBuffer(); // Sanity Check Call\n    systemDebtEngine = ISystemDebtEngine(_systemDebtEngine);\n\n    priceOracle = _priceOracle;\n\n    live = 1;\n  }\n\n  // --- Math ---\n  uint256 constant WAD = 10**18;\n\n  function whitelist(address toBeWhitelisted) external onlyOwnerOrGov {\n    liquidatorsWhitelist[toBeWhitelisted] = 1;\n  }\n\n  function blacklist(address toBeRemoved) external onlyOwnerOrGov {\n    liquidatorsWhitelist[toBeRemoved] = 0;\n  }\n\n  function batchLiquidate(\n    bytes32[] calldata _collateralPoolIds,\n    address[] calldata _positionAddresses,\n    uint256[] calldata _debtShareToBeLiquidateds, // [rad]\n    uint256[] calldata _maxDebtShareToBeLiquidateds, // [rad]\n    address[] calldata _collateralRecipients,\n    bytes[] calldata datas\n  ) external override nonReentrant whenNotPaused onlyWhitelisted {\n    for(uint i = 0; i < _collateralPoolIds.length; i++){\n        try this.liquidate(_collateralPoolIds[i], _positionAddresses[i],_debtShareToBeLiquidateds[i], _maxDebtShareToBeLiquidateds[i], _collateralRecipients[i], datas[i],msg.sender){\n        } catch Error(string memory reason) {\n            emit LiquidationFail(_collateralPoolIds[i], _positionAddresses[i], msg.sender, reason);\n            continue;\n        }\n    }\n  }\n\n  //This function is overload implementation of liquidate() and will only be called from LiquidationEngine contract to support batch liquidation, \n  function liquidate(\n    bytes32 _collateralPoolId,\n    address _positionAddress,\n    uint256 _debtShareToBeLiquidated, // [rad]\n    uint256 _maxDebtShareToBeLiquidated, // [wad]\n    address _collateralRecipient,\n    bytes calldata _data,\n    address sender\n  ) external override whenNotPaused {\n    require(msg.sender == address(this),\"LiquidationEngine/invalid-sender\");\n    _liquidate(_collateralPoolId, _positionAddress, _debtShareToBeLiquidated,_maxDebtShareToBeLiquidated, _collateralRecipient, _data,sender);\n  }\n\n\n  function liquidate(\n    bytes32 _collateralPoolId,\n    address _positionAddress,\n    uint256 _debtShareToBeLiquidated, // [rad]\n    uint256 _maxDebtShareToBeLiquidated, // [wad]\n    address _collateralRecipient,\n    bytes calldata _data\n  ) external override nonReentrant whenNotPaused onlyWhitelisted {\n    _liquidate(_collateralPoolId, _positionAddress, _debtShareToBeLiquidated,_maxDebtShareToBeLiquidated, _collateralRecipient, _data, msg.sender);\n  }\n\n  function _liquidate(\n    bytes32 _collateralPoolId,\n    address _positionAddress,\n    uint256 _debtShareToBeLiquidated, // [rad]\n    uint256 _maxDebtShareToBeLiquidated, // [wad]\n    address _collateralRecipient,\n    bytes calldata _data,\n    address sender\n  ) internal {\n\n    require(live == 1, \"LiquidationEngine/not-live\");\n    require(_debtShareToBeLiquidated != 0, \"LiquidationEngine/zero-debt-value-to-be-liquidated\");\n    require(_maxDebtShareToBeLiquidated != 0, \"LiquidationEngine/zero-max-debt-value-to-be-liquidated\");\n    require(_isPriceOk(_collateralPoolId), \"LiquidationEngine/price-is-not-healthy\");\n\n    LocalVars memory _vars;\n\n    (_vars.positionLockedCollateral, _vars.positionDebtShare) = bookKeeper.positions(\n      _collateralPoolId,\n      _positionAddress\n    );\n    // 1. Check if the position is underwater\n    CollateralPoolLocalVars memory _collateralPoolLocalVars;\n    _collateralPoolLocalVars.strategy = ICollateralPoolConfig(bookKeeper.collateralPoolConfig()).getStrategy(\n      _collateralPoolId\n    );\n    _collateralPoolLocalVars.priceWithSafetyMargin = ICollateralPoolConfig(bookKeeper.collateralPoolConfig())\n      .getPriceWithSafetyMargin(_collateralPoolId); // [ray]\n    _collateralPoolLocalVars.debtAccumulatedRate = ICollateralPoolConfig(bookKeeper.collateralPoolConfig())\n      .getDebtAccumulatedRate(_collateralPoolId); // [ray]\n\n    ILiquidationStrategy _strategy = ILiquidationStrategy(_collateralPoolLocalVars.strategy);\n    require(address(_strategy) != address(0), \"LiquidationEngine/not-set-strategy\");\n\n    // (positionLockedCollateral [wad] * priceWithSafetyMargin [ray]) [rad]\n    // (positionDebtShare [wad] * debtAccumulatedRate [ray]) [rad]\n    require(\n      _collateralPoolLocalVars.priceWithSafetyMargin > 0 &&\n        _vars.positionLockedCollateral.mul(_collateralPoolLocalVars.priceWithSafetyMargin) <\n        _vars.positionDebtShare.mul(_collateralPoolLocalVars.debtAccumulatedRate),\n      \"LiquidationEngine/position-is-safe\"\n    );\n\n    _vars.systemDebtEngineStablecoinBefore = bookKeeper.stablecoin(address(systemDebtEngine));\n\n    _strategy.execute(\n      _collateralPoolId,\n      _vars.positionDebtShare,\n      _vars.positionLockedCollateral,\n      _positionAddress,\n      _debtShareToBeLiquidated,\n      _maxDebtShareToBeLiquidated,\n      sender,\n      _collateralRecipient,\n      _data\n    );\n    (_vars.newPositionLockedCollateral, _vars.newPositionDebtShare) = bookKeeper.positions(\n      _collateralPoolId,\n      _positionAddress\n    );\n    require(_vars.newPositionDebtShare < _vars.positionDebtShare, \"LiquidationEngine/debt-not-liquidated\");\n\n    // (positionDebtShare [wad] - newPositionDebtShare [wad]) * debtAccumulatedRate [ray]\n\n    _vars.wantStablecoinValueFromLiquidation = _vars.positionDebtShare.sub(_vars.newPositionDebtShare).mul(\n      _collateralPoolLocalVars.debtAccumulatedRate\n    ); // [rad]\n    require(\n      bookKeeper.stablecoin(address(systemDebtEngine)).sub(_vars.systemDebtEngineStablecoinBefore) >=\n        _vars.wantStablecoinValueFromLiquidation,\n      \"LiquidationEngine/payment-not-received\"\n    );\n\n    // If collateral has been depleted from liquidation whilst there is remaining debt in the position\n    if (_vars.newPositionLockedCollateral == 0 && _vars.newPositionDebtShare > 0) {\n      // Overflow check\n      require(_vars.newPositionDebtShare < 2**255, \"LiquidationEngine/overflow\");\n      // Record the bad debt to the system and close the position\n      bookKeeper.confiscatePosition(\n        _collateralPoolId,\n        _positionAddress,\n        _positionAddress,\n        address(systemDebtEngine),\n        0,\n        -int256(_vars.newPositionDebtShare)\n      );\n    }\n\n    ISetPrice(priceOracle).setPrice(_collateralPoolId);\n  }\n\n  function setPriceOracle(address _priceOracle) external onlyOwnerOrShowStopper {\n    require(_priceOracle != address(0), \"_priceOracle cannot be zero address\");\n    require(live == 1, \"LiquidationEngine/not-live\");\n    priceOracle = _priceOracle;\n  }\n\n  /// @dev access: OWNER_ROLE, SHOW_STOPPER_ROLE\n  function cage() external override onlyOwnerOrShowStopper {\n    require(live == 1, \"LiquidationEngine/not-live\");\n    live = 0;\n    emit LogCage();\n  }\n\n  /// @dev access: OWNER_ROLE, SHOW_STOPPER_ROLE\n  function uncage() external override onlyOwnerOrShowStopper {\n    require(live == 0, \"LiquidationEngine/not-caged\");\n    live = 1;\n    emit LogUncage();\n  }\n\n  // --- pause ---\n  /// @dev access: OWNER_ROLE, GOV_ROLE\n  function pause() external onlyOwnerOrGov {\n    _pause();\n  }\n\n  /// @dev access: OWNER_ROLE, GOV_ROLE\n  function unpause() external onlyOwnerOrGov {\n    _unpause();\n  }\n\n  function _isPriceOk(bytes32 _collateralPoolId) internal view returns (bool) {\n    IPriceFeed _priceFeed = IPriceFeed(ICollateralPoolConfig(IBookKeeper(bookKeeper).collateralPoolConfig()).getPriceFeed(_collateralPoolId));\n    return _priceFeed.isPriceOk();\n  }\n}",
    "sourcePath": "/Users/tarun.sharma/Tarun/Projects/stablecoin/fathom-stablecoin-smartcontract/fathom-stablecoin-smart-contracts/contracts/main/stablecoin-core/LiquidationEngine.sol",
    "compiler": {
        "name": "solc",
        "version": "0.8.17+commit.8df45f5f.Emscripten.clang"
    },
    "schemaVersion": "3.4.10",
    "updatedAt": "2023-01-26T12:28:45.887Z",
    "devdoc": {
        "kind": "dev",
        "methods": {
            "cage()": {
                "details": "access: OWNER_ROLE, SHOW_STOPPER_ROLE"
            },
            "pause()": {
                "details": "access: OWNER_ROLE, GOV_ROLE"
            },
            "paused()": {
                "details": "Returns true if the contract is paused, and false otherwise."
            },
            "uncage()": {
                "details": "access: OWNER_ROLE, SHOW_STOPPER_ROLE"
            },
            "unpause()": {
                "details": "access: OWNER_ROLE, GOV_ROLE"
            }
        },
        "version": 1
    },
    "userdoc": {
        "kind": "user",
        "methods": {},
        "notice": "A contract which is the manager for all of the liquidations of the protocol. LiquidationEngine will be the interface for the liquidator to trigger any positions into the liquidation process.",
        "version": 1
    }
}