{
    "contractName": "LiquidationEngine",
    "abi": [
        {
            "anonymous": false,
            "inputs": [
                {
                    "indexed": false,
                    "internalType": "uint8",
                    "name": "version",
                    "type": "uint8"
                }
            ],
            "name": "Initialized",
            "type": "event"
        },
        {
            "anonymous": false,
            "inputs": [
                {
                    "indexed": false,
                    "internalType": "bytes32",
                    "name": "_collateralPoolIds",
                    "type": "bytes32"
                },
                {
                    "indexed": false,
                    "internalType": "address",
                    "name": "_positionAddresses",
                    "type": "address"
                },
                {
                    "indexed": false,
                    "internalType": "address",
                    "name": "_liquidator",
                    "type": "address"
                },
                {
                    "indexed": false,
                    "internalType": "string",
                    "name": "reason",
                    "type": "string"
                }
            ],
            "name": "LiquidationFail",
            "type": "event"
        },
        {
            "anonymous": false,
            "inputs": [],
            "name": "LogCage",
            "type": "event"
        },
        {
            "anonymous": false,
            "inputs": [],
            "name": "LogUncage",
            "type": "event"
        },
        {
            "anonymous": false,
            "inputs": [
                {
                    "indexed": false,
                    "internalType": "address",
                    "name": "account",
                    "type": "address"
                }
            ],
            "name": "Paused",
            "type": "event"
        },
        {
            "anonymous": false,
            "inputs": [
                {
                    "indexed": false,
                    "internalType": "address",
                    "name": "account",
                    "type": "address"
                }
            ],
            "name": "Unpaused",
            "type": "event"
        },
        {
            "inputs": [],
            "name": "bookKeeper",
            "outputs": [
                {
                    "internalType": "contract IBookKeeper",
                    "name": "",
                    "type": "address"
                }
            ],
            "stateMutability": "view",
            "type": "function"
        },
        {
            "inputs": [
                {
                    "internalType": "address",
                    "name": "",
                    "type": "address"
                }
            ],
            "name": "liquidatorsWhitelist",
            "outputs": [
                {
                    "internalType": "uint256",
                    "name": "",
                    "type": "uint256"
                }
            ],
            "stateMutability": "view",
            "type": "function"
        },
        {
            "inputs": [],
            "name": "live",
            "outputs": [
                {
                    "internalType": "uint256",
                    "name": "",
                    "type": "uint256"
                }
            ],
            "stateMutability": "view",
            "type": "function"
        },
        {
            "inputs": [],
            "name": "paused",
            "outputs": [
                {
                    "internalType": "bool",
                    "name": "",
                    "type": "bool"
                }
            ],
            "stateMutability": "view",
            "type": "function"
        },
        {
            "inputs": [],
            "name": "priceOracle",
            "outputs": [
                {
                    "internalType": "address",
                    "name": "",
                    "type": "address"
                }
            ],
            "stateMutability": "view",
            "type": "function"
        },
        {
            "inputs": [],
            "name": "systemDebtEngine",
            "outputs": [
                {
                    "internalType": "contract ISystemDebtEngine",
                    "name": "",
                    "type": "address"
                }
            ],
            "stateMutability": "view",
            "type": "function"
        },
        {
            "inputs": [
                {
                    "internalType": "address",
                    "name": "_bookKeeper",
                    "type": "address"
                },
                {
                    "internalType": "address",
                    "name": "_systemDebtEngine",
                    "type": "address"
                },
                {
                    "internalType": "address",
                    "name": "_priceOracle",
                    "type": "address"
                }
            ],
            "name": "initialize",
            "outputs": [],
            "stateMutability": "nonpayable",
            "type": "function"
        },
        {
            "inputs": [
                {
                    "internalType": "address",
                    "name": "toBeWhitelisted",
                    "type": "address"
                }
            ],
            "name": "whitelist",
            "outputs": [],
            "stateMutability": "nonpayable",
            "type": "function"
        },
        {
            "inputs": [
                {
                    "internalType": "address",
                    "name": "toBeRemoved",
                    "type": "address"
                }
            ],
            "name": "blacklist",
            "outputs": [],
            "stateMutability": "nonpayable",
            "type": "function"
        },
        {
            "inputs": [
                {
                    "internalType": "bytes32[]",
                    "name": "_collateralPoolIds",
                    "type": "bytes32[]"
                },
                {
                    "internalType": "address[]",
                    "name": "_positionAddresses",
                    "type": "address[]"
                },
                {
                    "internalType": "uint256[]",
                    "name": "_debtShareToBeLiquidateds",
                    "type": "uint256[]"
                },
                {
                    "internalType": "uint256[]",
                    "name": "_maxDebtShareToBeLiquidateds",
                    "type": "uint256[]"
                },
                {
                    "internalType": "address[]",
                    "name": "_collateralRecipients",
                    "type": "address[]"
                },
                {
                    "internalType": "bytes[]",
                    "name": "datas",
                    "type": "bytes[]"
                }
            ],
            "name": "batchLiquidate",
            "outputs": [],
            "stateMutability": "nonpayable",
            "type": "function"
        },
        {
            "inputs": [
                {
                    "internalType": "bytes32",
                    "name": "_collateralPoolId",
                    "type": "bytes32"
                },
                {
                    "internalType": "address",
                    "name": "_positionAddress",
                    "type": "address"
                },
                {
                    "internalType": "uint256",
                    "name": "_debtShareToBeLiquidated",
                    "type": "uint256"
                },
                {
                    "internalType": "uint256",
                    "name": "_maxDebtShareToBeLiquidated",
                    "type": "uint256"
                },
                {
                    "internalType": "address",
                    "name": "_collateralRecipient",
                    "type": "address"
                },
                {
                    "internalType": "bytes",
                    "name": "_data",
                    "type": "bytes"
                },
                {
                    "internalType": "address",
                    "name": "sender",
                    "type": "address"
                }
            ],
            "name": "liquidateForBatch",
            "outputs": [],
            "stateMutability": "nonpayable",
            "type": "function"
        },
        {
            "inputs": [
                {
                    "internalType": "bytes32",
                    "name": "_collateralPoolId",
                    "type": "bytes32"
                },
                {
                    "internalType": "address",
                    "name": "_positionAddress",
                    "type": "address"
                },
                {
                    "internalType": "uint256",
                    "name": "_debtShareToBeLiquidated",
                    "type": "uint256"
                },
                {
                    "internalType": "uint256",
                    "name": "_maxDebtShareToBeLiquidated",
                    "type": "uint256"
                },
                {
                    "internalType": "address",
                    "name": "_collateralRecipient",
                    "type": "address"
                },
                {
                    "internalType": "bytes",
                    "name": "_data",
                    "type": "bytes"
                }
            ],
            "name": "liquidate",
            "outputs": [],
            "stateMutability": "nonpayable",
            "type": "function"
        },
        {
            "inputs": [
                {
                    "internalType": "address",
                    "name": "_priceOracle",
                    "type": "address"
                }
            ],
            "name": "setPriceOracle",
            "outputs": [],
            "stateMutability": "nonpayable",
            "type": "function"
        },
        {
            "inputs": [
                {
                    "internalType": "address",
                    "name": "_bookKeeper",
                    "type": "address"
                }
            ],
            "name": "setBookKeeper",
            "outputs": [],
            "stateMutability": "nonpayable",
            "type": "function"
        },
        {
            "inputs": [],
            "name": "cage",
            "outputs": [],
            "stateMutability": "nonpayable",
            "type": "function"
        },
        {
            "inputs": [],
            "name": "uncage",
            "outputs": [],
            "stateMutability": "nonpayable",
            "type": "function"
        },
        {
            "inputs": [],
            "name": "pause",
            "outputs": [],
            "stateMutability": "nonpayable",
            "type": "function"
        },
        {
            "inputs": [],
            "name": "unpause",
            "outputs": [],
            "stateMutability": "nonpayable",
            "type": "function"
        }
    ],
    "bytecode": "0x608060405234801561001057600080fd5b506135b8806100206000396000f3fe608060405234801561001057600080fd5b50600436106101165760003560e01c806369a5038a116100a2578063c0c53b8b11610071578063c0c53b8b14610217578063c23fdbc71461022a578063d63b23b21461024a578063e3b3932a14610252578063f9f92be41461026557600080fd5b806369a5038a146101d25780638456cb59146101e5578063957aa58c146101ed5780639b19251a1461020457600080fd5b806328e49a42116100e957806328e49a42146101865780633f4ba83a14610199578063530e784f146101a15780635c975abb146101b457806369245009146101ca57600080fd5b806307d8bd881461011b5780631cc0353c146101305780631ebce593146101435780632630c12f14610156575b600080fd5b61012e610129366004612d07565b610278565b005b61012e61013e366004612d6c565b6104c6565b61012e610151366004612e04565b610537565b609754610169906001600160a01b031681565b6040516001600160a01b0390911681526020015b60405180910390f35b609954610169906001600160a01b031681565b61012e610599565b61012e6101af366004612d07565b6107e4565b60335460ff16604051901515815260200161017d565b61012e610aeb565b61012e6101e0366004612ecd565b610d96565b61012e6111cb565b6101f6609a5481565b60405190815260200161017d565b61012e610212366004612d07565b611413565b61012e61022536600461300a565b6116da565b6101f6610238366004612d07565b609b6020526000908152604090205481565b61012e611a2f565b609854610169906001600160a01b031681565b61012e610273366004612d07565b611d20565b6098546040805163c8cc243f60e01b815290516000926001600160a01b03169163c8cc243f9160048083019260209291908290030181865afa1580156102c2573d6000803e3d6000fd5b505050506040513d601f19601f820116820180604052508101906102e69190613055565b9050806001600160a01b03166391d14854826001600160a01b031663e58378bb6040518163ffffffff1660e01b8152600401602060405180830381865afa158015610335573d6000803e3d6000fd5b505050506040513d601f19601f820116820180604052508101906103599190613072565b6040516001600160e01b031960e084901b1681526004810191909152336024820152604401602060405180830381865afa15801561039b573d6000803e3d6000fd5b505050506040513d601f19601f820116820180604052508101906103bf919061308b565b6103fd5760405162461bcd60e51b815260206004820152600a602482015269216f776e6572526f6c6560b01b60448201526064015b60405180910390fd5b609a5460011461041f5760405162461bcd60e51b81526004016103f4906130ad565b6000826001600160a01b0316636f3a3bfc6040518163ffffffff1660e01b81526004016020604051808303816000875af1158015610461573d6000803e3d6000fd5b505050506040513d601f19601f820116820180604052508101906104859190613072565b10156104a35760405162461bcd60e51b81526004016103f4906130e4565b50609880546001600160a01b0319166001600160a01b0392909216919091179055565b6104ce611f7b565b33301461051d5760405162461bcd60e51b815260206004820181905260248201527f4c69717569646174696f6e456e67696e652f696e76616c69642d73656e64657260448201526064016103f4565b61052d8888888888888888611fc3565b5050505050505050565b61053f61298e565b610547611f7b565b336000908152609b60205260409020546001146105765760405162461bcd60e51b81526004016103f490613128565b6105868787878787878733611fc3565b6105906001606555565b50505050505050565b6098546040805163c8cc243f60e01b815290516000926001600160a01b03169163c8cc243f9160048083019260209291908290030181865afa1580156105e3573d6000803e3d6000fd5b505050506040513d601f19601f820116820180604052508101906106079190613055565b9050806001600160a01b03166391d14854826001600160a01b031663e58378bb6040518163ffffffff1660e01b8152600401602060405180830381865afa158015610656573d6000803e3d6000fd5b505050506040513d601f19601f8201168201806040525081019061067a9190613072565b6040516001600160e01b031960e084901b1681526004810191909152336024820152604401602060405180830381865afa1580156106bc573d6000803e3d6000fd5b505050506040513d601f19601f820116820180604052508101906106e0919061308b565b806107bd5750806001600160a01b03166391d14854826001600160a01b031663b536818a6040518163ffffffff1660e01b8152600401602060405180830381865afa158015610733573d6000803e3d6000fd5b505050506040513d601f19601f820116820180604052508101906107579190613072565b6040516001600160e01b031960e084901b1681526004810191909152336024820152604401602060405180830381865afa158015610799573d6000803e3d6000fd5b505050506040513d601f19601f820116820180604052508101906107bd919061308b565b6107d95760405162461bcd60e51b81526004016103f490613174565b6107e16129ee565b50565b6098546040805163c8cc243f60e01b815290516000926001600160a01b03169163c8cc243f9160048083019260209291908290030181865afa15801561082e573d6000803e3d6000fd5b505050506040513d601f19601f820116820180604052508101906108529190613055565b9050806001600160a01b03166391d14854826001600160a01b031663e58378bb6040518163ffffffff1660e01b8152600401602060405180830381865afa1580156108a1573d6000803e3d6000fd5b505050506040513d601f19601f820116820180604052508101906108c59190613072565b6040516001600160e01b031960e084901b1681526004810191909152336024820152604401602060405180830381865afa158015610907573d6000803e3d6000fd5b505050506040513d601f19601f8201168201806040525081019061092b919061308b565b80610a085750806001600160a01b03166391d14854826001600160a01b031663b536818a6040518163ffffffff1660e01b8152600401602060405180830381865afa15801561097e573d6000803e3d6000fd5b505050506040513d601f19601f820116820180604052508101906109a29190613072565b6040516001600160e01b031960e084901b1681526004810191909152336024820152604401602060405180830381865afa1580156109e4573d6000803e3d6000fd5b505050506040513d601f19601f82011682018060405250810190610a08919061308b565b610a245760405162461bcd60e51b81526004016103f490613174565b609a54600114610a465760405162461bcd60e51b81526004016103f4906130ad565b6000826001600160a01b0316639d1eea786040518163ffffffff1660e01b8152600401602060405180830381865afa158015610a86573d6000803e3d6000fd5b505050506040513d601f19601f82011682018060405250810190610aaa9190613072565b1015610ac85760405162461bcd60e51b81526004016103f4906131ab565b50609780546001600160a01b0319166001600160a01b0392909216919091179055565b6098546040805163c8cc243f60e01b815290516000926001600160a01b03169163c8cc243f9160048083019260209291908290030181865afa158015610b35573d6000803e3d6000fd5b505050506040513d601f19601f82011682018060405250810190610b599190613055565b9050806001600160a01b03166391d14854826001600160a01b031663e58378bb6040518163ffffffff1660e01b8152600401602060405180830381865afa158015610ba8573d6000803e3d6000fd5b505050506040513d601f19601f82011682018060405250810190610bcc9190613072565b6040516001600160e01b031960e084901b1681526004810191909152336024820152604401602060405180830381865afa158015610c0e573d6000803e3d6000fd5b505050506040513d601f19601f82011682018060405250810190610c32919061308b565b80610d0f5750806001600160a01b03166391d14854826001600160a01b031663d7a47a696040518163ffffffff1660e01b8152600401602060405180830381865afa158015610c85573d6000803e3d6000fd5b505050506040513d601f19601f82011682018060405250810190610ca99190613072565b6040516001600160e01b031960e084901b1681526004810191909152336024820152604401602060405180830381865afa158015610ceb573d6000803e3d6000fd5b505050506040513d601f19601f82011682018060405250810190610d0f919061308b565b610d5b5760405162461bcd60e51b815260206004820152601f60248201527f21286f776e6572526f6c65206f722073686f7753746f70706572526f6c65290060448201526064016103f4565b609a546001036107e1576000609a8190556040517fbf689b4aae670d200b1d2b971ace2e0c3bef88a9c5e93f36705c7b86eab630b99190a150565b610d9e61298e565b336000908152609b6020526040902054600114610dcd5760405162461bcd60e51b81526004016103f490613128565b8a89148015610ddb57508a87145b8015610de657508a85145b8015610df157508a83145b8015610dfc57508a81145b610e635760405162461bcd60e51b815260206004820152603260248201527f4c69717569646174696f6e456e67696e652f62617463684c69717569646174656044820152712d696e76616c69642d617267756d656e747360701b60648201526084016103f4565b60005b8b8110156111b25730631cc0353c8e8e84818110610e8657610e866131f0565b905060200201358d8d85818110610e9f57610e9f6131f0565b9050602002016020810190610eb49190612d07565b8c8c86818110610ec657610ec66131f0565b905060200201358b8b87818110610edf57610edf6131f0565b905060200201358a8a88818110610ef857610ef86131f0565b9050602002016020810190610f0d9190612d07565b898989818110610f1f57610f1f6131f0565b9050602002810190610f319190613206565b336040518963ffffffff1660e01b8152600401610f55989796959493929190613275565b600060405180830381600087803b158015610f6f57600080fd5b505af1925050508015610f80575060015b6111a057610f8c6132ca565b806308c379a00361102c5750610fa0613320565b80610fab57506110f1565b7f3124ec396126035055c8fd11bb0fec0ecf617636253ea71590eb014448176d208e8e84818110610fde57610fde6131f0565b905060200201358d8d85818110610ff757610ff76131f0565b905060200201602081019061100c9190612d07565b338460405161101e94939291906133a9565b60405180910390a1506111a0565b634e487b71036110f15761103e613419565b9061104957506110f1565b7f3124ec396126035055c8fd11bb0fec0ecf617636253ea71590eb014448176d208e8e8481811061107c5761107c6131f0565b905060200201358d8d85818110611095576110956131f0565b90506020020160208101906110aa9190612d07565b604080519283526001600160a01b0390911660208301523390820152608060608201819052600b908201526a3830b734b19032b93937b960a91b60a082015260c00161101e565b3d80801561111b576040519150601f19603f3d011682016040523d82523d6000602084013e611120565b606091505b50807f3124ec396126035055c8fd11bb0fec0ecf617636253ea71590eb014448176d208f8f85818110611155576111556131f0565b905060200201358e8e8681811061116e5761116e6131f0565b90506020020160208101906111839190612d07565b338460405161119594939291906133a9565b60405180910390a150505b806111aa8161344f565b915050610e66565b506111bd6001606555565b505050505050505050505050565b6098546040805163c8cc243f60e01b815290516000926001600160a01b03169163c8cc243f9160048083019260209291908290030181865afa158015611215573d6000803e3d6000fd5b505050506040513d601f19601f820116820180604052508101906112399190613055565b9050806001600160a01b03166391d14854826001600160a01b031663e58378bb6040518163ffffffff1660e01b8152600401602060405180830381865afa158015611288573d6000803e3d6000fd5b505050506040513d601f19601f820116820180604052508101906112ac9190613072565b6040516001600160e01b031960e084901b1681526004810191909152336024820152604401602060405180830381865afa1580156112ee573d6000803e3d6000fd5b505050506040513d601f19601f82011682018060405250810190611312919061308b565b806113ef5750806001600160a01b03166391d14854826001600160a01b031663b536818a6040518163ffffffff1660e01b8152600401602060405180830381865afa158015611365573d6000803e3d6000fd5b505050506040513d601f19601f820116820180604052508101906113899190613072565b6040516001600160e01b031960e084901b1681526004810191909152336024820152604401602060405180830381865afa1580156113cb573d6000803e3d6000fd5b505050506040513d601f19601f820116820180604052508101906113ef919061308b565b61140b5760405162461bcd60e51b81526004016103f490613174565b6107e1612a40565b6098546040805163c8cc243f60e01b815290516000926001600160a01b03169163c8cc243f9160048083019260209291908290030181865afa15801561145d573d6000803e3d6000fd5b505050506040513d601f19601f820116820180604052508101906114819190613055565b9050806001600160a01b03166391d14854826001600160a01b031663e58378bb6040518163ffffffff1660e01b8152600401602060405180830381865afa1580156114d0573d6000803e3d6000fd5b505050506040513d601f19601f820116820180604052508101906114f49190613072565b6040516001600160e01b031960e084901b1681526004810191909152336024820152604401602060405180830381865afa158015611536573d6000803e3d6000fd5b505050506040513d601f19601f8201168201806040525081019061155a919061308b565b806116375750806001600160a01b03166391d14854826001600160a01b031663b536818a6040518163ffffffff1660e01b8152600401602060405180830381865afa1580156115ad573d6000803e3d6000fd5b505050506040513d601f19601f820116820180604052508101906115d19190613072565b6040516001600160e01b031960e084901b1681526004810191909152336024820152604401602060405180830381865afa158015611613573d6000803e3d6000fd5b505050506040513d601f19601f82011682018060405250810190611637919061308b565b6116535760405162461bcd60e51b81526004016103f490613174565b6001600160a01b0382166116bc5760405162461bcd60e51b815260206004820152602a60248201527f4c69717569646174696f6e456e67696e652f77686974656c6973742d696e76616044820152696c69644164647265737360b01b60648201526084016103f4565b506001600160a01b03166000908152609b6020526040902060019055565b600054610100900460ff16158080156116fa5750600054600160ff909116105b806117145750303b158015611714575060005460ff166001145b6117775760405162461bcd60e51b815260206004820152602e60248201527f496e697469616c697a61626c653a20636f6e747261637420697320616c72656160448201526d191e481a5b9a5d1a585b1a5e995960921b60648201526084016103f4565b6000805460ff19166001179055801561179a576000805461ff0019166101001790555b6117a2612a7d565b6117aa612aac565b6000846001600160a01b0316636f3a3bfc6040518163ffffffff1660e01b81526004016020604051808303816000875af11580156117ec573d6000803e3d6000fd5b505050506040513d601f19601f820116820180604052508101906118109190613072565b101561182e5760405162461bcd60e51b81526004016103f4906130e4565b83609860006101000a8154816001600160a01b0302191690836001600160a01b031602179055506000836001600160a01b0316632a608d5b6040518163ffffffff1660e01b8152600401602060405180830381865afa158015611895573d6000803e3d6000fd5b505050506040513d601f19601f820116820180604052508101906118b99190613072565b101561191a5760405162461bcd60e51b815260206004820152602a60248201527f4c69717569646174696f6e456e67696e652f696e76616c69642d73797374656d60448201526944656274456e67696e6560b01b60648201526084016103f4565b82609960006101000a8154816001600160a01b0302191690836001600160a01b031602179055506000826001600160a01b0316639d1eea786040518163ffffffff1660e01b8152600401602060405180830381865afa158015611981573d6000803e3d6000fd5b505050506040513d601f19601f820116820180604052508101906119a59190613072565b10156119c35760405162461bcd60e51b81526004016103f4906131ab565b609780546001600160a01b0319166001600160a01b0384161790556001609a558015611a29576000805461ff0019169055604051600181527f7f26b83ff96e1f2b6a682f133852f6798a09c465da95921460cefb38474024989060200160405180910390a15b50505050565b6098546040805163c8cc243f60e01b815290516000926001600160a01b03169163c8cc243f9160048083019260209291908290030181865afa158015611a79573d6000803e3d6000fd5b505050506040513d601f19601f82011682018060405250810190611a9d9190613055565b9050806001600160a01b03166391d14854826001600160a01b031663e58378bb6040518163ffffffff1660e01b8152600401602060405180830381865afa158015611aec573d6000803e3d6000fd5b505050506040513d601f19601f82011682018060405250810190611b109190613072565b6040516001600160e01b031960e084901b1681526004810191909152336024820152604401602060405180830381865afa158015611b52573d6000803e3d6000fd5b505050506040513d601f19601f82011682018060405250810190611b76919061308b565b80611c535750806001600160a01b03166391d14854826001600160a01b031663d7a47a696040518163ffffffff1660e01b8152600401602060405180830381865afa158015611bc9573d6000803e3d6000fd5b505050506040513d601f19601f82011682018060405250810190611bed9190613072565b6040516001600160e01b031960e084901b1681526004810191909152336024820152604401602060405180830381865afa158015611c2f573d6000803e3d6000fd5b505050506040513d601f19601f82011682018060405250810190611c53919061308b565b611c9f5760405162461bcd60e51b815260206004820152601f60248201527f21286f776e6572526f6c65206f722073686f7753746f70706572526f6c65290060448201526064016103f4565b609a5415611cef5760405162461bcd60e51b815260206004820152601b60248201527f4c69717569646174696f6e456e67696e652f6e6f742d6361676564000000000060448201526064016103f4565b6001609a556040517f1868a6ced217213f36be87ba9aee25cde5381b42e85c8f88e73b18772c0bd07390600090a150565b6098546040805163c8cc243f60e01b815290516000926001600160a01b03169163c8cc243f9160048083019260209291908290030181865afa158015611d6a573d6000803e3d6000fd5b505050506040513d601f19601f82011682018060405250810190611d8e9190613055565b9050806001600160a01b03166391d14854826001600160a01b031663e58378bb6040518163ffffffff1660e01b8152600401602060405180830381865afa158015611ddd573d6000803e3d6000fd5b505050506040513d601f19601f82011682018060405250810190611e019190613072565b6040516001600160e01b031960e084901b1681526004810191909152336024820152604401602060405180830381865afa158015611e43573d6000803e3d6000fd5b505050506040513d601f19601f82011682018060405250810190611e67919061308b565b80611f445750806001600160a01b03166391d14854826001600160a01b031663b536818a6040518163ffffffff1660e01b8152600401602060405180830381865afa158015611eba573d6000803e3d6000fd5b505050506040513d601f19601f82011682018060405250810190611ede9190613072565b6040516001600160e01b031960e084901b1681526004810191909152336024820152604401602060405180830381865afa158015611f20573d6000803e3d6000fd5b505050506040513d601f19601f82011682018060405250810190611f44919061308b565b611f605760405162461bcd60e51b81526004016103f490613174565b506001600160a01b03166000908152609b6020526040812055565b60335460ff1615611fc15760405162461bcd60e51b815260206004820152601060248201526f14185d5cd8589b194e881c185d5cd95960821b60448201526064016103f4565b565b609a54600114611fe55760405162461bcd60e51b81526004016103f4906130ad565b856000036120505760405162461bcd60e51b815260206004820152603260248201527f4c69717569646174696f6e456e67696e652f7a65726f2d646562742d76616c75604482015271194b5d1bcb58994b5b1a5c5d5a59185d195960721b60648201526084016103f4565b846000036120bf5760405162461bcd60e51b815260206004820152603660248201527f4c69717569646174696f6e456e67696e652f7a65726f2d6d61782d646562742d6044820152751d985b1d594b5d1bcb58994b5b1a5c5d5a59185d195960521b60648201526084016103f4565b6120c888612adb565b6121235760405162461bcd60e51b815260206004820152602660248201527f4c69717569646174696f6e456e67696e652f70726963652d69732d6e6f742d6860448201526565616c74687960d01b60648201526084016103f4565b61215c6040518060c001604052806000815260200160008152602001600081526020016000815260200160008152602001600081525090565b609854604051630a76216560e21b8152600481018b90526001600160a01b038a81166024830152909116906329d88594906044016040805180830381865afa1580156121ac573d6000803e3d6000fd5b505050506040513d601f19601f820116820180604052508101906121d09190613468565b60208381019190915290825260408051606081018252600080825281840181905281830152609854825163d868246160e01b8152925191936001600160a01b039091169263d868246192600480830193928290030181865afa15801561223a573d6000803e3d6000fd5b505050506040513d601f19601f8201168201806040525081019061225e9190613055565b6001600160a01b03166328c84bbd8b6040518263ffffffff1660e01b815260040161228b91815260200190565b602060405180830381865afa1580156122a8573d6000803e3d6000fd5b505050506040513d601f19601f820116820180604052508101906122cc9190613055565b6001600160a01b0390811682526098546040805163d868246160e01b81529051919092169163d86824619160048083019260209291908290030181865afa15801561231b573d6000803e3d6000fd5b505050506040513d601f19601f8201168201806040525081019061233f9190613055565b6001600160a01b0316638c492d078b6040518263ffffffff1660e01b815260040161236c91815260200190565b602060405180830381865afa158015612389573d6000803e3d6000fd5b505050506040513d601f19601f820116820180604052508101906123ad9190613072565b6020808301919091526098546040805163d868246160e01b815290516001600160a01b039092169263d8682461926004808401938290030181865afa1580156123fa573d6000803e3d6000fd5b505050506040513d601f19601f8201168201806040525081019061241e9190613055565b6001600160a01b031663a09b0fe08b6040518263ffffffff1660e01b815260040161244b91815260200190565b602060405180830381865afa158015612468573d6000803e3d6000fd5b505050506040513d601f19601f8201168201806040525081019061248c9190613072565b604082015280516001600160a01b0381166124f45760405162461bcd60e51b815260206004820152602260248201527f4c69717569646174696f6e456e67696e652f6e6f742d7365742d737472617465604482015261677960f01b60648201526084016103f4565b6000826020015111801561252857506040820151602084015161251691612c2e565b6020830151845161252691612c2e565b105b61257f5760405162461bcd60e51b815260206004820152602260248201527f4c69717569646174696f6e456e67696e652f706f736974696f6e2d69732d7361604482015261666560f01b60648201526084016103f4565b60985460995460405163b4ac08bb60e01b81526001600160a01b03918216600482015291169063b4ac08bb90602401602060405180830381865afa1580156125cb573d6000803e3d6000fd5b505050506040513d601f19601f820116820180604052508101906125ef9190613072565b836040018181525050806001600160a01b03166316d8d2918c856020015186600001518e8e8e8b8f8f8f6040518b63ffffffff1660e01b815260040161263e9a9998979695949392919061348c565b600060405180830381600087803b15801561265857600080fd5b505af115801561266c573d6000803e3d6000fd5b5050609854604051630a76216560e21b8152600481018f90526001600160a01b038e8116602483015290911692506329d8859491506044016040805180830381865afa1580156126c0573d6000803e3d6000fd5b505050506040513d601f19601f820116820180604052508101906126e49190613468565b6080850181905260608501919091526020840151116127535760405162461bcd60e51b815260206004820152602560248201527f4c69717569646174696f6e456e67696e652f646562742d6e6f742d6c6971756960448201526419185d195960da1b60648201526084016103f4565b61277c826040015161277685608001518660200151612c4390919063ffffffff16565b90612c2e565b60a08401819052604080850151609854609954925163b4ac08bb60e01b81526001600160a01b039384166004820152612803939091169063b4ac08bb90602401602060405180830381865afa1580156127d9573d6000803e3d6000fd5b505050506040513d601f19601f820116820180604052508101906127fd9190613072565b90612c43565b10156128605760405162461bcd60e51b815260206004820152602660248201527f4c69717569646174696f6e456e67696e652f7061796d656e742d6e6f742d726560448201526518d95a5d995960d21b60648201526084016103f4565b6060830151158015612876575060008360800151115b1561298157600160ff1b8360800151106128d25760405162461bcd60e51b815260206004820152601a60248201527f4c69717569646174696f6e456e67696e652f6f766572666c6f7700000000000060448201526064016103f4565b60985460995460808501516001600160a01b039283169263b1df2594928f928f9283921690600090612903906134f1565b6040516001600160e01b031960e089901b16815260048101969096526001600160a01b039485166024870152928416604486015292166064840152608483019190915260a482015260c401600060405180830381600087803b15801561296857600080fd5b505af115801561297c573d6000803e3d6000fd5b505050505b5050505050505050505050565b6002606554036129e05760405162461bcd60e51b815260206004820152601f60248201527f5265656e7472616e637947756172643a207265656e7472616e742063616c6c0060448201526064016103f4565b6002606555565b6001606555565b6129f6612c4f565b6033805460ff191690557f5db9ee0a495bf2e6ff9c91a7834c1ba4fdd244a5e8aa4e537bd38aeae4b073aa335b6040516001600160a01b03909116815260200160405180910390a1565b612a48611f7b565b6033805460ff191660011790557f62e78cea01bee320cd4e420270b5ea74000d11b0c9f74754ebdbfc544b05a258612a233390565b600054610100900460ff16612aa45760405162461bcd60e51b81526004016103f49061350d565b611fc1612c98565b600054610100900460ff16612ad35760405162461bcd60e51b81526004016103f49061350d565b611fc1612ccb565b600080609860009054906101000a90046001600160a01b03166001600160a01b031663d86824616040518163ffffffff1660e01b8152600401602060405180830381865afa158015612b31573d6000803e3d6000fd5b505050506040513d601f19601f82011682018060405250810190612b559190613055565b6001600160a01b0316638c0adf62846040518263ffffffff1660e01b8152600401612b8291815260200190565b602060405180830381865afa158015612b9f573d6000803e3d6000fd5b505050506040513d601f19601f82011682018060405250810190612bc39190613055565b9050806001600160a01b0316630184a92a6040518163ffffffff1660e01b8152600401602060405180830381865afa158015612c03573d6000803e3d6000fd5b505050506040513d601f19601f82011682018060405250810190612c27919061308b565b9392505050565b6000612c3a8284613558565b90505b92915050565b6000612c3a828461356f565b60335460ff16611fc15760405162461bcd60e51b815260206004820152601460248201527314185d5cd8589b194e881b9bdd081c185d5cd95960621b60448201526064016103f4565b600054610100900460ff16612cbf5760405162461bcd60e51b81526004016103f49061350d565b6033805460ff19169055565b600054610100900460ff166129e75760405162461bcd60e51b81526004016103f49061350d565b6001600160a01b03811681146107e157600080fd5b600060208284031215612d1957600080fd5b8135612c2781612cf2565b60008083601f840112612d3657600080fd5b5081356001600160401b03811115612d4d57600080fd5b602083019150836020828501011115612d6557600080fd5b9250929050565b60008060008060008060008060e0898b031215612d8857600080fd5b883597506020890135612d9a81612cf2565b965060408901359550606089013594506080890135612db881612cf2565b935060a08901356001600160401b03811115612dd357600080fd5b612ddf8b828c01612d24565b90945092505060c0890135612df381612cf2565b809150509295985092959890939650565b600080600080600080600060c0888a031215612e1f57600080fd5b873596506020880135612e3181612cf2565b955060408801359450606088013593506080880135612e4f81612cf2565b925060a08801356001600160401b03811115612e6a57600080fd5b612e768a828b01612d24565b989b979a50959850939692959293505050565b60008083601f840112612e9b57600080fd5b5081356001600160401b03811115612eb257600080fd5b6020830191508360208260051b8501011115612d6557600080fd5b60008060008060008060008060008060008060c08d8f031215612eef57600080fd5b6001600160401b038d351115612f0457600080fd5b612f118e8e358f01612e89565b909c509a506001600160401b0360208e01351115612f2e57600080fd5b612f3e8e60208f01358f01612e89565b909a5098506001600160401b0360408e01351115612f5b57600080fd5b612f6b8e60408f01358f01612e89565b90985096506001600160401b0360608e01351115612f8857600080fd5b612f988e60608f01358f01612e89565b90965094506001600160401b0360808e01351115612fb557600080fd5b612fc58e60808f01358f01612e89565b90945092506001600160401b0360a08e01351115612fe257600080fd5b612ff28e60a08f01358f01612e89565b81935080925050509295989b509295989b509295989b565b60008060006060848603121561301f57600080fd5b833561302a81612cf2565b9250602084013561303a81612cf2565b9150604084013561304a81612cf2565b809150509250925092565b60006020828403121561306757600080fd5b8151612c2781612cf2565b60006020828403121561308457600080fd5b5051919050565b60006020828403121561309d57600080fd5b81518015158114612c2757600080fd5b6020808252601a908201527f4c69717569646174696f6e456e67696e652f6e6f742d6c697665000000000000604082015260600190565b60208082526024908201527f4c69717569646174696f6e456e67696e652f696e76616c69642d626f6f6b4b6560408201526332b832b960e11b606082015260800190565b6020808252602c908201527f4c69717569646174696f6e456e67696e652f6c697175696461746f722d6e6f7460408201526b0b5dda1a5d195b1a5cdd195960a21b606082015260800190565b60208082526017908201527f21286f776e6572526f6c65206f7220676f76526f6c6529000000000000000000604082015260600190565b60208082526025908201527f4c69717569646174696f6e456e67696e652f696e76616c69642d70726963654f6040820152647261636c6560d81b606082015260800190565b634e487b7160e01b600052603260045260246000fd5b6000808335601e1984360301811261321d57600080fd5b8301803591506001600160401b0382111561323757600080fd5b602001915036819003821315612d6557600080fd5b81835281816020850137506000828201602090810191909152601f909101601f19169091010190565b888152600060018060a01b03808a166020840152886040840152876060840152808716608084015260e060a08401526132b260e08401868861324c565b915080841660c0840152509998505050505050505050565b600060033d11156132e35760046000803e5060005160e01c5b90565b601f8201601f191681016001600160401b038111828210171561331957634e487b7160e01b600052604160045260246000fd5b6040525050565b600060443d101561332e5790565b6040516003193d81016004833e81513d6001600160401b03816024840111818411171561335d57505050505090565b82850191508151818111156133755750505050505090565b843d870101602082850101111561338f5750505050505090565b61339e602082860101876132e6565b509095945050505050565b8481526000602060018060a01b038087168285015280861660408501525060806060840152835180608085015260005b818110156133f55785810183015185820160a0015282016133d9565b50600060a0828601015260a0601f19601f8301168501019250505095945050505050565b60008060233d1115613435576020600460003e50506000516001905b9091565b634e487b7160e01b600052601160045260246000fd5b60006001820161346157613461613439565b5060010190565b6000806040838503121561347b57600080fd5b505080516020909101519092909150565b60006101208c83528b60208401528a604084015260018060a01b03808b1660608501528960808501528860a085015280881660c085015280871660e085015250806101008401526134e0818401858761324c565b9d9c50505050505050505050505050565b6000600160ff1b820161350657613506613439565b5060000390565b6020808252602b908201527f496e697469616c697a61626c653a20636f6e7472616374206973206e6f74206960408201526a6e697469616c697a696e6760a81b606082015260800190565b8082028115828204841417612c3d57612c3d613439565b81810381811115612c3d57612c3d61343956fea2646970667358221220a114c066a99d4eb1f87b2003fc157a2810e9ca009cca2fff565fa6b29798665164736f6c63430008110033",
    "immutableReferences": {},
    "source": "// SPDX-License-Identifier: AGPL-3.0-or-later\n\npragma solidity 0.8.17;\npragma experimental ABIEncoderV2;\n\nimport \"@openzeppelin/contracts-upgradeable/security/PausableUpgradeable.sol\";\nimport \"@openzeppelin/contracts-upgradeable/access/AccessControlUpgradeable.sol\";\nimport \"@openzeppelin/contracts-upgradeable/security/ReentrancyGuardUpgradeable.sol\";\nimport \"@openzeppelin/contracts-upgradeable/utils/math/SafeMathUpgradeable.sol\";\n\nimport \"../interfaces/IBookKeeper.sol\";\nimport \"../interfaces/ISystemDebtEngine.sol\";\nimport \"../interfaces/ILiquidationEngine.sol\";\nimport \"../interfaces/ILiquidationStrategy.sol\";\nimport \"../interfaces/ICagable.sol\";\nimport \"../interfaces/ISetPrice.sol\";\nimport \"../interfaces/IPriceOracle.sol\";\nimport \"../interfaces/IPausable.sol\";\n\n/// @title LiquidationEngine\n/** @notice A contract which is the manager for all of the liquidations of the protocol.\n    LiquidationEngine will be the interface for the liquidator to trigger any positions into the liquidation process.\n*/\n\ncontract LiquidationEngine is PausableUpgradeable, ReentrancyGuardUpgradeable, ICagable, ILiquidationEngine, IPausable {\n    using SafeMathUpgradeable for uint256;\n\n    struct LocalVars {\n        uint256 positionLockedCollateral;\n        uint256 positionDebtShare;\n        uint256 systemDebtEngineStablecoinBefore;\n        uint256 newPositionLockedCollateral;\n        uint256 newPositionDebtShare;\n        uint256 wantStablecoinValueFromLiquidation;\n    }\n\n    struct CollateralPoolLocalVars {\n        address strategy;\n        uint256 priceWithSafetyMargin; // [ray]\n        uint256 debtAccumulatedRate; // [ray]\n    }\n\n    // --- Math ---\n    uint256 internal constant WAD = 10 ** 18;\n\n    address public priceOracle;\n\n    IBookKeeper public bookKeeper; // CDP Engine\n    ISystemDebtEngine public systemDebtEngine; // Debt Engine\n    uint256 public override live; // Active Flag\n    mapping(address => uint256) public liquidatorsWhitelist;\n\n    event LiquidationFail(bytes32 _collateralPoolIds, address _positionAddresses, address _liquidator, string reason);\n\n    modifier onlyOwnerOrShowStopper() {\n        IAccessControlConfig _accessControlConfig = IAccessControlConfig(IBookKeeper(bookKeeper).accessControlConfig());\n        require(\n            _accessControlConfig.hasRole(_accessControlConfig.OWNER_ROLE(), msg.sender) ||\n                _accessControlConfig.hasRole(_accessControlConfig.SHOW_STOPPER_ROLE(), msg.sender),\n            \"!(ownerRole or showStopperRole)\"\n        );\n        _;\n    }\n\n    modifier onlyOwnerOrGov() {\n        IAccessControlConfig _accessControlConfig = IAccessControlConfig(IBookKeeper(bookKeeper).accessControlConfig());\n        require(\n            _accessControlConfig.hasRole(_accessControlConfig.OWNER_ROLE(), msg.sender) ||\n                _accessControlConfig.hasRole(_accessControlConfig.GOV_ROLE(), msg.sender),\n            \"!(ownerRole or govRole)\"\n        );\n        _;\n    }\n\n    modifier onlyOwner() {\n        IAccessControlConfig _accessControlConfig = IAccessControlConfig(IBookKeeper(bookKeeper).accessControlConfig());\n        require(_accessControlConfig.hasRole(_accessControlConfig.OWNER_ROLE(), msg.sender), \"!ownerRole\");\n        _;\n    }\n\n    modifier onlyWhitelisted() {\n        require(liquidatorsWhitelist[msg.sender] == 1, \"LiquidationEngine/liquidator-not-whitelisted\");\n        _;\n    }\n\n    modifier isLive() {\n        require(live == 1, \"LiquidationEngine/not-live\");\n        _;\n    }\n\n    // --- Init ---\n    function initialize(address _bookKeeper, address _systemDebtEngine, address _priceOracle) external initializer {\n        PausableUpgradeable.__Pausable_init();\n        ReentrancyGuardUpgradeable.__ReentrancyGuard_init();\n        require(IBookKeeper(_bookKeeper).totalStablecoinIssued() >= 0, \"LiquidationEngine/invalid-bookKeeper\"); // Sanity Check Call\n        bookKeeper = IBookKeeper(_bookKeeper);\n        require(ISystemDebtEngine(_systemDebtEngine).surplusBuffer() >= 0, \"LiquidationEngine/invalid-systemDebtEngine\"); // Sanity Check Call\n        systemDebtEngine = ISystemDebtEngine(_systemDebtEngine);\n        require(IPriceOracle(_priceOracle).stableCoinReferencePrice() >= 0, \"LiquidationEngine/invalid-priceOracle\"); // Sanity Check Call\n        priceOracle = _priceOracle;\n\n        live = 1;\n    }\n\n    function whitelist(address toBeWhitelisted) external onlyOwnerOrGov {\n        require(toBeWhitelisted != address(0), \"LiquidationEngine/whitelist-invalidAddress\");\n        liquidatorsWhitelist[toBeWhitelisted] = 1;\n    }\n\n    function blacklist(address toBeRemoved) external onlyOwnerOrGov {\n        liquidatorsWhitelist[toBeRemoved] = 0;\n    }\n\n    function batchLiquidate(\n        bytes32[] calldata _collateralPoolIds,\n        address[] calldata _positionAddresses,\n        uint256[] calldata _debtShareToBeLiquidateds, // [rad]\n        uint256[] calldata _maxDebtShareToBeLiquidateds, // [rad]\n        address[] calldata _collateralRecipients,\n        bytes[] calldata datas\n    ) external override nonReentrant onlyWhitelisted {\n        require(\n            _collateralPoolIds.length == _positionAddresses.length &&\n                _collateralPoolIds.length == _debtShareToBeLiquidateds.length &&\n                _collateralPoolIds.length == _maxDebtShareToBeLiquidateds.length &&\n                _collateralPoolIds.length == _collateralRecipients.length &&\n                _collateralPoolIds.length == datas.length,\n            \"LiquidationEngine/batchLiquidate-invalid-arguments\"\n        );\n\n        for (uint i = 0; i < _collateralPoolIds.length; i++) {\n            try\n                this.liquidateForBatch(\n                    _collateralPoolIds[i],\n                    _positionAddresses[i],\n                    _debtShareToBeLiquidateds[i],\n                    _maxDebtShareToBeLiquidateds[i],\n                    _collateralRecipients[i],\n                    datas[i],\n                    msg.sender\n                )\n            {} catch Error(string memory reason) {\n                emit LiquidationFail(_collateralPoolIds[i], _positionAddresses[i], msg.sender, reason);\n                continue;\n            } catch Panic(uint) {\n                emit LiquidationFail(_collateralPoolIds[i], _positionAddresses[i], msg.sender, \"panic error\");\n                continue;\n            } catch (bytes memory lowLevelData) {\n                string memory errorData = string(lowLevelData);\n                emit LiquidationFail(_collateralPoolIds[i], _positionAddresses[i], msg.sender, errorData);\n                continue;\n            }\n        }\n    }\n\n    //This function is overload implementation of liquidate() and will only be called from LiquidationEngine contract to support batch liquidation,\n    function liquidateForBatch(\n        bytes32 _collateralPoolId,\n        address _positionAddress,\n        uint256 _debtShareToBeLiquidated, // [rad]\n        uint256 _maxDebtShareToBeLiquidated, // [wad]\n        address _collateralRecipient,\n        bytes calldata _data,\n        address sender\n    ) external override whenNotPaused {\n        require(msg.sender == address(this), \"LiquidationEngine/invalid-sender\");\n        _liquidate(_collateralPoolId, _positionAddress, _debtShareToBeLiquidated, _maxDebtShareToBeLiquidated, _collateralRecipient, _data, sender);\n    }\n\n    function liquidate(\n        bytes32 _collateralPoolId,\n        address _positionAddress,\n        uint256 _debtShareToBeLiquidated, // [rad]\n        uint256 _maxDebtShareToBeLiquidated, // [wad]\n        address _collateralRecipient,\n        bytes calldata _data\n    ) external override nonReentrant whenNotPaused onlyWhitelisted {\n        _liquidate(\n            _collateralPoolId,\n            _positionAddress,\n            _debtShareToBeLiquidated,\n            _maxDebtShareToBeLiquidated,\n            _collateralRecipient,\n            _data,\n            msg.sender\n        );\n    }\n\n    function setPriceOracle(address _priceOracle) external onlyOwnerOrGov isLive {\n        require(IPriceOracle(_priceOracle).stableCoinReferencePrice() >= 0, \"LiquidationEngine/invalid-priceOracle\"); // Sanity Check Call\n        priceOracle = _priceOracle;\n    }\n\n    function setBookKeeper(address _bookKeeper) external onlyOwner isLive {\n        require(IBookKeeper(_bookKeeper).totalStablecoinIssued() >= 0, \"LiquidationEngine/invalid-bookKeeper\"); // Sanity Check Call\n        bookKeeper = IBookKeeper(_bookKeeper);\n    }\n\n    /// @dev access: OWNER_ROLE, SHOW_STOPPER_ROLE\n    function cage() external override onlyOwnerOrShowStopper {\n        if (live == 1) {\n            live = 0;\n            emit LogCage();\n        }\n    }\n\n    /// @dev access: OWNER_ROLE, SHOW_STOPPER_ROLE\n    function uncage() external override onlyOwnerOrShowStopper {\n        require(live == 0, \"LiquidationEngine/not-caged\");\n        live = 1;\n        emit LogUncage();\n    }\n\n    // --- pause ---\n    /// @dev access: OWNER_ROLE, GOV_ROLE\n    function pause() external override onlyOwnerOrGov {\n        _pause();\n    }\n\n    /// @dev access: OWNER_ROLE, GOV_ROLE\n    function unpause() external override onlyOwnerOrGov {\n        _unpause();\n    }\n\n    // solhint-disable function-max-lines\n    function _liquidate(\n        bytes32 _collateralPoolId,\n        address _positionAddress,\n        uint256 _debtShareToBeLiquidated, // [rad]\n        uint256 _maxDebtShareToBeLiquidated, // [wad]\n        address _collateralRecipient,\n        bytes calldata _data,\n        address sender\n    ) internal isLive {\n        require(_debtShareToBeLiquidated != 0, \"LiquidationEngine/zero-debt-value-to-be-liquidated\");\n        require(_maxDebtShareToBeLiquidated != 0, \"LiquidationEngine/zero-max-debt-value-to-be-liquidated\");\n        require(_isPriceOk(_collateralPoolId), \"LiquidationEngine/price-is-not-healthy\");\n\n        LocalVars memory _vars;\n\n        (_vars.positionLockedCollateral, _vars.positionDebtShare) = bookKeeper.positions(_collateralPoolId, _positionAddress);\n        // 1. Check if the position is underwater\n        CollateralPoolLocalVars memory _collateralPoolLocalVars;\n        _collateralPoolLocalVars.strategy = ICollateralPoolConfig(bookKeeper.collateralPoolConfig()).getStrategy(_collateralPoolId);\n        _collateralPoolLocalVars.priceWithSafetyMargin = ICollateralPoolConfig(bookKeeper.collateralPoolConfig()).getPriceWithSafetyMargin(\n            _collateralPoolId\n        ); // [ray]\n        _collateralPoolLocalVars.debtAccumulatedRate = ICollateralPoolConfig(bookKeeper.collateralPoolConfig()).getDebtAccumulatedRate(\n            _collateralPoolId\n        ); // [ray]\n\n        ILiquidationStrategy _strategy = ILiquidationStrategy(_collateralPoolLocalVars.strategy);\n        require(address(_strategy) != address(0), \"LiquidationEngine/not-set-strategy\");\n\n        // (positionLockedCollateral [wad] * priceWithSafetyMargin [ray]) [rad]\n        // (positionDebtShare [wad] * debtAccumulatedRate [ray]) [rad]\n        require(\n            _collateralPoolLocalVars.priceWithSafetyMargin > 0 &&\n                _vars.positionLockedCollateral.mul(_collateralPoolLocalVars.priceWithSafetyMargin) <\n                _vars.positionDebtShare.mul(_collateralPoolLocalVars.debtAccumulatedRate),\n            \"LiquidationEngine/position-is-safe\"\n        );\n\n        _vars.systemDebtEngineStablecoinBefore = bookKeeper.stablecoin(address(systemDebtEngine));\n\n        _strategy.execute(\n            _collateralPoolId,\n            _vars.positionDebtShare,\n            _vars.positionLockedCollateral,\n            _positionAddress,\n            _debtShareToBeLiquidated,\n            _maxDebtShareToBeLiquidated,\n            sender,\n            _collateralRecipient,\n            _data\n        );\n\n        (_vars.newPositionLockedCollateral, _vars.newPositionDebtShare) = bookKeeper.positions(_collateralPoolId, _positionAddress);\n        require(_vars.newPositionDebtShare < _vars.positionDebtShare, \"LiquidationEngine/debt-not-liquidated\");\n\n        // (positionDebtShare [wad] - newPositionDebtShare [wad]) * debtAccumulatedRate [ray]\n\n        _vars.wantStablecoinValueFromLiquidation = _vars.positionDebtShare.sub(_vars.newPositionDebtShare).mul(\n            _collateralPoolLocalVars.debtAccumulatedRate\n        ); // [rad]\n        require(\n            bookKeeper.stablecoin(address(systemDebtEngine)).sub(_vars.systemDebtEngineStablecoinBefore) >= _vars.wantStablecoinValueFromLiquidation,\n            \"LiquidationEngine/payment-not-received\"\n        );\n\n        // If collateral has been depleted from liquidation whilst there is remaining debt in the position\n        if (_vars.newPositionLockedCollateral == 0 && _vars.newPositionDebtShare > 0) {\n            // Overflow check\n            require(_vars.newPositionDebtShare < 2 ** 255, \"LiquidationEngine/overflow\");\n            // Record the bad debt to the system and close the position\n            bookKeeper.confiscatePosition(\n                _collateralPoolId,\n                _positionAddress,\n                _positionAddress,\n                address(systemDebtEngine),\n                0,\n                -int256(_vars.newPositionDebtShare)\n            );\n        }\n    }\n\n    // solhint-enable function-max-lines\n\n    function _isPriceOk(bytes32 _collateralPoolId) internal view returns (bool) {\n        IPriceFeed _priceFeed = IPriceFeed(ICollateralPoolConfig(IBookKeeper(bookKeeper).collateralPoolConfig()).getPriceFeed(_collateralPoolId));\n        return _priceFeed.isPriceOk();\n    }\n}\n",
    "sourcePath": "/Users/antongrigorev/Developer/fathom-stablecoin-smart-contracts/contracts/main/stablecoin-core/LiquidationEngine.sol",
    "compiler": {
        "name": "solc",
        "version": "0.8.17+commit.8df45f5f.Emscripten.clang"
    },
    "schemaVersion": "3.4.13",
    "updatedAt": "2023-04-28T08:02:27.705Z",
    "devdoc": {
        "kind": "dev",
        "methods": {
            "cage()": {
                "details": "access: OWNER_ROLE, SHOW_STOPPER_ROLE"
            },
            "pause()": {
                "details": "access: OWNER_ROLE, GOV_ROLE"
            },
            "paused()": {
                "details": "Returns true if the contract is paused, and false otherwise."
            },
            "uncage()": {
                "details": "access: OWNER_ROLE, SHOW_STOPPER_ROLE"
            },
            "unpause()": {
                "details": "access: OWNER_ROLE, GOV_ROLE"
            }
        },
        "version": 1
    },
    "userdoc": {
        "kind": "user",
        "methods": {},
        "notice": "A contract which is the manager for all of the liquidations of the protocol. LiquidationEngine will be the interface for the liquidator to trigger any positions into the liquidation process.",
        "version": 1
    }
}