{
    "contractName": "PositionManager",
    "abi": [
        {
            "anonymous": false,
            "inputs": [
                {
                    "indexed": false,
                    "internalType": "uint8",
                    "name": "version",
                    "type": "uint8"
                }
            ],
            "name": "Initialized",
            "type": "event"
        },
        {
            "anonymous": false,
            "inputs": [
                {
                    "indexed": true,
                    "internalType": "address",
                    "name": "_caller",
                    "type": "address"
                },
                {
                    "indexed": true,
                    "internalType": "uint256",
                    "name": "_positionId",
                    "type": "uint256"
                },
                {
                    "indexed": false,
                    "internalType": "address",
                    "name": "_owner",
                    "type": "address"
                },
                {
                    "indexed": false,
                    "internalType": "address",
                    "name": "_user",
                    "type": "address"
                },
                {
                    "indexed": false,
                    "internalType": "uint256",
                    "name": "_ok",
                    "type": "uint256"
                }
            ],
            "name": "LogAllowManagePosition",
            "type": "event"
        },
        {
            "anonymous": false,
            "inputs": [
                {
                    "indexed": true,
                    "internalType": "address",
                    "name": "_caller",
                    "type": "address"
                },
                {
                    "indexed": false,
                    "internalType": "address",
                    "name": "_user",
                    "type": "address"
                },
                {
                    "indexed": false,
                    "internalType": "uint256",
                    "name": "_ok",
                    "type": "uint256"
                }
            ],
            "name": "LogAllowMigratePosition",
            "type": "event"
        },
        {
            "anonymous": false,
            "inputs": [
                {
                    "indexed": true,
                    "internalType": "uint256",
                    "name": "_positionId",
                    "type": "uint256"
                },
                {
                    "indexed": false,
                    "internalType": "address",
                    "name": "_source",
                    "type": "address"
                },
                {
                    "indexed": false,
                    "internalType": "address",
                    "name": "_destination",
                    "type": "address"
                },
                {
                    "indexed": false,
                    "internalType": "uint256",
                    "name": "_lockedCollateral",
                    "type": "uint256"
                },
                {
                    "indexed": false,
                    "internalType": "uint256",
                    "name": "_debtShare",
                    "type": "uint256"
                }
            ],
            "name": "LogExportPosition",
            "type": "event"
        },
        {
            "anonymous": false,
            "inputs": [
                {
                    "indexed": true,
                    "internalType": "uint256",
                    "name": "_positionId",
                    "type": "uint256"
                },
                {
                    "indexed": false,
                    "internalType": "address",
                    "name": "_source",
                    "type": "address"
                },
                {
                    "indexed": false,
                    "internalType": "address",
                    "name": "_destination",
                    "type": "address"
                },
                {
                    "indexed": false,
                    "internalType": "uint256",
                    "name": "_lockedCollateral",
                    "type": "uint256"
                },
                {
                    "indexed": false,
                    "internalType": "uint256",
                    "name": "_debtShare",
                    "type": "uint256"
                }
            ],
            "name": "LogImportPosition",
            "type": "event"
        },
        {
            "anonymous": false,
            "inputs": [
                {
                    "indexed": false,
                    "internalType": "uint256",
                    "name": "_sourceId",
                    "type": "uint256"
                },
                {
                    "indexed": false,
                    "internalType": "uint256",
                    "name": "_destinationId",
                    "type": "uint256"
                },
                {
                    "indexed": false,
                    "internalType": "uint256",
                    "name": "_lockedCollateral",
                    "type": "uint256"
                },
                {
                    "indexed": false,
                    "internalType": "uint256",
                    "name": "_debtShare",
                    "type": "uint256"
                }
            ],
            "name": "LogMovePosition",
            "type": "event"
        },
        {
            "anonymous": false,
            "inputs": [
                {
                    "indexed": true,
                    "internalType": "address",
                    "name": "_usr",
                    "type": "address"
                },
                {
                    "indexed": true,
                    "internalType": "address",
                    "name": "_own",
                    "type": "address"
                },
                {
                    "indexed": true,
                    "internalType": "uint256",
                    "name": "_positionId",
                    "type": "uint256"
                }
            ],
            "name": "LogNewPosition",
            "type": "event"
        },
        {
            "anonymous": false,
            "inputs": [
                {
                    "indexed": false,
                    "internalType": "address",
                    "name": "account",
                    "type": "address"
                }
            ],
            "name": "Paused",
            "type": "event"
        },
        {
            "anonymous": false,
            "inputs": [
                {
                    "indexed": false,
                    "internalType": "address",
                    "name": "account",
                    "type": "address"
                }
            ],
            "name": "Unpaused",
            "type": "event"
        },
        {
            "inputs": [],
            "name": "bookKeeper",
            "outputs": [
                {
                    "internalType": "address",
                    "name": "",
                    "type": "address"
                }
            ],
            "stateMutability": "view",
            "type": "function"
        },
        {
            "inputs": [
                {
                    "internalType": "uint256",
                    "name": "",
                    "type": "uint256"
                }
            ],
            "name": "collateralPools",
            "outputs": [
                {
                    "internalType": "bytes32",
                    "name": "",
                    "type": "bytes32"
                }
            ],
            "stateMutability": "view",
            "type": "function"
        },
        {
            "inputs": [],
            "name": "lastPositionId",
            "outputs": [
                {
                    "internalType": "uint256",
                    "name": "",
                    "type": "uint256"
                }
            ],
            "stateMutability": "view",
            "type": "function"
        },
        {
            "inputs": [
                {
                    "internalType": "uint256",
                    "name": "",
                    "type": "uint256"
                }
            ],
            "name": "list",
            "outputs": [
                {
                    "internalType": "uint256",
                    "name": "prev",
                    "type": "uint256"
                },
                {
                    "internalType": "uint256",
                    "name": "next",
                    "type": "uint256"
                }
            ],
            "stateMutability": "view",
            "type": "function"
        },
        {
            "inputs": [
                {
                    "internalType": "address",
                    "name": "",
                    "type": "address"
                }
            ],
            "name": "mapPositionHandlerToOwner",
            "outputs": [
                {
                    "internalType": "address",
                    "name": "",
                    "type": "address"
                }
            ],
            "stateMutability": "view",
            "type": "function"
        },
        {
            "inputs": [
                {
                    "internalType": "address",
                    "name": "",
                    "type": "address"
                },
                {
                    "internalType": "address",
                    "name": "",
                    "type": "address"
                }
            ],
            "name": "migrationWhitelist",
            "outputs": [
                {
                    "internalType": "uint256",
                    "name": "",
                    "type": "uint256"
                }
            ],
            "stateMutability": "view",
            "type": "function"
        },
        {
            "inputs": [
                {
                    "internalType": "address",
                    "name": "",
                    "type": "address"
                }
            ],
            "name": "ownerFirstPositionId",
            "outputs": [
                {
                    "internalType": "uint256",
                    "name": "",
                    "type": "uint256"
                }
            ],
            "stateMutability": "view",
            "type": "function"
        },
        {
            "inputs": [
                {
                    "internalType": "address",
                    "name": "",
                    "type": "address"
                }
            ],
            "name": "ownerLastPositionId",
            "outputs": [
                {
                    "internalType": "uint256",
                    "name": "",
                    "type": "uint256"
                }
            ],
            "stateMutability": "view",
            "type": "function"
        },
        {
            "inputs": [
                {
                    "internalType": "address",
                    "name": "",
                    "type": "address"
                }
            ],
            "name": "ownerPositionCount",
            "outputs": [
                {
                    "internalType": "uint256",
                    "name": "",
                    "type": "uint256"
                }
            ],
            "stateMutability": "view",
            "type": "function"
        },
        {
            "inputs": [
                {
                    "internalType": "address",
                    "name": "",
                    "type": "address"
                },
                {
                    "internalType": "uint256",
                    "name": "",
                    "type": "uint256"
                },
                {
                    "internalType": "address",
                    "name": "",
                    "type": "address"
                }
            ],
            "name": "ownerWhitelist",
            "outputs": [
                {
                    "internalType": "uint256",
                    "name": "",
                    "type": "uint256"
                }
            ],
            "stateMutability": "view",
            "type": "function"
        },
        {
            "inputs": [
                {
                    "internalType": "uint256",
                    "name": "",
                    "type": "uint256"
                }
            ],
            "name": "owners",
            "outputs": [
                {
                    "internalType": "address",
                    "name": "",
                    "type": "address"
                }
            ],
            "stateMutability": "view",
            "type": "function"
        },
        {
            "inputs": [],
            "name": "paused",
            "outputs": [
                {
                    "internalType": "bool",
                    "name": "",
                    "type": "bool"
                }
            ],
            "stateMutability": "view",
            "type": "function"
        },
        {
            "inputs": [
                {
                    "internalType": "uint256",
                    "name": "",
                    "type": "uint256"
                }
            ],
            "name": "positions",
            "outputs": [
                {
                    "internalType": "address",
                    "name": "",
                    "type": "address"
                }
            ],
            "stateMutability": "view",
            "type": "function"
        },
        {
            "inputs": [],
            "name": "priceOracle",
            "outputs": [
                {
                    "internalType": "address",
                    "name": "",
                    "type": "address"
                }
            ],
            "stateMutability": "view",
            "type": "function"
        },
        {
            "inputs": [],
            "name": "showStopper",
            "outputs": [
                {
                    "internalType": "address",
                    "name": "",
                    "type": "address"
                }
            ],
            "stateMutability": "view",
            "type": "function"
        },
        {
            "inputs": [
                {
                    "internalType": "address",
                    "name": "_bookKeeper",
                    "type": "address"
                },
                {
                    "internalType": "address",
                    "name": "_showStopper",
                    "type": "address"
                },
                {
                    "internalType": "address",
                    "name": "_priceOracle",
                    "type": "address"
                }
            ],
            "name": "initialize",
            "outputs": [],
            "stateMutability": "nonpayable",
            "type": "function"
        },
        {
            "inputs": [
                {
                    "internalType": "uint256",
                    "name": "_positionId",
                    "type": "uint256"
                },
                {
                    "internalType": "address",
                    "name": "_user",
                    "type": "address"
                },
                {
                    "internalType": "uint256",
                    "name": "_ok",
                    "type": "uint256"
                }
            ],
            "name": "allowManagePosition",
            "outputs": [],
            "stateMutability": "nonpayable",
            "type": "function"
        },
        {
            "inputs": [
                {
                    "internalType": "address",
                    "name": "_user",
                    "type": "address"
                },
                {
                    "internalType": "uint256",
                    "name": "_ok",
                    "type": "uint256"
                }
            ],
            "name": "allowMigratePosition",
            "outputs": [],
            "stateMutability": "nonpayable",
            "type": "function"
        },
        {
            "inputs": [
                {
                    "internalType": "bytes32",
                    "name": "_collateralPoolId",
                    "type": "bytes32"
                },
                {
                    "internalType": "address",
                    "name": "_user",
                    "type": "address"
                }
            ],
            "name": "open",
            "outputs": [
                {
                    "internalType": "uint256",
                    "name": "",
                    "type": "uint256"
                }
            ],
            "stateMutability": "nonpayable",
            "type": "function"
        },
        {
            "inputs": [
                {
                    "internalType": "uint256",
                    "name": "_positionId",
                    "type": "uint256"
                },
                {
                    "internalType": "address",
                    "name": "_destination",
                    "type": "address"
                }
            ],
            "name": "give",
            "outputs": [],
            "stateMutability": "nonpayable",
            "type": "function"
        },
        {
            "inputs": [
                {
                    "internalType": "uint256",
                    "name": "_positionId",
                    "type": "uint256"
                },
                {
                    "internalType": "int256",
                    "name": "_collateralValue",
                    "type": "int256"
                },
                {
                    "internalType": "int256",
                    "name": "_debtShare",
                    "type": "int256"
                },
                {
                    "internalType": "address",
                    "name": "_adapter",
                    "type": "address"
                },
                {
                    "internalType": "bytes",
                    "name": "_data",
                    "type": "bytes"
                }
            ],
            "name": "adjustPosition",
            "outputs": [],
            "stateMutability": "nonpayable",
            "type": "function"
        },
        {
            "inputs": [
                {
                    "internalType": "uint256",
                    "name": "_positionId",
                    "type": "uint256"
                },
                {
                    "internalType": "address",
                    "name": "_destination",
                    "type": "address"
                },
                {
                    "internalType": "uint256",
                    "name": "_wad",
                    "type": "uint256"
                },
                {
                    "internalType": "address",
                    "name": "_adapter",
                    "type": "address"
                },
                {
                    "internalType": "bytes",
                    "name": "_data",
                    "type": "bytes"
                }
            ],
            "name": "moveCollateral",
            "outputs": [],
            "stateMutability": "nonpayable",
            "type": "function"
        },
        {
            "inputs": [
                {
                    "internalType": "bytes32",
                    "name": "_collateralPoolId",
                    "type": "bytes32"
                },
                {
                    "internalType": "uint256",
                    "name": "_positionId",
                    "type": "uint256"
                },
                {
                    "internalType": "address",
                    "name": "_destination",
                    "type": "address"
                },
                {
                    "internalType": "uint256",
                    "name": "_wad",
                    "type": "uint256"
                },
                {
                    "internalType": "address",
                    "name": "_adapter",
                    "type": "address"
                },
                {
                    "internalType": "bytes",
                    "name": "_data",
                    "type": "bytes"
                }
            ],
            "name": "moveCollateral",
            "outputs": [],
            "stateMutability": "nonpayable",
            "type": "function"
        },
        {
            "inputs": [
                {
                    "internalType": "uint256",
                    "name": "_positionId",
                    "type": "uint256"
                },
                {
                    "internalType": "address",
                    "name": "_destination",
                    "type": "address"
                },
                {
                    "internalType": "uint256",
                    "name": "_rad",
                    "type": "uint256"
                }
            ],
            "name": "moveStablecoin",
            "outputs": [],
            "stateMutability": "nonpayable",
            "type": "function"
        },
        {
            "inputs": [
                {
                    "internalType": "uint256",
                    "name": "_positionId",
                    "type": "uint256"
                },
                {
                    "internalType": "address",
                    "name": "_destination",
                    "type": "address"
                }
            ],
            "name": "exportPosition",
            "outputs": [],
            "stateMutability": "nonpayable",
            "type": "function"
        },
        {
            "inputs": [
                {
                    "internalType": "address",
                    "name": "_source",
                    "type": "address"
                },
                {
                    "internalType": "uint256",
                    "name": "_positionId",
                    "type": "uint256"
                }
            ],
            "name": "importPosition",
            "outputs": [],
            "stateMutability": "nonpayable",
            "type": "function"
        },
        {
            "inputs": [
                {
                    "internalType": "uint256",
                    "name": "_sourceId",
                    "type": "uint256"
                },
                {
                    "internalType": "uint256",
                    "name": "_destinationId",
                    "type": "uint256"
                }
            ],
            "name": "movePosition",
            "outputs": [],
            "stateMutability": "nonpayable",
            "type": "function"
        },
        {
            "inputs": [
                {
                    "internalType": "uint256",
                    "name": "_posId",
                    "type": "uint256"
                },
                {
                    "internalType": "address",
                    "name": "_adapter",
                    "type": "address"
                },
                {
                    "internalType": "address",
                    "name": "_collateralReceiver",
                    "type": "address"
                },
                {
                    "internalType": "bytes",
                    "name": "_data",
                    "type": "bytes"
                }
            ],
            "name": "redeemLockedCollateral",
            "outputs": [],
            "stateMutability": "nonpayable",
            "type": "function"
        },
        {
            "inputs": [
                {
                    "internalType": "address",
                    "name": "_priceOracle",
                    "type": "address"
                }
            ],
            "name": "setPriceOracle",
            "outputs": [],
            "stateMutability": "nonpayable",
            "type": "function"
        },
        {
            "inputs": [
                {
                    "internalType": "address",
                    "name": "_bookKeeper",
                    "type": "address"
                }
            ],
            "name": "setBookKeeper",
            "outputs": [],
            "stateMutability": "nonpayable",
            "type": "function"
        },
        {
            "inputs": [],
            "name": "pause",
            "outputs": [],
            "stateMutability": "nonpayable",
            "type": "function"
        },
        {
            "inputs": [],
            "name": "unpause",
            "outputs": [],
            "stateMutability": "nonpayable",
            "type": "function"
        },
        {
            "inputs": [
                {
                    "internalType": "bytes32",
                    "name": "_poolId",
                    "type": "bytes32"
                }
            ],
            "name": "updatePrice",
            "outputs": [],
            "stateMutability": "nonpayable",
            "type": "function"
        }
    ],
    "bytecode": "0x608060405234801561001057600080fd5b50613e59806100206000396000f3fe60806040523480156200001157600080fd5b5060043610620002255760003560e01c80636dbe4ef21162000131578063ba9a392511620000bb578063ce9125081162000086578063ce912508146200056f578063e3b3932a1462000586578063e798401a146200059a578063e93cb1b914620005b1578063fcafcc6814620005d457600080fd5b8063ba9a39251462000507578063bbc26b84146200051e578063c0c53b8b1462000541578063c69937e8146200055857600080fd5b80638876e58911620000fc5780638876e5891462000479578063997cc90f146200049057806399fbab8814620004c4578063a3cf2f4f14620004f057600080fd5b80636dbe4ef214620003f5578063757bbd89146200041857806380c9419e146200042f5780638456cb59146200046f57600080fd5b80634afa727111620001b35780635c975abb116200017e5780635c975abb14620003845780636090dec5146200039b5780636707f3de14620003b25780636bd2c56514620003de57600080fd5b80634afa72711462000329578063530e784f146200034c578063571dbb79146200036357806358354502146200037a57600080fd5b80632309463911620001f45780632309463914620002b75780632630c12f14620002ce5780633f4ba83a14620002e257806346db0f3314620002ec57600080fd5b8063025e7c27146200022a5780630599bb31146200027357806307d8bd88146200028757806319202b7914620002a0575b600080fd5b620002566200023b366004620035aa565b606b602052600090815260409020546001600160a01b031681565b6040516001600160a01b0390911681526020015b60405180910390f35b60665462000256906001600160a01b031681565b6200029e62000298366004620035da565b620005eb565b005b6200029e620002b13660046200364d565b620008f4565b6200029e620002c8366004620036c6565b62000b0d565b60675462000256906001600160a01b031681565b6200029e62000f38565b6200031a620002fd366004620036f5565b607260209081526000928352604080842090915290825290205481565b6040519081526020016200026a565b6200031a6200033a366004620035da565b60706020526000908152604090205481565b6200029e6200035d366004620035da565b62001198565b6200029e6200037436600462003733565b62001496565b6200031a60685481565b60335460ff1660405190151581526020016200026a565b6200031a620003ac3660046200377a565b6200164d565b62000256620003c3366004620035da565b606c602052600090815260409020546001600160a01b031681565b6200029e620003ef366004620037a2565b620019de565b6200031a62000406366004620035aa565b606d6020526000908152604090205481565b6200029e620004293660046200381d565b62001af9565b6200045962000440366004620035aa565b606a602052600090815260409020805460019091015482565b604080519283526020830191909152016200026a565b6200029e62001c57565b6200029e6200048a366004620038ab565b62001eb4565b6200031a620004a1366004620038e6565b607160209081526000938452604080852082529284528284209052825290205481565b62000256620004d5366004620035aa565b6069602052600090815260409020546001600160a01b031681565b6200029e620005013660046200392d565b62001fc9565b6200029e620005183660046200377a565b62002449565b6200031a6200052f366004620035da565b606f6020526000908152604090205481565b6200029e6200055236600462003950565b62002873565b6200029e62000569366004620038ab565b62002bcd565b6200029e62000580366004620035aa565b62002cd7565b60655462000256906001600160a01b031681565b6200029e620005ab366004620036c6565b62002d44565b6200031a620005c2366004620035da565b606e6020526000908152604090205481565b6200029e620005e53660046200377a565b62002db1565b6065546040805163c8cc243f60e01b815290516000926001600160a01b03169163c8cc243f9160048083019260209291908290030181865afa15801562000636573d6000803e3d6000fd5b505050506040513d601f19601f820116820180604052508101906200065c919062003997565b9050806001600160a01b03166391d14854826001600160a01b031663e58378bb6040518163ffffffff1660e01b8152600401602060405180830381865afa158015620006ac573d6000803e3d6000fd5b505050506040513d601f19601f82011682018060405250810190620006d29190620039b7565b6040516001600160e01b031960e084901b1681526004810191909152336024820152604401602060405180830381865afa15801562000715573d6000803e3d6000fd5b505050506040513d601f19601f820116820180604052508101906200073b9190620039d1565b806200081f5750806001600160a01b03166391d14854826001600160a01b031663b536818a6040518163ffffffff1660e01b8152600401602060405180830381865afa15801562000790573d6000803e3d6000fd5b505050506040513d601f19601f82011682018060405250810190620007b69190620039b7565b6040516001600160e01b031960e084901b1681526004810191909152336024820152604401602060405180830381865afa158015620007f9573d6000803e3d6000fd5b505050506040513d601f19601f820116820180604052508101906200081f9190620039d1565b620008475760405162461bcd60e51b81526004016200083e90620039f5565b60405180910390fd5b6000826001600160a01b0316636f3a3bfc6040518163ffffffff1660e01b81526004016020604051808303816000875af11580156200088a573d6000803e3d6000fd5b505050506040513d601f19601f82011682018060405250810190620008b09190620039b7565b1015620008d15760405162461bcd60e51b81526004016200083e9062003a2c565b50606580546001600160a01b0319166001600160a01b0392909216919091179055565b620008fe62003172565b6000868152606b602052604090205486906001600160a01b03163314806200095a57506000818152606b60209081526040808320546001600160a01b031683526071825280832084845282528083203384529091529020546001145b620009795760405162461bcd60e51b81526004016200083e9062003a6e565b6000878152606d60205260409020546200099381620031bc565b600088815260696020908152604080832054606554606d90935292819020549051632b5eaca560e11b815260048101919091526001600160a01b03928316602482018190526044820181905260648201819052608482018b905260a482018a905292909116906356bd594a9060c401600060405180830381600087803b15801562000a1d57600080fd5b505af115801562000a32573d6000803e3d6000fd5b5050604051637bbe201b60e11b81526001600160a01b038916925063f77c4036915062000a6e90849081908d908d908c908c9060040162003ac2565b600060405180830381600087803b15801562000a8957600080fd5b505af115801562000a9e573d6000803e3d6000fd5b505060675460405163285da53b60e01b8152600481018690526001600160a01b03909116925063285da53b9150602401600060405180830381600087803b15801562000ae957600080fd5b505af115801562000afe573d6000803e3d6000fd5b50505050505050505050505050565b62000b1762003172565b81336001600160a01b038216148062000b5357506001600160a01b03811660009081526072602090815260408083203384529091529020546001145b62000b995760405162461bcd60e51b81526020600482015260156024820152741b5a59dc985d1a5bdb881b9bdd08185b1b1bddd959605a1b60448201526064016200083e565b6000828152606b602052604090205482906001600160a01b031633148062000bf557506000818152606b60209081526040808320546001600160a01b031683526071825280832084845282528083203384529091529020546001145b62000c145760405162461bcd60e51b81526004016200083e9062003a6e565b6065546000848152606d6020526040808220549051630a76216560e21b815260048101919091526001600160a01b0387811660248301529192839216906329d88594906044016040805180830381865afa15801562000c77573d6000803e3d6000fd5b505050506040513d601f19601f8201168201806040525081019062000c9d919062003b0b565b6065546000888152606d60209081526040808320546069909252909120549395509193506001600160a01b03908116926303ab907692918a911662000ce28762003364565b62000ced8762003364565b6040518663ffffffff1660e01b815260040162000d0f95949392919062003b30565b600060405180830381600087803b15801562000d2a57600080fd5b505af115801562000d3f573d6000803e3d6000fd5b505050506000606560009054906101000a90046001600160a01b03166001600160a01b031663d86824616040518163ffffffff1660e01b8152600401602060405180830381865afa15801562000d99573d6000803e3d6000fd5b505050506040513d601f19601f8201168201806040525081019062000dbf919062003997565b6000878152606d602052604080822054905163104e5c2760e31b81526004810191909152919250906001600160a01b03831690638272e13890602401602060405180830381865afa15801562000e19573d6000803e3d6000fd5b505050506040513d601f19601f8201168201806040525081019062000e3f919062003997565b600088815260696020908152604080832054815193845291830190819052634ca21b0b60e11b90529192506001600160a01b038084169263994436169262000e91928d92169089906024810162003b5f565b600060405180830381600087803b15801562000eac57600080fd5b505af115801562000ec1573d6000803e3d6000fd5b5050506000888152606960209081526040918290205482516001600160a01b03808e16825290911691810191909152908101869052606081018590528891507f8f84d9a3c1dcda9a9ef0437655c515e92607e70633429aec289df8caa72470ce906080015b60405180910390a25050505050505050565b6065546040805163c8cc243f60e01b815290516000926001600160a01b03169163c8cc243f9160048083019260209291908290030181865afa15801562000f83573d6000803e3d6000fd5b505050506040513d601f19601f8201168201806040525081019062000fa9919062003997565b9050806001600160a01b03166391d14854826001600160a01b031663e58378bb6040518163ffffffff1660e01b8152600401602060405180830381865afa15801562000ff9573d6000803e3d6000fd5b505050506040513d601f19601f820116820180604052508101906200101f9190620039b7565b6040516001600160e01b031960e084901b1681526004810191909152336024820152604401602060405180830381865afa15801562001062573d6000803e3d6000fd5b505050506040513d601f19601f82011682018060405250810190620010889190620039d1565b806200116c5750806001600160a01b03166391d14854826001600160a01b031663b536818a6040518163ffffffff1660e01b8152600401602060405180830381865afa158015620010dd573d6000803e3d6000fd5b505050506040513d601f19601f82011682018060405250810190620011039190620039b7565b6040516001600160e01b031960e084901b1681526004810191909152336024820152604401602060405180830381865afa15801562001146573d6000803e3d6000fd5b505050506040513d601f19601f820116820180604052508101906200116c9190620039d1565b6200118b5760405162461bcd60e51b81526004016200083e90620039f5565b62001195620033b1565b50565b6065546040805163c8cc243f60e01b815290516000926001600160a01b03169163c8cc243f9160048083019260209291908290030181865afa158015620011e3573d6000803e3d6000fd5b505050506040513d601f19601f8201168201806040525081019062001209919062003997565b9050806001600160a01b03166391d14854826001600160a01b031663e58378bb6040518163ffffffff1660e01b8152600401602060405180830381865afa15801562001259573d6000803e3d6000fd5b505050506040513d601f19601f820116820180604052508101906200127f9190620039b7565b6040516001600160e01b031960e084901b1681526004810191909152336024820152604401602060405180830381865afa158015620012c2573d6000803e3d6000fd5b505050506040513d601f19601f82011682018060405250810190620012e89190620039d1565b80620013cc5750806001600160a01b03166391d14854826001600160a01b031663b536818a6040518163ffffffff1660e01b8152600401602060405180830381865afa1580156200133d573d6000803e3d6000fd5b505050506040513d601f19601f82011682018060405250810190620013639190620039b7565b6040516001600160e01b031960e084901b1681526004810191909152336024820152604401602060405180830381865afa158015620013a6573d6000803e3d6000fd5b505050506040513d601f19601f82011682018060405250810190620013cc9190620039d1565b620013eb5760405162461bcd60e51b81526004016200083e90620039f5565b6000826001600160a01b0316639d1eea786040518163ffffffff1660e01b8152600401602060405180830381865afa1580156200142c573d6000803e3d6000fd5b505050506040513d601f19601f82011682018060405250810190620014529190620039b7565b1015620014735760405162461bcd60e51b81526004016200083e9062003bd2565b50606780546001600160a01b0319166001600160a01b0392909216919091179055565b620014a062003172565b6000868152606b602052604090205486906001600160a01b0316331480620014fc57506000818152606b60209081526040808320546001600160a01b031683526071825280832084845282528083203384529091529020546001145b6200151b5760405162461bcd60e51b81526004016200083e9062003a6e565b6000878152606d60205260409020546200153581620031bc565b6065546000898152606d602090815260408083205460699092529182902054915163b5d9932960e01b815260048101919091526001600160a01b03918216602482015289821660448201526064810189905291169063b5d9932990608401600060405180830381600087803b158015620015ae57600080fd5b505af1158015620015c3573d6000803e3d6000fd5b50505060008981526069602052604090819020549051634ca21b0b60e11b81526001600160a01b0380891693506399443616926200160f929116908b908b908a908a9060040162003c15565b600060405180830381600087803b1580156200162a57600080fd5b505af11580156200163f573d6000803e3d6000fd5b505050505050505050505050565b60006200165962003172565b6001600160a01b038216620016b15760405162461bcd60e51b815260206004820152601f60248201527f506f736974696f6e4d616e616765722f757365722d616464726573732830290060448201526064016200083e565b6065546040805163d868246160e01b815290516000926001600160a01b03169163d86824619160048083019260209291908290030181865afa158015620016fc573d6000803e3d6000fd5b505050506040513d601f19601f8201168201806040525081019062001722919062003997565b6001600160a01b031663a09b0fe0856040518263ffffffff1660e01b81526004016200175091815260200190565b602060405180830381865afa1580156200176e573d6000803e3d6000fd5b505050506040513d601f19601f82011682018060405250810190620017949190620039b7565b905080600003620017f85760405162461bcd60e51b815260206004820152602760248201527f506f736974696f6e4d616e616765722f636f6c6c61746572616c506f6f6c2d6e6044820152661bdd0b5a5b9a5d60ca1b60648201526084016200083e565b62001807606854600162003405565b6068556065546040516001600160a01b039091169062001827906200359c565b6001600160a01b039091168152602001604051809103906000f08015801562001854573d6000803e3d6000fd5b5060688054600090815260696020818152604080842080546001600160a01b039788166001600160a01b03199182161790915585548552606b835281852080548b8916908316811790915586548652938352818520549096168452606c82528084208054909616831790955592548252606d83528382208890558152606e909152908120549003620018fd576068546001600160a01b0384166000908152606e60205260409020555b6001600160a01b0383166000908152606f60205260409020541562001956576001600160a01b0383166000908152606f6020908152604080832054606880548552606a9093528184208190559154918352909120600101555b6068546001600160a01b0384166000908152606f60209081526040808320939093556070905220546200198b90600162003405565b6001600160a01b03841660008181526070602052604080822093909355606854925133917fcffce84160d2d740324298d4e6b1c061e3157511a32c8f2d297f8804da2aaa0291a450506068545b92915050565b620019e862003172565b6000858152606b602052604090205485906001600160a01b031633148062001a4457506000818152606b60209081526040808320546001600160a01b031683526071825280832084845282528083203384529091529020546001145b62001a635760405162461bcd60e51b81526004016200083e9062003a6e565b600086815260696020908152604080832054606654606d90935292819020549051635983633360e01b81526001600160a01b03938416939092169163598363339162001abc918a9086908b908b908b9060040162003c56565b600060405180830381600087803b15801562001ad757600080fd5b505af115801562001aec573d6000803e3d6000fd5b5050505050505050505050565b62001b0362003172565b6000868152606b602052604090205486906001600160a01b031633148062001b5f57506000818152606b60209081526040808320546001600160a01b031683526071825280832084845282528083203384529091529020546001145b62001b7e5760405162461bcd60e51b81526004016200083e9062003a6e565b62001b8988620031bc565b6065546000888152606960205260409081902054905163b5d9932960e01b8152600481018b90526001600160a01b03918216602482015288821660448201526064810188905291169063b5d9932990608401600060405180830381600087803b15801562001bf657600080fd5b505af115801562001c0b573d6000803e3d6000fd5b50505060008881526069602052604090819020549051634ca21b0b60e11b81526001600160a01b0380881693506399443616926200160f929116908a908a908990899060040162003c15565b6065546040805163c8cc243f60e01b815290516000926001600160a01b03169163c8cc243f9160048083019260209291908290030181865afa15801562001ca2573d6000803e3d6000fd5b505050506040513d601f19601f8201168201806040525081019062001cc8919062003997565b9050806001600160a01b03166391d14854826001600160a01b031663e58378bb6040518163ffffffff1660e01b8152600401602060405180830381865afa15801562001d18573d6000803e3d6000fd5b505050506040513d601f19601f8201168201806040525081019062001d3e9190620039b7565b6040516001600160e01b031960e084901b1681526004810191909152336024820152604401602060405180830381865afa15801562001d81573d6000803e3d6000fd5b505050506040513d601f19601f8201168201806040525081019062001da79190620039d1565b8062001e8b5750806001600160a01b03166391d14854826001600160a01b031663b536818a6040518163ffffffff1660e01b8152600401602060405180830381865afa15801562001dfc573d6000803e3d6000fd5b505050506040513d601f19601f8201168201806040525081019062001e229190620039b7565b6040516001600160e01b031960e084901b1681526004810191909152336024820152604401602060405180830381865afa15801562001e65573d6000803e3d6000fd5b505050506040513d601f19601f8201168201806040525081019062001e8b9190620039d1565b62001eaa5760405162461bcd60e51b81526004016200083e90620039f5565b6200119562003456565b62001ebe62003172565b6000838152606b602052604090205483906001600160a01b031633148062001f1a57506000818152606b60209081526040808320546001600160a01b031683526071825280832084845282528083203384529091529020546001145b62001f395760405162461bcd60e51b81526004016200083e9062003a6e565b6000848152606b6020818152604080842080546001600160a01b039081168652607184528286208a87528452828620898216808852908552838720899055958a90529383525481519316835290820192909252908101839052849033907f5f5a0a2dbd424d1b1a3d314b96d4695238505e727a59f0175eb23cec25243ded9060600160405180910390a350505050565b62001fd362003172565b6000828152606b602052604090205482906001600160a01b03163314806200202f57506000818152606b60209081526040808320546001600160a01b031683526071825280832084845282528083203384529091529020546001145b6200204e5760405162461bcd60e51b81526004016200083e9062003a6e565b6000828152606b602052604090205482906001600160a01b0316331480620020aa57506000818152606b60209081526040808320546001600160a01b031683526071825280832084845282528083203384529091529020546001145b620020c95760405162461bcd60e51b81526004016200083e9062003a6e565b6000838152606d60205260408082205486835291205414620021265760405162461bcd60e51b8152602060048201526015602482015274085cd85b594818dbdb1b185d195c985b081c1bdbdb605a1b60448201526064016200083e565b6065546000858152606d60209081526040808320546069909252808320549051630a76216560e21b815260048101929092526001600160a01b0390811660248301529192839216906329d88594906044016040805180830381865afa15801562002194573d6000803e3d6000fd5b505050506040513d601f19601f82011682018060405250810190620021ba919062003b0b565b6065546000898152606d60209081526040808320546069909252808320548b84529220549496509294506001600160a01b03918216936303ab907693929182169116620022078762003364565b620022128762003364565b6040518663ffffffff1660e01b81526004016200223495949392919062003b30565b600060405180830381600087803b1580156200224f57600080fd5b505af115801562002264573d6000803e3d6000fd5b505050506000606560009054906101000a90046001600160a01b03166001600160a01b031663d86824616040518163ffffffff1660e01b8152600401602060405180830381865afa158015620022be573d6000803e3d6000fd5b505050506040513d601f19601f82011682018060405250810190620022e4919062003997565b6000888152606d602052604080822054905163104e5c2760e31b81526004810191909152919250906001600160a01b03831690638272e13890602401602060405180830381865afa1580156200233e573d6000803e3d6000fd5b505050506040513d601f19601f8201168201806040525081019062002364919062003997565b6000898152606960209081526040808320548b845281842054825194855292840191829052634ca21b0b60e11b9091529293506001600160a01b0380851693639944361693620023c293918316929091169089906024810162003b5f565b600060405180830381600087803b158015620023dd57600080fd5b505af1158015620023f2573d6000803e3d6000fd5b5050604080518b8152602081018b9052908101879052606081018690527f4b1ecfa0f8f07da7f1cb8dae71f6346ef26c65f8eda2bf59aa5e79422b921b8b9250608001905060405180910390a15050505050505050565b6200245362003172565b6000828152606b602052604090205482906001600160a01b0316331480620024af57506000818152606b60209081526040808320546001600160a01b031683526071825280832084845282528083203384529091529020546001145b620024ce5760405162461bcd60e51b81526004016200083e9062003a6e565b81336001600160a01b03821614806200250a57506001600160a01b03811660009081526072602090815260408083203384529091529020546001145b620025505760405162461bcd60e51b81526020600482015260156024820152741b5a59dc985d1a5bdb881b9bdd08185b1b1bddd959605a1b60448201526064016200083e565b6065546000858152606d60209081526040808320546069909252808320549051630a76216560e21b815260048101929092526001600160a01b0390811660248301529192839216906329d88594906044016040805180830381865afa158015620025be573d6000803e3d6000fd5b505050506040513d601f19601f82011682018060405250810190620025e4919062003b0b565b6065546000898152606d60209081526040808320546069909252909120549395509193506001600160a01b03908116926303ab907692911688620026288762003364565b620026338762003364565b6040518663ffffffff1660e01b81526004016200265595949392919062003b30565b600060405180830381600087803b1580156200267057600080fd5b505af115801562002685573d6000803e3d6000fd5b505050506000606560009054906101000a90046001600160a01b03166001600160a01b031663d86824616040518163ffffffff1660e01b8152600401602060405180830381865afa158015620026df573d6000803e3d6000fd5b505050506040513d601f19601f8201168201806040525081019062002705919062003997565b6000888152606d602052604080822054905163104e5c2760e31b81526004810191909152919250906001600160a01b03831690638272e13890602401602060405180830381865afa1580156200275f573d6000803e3d6000fd5b505050506040513d601f19601f8201168201806040525081019062002785919062003997565b600089815260696020908152604080832054815193845291830190819052634ca21b0b60e11b90529192506001600160a01b0380841692639944361692620027d992909116908b9089906024810162003b5f565b600060405180830381600087803b158015620027f457600080fd5b505af115801562002809573d6000803e3d6000fd5b5050506000898152606960209081526040918290205482516001600160a01b039182168152908b1691810191909152908101869052606081018590528991507ffc977cd1d8af796c27d4af8d24539074eb8c7a4af3d82391622fa1b3827b4f2d9060800162000f26565b600054610100900460ff1615808015620028945750600054600160ff909116105b80620028b05750303b158015620028b0575060005460ff166001145b620029155760405162461bcd60e51b815260206004820152602e60248201527f496e697469616c697a61626c653a20636f6e747261637420697320616c72656160448201526d191e481a5b9a5d1a585b1a5e995960921b60648201526084016200083e565b6000805460ff19166001179055801562002939576000805461ff0019166101001790555b6200294362003496565b6000846001600160a01b0316636f3a3bfc6040518163ffffffff1660e01b81526004016020604051808303816000875af115801562002986573d6000803e3d6000fd5b505050506040513d601f19601f82011682018060405250810190620029ac9190620039b7565b1015620029cd5760405162461bcd60e51b81526004016200083e9062003a2c565b83606560006101000a8154816001600160a01b0302191690836001600160a01b03160217905550826001600160a01b031663957aa58c6040518163ffffffff1660e01b8152600401602060405180830381865afa15801562002a33573d6000803e3d6000fd5b505050506040513d601f19601f8201168201806040525081019062002a599190620039b7565b60011462002ab65760405162461bcd60e51b8152602060048201526024808201527f506f736974696f6e4d616e616765722f73686f7753746f707065722d6e6f742d6044820152636c69766560e01b60648201526084016200083e565b82606660006101000a8154816001600160a01b0302191690836001600160a01b031602179055506000826001600160a01b0316639d1eea786040518163ffffffff1660e01b8152600401602060405180830381865afa15801562002b1e573d6000803e3d6000fd5b505050506040513d601f19601f8201168201806040525081019062002b449190620039b7565b101562002b655760405162461bcd60e51b81526004016200083e9062003bd2565b606780546001600160a01b0319166001600160a01b038416179055801562002bc7576000805461ff0019169055604051600181527f7f26b83ff96e1f2b6a682f133852f6798a09c465da95921460cefb38474024989060200160405180910390a15b50505050565b62002bd762003172565b6000838152606b602052604090205483906001600160a01b031633148062002c3357506000818152606b60209081526040808320546001600160a01b031683526071825280832084845282528083203384529091529020546001145b62002c525760405162461bcd60e51b81526004016200083e9062003a6e565b606554600085815260696020526040908190205490516323055e1560e21b81526001600160a01b039182166004820152858216602482015260448101859052911690638c15785490606401600060405180830381600087803b15801562002cb857600080fd5b505af115801562002ccd573d6000803e3d6000fd5b5050505050505050565b62002ce162003172565b60675460405163285da53b60e01b8152600481018390526001600160a01b039091169063285da53b90602401600060405180830381600087803b15801562002d2857600080fd5b505af115801562002d3d573d6000803e3d6000fd5b5050505050565b62002d4e62003172565b3360008181526072602090815260408083206001600160a01b0387168085529083529281902085905580519283529082018490527fa24170a98d11e6e8f73a24acb1354b153b2b2315485d4d32baa8f47e5dbf6628910160405180910390a25050565b62002dbb62003172565b6000828152606b602052604090205482906001600160a01b031633148062002e1757506000818152606b60209081526040808320546001600160a01b031683526071825280832084845282528083203384529091529020546001145b62002e365760405162461bcd60e51b81526004016200083e9062003a6e565b6001600160a01b03821662002e875760405162461bcd60e51b815260206004820152601660248201527564657374696e6174696f6e206164647265737328302960501b60448201526064016200083e565b6000838152606b60205260409020546001600160a01b039081169083160362002ef35760405162461bcd60e51b815260206004820152601960248201527f64657374696e6174696f6e20616c7265616479206f776e65720000000000000060448201526064016200083e565b6000838152606a60205260409020541562002f28576000838152606a6020526040808220600180820154915484529190922001555b6000838152606a60205260409020600101541562002f62576000838152606a60205260408082208054600190910154835291205562002f91565b6000838152606a6020908152604080832054606b8352818420546001600160a01b03168452606f909252909120555b6000838152606b60209081526040808320546001600160a01b03168352606e90915290205483900362002ff0576000838152606a6020908152604080832060010154606b8352818420546001600160a01b03168452606e909252909120555b6000838152606b60209081526040808320546001600160a01b03168352607090915290205462003022906001620034ca565b6000848152606b6020908152604080832080546001600160a01b039081168552607084528285209590955587845280548786166001600160a01b0319918216811790925560698452828520549095168452606c835281842080549095168117909455838352606f8083528184208054898652606a855292852092835560019290920184905593909252919091525415620030e2576001600160a01b0382166000908152606f60209081526040808320548352606a90915290206001018390555b6001600160a01b0382166000908152606e602052604081205490036200311e576001600160a01b0382166000908152606e602052604090208390555b6001600160a01b0382166000908152606f6020908152604080832086905560709091529020546200315190600162003405565b6001600160a01b039092166000908152607060205260409020919091555050565b60335460ff1615620031ba5760405162461bcd60e51b815260206004820152601060248201526f14185d5cd8589b194e881c185d5cd95960821b60448201526064016200083e565b565b6065546040805163d868246160e01b815290516000926001600160a01b03169163d86824619160048083019260209291908290030181865afa15801562003207573d6000803e3d6000fd5b505050506040513d601f19601f820116820180604052508101906200322d919062003997565b6001600160a01b0316638c0adf62836040518263ffffffff1660e01b81526004016200325b91815260200190565b602060405180830381865afa15801562003279573d6000803e3d6000fd5b505050506040513d601f19601f820116820180604052508101906200329f919062003997565b9050806001600160a01b0316630184a92a6040518163ffffffff1660e01b8152600401602060405180830381865afa158015620032e0573d6000803e3d6000fd5b505050506040513d601f19601f82011682018060405250810190620033069190620039d1565b620033605760405162461bcd60e51b8152602060048201526024808201527f506f736974696f6e4d616e616765722f70726963652d69732d6e6f742d6865616044820152636c74687960e01b60648201526084016200083e565b5050565b806000811215620033ac5760405162461bcd60e51b81526020600482015260116024820152706d757374206e6f74206e6567617469766560781b60448201526064016200083e565b919050565b620033bb6200351b565b6033805460ff191690557f5db9ee0a495bf2e6ff9c91a7834c1ba4fdd244a5e8aa4e537bd38aeae4b073aa335b6040516001600160a01b03909116815260200160405180910390a1565b60008262003414838262003ca9565b9150811015620019d85760405162461bcd60e51b815260206004820152600c60248201526b616464206f766572666c6f7760a01b60448201526064016200083e565b6200346062003172565b6033805460ff191660011790557f62e78cea01bee320cd4e420270b5ea74000d11b0c9f74754ebdbfc544b05a258620033e83390565b600054610100900460ff16620034c05760405162461bcd60e51b81526004016200083e9062003cbf565b620031ba62003566565b600082620034d9838262003d0a565b9150811115620019d85760405162461bcd60e51b815260206004820152600c60248201526b737562206f766572666c6f7760a01b60448201526064016200083e565b60335460ff16620031ba5760405162461bcd60e51b815260206004820152601460248201527314185d5cd8589b194e881b9bdd081c185d5cd95960621b60448201526064016200083e565b600054610100900460ff16620035905760405162461bcd60e51b81526004016200083e9062003cbf565b6033805460ff19169055565b6101038062003d2183390190565b600060208284031215620035bd57600080fd5b5035919050565b6001600160a01b03811681146200119557600080fd5b600060208284031215620035ed57600080fd5b8135620035fa81620035c4565b9392505050565b60008083601f8401126200361457600080fd5b50813567ffffffffffffffff8111156200362d57600080fd5b6020830191508360208285010111156200364657600080fd5b9250929050565b60008060008060008060a087890312156200366757600080fd5b86359550602087013594506040870135935060608701356200368981620035c4565b9250608087013567ffffffffffffffff811115620036a657600080fd5b620036b489828a0162003601565b979a9699509497509295939492505050565b60008060408385031215620036da57600080fd5b8235620036e781620035c4565b946020939093013593505050565b600080604083850312156200370957600080fd5b82356200371681620035c4565b915060208301356200372881620035c4565b809150509250929050565b60008060008060008060a087890312156200374d57600080fd5b8635955060208701356200376181620035c4565b94506040870135935060608701356200368981620035c4565b600080604083850312156200378e57600080fd5b8235915060208301356200372881620035c4565b600080600080600060808688031215620037bb57600080fd5b853594506020860135620037cf81620035c4565b93506040860135620037e181620035c4565b9250606086013567ffffffffffffffff811115620037fe57600080fd5b6200380c8882890162003601565b969995985093965092949392505050565b600080600080600080600060c0888a0312156200383957600080fd5b873596506020880135955060408801356200385481620035c4565b94506060880135935060808801356200386d81620035c4565b925060a088013567ffffffffffffffff8111156200388a57600080fd5b620038988a828b0162003601565b989b979a50959850939692959293505050565b600080600060608486031215620038c157600080fd5b833592506020840135620038d581620035c4565b929592945050506040919091013590565b600080600060608486031215620038fc57600080fd5b83356200390981620035c4565b92506020840135915060408401356200392281620035c4565b809150509250925092565b600080604083850312156200394157600080fd5b50508035926020909101359150565b6000806000606084860312156200396657600080fd5b83356200397381620035c4565b925060208401356200398581620035c4565b915060408401356200392281620035c4565b600060208284031215620039aa57600080fd5b8151620035fa81620035c4565b600060208284031215620039ca57600080fd5b5051919050565b600060208284031215620039e457600080fd5b81518015158114620035fa57600080fd5b60208082526017908201527f21286f776e6572526f6c65206f7220676f76526f6c6529000000000000000000604082015260600190565b60208082526022908201527f506f736974696f6e4d616e616765722f696e76616c69642d626f6f6b4b65657060408201526132b960f11b606082015260800190565b6020808252601190820152701bdddb995c881b9bdd08185b1b1bddd959607a1b604082015260600190565b81835281816020850137506000828201602090810191909152601f909101601f19169091010190565b6001600160a01b03878116825286166020820152604081018590526060810184905260a06080820181905260009062003aff908301848662003a99565b98975050505050505050565b6000806040838503121562003b1f57600080fd5b505080516020909101519092909150565b9485526001600160a01b0393841660208601529190921660408401526060830191909152608082015260a00190565b600060018060a01b038087168352602081871681850152856040850152608060608501528451915081608085015260005b8281101562003bae5785810182015185820160a00152810162003b90565b5050600060a0828501015260a0601f19601f83011684010191505095945050505050565b60208082526023908201527f506f736974696f6e4d616e616765722f696e76616c69642d70726963654f7261604082015262636c6560e81b606082015260800190565b6001600160a01b038681168252851660208201526040810184905260806060820181905260009062003c4b908301848662003a99565b979650505050505050565b8681526001600160a01b03868116602083015285811660408301528416606082015260a06080820181905260009062003aff908301848662003a99565b634e487b7160e01b600052601160045260246000fd5b80820180821115620019d857620019d862003c93565b6020808252602b908201527f496e697469616c697a61626c653a20636f6e7472616374206973206e6f74206960408201526a6e697469616c697a696e6760a81b606082015260800190565b81810381811115620019d857620019d862003c9356fe6080604052348015600f57600080fd5b50604051610103380380610103833981016040819052602c916088565b604051634d8c928d60e11b81523360048201526001600160a01b03821690639b19251a90602401600060405180830381600087803b158015606c57600080fd5b505af1158015607f573d6000803e3d6000fd5b505050505060b6565b600060208284031215609957600080fd5b81516001600160a01b038116811460af57600080fd5b9392505050565b603f806100c46000396000f3fe6080604052600080fdfea2646970667358221220098888839cdeca8a3a193367bdd14f2c5fbf972ad8563018d111e733a8e76d6b64736f6c63430008110033a264697066735822122087e580ea4aeabd91d72e761bb7604843b8254e7ed2d74a161d720339ca27550a64736f6c63430008110033",
    "immutableReferences": {},
    "source": "// SPDX-License-Identifier: AGPL-3.0-or-later\npragma solidity 0.8.17;\n\nimport \"@openzeppelin/contracts-upgradeable/access/AccessControlUpgradeable.sol\";\nimport \"@openzeppelin/contracts-upgradeable/security/PausableUpgradeable.sol\";\n\nimport \"./PositionHandler.sol\";\nimport \"../interfaces/IManager.sol\";\nimport \"../interfaces/IBookKeeper.sol\";\nimport \"../interfaces/IGenericTokenAdapter.sol\";\nimport \"../interfaces/IShowStopper.sol\";\nimport \"../interfaces/ISetPrice.sol\";\nimport \"../interfaces/IPriceFeed.sol\";\nimport \"../interfaces/IPriceOracle.sol\";\n\ncontract PositionManagerMath {\n    function _safeAdd(uint256 _x, uint256 _y) internal pure returns (uint256 _z) {\n        require((_z = _x + _y) >= _x, \"add overflow\");\n    }\n\n    function _safeSub(uint256 _x, uint256 _y) internal pure returns (uint256 _z) {\n        require((_z = _x - _y) <= _x, \"sub overflow\");\n    }\n\n    function _safeToInt(uint256 _x) internal pure returns (int256 _y) {\n        _y = int256(_x);\n        require(_y >= 0, \"must not negative\");\n    }\n}\n\ncontract PositionManager is PositionManagerMath, PausableUpgradeable, IManager {\n    struct List {\n        uint256 prev;\n        uint256 next;\n    }\n\n    address public override bookKeeper;\n    address public showStopper;\n    address public priceOracle;\n\n    uint256 public lastPositionId;\n    /// @dev Mapping of positionId => positionHandler\n    mapping(uint256 => address) public override positions;\n    /// @dev Mapping of positionId => prev & next positionId; Double linked list\n    mapping(uint256 => List) public list;\n    /// @dev Mapping of positionId => owner\n    mapping(uint256 => address) public override owners;\n    /// @dev Mapping of positionHandler => owner\n    mapping(address => address) public override mapPositionHandlerToOwner;\n    /// @dev Mapping of positionId => collateralPool\n    mapping(uint256 => bytes32) public override collateralPools;\n\n    mapping(address => uint256) public ownerFirstPositionId;\n    mapping(address => uint256) public ownerLastPositionId;\n    mapping(address => uint256) public ownerPositionCount;\n\n    /// @dev Mapping of owner => whitelisted address that can manage owner's position\n    mapping(address => mapping(uint256 => mapping(address => uint256))) public override ownerWhitelist;\n    /// @dev Mapping of owner => whitelisted address that can migrate position\n    mapping(address => mapping(address => uint256)) public migrationWhitelist;\n\n    event LogNewPosition(address indexed _usr, address indexed _own, uint256 indexed _positionId);\n    event LogAllowManagePosition(address indexed _caller, uint256 indexed _positionId, address _owner, address _user, uint256 _ok);\n    event LogAllowMigratePosition(address indexed _caller, address _user, uint256 _ok);\n    event LogExportPosition(uint256 indexed _positionId, address _source, address _destination, uint256 _lockedCollateral, uint256 _debtShare);\n    event LogImportPosition(uint256 indexed _positionId, address _source, address _destination, uint256 _lockedCollateral, uint256 _debtShare);\n    event LogMovePosition(uint256 _sourceId, uint256 _destinationId, uint256 _lockedCollateral, uint256 _debtShare);\n\n    /// @dev Require that the caller must be position's owner or owner whitelist\n    modifier onlyOwnerAllowed(uint256 _positionId) {\n        require(msg.sender == owners[_positionId] || ownerWhitelist[owners[_positionId]][_positionId][msg.sender] == 1, \"owner not allowed\");\n        _;\n    }\n\n    /// @dev Require that the caller must be allowed to migrate position to the migrant address\n    modifier onlyMigrationAllowed(address _migrantAddress) {\n        require(msg.sender == _migrantAddress || migrationWhitelist[_migrantAddress][msg.sender] == 1, \"migration not allowed\");\n        _;\n    }\n\n    modifier onlyOwnerOrGov() {\n        IAccessControlConfig _accessControlConfig = IAccessControlConfig(IBookKeeper(bookKeeper).accessControlConfig());\n        require(\n            _accessControlConfig.hasRole(_accessControlConfig.OWNER_ROLE(), msg.sender) ||\n                _accessControlConfig.hasRole(_accessControlConfig.GOV_ROLE(), msg.sender),\n            \"!(ownerRole or govRole)\"\n        );\n        _;\n    }\n\n    function initialize(address _bookKeeper, address _showStopper, address _priceOracle) external initializer {\n        PausableUpgradeable.__Pausable_init();\n\n        require(IBookKeeper(_bookKeeper).totalStablecoinIssued() >= 0, \"PositionManager/invalid-bookKeeper\"); // Sanity Check Call\n        bookKeeper = _bookKeeper;\n\n        require(IShowStopper(_showStopper).live() == 1, \"PositionManager/showStopper-not-live\"); // Sanity Check Call\n        showStopper = _showStopper;\n\n        require(IPriceOracle(_priceOracle).stableCoinReferencePrice() >= 0, \"PositionManager/invalid-priceOracle\"); // Sanity Check Call\n        priceOracle = _priceOracle;\n    }\n\n    /// @dev Allow/disallow a user to manage the position\n    /// @param _positionId The position id\n    /// @param _user The address to be allowed for managing the position\n    /// @param _ok Ok flag to allow/disallow. 1 for allow and 0 for disallow.\n    function allowManagePosition(uint256 _positionId, address _user, uint256 _ok) external override whenNotPaused onlyOwnerAllowed(_positionId) {\n        ownerWhitelist[owners[_positionId]][_positionId][_user] = _ok;\n        emit LogAllowManagePosition(msg.sender, _positionId, owners[_positionId], _user, _ok);\n    }\n\n    /// @dev Allow/disallow a user to importPosition/exportPosition from/to msg.sender\n    /// @param _user The address of user that will be allowed to do such an action to msg.sender\n    /// @param _ok Ok flag to allow/disallow\n    function allowMigratePosition(address _user, uint256 _ok) external override whenNotPaused {\n        migrationWhitelist[msg.sender][_user] = _ok;\n        emit LogAllowMigratePosition(msg.sender, _user, _ok);\n    }\n\n    /// @dev Open a new position for a given user address.\n    /// @param _collateralPoolId The collateral pool id that will be used for this position\n    /// @param _user The user address that is owned this position\n    function open(bytes32 _collateralPoolId, address _user) external override whenNotPaused returns (uint256) {\n        require(_user != address(0), \"PositionManager/user-address(0)\");\n        uint256 _debtAccumulatedRate = ICollateralPoolConfig(IBookKeeper(bookKeeper).collateralPoolConfig()).getDebtAccumulatedRate(\n            _collateralPoolId\n        );\n        require(_debtAccumulatedRate != 0, \"PositionManager/collateralPool-not-init\");\n\n        lastPositionId = _safeAdd(lastPositionId, 1);\n        positions[lastPositionId] = address(new PositionHandler(bookKeeper));\n        owners[lastPositionId] = _user;\n        mapPositionHandlerToOwner[positions[lastPositionId]] = _user;\n        collateralPools[lastPositionId] = _collateralPoolId;\n\n        // Add new position to double linked list and pointers\n        if (ownerFirstPositionId[_user] == 0) {\n            ownerFirstPositionId[_user] = lastPositionId;\n        }\n        if (ownerLastPositionId[_user] != 0) {\n            list[lastPositionId].prev = ownerLastPositionId[_user];\n            list[ownerLastPositionId[_user]].next = lastPositionId;\n        }\n        ownerLastPositionId[_user] = lastPositionId;\n        ownerPositionCount[_user] = _safeAdd(ownerPositionCount[_user], 1);\n\n        emit LogNewPosition(msg.sender, _user, lastPositionId);\n\n        return lastPositionId;\n    }\n\n    /// @dev Give the position ownership to a destination address\n    /// @param _positionId The position id to be given away ownership\n    /// @param _destination The destination to be a new owner of the position\n    function give(uint256 _positionId, address _destination) external override whenNotPaused onlyOwnerAllowed(_positionId) {\n        require(_destination != address(0), \"destination address(0)\");\n        require(_destination != owners[_positionId], \"destination already owner\");\n\n        // Remove transferred position from double linked list of origin user and pointers\n        if (list[_positionId].prev != 0) {\n            // Set the next pointer of the prev position (if exists) to the next of the transferred one\n            list[list[_positionId].prev].next = list[_positionId].next;\n        }\n\n        if (list[_positionId].next != 0) {\n            // If wasn't the last one set the prev pointer of the next position to the prev of the transferred one\n            list[list[_positionId].next].prev = list[_positionId].prev;\n        } else {\n            // If was the last one update last pointer of the owner\n            ownerLastPositionId[owners[_positionId]] = list[_positionId].prev;\n        }\n\n        if (ownerFirstPositionId[owners[_positionId]] == _positionId) {\n            // If was the first one update first pointer of the owner\n            ownerFirstPositionId[owners[_positionId]] = list[_positionId].next;\n        }\n        ownerPositionCount[owners[_positionId]] = _safeSub(ownerPositionCount[owners[_positionId]], 1);\n\n        // Transfer ownership\n        owners[_positionId] = _destination;\n        mapPositionHandlerToOwner[positions[_positionId]] = _destination;\n\n        // Add transferred position to double linked list of destiny user and pointers\n        list[_positionId].prev = ownerLastPositionId[_destination];\n        list[_positionId].next = 0;\n        if (ownerLastPositionId[_destination] != 0) {\n            list[ownerLastPositionId[_destination]].next = _positionId;\n        }\n        if (ownerFirstPositionId[_destination] == 0) {\n            ownerFirstPositionId[_destination] = _positionId;\n        }\n        ownerLastPositionId[_destination] = _positionId;\n        ownerPositionCount[_destination] = _safeAdd(ownerPositionCount[_destination], 1);\n    }\n\n    /// @dev Adjust the position keeping the generated stablecoin or collateral freed in the positionHandler address.\n    /// @param _positionId The position id to be adjusted\n    /// @param _collateralValue The collateralValue to be adjusted\n    /// @param _debtShare The debtShare to be adjusted\n    /// @param _adapter The adapter to be called once the position is adjusted\n    /// @param _data The extra data for adapter\n    function adjustPosition(\n        uint256 _positionId,\n        int256 _collateralValue,\n        int256 _debtShare,\n        address _adapter,\n        bytes calldata _data\n    ) external override whenNotPaused onlyOwnerAllowed(_positionId) {\n        bytes32 _collateralPoolId = collateralPools[_positionId];\n        _requireHealthyPrice(_collateralPoolId);\n\n        address _positionAddress = positions[_positionId];\n        IBookKeeper(bookKeeper).adjustPosition(\n            collateralPools[_positionId],\n            _positionAddress,\n            _positionAddress,\n            _positionAddress,\n            _collateralValue,\n            _debtShare\n        );\n        IGenericTokenAdapter(_adapter).onAdjustPosition(_positionAddress, _positionAddress, _collateralValue, _debtShare, _data);\n\n        ISetPrice(priceOracle).setPrice(_collateralPoolId);\n    }\n\n    /// @dev Transfer wad amount of position's collateral from the positionHandler address to a destination address.\n    /// @param _positionId The position id to move collateral from\n    /// @param _destination The destination to received collateral\n    /// @param _wad The amount in wad to be moved\n    /// @param _adapter The adapter to be called when collateral has been moved\n    /// @param _data The extra data for the adapter\n    function moveCollateral(\n        uint256 _positionId,\n        address _destination,\n        uint256 _wad,\n        address _adapter,\n        bytes calldata _data\n    ) external override whenNotPaused onlyOwnerAllowed(_positionId) {\n        bytes32 _collateralPoolId = collateralPools[_positionId];\n        _requireHealthyPrice(_collateralPoolId);\n\n        IBookKeeper(bookKeeper).moveCollateral(collateralPools[_positionId], positions[_positionId], _destination, _wad);\n        IGenericTokenAdapter(_adapter).onMoveCollateral(positions[_positionId], _destination, _wad, _data);\n    }\n\n    /// @dev Transfer wad amount of any type of collateral (collateralPoolId) from the positionHandler address to the destination address\n    /// This function has the purpose to take away collateral from the system that doesn't correspond to the position but was sent there wrongly\n    /// @param _collateralPoolId The collateral pool id\n    /// @param _positionId The position id to move collateral from\n    /// @param _destination The destination to recevied collateral\n    /// @param _wad The amount in wad to be moved\n    /// @param _adapter The adapter to be called once collateral is moved\n    /// @param _data The extra datat to be passed to the adapter\n    function moveCollateral(\n        bytes32 _collateralPoolId,\n        uint256 _positionId,\n        address _destination,\n        uint256 _wad,\n        address _adapter,\n        bytes calldata _data\n    ) external whenNotPaused onlyOwnerAllowed(_positionId) {\n        _requireHealthyPrice(_collateralPoolId);\n\n        IBookKeeper(bookKeeper).moveCollateral(_collateralPoolId, positions[_positionId], _destination, _wad);\n        IGenericTokenAdapter(_adapter).onMoveCollateral(positions[_positionId], _destination, _wad, _data);\n    }\n\n    /// @dev Transfer rad amount of stablecoin from the positionHandler address to the destination address\n    /// @param _positionId The position id to move stablecoin from\n    /// @param _destination The destination to received stablecoin\n    /// @param _rad The amount in rad to be moved\n    function moveStablecoin(uint256 _positionId, address _destination, uint256 _rad) external override whenNotPaused onlyOwnerAllowed(_positionId) {\n        IBookKeeper(bookKeeper).moveStablecoin(positions[_positionId], _destination, _rad);\n    }\n\n    /// @dev Export the positions's lockedCollateral and debtShare to a different destination address\n    /// The destination address must allow position's owner to do so.\n    /// @param _positionId The position id to be exported\n    /// @param _destination The PositionHandler to be exported to\n    function exportPosition(\n        uint256 _positionId,\n        address _destination\n    ) external override whenNotPaused onlyOwnerAllowed(_positionId) onlyMigrationAllowed(_destination) {\n        (uint256 _lockedCollateral, uint256 _debtShare) = IBookKeeper(bookKeeper).positions(collateralPools[_positionId], positions[_positionId]);\n        IBookKeeper(bookKeeper).movePosition(\n            collateralPools[_positionId],\n            positions[_positionId],\n            _destination,\n            _safeToInt(_lockedCollateral),\n            _safeToInt(_debtShare)\n        );\n        ICollateralPoolConfig _collateralPoolConfig = ICollateralPoolConfig(IBookKeeper(bookKeeper).collateralPoolConfig());\n        IGenericTokenAdapter _tokenAdapter = IGenericTokenAdapter(_collateralPoolConfig.getAdapter(collateralPools[_positionId]));\n        _tokenAdapter.onMoveCollateral(positions[_positionId], _destination, _lockedCollateral, abi.encode());\n        emit LogExportPosition(_positionId, positions[_positionId], _destination, _lockedCollateral, _debtShare);\n    }\n\n    /// @dev Import lockedCollateral and debtShare from the source address to\n    /// the PositionHandler owned by the PositionManager.\n    /// The source address must allow position's owner to do so.\n    /// @param _source The source PositionHandler to be moved to this PositionManager\n    /// @param _positionId The position id to be moved to this PositionManager\n    function importPosition(\n        address _source,\n        uint256 _positionId\n    ) external override whenNotPaused onlyMigrationAllowed(_source) onlyOwnerAllowed(_positionId) {\n        (uint256 _lockedCollateral, uint256 _debtShare) = IBookKeeper(bookKeeper).positions(collateralPools[_positionId], _source);\n        IBookKeeper(bookKeeper).movePosition(\n            collateralPools[_positionId],\n            _source,\n            positions[_positionId],\n            _safeToInt(_lockedCollateral),\n            _safeToInt(_debtShare)\n        );\n        ICollateralPoolConfig _collateralPoolConfig = ICollateralPoolConfig(IBookKeeper(bookKeeper).collateralPoolConfig());\n        IGenericTokenAdapter _tokenAdapter = IGenericTokenAdapter(_collateralPoolConfig.getAdapter(collateralPools[_positionId]));\n        _tokenAdapter.onMoveCollateral(_source, positions[_positionId], _lockedCollateral, abi.encode());\n        emit LogImportPosition(_positionId, _source, positions[_positionId], _lockedCollateral, _debtShare);\n    }\n\n    /// @dev Move position's lockedCollateral and debtShare\n    /// from the source PositionHandler to the destination PositionHandler\n    /// @param _sourceId The source PositionHandler\n    /// @param _destinationId The destination PositionHandler\n    function movePosition(\n        uint256 _sourceId,\n        uint256 _destinationId\n    ) external override whenNotPaused onlyOwnerAllowed(_sourceId) onlyOwnerAllowed(_destinationId) {\n        require(collateralPools[_sourceId] == collateralPools[_destinationId], \"!same collateral pool\");\n        (uint256 _lockedCollateral, uint256 _debtShare) = IBookKeeper(bookKeeper).positions(collateralPools[_sourceId], positions[_sourceId]);\n        IBookKeeper(bookKeeper).movePosition(\n            collateralPools[_sourceId],\n            positions[_sourceId],\n            positions[_destinationId],\n            _safeToInt(_lockedCollateral),\n            _safeToInt(_debtShare)\n        );\n        ICollateralPoolConfig _collateralPoolConfig = ICollateralPoolConfig(IBookKeeper(bookKeeper).collateralPoolConfig());\n        IGenericTokenAdapter _tokenAdapter = IGenericTokenAdapter(_collateralPoolConfig.getAdapter(collateralPools[_sourceId]));\n        _tokenAdapter.onMoveCollateral(positions[_sourceId], positions[_destinationId], _lockedCollateral, abi.encode());\n        emit LogMovePosition(_sourceId, _destinationId, _lockedCollateral, _debtShare);\n    }\n\n    /// @dev Redeem locked collateral from a position when emergency shutdown is activated\n    /// @param _posId The position id to be adjusted\n    /// @param _adapter The adapter to be called once the position is adjusted\n    /// @param _data The extra data for adapter\n    function redeemLockedCollateral(\n        uint256 _posId,\n        address _adapter,\n        address _collateralReceiver,\n        bytes calldata _data\n    ) external override whenNotPaused onlyOwnerAllowed(_posId) {\n        address _positionAddress = positions[_posId];\n        IShowStopper(showStopper).redeemLockedCollateral(\n            collateralPools[_posId],\n            IGenericTokenAdapter(_adapter),\n            _positionAddress,\n            _collateralReceiver,\n            _data\n        );\n    }\n\n    function setPriceOracle(address _priceOracle) external onlyOwnerOrGov {\n        require(IPriceOracle(_priceOracle).stableCoinReferencePrice() >= 0, \"PositionManager/invalid-priceOracle\"); // Sanity Check Call\n        priceOracle = _priceOracle;\n    }\n\n    function setBookKeeper(address _bookKeeper) external onlyOwnerOrGov {\n        require(IBookKeeper(_bookKeeper).totalStablecoinIssued() >= 0, \"PositionManager/invalid-bookKeeper\"); // Sanity Check Call\n        bookKeeper = _bookKeeper;\n    }\n\n    function pause() external onlyOwnerOrGov {\n        _pause();\n    }\n\n    function unpause() external onlyOwnerOrGov {\n        _unpause();\n    }\n\n    function updatePrice(bytes32 _poolId) external override whenNotPaused {\n        ISetPrice(priceOracle).setPrice(_poolId);\n    }\n\n    function _requireHealthyPrice(bytes32 _poolId) internal view {\n        IPriceFeed _priceFeed = IPriceFeed(ICollateralPoolConfig(IBookKeeper(bookKeeper).collateralPoolConfig()).getPriceFeed(_poolId));\n        require(_priceFeed.isPriceOk(), \"PositionManager/price-is-not-healthy\");\n    }\n}\n",
    "sourcePath": "/Users/antongrigorev/Developer/fathom-stablecoin-smart-contracts/contracts/main/managers/PositionManager.sol",
    "compiler": {
        "name": "solc",
        "version": "0.8.17+commit.8df45f5f.Emscripten.clang"
    },
    "schemaVersion": "3.4.13",
    "updatedAt": "2023-04-28T08:02:27.634Z",
    "devdoc": {
        "kind": "dev",
        "methods": {
            "adjustPosition(uint256,int256,int256,address,bytes)": {
                "details": "Adjust the position keeping the generated stablecoin or collateral freed in the positionHandler address.",
                "params": {
                    "_adapter": "The adapter to be called once the position is adjusted",
                    "_collateralValue": "The collateralValue to be adjusted",
                    "_data": "The extra data for adapter",
                    "_debtShare": "The debtShare to be adjusted",
                    "_positionId": "The position id to be adjusted"
                }
            },
            "allowManagePosition(uint256,address,uint256)": {
                "details": "Allow/disallow a user to manage the position",
                "params": {
                    "_ok": "Ok flag to allow/disallow. 1 for allow and 0 for disallow.",
                    "_positionId": "The position id",
                    "_user": "The address to be allowed for managing the position"
                }
            },
            "allowMigratePosition(address,uint256)": {
                "details": "Allow/disallow a user to importPosition/exportPosition from/to msg.sender",
                "params": {
                    "_ok": "Ok flag to allow/disallow",
                    "_user": "The address of user that will be allowed to do such an action to msg.sender"
                }
            },
            "exportPosition(uint256,address)": {
                "details": "Export the positions's lockedCollateral and debtShare to a different destination address The destination address must allow position's owner to do so.",
                "params": {
                    "_destination": "The PositionHandler to be exported to",
                    "_positionId": "The position id to be exported"
                }
            },
            "give(uint256,address)": {
                "details": "Give the position ownership to a destination address",
                "params": {
                    "_destination": "The destination to be a new owner of the position",
                    "_positionId": "The position id to be given away ownership"
                }
            },
            "importPosition(address,uint256)": {
                "details": "Import lockedCollateral and debtShare from the source address to the PositionHandler owned by the PositionManager. The source address must allow position's owner to do so.",
                "params": {
                    "_positionId": "The position id to be moved to this PositionManager",
                    "_source": "The source PositionHandler to be moved to this PositionManager"
                }
            },
            "moveCollateral(bytes32,uint256,address,uint256,address,bytes)": {
                "details": "Transfer wad amount of any type of collateral (collateralPoolId) from the positionHandler address to the destination address This function has the purpose to take away collateral from the system that doesn't correspond to the position but was sent there wrongly",
                "params": {
                    "_adapter": "The adapter to be called once collateral is moved",
                    "_collateralPoolId": "The collateral pool id",
                    "_data": "The extra datat to be passed to the adapter",
                    "_destination": "The destination to recevied collateral",
                    "_positionId": "The position id to move collateral from",
                    "_wad": "The amount in wad to be moved"
                }
            },
            "moveCollateral(uint256,address,uint256,address,bytes)": {
                "details": "Transfer wad amount of position's collateral from the positionHandler address to a destination address.",
                "params": {
                    "_adapter": "The adapter to be called when collateral has been moved",
                    "_data": "The extra data for the adapter",
                    "_destination": "The destination to received collateral",
                    "_positionId": "The position id to move collateral from",
                    "_wad": "The amount in wad to be moved"
                }
            },
            "movePosition(uint256,uint256)": {
                "details": "Move position's lockedCollateral and debtShare from the source PositionHandler to the destination PositionHandler",
                "params": {
                    "_destinationId": "The destination PositionHandler",
                    "_sourceId": "The source PositionHandler"
                }
            },
            "moveStablecoin(uint256,address,uint256)": {
                "details": "Transfer rad amount of stablecoin from the positionHandler address to the destination address",
                "params": {
                    "_destination": "The destination to received stablecoin",
                    "_positionId": "The position id to move stablecoin from",
                    "_rad": "The amount in rad to be moved"
                }
            },
            "open(bytes32,address)": {
                "details": "Open a new position for a given user address.",
                "params": {
                    "_collateralPoolId": "The collateral pool id that will be used for this position",
                    "_user": "The user address that is owned this position"
                }
            },
            "paused()": {
                "details": "Returns true if the contract is paused, and false otherwise."
            },
            "redeemLockedCollateral(uint256,address,address,bytes)": {
                "details": "Redeem locked collateral from a position when emergency shutdown is activated",
                "params": {
                    "_adapter": "The adapter to be called once the position is adjusted",
                    "_data": "The extra data for adapter",
                    "_posId": "The position id to be adjusted"
                }
            }
        },
        "stateVariables": {
            "collateralPools": {
                "details": "Mapping of positionId => collateralPool"
            },
            "list": {
                "details": "Mapping of positionId => prev & next positionId; Double linked list"
            },
            "mapPositionHandlerToOwner": {
                "details": "Mapping of positionHandler => owner"
            },
            "migrationWhitelist": {
                "details": "Mapping of owner => whitelisted address that can migrate position"
            },
            "ownerWhitelist": {
                "details": "Mapping of owner => whitelisted address that can manage owner's position"
            },
            "owners": {
                "details": "Mapping of positionId => owner"
            },
            "positions": {
                "details": "Mapping of positionId => positionHandler"
            }
        },
        "version": 1
    },
    "userdoc": {
        "kind": "user",
        "methods": {},
        "version": 1
    }
}