{
    "contractName": "PriceOracle",
    "abi": [
        {
            "anonymous": false,
            "inputs": [
                {
                    "indexed": false,
                    "internalType": "uint8",
                    "name": "version",
                    "type": "uint8"
                }
            ],
            "name": "Initialized",
            "type": "event"
        },
        {
            "anonymous": false,
            "inputs": [],
            "name": "LogCage",
            "type": "event"
        },
        {
            "anonymous": false,
            "inputs": [
                {
                    "indexed": true,
                    "internalType": "bytes32",
                    "name": "_poolId",
                    "type": "bytes32"
                },
                {
                    "indexed": false,
                    "internalType": "uint256",
                    "name": "_rawPrice",
                    "type": "uint256"
                },
                {
                    "indexed": false,
                    "internalType": "uint256",
                    "name": "_priceWithSafetyMargin",
                    "type": "uint256"
                }
            ],
            "name": "LogSetPrice",
            "type": "event"
        },
        {
            "anonymous": false,
            "inputs": [
                {
                    "indexed": true,
                    "internalType": "address",
                    "name": "_caller",
                    "type": "address"
                },
                {
                    "indexed": false,
                    "internalType": "uint256",
                    "name": "_data",
                    "type": "uint256"
                }
            ],
            "name": "LogSetStableCoinReferencePrice",
            "type": "event"
        },
        {
            "anonymous": false,
            "inputs": [
                {
                    "indexed": false,
                    "internalType": "address",
                    "name": "account",
                    "type": "address"
                }
            ],
            "name": "Paused",
            "type": "event"
        },
        {
            "anonymous": false,
            "inputs": [
                {
                    "indexed": false,
                    "internalType": "address",
                    "name": "account",
                    "type": "address"
                }
            ],
            "name": "Unpaused",
            "type": "event"
        },
        {
            "inputs": [],
            "name": "bookKeeper",
            "outputs": [
                {
                    "internalType": "contract IBookKeeper",
                    "name": "",
                    "type": "address"
                }
            ],
            "stateMutability": "view",
            "type": "function"
        },
        {
            "inputs": [],
            "name": "live",
            "outputs": [
                {
                    "internalType": "uint256",
                    "name": "",
                    "type": "uint256"
                }
            ],
            "stateMutability": "view",
            "type": "function"
        },
        {
            "inputs": [],
            "name": "paused",
            "outputs": [
                {
                    "internalType": "bool",
                    "name": "",
                    "type": "bool"
                }
            ],
            "stateMutability": "view",
            "type": "function"
        },
        {
            "inputs": [],
            "name": "stableCoinReferencePrice",
            "outputs": [
                {
                    "internalType": "uint256",
                    "name": "",
                    "type": "uint256"
                }
            ],
            "stateMutability": "view",
            "type": "function"
        },
        {
            "inputs": [
                {
                    "internalType": "address",
                    "name": "_bookKeeper",
                    "type": "address"
                }
            ],
            "name": "initialize",
            "outputs": [],
            "stateMutability": "nonpayable",
            "type": "function"
        },
        {
            "inputs": [
                {
                    "internalType": "address",
                    "name": "_bookKeeper",
                    "type": "address"
                }
            ],
            "name": "setBookKeeper",
            "outputs": [],
            "stateMutability": "nonpayable",
            "type": "function"
        },
        {
            "inputs": [
                {
                    "internalType": "uint256",
                    "name": "_referencePrice",
                    "type": "uint256"
                }
            ],
            "name": "setStableCoinReferencePrice",
            "outputs": [],
            "stateMutability": "nonpayable",
            "type": "function"
        },
        {
            "inputs": [
                {
                    "internalType": "bytes32",
                    "name": "_collateralPoolId",
                    "type": "bytes32"
                }
            ],
            "name": "setPrice",
            "outputs": [],
            "stateMutability": "nonpayable",
            "type": "function"
        },
        {
            "inputs": [],
            "name": "cage",
            "outputs": [],
            "stateMutability": "nonpayable",
            "type": "function"
        },
        {
            "inputs": [],
            "name": "pause",
            "outputs": [],
            "stateMutability": "nonpayable",
            "type": "function"
        },
        {
            "inputs": [],
            "name": "unpause",
            "outputs": [],
            "stateMutability": "nonpayable",
            "type": "function"
        }
    ],
    "bytecode": "0x608060405234801561001057600080fd5b50611842806100206000396000f3fe608060405234801561001057600080fd5b50600436106100a95760003560e01c80636924500911610071578063692450091461010c5780638456cb5914610114578063957aa58c1461011c5780639d1eea7814610133578063c4d66de81461013c578063e3b3932a1461014f57600080fd5b8063038a2f0d146100ae57806307d8bd88146100c3578063285da53b146100d65780633f4ba83a146100e95780635c975abb146100f1575b600080fd5b6100c16100bc366004611555565b61017a565b005b6100c16100d1366004611583565b6103db565b6100c16100e4366004611555565b610654565b6100c1610a07565b60335460ff1660405190151581526020015b60405180910390f35b6100c1610c7c565b6100c1610f27565b61012560675481565b604051908152602001610103565b61012560665481565b6100c161014a366004611583565b611199565b606554610162906001600160a01b031681565b6040516001600160a01b039091168152602001610103565b6065546040805163c8cc243f60e01b815290516000926001600160a01b03169163c8cc243f9160048083019260209291908290030181865afa1580156101c4573d6000803e3d6000fd5b505050506040513d601f19601f820116820180604052508101906101e891906115b0565b9050806001600160a01b03166391d14854826001600160a01b031663e58378bb6040518163ffffffff1660e01b8152600401602060405180830381865afa158015610237573d6000803e3d6000fd5b505050506040513d601f19601f8201168201806040525081019061025b91906115cd565b6040516001600160e01b031960e084901b1681526004810191909152336024820152604401602060405180830381865afa15801561029d573d6000803e3d6000fd5b505050506040513d601f19601f820116820180604052508101906102c191906115f6565b6102ff5760405162461bcd60e51b815260206004820152600a602482015269216f776e6572526f6c6560b01b60448201526064015b60405180910390fd5b6067546001146103215760405162461bcd60e51b81526004016102f690611611565b69d3c21bcecceda10000008211801561034557506b06765c793fa10079d000000082105b61039d5760405162461bcd60e51b815260206004820152602360248201527f50726963654f7261636c652f696e76616c69642d7265666572656e63652d707260448201526269636560e81b60648201526084016102f6565b606682905560405182815233907f981464cdb0035497ee4816c35dc8771b2d26e321e79163de2b51ee8b6d51df139060200160405180910390a25050565b6065546040805163c8cc243f60e01b815290516000926001600160a01b03169163c8cc243f9160048083019260209291908290030181865afa158015610425573d6000803e3d6000fd5b505050506040513d601f19601f8201168201806040525081019061044991906115b0565b9050806001600160a01b03166391d14854826001600160a01b031663e58378bb6040518163ffffffff1660e01b8152600401602060405180830381865afa158015610498573d6000803e3d6000fd5b505050506040513d601f19601f820116820180604052508101906104bc91906115cd565b6040516001600160e01b031960e084901b1681526004810191909152336024820152604401602060405180830381865afa1580156104fe573d6000803e3d6000fd5b505050506040513d601f19601f8201168201806040525081019061052291906115f6565b61055b5760405162461bcd60e51b815260206004820152600a602482015269216f776e6572526f6c6560b01b60448201526064016102f6565b60675460011461057d5760405162461bcd60e51b81526004016102f690611611565b6000826001600160a01b0316636f3a3bfc6040518163ffffffff1660e01b81526004016020604051808303816000875af11580156105bf573d6000803e3d6000fd5b505050506040513d601f19601f820116820180604052508101906105e391906115cd565b10156106315760405162461bcd60e51b815260206004820152601e60248201527f53686f7753746f707065722f696e76616c69642d626f6f6b4b6565706572000060448201526064016102f6565b50606580546001600160a01b0319166001600160a01b0392909216919091179055565b61065c6113a9565b60675460011461067e5760405162461bcd60e51b81526004016102f690611611565b6065546040805163d868246160e01b815290516000926001600160a01b03169163d86824619160048083019260209291908290030181865afa1580156106c8573d6000803e3d6000fd5b505050506040513d601f19601f820116820180604052508101906106ec91906115b0565b6001600160a01b031663d97a3649836040518263ffffffff1660e01b815260040161071991815260200190565b6101e060405180830381865afa158015610737573d6000803e3d6000fd5b505050506040513d601f19601f8201168201806040525081019061075b9190611677565b60a0015190506000606560009054906101000a90046001600160a01b03166001600160a01b031663d86824616040518163ffffffff1660e01b8152600401602060405180830381865afa1580156107b6573d6000803e3d6000fd5b505050506040513d601f19601f820116820180604052508101906107da91906115b0565b6001600160a01b03166344d0c937846040518263ffffffff1660e01b815260040161080791815260200190565b602060405180830381865afa158015610824573d6000803e3d6000fd5b505050506040513d601f19601f8201168201806040525081019061084891906115cd565b9050600080836001600160a01b031663140d27206040518163ffffffff1660e01b815260040160408051808303816000875af115801561088c573d6000803e3d6000fd5b505050506040513d601f19601f820116820180604052508101906108b09190611748565b915091506000816108c25760006108e4565b6108e46108de6108d685633b9aca00611774565b6066546113f1565b856113f1565b90506000606560009054906101000a90046001600160a01b03166001600160a01b031663d86824616040518163ffffffff1660e01b8152600401602060405180830381865afa15801561093b573d6000803e3d6000fd5b505050506040513d601f19601f8201168201806040525081019061095f91906115b0565b604051635f3e4f9960e11b815260048101899052602481018490529091506001600160a01b0382169063be7c9f3290604401600060405180830381600087803b1580156109ab57600080fd5b505af11580156109bf573d6000803e3d6000fd5b505060408051878152602081018690528a93507ffaa687d46bf00de5909dbac324c7f4d287144d889cb873d50ebeb219ea68f51792500160405180910390a250505050505050565b6065546040805163c8cc243f60e01b815290516000926001600160a01b03169163c8cc243f9160048083019260209291908290030181865afa158015610a51573d6000803e3d6000fd5b505050506040513d601f19601f82011682018060405250810190610a7591906115b0565b9050806001600160a01b03166391d14854826001600160a01b031663e58378bb6040518163ffffffff1660e01b8152600401602060405180830381865afa158015610ac4573d6000803e3d6000fd5b505050506040513d601f19601f82011682018060405250810190610ae891906115cd565b6040516001600160e01b031960e084901b1681526004810191909152336024820152604401602060405180830381865afa158015610b2a573d6000803e3d6000fd5b505050506040513d601f19601f82011682018060405250810190610b4e91906115f6565b80610c2b5750806001600160a01b03166391d14854826001600160a01b031663b536818a6040518163ffffffff1660e01b8152600401602060405180830381865afa158015610ba1573d6000803e3d6000fd5b505050506040513d601f19601f82011682018060405250810190610bc591906115cd565b6040516001600160e01b031960e084901b1681526004810191909152336024820152604401602060405180830381865afa158015610c07573d6000803e3d6000fd5b505050506040513d601f19601f82011682018060405250810190610c2b91906115f6565b610c715760405162461bcd60e51b815260206004820152601760248201527621286f776e6572526f6c65206f7220676f76526f6c652960481b60448201526064016102f6565b610c7961141b565b50565b6065546040805163c8cc243f60e01b815290516000926001600160a01b03169163c8cc243f9160048083019260209291908290030181865afa158015610cc6573d6000803e3d6000fd5b505050506040513d601f19601f82011682018060405250810190610cea91906115b0565b9050806001600160a01b03166391d14854826001600160a01b031663e58378bb6040518163ffffffff1660e01b8152600401602060405180830381865afa158015610d39573d6000803e3d6000fd5b505050506040513d601f19601f82011682018060405250810190610d5d91906115cd565b6040516001600160e01b031960e084901b1681526004810191909152336024820152604401602060405180830381865afa158015610d9f573d6000803e3d6000fd5b505050506040513d601f19601f82011682018060405250810190610dc391906115f6565b80610ea05750806001600160a01b03166391d14854826001600160a01b031663d7a47a696040518163ffffffff1660e01b8152600401602060405180830381865afa158015610e16573d6000803e3d6000fd5b505050506040513d601f19601f82011682018060405250810190610e3a91906115cd565b6040516001600160e01b031960e084901b1681526004810191909152336024820152604401602060405180830381865afa158015610e7c573d6000803e3d6000fd5b505050506040513d601f19601f82011682018060405250810190610ea091906115f6565b610eec5760405162461bcd60e51b815260206004820152601f60248201527f21286f776e6572526f6c65206f722073686f7753746f70706572526f6c65290060448201526064016102f6565b606754600103610c7957600060678190556040517fbf689b4aae670d200b1d2b971ace2e0c3bef88a9c5e93f36705c7b86eab630b99190a150565b6065546040805163c8cc243f60e01b815290516000926001600160a01b03169163c8cc243f9160048083019260209291908290030181865afa158015610f71573d6000803e3d6000fd5b505050506040513d601f19601f82011682018060405250810190610f9591906115b0565b9050806001600160a01b03166391d14854826001600160a01b031663e58378bb6040518163ffffffff1660e01b8152600401602060405180830381865afa158015610fe4573d6000803e3d6000fd5b505050506040513d601f19601f8201168201806040525081019061100891906115cd565b6040516001600160e01b031960e084901b1681526004810191909152336024820152604401602060405180830381865afa15801561104a573d6000803e3d6000fd5b505050506040513d601f19601f8201168201806040525081019061106e91906115f6565b8061114b5750806001600160a01b03166391d14854826001600160a01b031663b536818a6040518163ffffffff1660e01b8152600401602060405180830381865afa1580156110c1573d6000803e3d6000fd5b505050506040513d601f19601f820116820180604052508101906110e591906115cd565b6040516001600160e01b031960e084901b1681526004810191909152336024820152604401602060405180830381865afa158015611127573d6000803e3d6000fd5b505050506040513d601f19601f8201168201806040525081019061114b91906115f6565b6111915760405162461bcd60e51b815260206004820152601760248201527621286f776e6572526f6c65206f7220676f76526f6c652960481b60448201526064016102f6565b610c7961146d565b600054610100900460ff16158080156111b95750600054600160ff909116105b806111d35750303b1580156111d3575060005460ff166001145b6112365760405162461bcd60e51b815260206004820152602e60248201527f496e697469616c697a61626c653a20636f6e747261637420697320616c72656160448201526d191e481a5b9a5d1a585b1a5e995960921b60648201526084016102f6565b6000805460ff191660011790558015611259576000805461ff0019166101001790555b6112616114aa565b6000826001600160a01b0316636f3a3bfc6040518163ffffffff1660e01b81526004016020604051808303816000875af11580156112a3573d6000803e3d6000fd5b505050506040513d601f19601f820116820180604052508101906112c791906115cd565b101561132f5760405162461bcd60e51b815260206004820152603160248201527f46697865645370726561644c69717569646174696f6e53747261746567792f69604482015270373b30b634b216b137b7b5a5b2b2b832b960791b60648201526084016102f6565b606580546001600160a01b0319166001600160a01b0384161790556b033b2e3c9fd0803ce8000000606655600160675580156113a5576000805461ff0019169055604051600181527f7f26b83ff96e1f2b6a682f133852f6798a09c465da95921460cefb38474024989060200160405180910390a15b5050565b60335460ff16156113ef5760405162461bcd60e51b815260206004820152601060248201526f14185d5cd8589b194e881c185d5cd95960821b60448201526064016102f6565b565b60008161140a6b033b2e3c9fd0803ce800000085611774565b611414919061179f565b9392505050565b6114236114d9565b6033805460ff191690557f5db9ee0a495bf2e6ff9c91a7834c1ba4fdd244a5e8aa4e537bd38aeae4b073aa335b6040516001600160a01b03909116815260200160405180910390a1565b6114756113a9565b6033805460ff191660011790557f62e78cea01bee320cd4e420270b5ea74000d11b0c9f74754ebdbfc544b05a2586114503390565b600054610100900460ff166114d15760405162461bcd60e51b81526004016102f6906117c1565b6113ef611522565b60335460ff166113ef5760405162461bcd60e51b815260206004820152601460248201527314185d5cd8589b194e881b9bdd081c185d5cd95960621b60448201526064016102f6565b600054610100900460ff166115495760405162461bcd60e51b81526004016102f6906117c1565b6033805460ff19169055565b60006020828403121561156757600080fd5b5035919050565b6001600160a01b0381168114610c7957600080fd5b60006020828403121561159557600080fd5b81356114148161156e565b80516115ab8161156e565b919050565b6000602082840312156115c257600080fd5b81516114148161156e565b6000602082840312156115df57600080fd5b5051919050565b805180151581146115ab57600080fd5b60006020828403121561160857600080fd5b611414826115e6565b60208082526014908201527350726963654f7261636c652f6e6f742d6c69766560601b604082015260600190565b6040516101e0810167ffffffffffffffff8111828210171561167157634e487b7160e01b600052604160045260246000fd5b60405290565b60006101e0828403121561168a57600080fd5b61169261163f565b82518152602083015160208201526040830151604082015260608301516060820152608083015160808201526116ca60a084016115a0565b60a082015260c083015160c082015260e083015160e08201526101008084015181830152506101206116fd8185016115a0565b908201526101408381015190820152610160808401519082015261018080840151908201526101a06117308185016115a0565b908201526101c0928301519281019290925250919050565b6000806040838503121561175b57600080fd5b8251915061176b602084016115e6565b90509250929050565b808202811582820484141761179957634e487b7160e01b600052601160045260246000fd5b92915050565b6000826117bc57634e487b7160e01b600052601260045260246000fd5b500490565b6020808252602b908201527f496e697469616c697a61626c653a20636f6e7472616374206973206e6f74206960408201526a6e697469616c697a696e6760a81b60608201526080019056fea26469706673582212207615d97715d5806687339817e282f8d9501aac23051162aeffb4dfc010b0090a64736f6c63430008110033",
    "immutableReferences": {},
    "source": "// SPDX-License-Identifier: AGPL-3.0-or-later\npragma solidity 0.8.17;\n\nimport \"@openzeppelin/contracts-upgradeable/security/PausableUpgradeable.sol\";\n\nimport \"../interfaces/IBookKeeper.sol\";\nimport \"../interfaces/IPriceFeed.sol\";\nimport \"../interfaces/IPriceOracle.sol\";\nimport \"../interfaces/ICagable.sol\";\nimport \"../interfaces/ICollateralPoolConfig.sol\";\nimport \"../interfaces/IPausable.sol\";\nimport \"../interfaces/ISetPrice.sol\";\nimport \"../utils/CommonMath.sol\";\n\n/** @notice A contract which is the price oracle of the BookKeeper to keep all collateral pools updated with the latest price of the collateral.\n    The price oracle is important in reflecting the current state of the market price.\n*/\ncontract PriceOracle is CommonMath, PausableUpgradeable, IPriceOracle, ICagable, IPausable, ISetPrice {\n    struct CollateralPool {\n        IPriceFeed priceFeed; // Price Feed\n        uint256 liquidationRatio; // Liquidation ratio or Collateral ratio [ray]\n    }\n\n    uint256 internal constant MIN_REFERENCE_PRICE = 10 ** 24;\n    uint256 internal constant MAX_REFERENCE_PRICE = 2 * (10 ** 27);\n\n    IBookKeeper public bookKeeper; // CDP Engine\n    uint256 public override stableCoinReferencePrice; // ref per FUSD [ray] :: value of stablecoin in the reference asset (e.g. $1 per Fathom USD)\n\n    uint256 public live;\n\n    event LogSetPrice(\n        bytes32 indexed _poolId,\n        uint256 _rawPrice, // Raw price from price feed [wad]\n        uint256 _priceWithSafetyMargin // Price with safety margin [ray]\n    );\n\n    event LogSetStableCoinReferencePrice(address indexed _caller, uint256 _data);\n\n    modifier onlyOwner() {\n        IAccessControlConfig _accessControlConfig = IAccessControlConfig(bookKeeper.accessControlConfig());\n        require(_accessControlConfig.hasRole(_accessControlConfig.OWNER_ROLE(), msg.sender), \"!ownerRole\");\n        _;\n    }\n\n    modifier onlyOwnerOrGov() {\n        IAccessControlConfig _accessControlConfig = IAccessControlConfig(bookKeeper.accessControlConfig());\n        require(\n            _accessControlConfig.hasRole(_accessControlConfig.OWNER_ROLE(), msg.sender) ||\n                _accessControlConfig.hasRole(_accessControlConfig.GOV_ROLE(), msg.sender),\n            \"!(ownerRole or govRole)\"\n        );\n        _;\n    }\n\n    modifier onlyOwnerOrShowStopper() {\n        IAccessControlConfig _accessControlConfig = IAccessControlConfig(bookKeeper.accessControlConfig());\n        require(\n            _accessControlConfig.hasRole(_accessControlConfig.OWNER_ROLE(), msg.sender) ||\n                _accessControlConfig.hasRole(_accessControlConfig.SHOW_STOPPER_ROLE(), msg.sender),\n            \"!(ownerRole or showStopperRole)\"\n        );\n        _;\n    }\n\n    modifier isLive() {\n        require(live == 1, \"PriceOracle/not-live\");\n        _;\n    }\n\n    function initialize(address _bookKeeper) external initializer {\n        PausableUpgradeable.__Pausable_init();\n        require(IBookKeeper(_bookKeeper).totalStablecoinIssued() >= 0, \"FixedSpreadLiquidationStrategy/invalid-bookKeeper\"); // Sanity Check Call\n        bookKeeper = IBookKeeper(_bookKeeper);\n        stableCoinReferencePrice = RAY;\n        live = 1;\n    }\n\n    function setBookKeeper(address _bookKeeper) external onlyOwner isLive {\n        require(IBookKeeper(_bookKeeper).totalStablecoinIssued() >= 0, \"ShowStopper/invalid-bookKeeper\"); // Sanity Check Call\n        bookKeeper = IBookKeeper(_bookKeeper);\n    }\n\n    function setStableCoinReferencePrice(uint256 _referencePrice) external onlyOwner isLive {\n        require(_referencePrice > MIN_REFERENCE_PRICE && _referencePrice < MAX_REFERENCE_PRICE, \"PriceOracle/invalid-reference-price\");\n        stableCoinReferencePrice = _referencePrice;\n        emit LogSetStableCoinReferencePrice(msg.sender, _referencePrice);\n    }\n\n    function setPrice(bytes32 _collateralPoolId) external override whenNotPaused isLive {\n        IPriceFeed _priceFeed = IPriceFeed(ICollateralPoolConfig(bookKeeper.collateralPoolConfig()).collateralPools(_collateralPoolId).priceFeed);\n        uint256 _liquidationRatio = ICollateralPoolConfig(bookKeeper.collateralPoolConfig()).getLiquidationRatio(_collateralPoolId);\n        (uint256 _rawPrice, bool _hasPrice) = _priceFeed.peekPrice();\n        uint256 _priceWithSafetyMargin = _hasPrice ? rdiv(rdiv(_rawPrice * (10 ** 9), stableCoinReferencePrice), _liquidationRatio) : 0;\n        address _collateralPoolConfig = address(bookKeeper.collateralPoolConfig());\n        ICollateralPoolConfig(_collateralPoolConfig).setPriceWithSafetyMargin(_collateralPoolId, _priceWithSafetyMargin);\n        emit LogSetPrice(_collateralPoolId, _rawPrice, _priceWithSafetyMargin);\n    }\n\n    function cage() external override onlyOwnerOrShowStopper {\n        if (live == 1) {\n            live = 0;\n            emit LogCage();\n        }\n    }\n    function pause() external override onlyOwnerOrGov {\n        _pause();\n    }\n\n    function unpause() external override onlyOwnerOrGov {\n        _unpause();\n    }\n}\n",
    "sourcePath": "/Users/sangjun.lee/Sangjun/fathom-stablecoin-smart-contracts/contracts/main/stablecoin-core/PriceOracle.sol",
    "compiler": {
        "name": "solc",
        "version": "0.8.17+commit.8df45f5f.Emscripten.clang"
    },
    "schemaVersion": "3.4.10",
    "updatedAt": "2023-07-25T11:12:21.223Z",
    "devdoc": {
        "kind": "dev",
        "methods": {
            "paused()": {
                "details": "Returns true if the contract is paused, and false otherwise."
            }
        },
        "version": 1
    },
    "userdoc": {
        "kind": "user",
        "methods": {},
        "notice": "A contract which is the price oracle of the BookKeeper to keep all collateral pools updated with the latest price of the collateral. The price oracle is important in reflecting the current state of the market price.",
        "version": 1
    }
}