{
    "contractName": "PriceOracle",
    "abi": [
        {
            "anonymous": false,
            "inputs": [
                {
                    "indexed": false,
                    "internalType": "uint8",
                    "name": "version",
                    "type": "uint8"
                }
            ],
            "name": "Initialized",
            "type": "event"
        },
        {
            "anonymous": false,
            "inputs": [],
            "name": "LogCage",
            "type": "event"
        },
        {
            "anonymous": false,
            "inputs": [
                {
                    "indexed": true,
                    "internalType": "bytes32",
                    "name": "_poolId",
                    "type": "bytes32"
                },
                {
                    "indexed": false,
                    "internalType": "bytes32",
                    "name": "_rawPrice",
                    "type": "bytes32"
                },
                {
                    "indexed": false,
                    "internalType": "uint256",
                    "name": "_priceWithSafetyMargin",
                    "type": "uint256"
                },
                {
                    "indexed": false,
                    "internalType": "uint256",
                    "name": "_rawPriceUint",
                    "type": "uint256"
                }
            ],
            "name": "LogSetPrice",
            "type": "event"
        },
        {
            "anonymous": false,
            "inputs": [
                {
                    "indexed": true,
                    "internalType": "address",
                    "name": "_caller",
                    "type": "address"
                },
                {
                    "indexed": false,
                    "internalType": "uint256",
                    "name": "_data",
                    "type": "uint256"
                }
            ],
            "name": "LogSetStableCoinReferencePrice",
            "type": "event"
        },
        {
            "anonymous": false,
            "inputs": [],
            "name": "LogUncage",
            "type": "event"
        },
        {
            "anonymous": false,
            "inputs": [
                {
                    "indexed": false,
                    "internalType": "address",
                    "name": "account",
                    "type": "address"
                }
            ],
            "name": "Paused",
            "type": "event"
        },
        {
            "anonymous": false,
            "inputs": [
                {
                    "indexed": false,
                    "internalType": "address",
                    "name": "account",
                    "type": "address"
                }
            ],
            "name": "Unpaused",
            "type": "event"
        },
        {
            "inputs": [],
            "name": "bookKeeper",
            "outputs": [
                {
                    "internalType": "contract IBookKeeper",
                    "name": "",
                    "type": "address"
                }
            ],
            "stateMutability": "view",
            "type": "function"
        },
        {
            "inputs": [],
            "name": "live",
            "outputs": [
                {
                    "internalType": "uint256",
                    "name": "",
                    "type": "uint256"
                }
            ],
            "stateMutability": "view",
            "type": "function"
        },
        {
            "inputs": [],
            "name": "paused",
            "outputs": [
                {
                    "internalType": "bool",
                    "name": "",
                    "type": "bool"
                }
            ],
            "stateMutability": "view",
            "type": "function"
        },
        {
            "inputs": [],
            "name": "stableCoinReferencePrice",
            "outputs": [
                {
                    "internalType": "uint256",
                    "name": "",
                    "type": "uint256"
                }
            ],
            "stateMutability": "view",
            "type": "function"
        },
        {
            "inputs": [
                {
                    "internalType": "address",
                    "name": "_bookKeeper",
                    "type": "address"
                }
            ],
            "name": "initialize",
            "outputs": [],
            "stateMutability": "nonpayable",
            "type": "function"
        },
        {
            "inputs": [
                {
                    "internalType": "address",
                    "name": "_bookKeeper",
                    "type": "address"
                }
            ],
            "name": "setBookKeeper",
            "outputs": [],
            "stateMutability": "nonpayable",
            "type": "function"
        },
        {
            "inputs": [
                {
                    "internalType": "uint256",
                    "name": "_referencePrice",
                    "type": "uint256"
                }
            ],
            "name": "setStableCoinReferencePrice",
            "outputs": [],
            "stateMutability": "nonpayable",
            "type": "function"
        },
        {
            "inputs": [
                {
                    "internalType": "bytes32",
                    "name": "_collateralPoolId",
                    "type": "bytes32"
                }
            ],
            "name": "setPrice",
            "outputs": [],
            "stateMutability": "nonpayable",
            "type": "function"
        },
        {
            "inputs": [],
            "name": "cage",
            "outputs": [],
            "stateMutability": "nonpayable",
            "type": "function"
        },
        {
            "inputs": [],
            "name": "uncage",
            "outputs": [],
            "stateMutability": "nonpayable",
            "type": "function"
        },
        {
            "inputs": [],
            "name": "pause",
            "outputs": [],
            "stateMutability": "nonpayable",
            "type": "function"
        },
        {
            "inputs": [],
            "name": "unpause",
            "outputs": [],
            "stateMutability": "nonpayable",
            "type": "function"
        }
    ],
    "bytecode": "0x608060405234801561001057600080fd5b50611c1e806100206000396000f3fe608060405234801561001057600080fd5b50600436106100b45760003560e01c80638456cb59116100715780638456cb591461011f578063957aa58c146101275780639d1eea781461013e578063c4d66de814610147578063d63b23b21461015a578063e3b3932a1461016257600080fd5b8063038a2f0d146100b957806307d8bd88146100ce578063285da53b146100e15780633f4ba83a146100f45780635c975abb146100fc5780636924500914610117575b600080fd5b6100cc6100c7366004611944565b61018d565b005b6100cc6100dc366004611972565b61043e565b6100cc6100ef366004611944565b6106b7565b6100cc610a75565b60335460ff1660405190151581526020015b60405180910390f35b6100cc610cea565b6100cc610f95565b61013060995481565b60405190815260200161010e565b61013060985481565b6100cc610155366004611972565b611207565b6100cc61141f565b609754610175906001600160a01b031681565b6040516001600160a01b03909116815260200161010e565b6097546040805163c8cc243f60e01b815290516000926001600160a01b03169163c8cc243f9160048083019260209291908290030181865afa1580156101d7573d6000803e3d6000fd5b505050506040513d601f19601f820116820180604052508101906101fb919061199f565b9050806001600160a01b03166391d14854826001600160a01b031663e58378bb6040518163ffffffff1660e01b8152600401602060405180830381865afa15801561024a573d6000803e3d6000fd5b505050506040513d601f19601f8201168201806040525081019061026e91906119bc565b6040516001600160e01b031960e084901b1681526004810191909152336024820152604401602060405180830381865afa1580156102b0573d6000803e3d6000fd5b505050506040513d601f19601f820116820180604052508101906102d491906119e5565b6103125760405162461bcd60e51b815260206004820152600a602482015269216f776e6572526f6c6560b01b60448201526064015b60405180910390fd5b6099546001146103345760405162461bcd60e51b815260040161030990611a00565b600082116103845760405162461bcd60e51b815260206004820181905260248201527f50726963654f7261636c652f7a65726f2d7265666572656e63652d70726963656044820152606401610309565b69d3c21bcecceda1000000821180156103a857506b06765c793fa10079d000000082105b6104005760405162461bcd60e51b815260206004820152602360248201527f50726963654f7261636c652f696e76616c69642d7265666572656e63652d707260448201526269636560e81b6064820152608401610309565b609882905560405182815233907f981464cdb0035497ee4816c35dc8771b2d26e321e79163de2b51ee8b6d51df139060200160405180910390a25050565b6097546040805163c8cc243f60e01b815290516000926001600160a01b03169163c8cc243f9160048083019260209291908290030181865afa158015610488573d6000803e3d6000fd5b505050506040513d601f19601f820116820180604052508101906104ac919061199f565b9050806001600160a01b03166391d14854826001600160a01b031663e58378bb6040518163ffffffff1660e01b8152600401602060405180830381865afa1580156104fb573d6000803e3d6000fd5b505050506040513d601f19601f8201168201806040525081019061051f91906119bc565b6040516001600160e01b031960e084901b1681526004810191909152336024820152604401602060405180830381865afa158015610561573d6000803e3d6000fd5b505050506040513d601f19601f8201168201806040525081019061058591906119e5565b6105be5760405162461bcd60e51b815260206004820152600a602482015269216f776e6572526f6c6560b01b6044820152606401610309565b6099546001146105e05760405162461bcd60e51b815260040161030990611a00565b6000826001600160a01b0316636f3a3bfc6040518163ffffffff1660e01b81526004016020604051808303816000875af1158015610622573d6000803e3d6000fd5b505050506040513d601f19601f8201168201806040525081019061064691906119bc565b10156106945760405162461bcd60e51b815260206004820152601e60248201527f53686f7753746f707065722f696e76616c69642d626f6f6b4b656570657200006044820152606401610309565b50609780546001600160a01b0319166001600160a01b0392909216919091179055565b6106bf611708565b6099546001146106e15760405162461bcd60e51b815260040161030990611a00565b6097546040805163d868246160e01b815290516000926001600160a01b03169163d86824619160048083019260209291908290030181865afa15801561072b573d6000803e3d6000fd5b505050506040513d601f19601f8201168201806040525081019061074f919061199f565b6001600160a01b031663d97a3649836040518263ffffffff1660e01b815260040161077c91815260200190565b6101c060405180830381865afa15801561079a573d6000803e3d6000fd5b505050506040513d601f19601f820116820180604052508101906107be9190611a66565b60a0015190506000609760009054906101000a90046001600160a01b03166001600160a01b031663d86824616040518163ffffffff1660e01b8152600401602060405180830381865afa158015610819573d6000803e3d6000fd5b505050506040513d601f19601f8201168201806040525081019061083d919061199f565b6001600160a01b03166344d0c937846040518263ffffffff1660e01b815260040161086a91815260200190565b602060405180830381865afa158015610887573d6000803e3d6000fd5b505050506040513d601f19601f820116820180604052508101906108ab91906119bc565b9050600080836001600160a01b031663140d27206040518163ffffffff1660e01b815260040160408051808303816000875af11580156108ef573d6000803e3d6000fd5b505050506040513d601f19601f820116820180604052508101906109139190611b2a565b91509150600081610925576000610947565b61094761094161093985633b9aca00611750565b609854611783565b85611783565b90506000609760009054906101000a90046001600160a01b03166001600160a01b031663d86824616040518163ffffffff1660e01b8152600401602060405180830381865afa15801561099e573d6000803e3d6000fd5b505050506040513d601f19601f820116820180604052508101906109c2919061199f565b604051635f3e4f9960e11b815260048101899052602481018490529091506001600160a01b0382169063be7c9f3290604401600060405180830381600087803b158015610a0e57600080fd5b505af1158015610a22573d6000803e3d6000fd5b505060408051878152602081018690529081018790528692508991507fd13c000939826ab5a452ab5236ed4da41167b2c3c449cf2d24428529571aaa239060600160405180910390a25050505050505050565b6097546040805163c8cc243f60e01b815290516000926001600160a01b03169163c8cc243f9160048083019260209291908290030181865afa158015610abf573d6000803e3d6000fd5b505050506040513d601f19601f82011682018060405250810190610ae3919061199f565b9050806001600160a01b03166391d14854826001600160a01b031663e58378bb6040518163ffffffff1660e01b8152600401602060405180830381865afa158015610b32573d6000803e3d6000fd5b505050506040513d601f19601f82011682018060405250810190610b5691906119bc565b6040516001600160e01b031960e084901b1681526004810191909152336024820152604401602060405180830381865afa158015610b98573d6000803e3d6000fd5b505050506040513d601f19601f82011682018060405250810190610bbc91906119e5565b80610c995750806001600160a01b03166391d14854826001600160a01b031663b536818a6040518163ffffffff1660e01b8152600401602060405180830381865afa158015610c0f573d6000803e3d6000fd5b505050506040513d601f19601f82011682018060405250810190610c3391906119bc565b6040516001600160e01b031960e084901b1681526004810191909152336024820152604401602060405180830381865afa158015610c75573d6000803e3d6000fd5b505050506040513d601f19601f82011682018060405250810190610c9991906119e5565b610cdf5760405162461bcd60e51b815260206004820152601760248201527621286f776e6572526f6c65206f7220676f76526f6c652960481b6044820152606401610309565b610ce76117ad565b50565b6097546040805163c8cc243f60e01b815290516000926001600160a01b03169163c8cc243f9160048083019260209291908290030181865afa158015610d34573d6000803e3d6000fd5b505050506040513d601f19601f82011682018060405250810190610d58919061199f565b9050806001600160a01b03166391d14854826001600160a01b031663e58378bb6040518163ffffffff1660e01b8152600401602060405180830381865afa158015610da7573d6000803e3d6000fd5b505050506040513d601f19601f82011682018060405250810190610dcb91906119bc565b6040516001600160e01b031960e084901b1681526004810191909152336024820152604401602060405180830381865afa158015610e0d573d6000803e3d6000fd5b505050506040513d601f19601f82011682018060405250810190610e3191906119e5565b80610f0e5750806001600160a01b03166391d14854826001600160a01b031663d7a47a696040518163ffffffff1660e01b8152600401602060405180830381865afa158015610e84573d6000803e3d6000fd5b505050506040513d601f19601f82011682018060405250810190610ea891906119bc565b6040516001600160e01b031960e084901b1681526004810191909152336024820152604401602060405180830381865afa158015610eea573d6000803e3d6000fd5b505050506040513d601f19601f82011682018060405250810190610f0e91906119e5565b610f5a5760405162461bcd60e51b815260206004820152601f60248201527f21286f776e6572526f6c65206f722073686f7753746f70706572526f6c6529006044820152606401610309565b609954600103610ce757600060998190556040517fbf689b4aae670d200b1d2b971ace2e0c3bef88a9c5e93f36705c7b86eab630b99190a150565b6097546040805163c8cc243f60e01b815290516000926001600160a01b03169163c8cc243f9160048083019260209291908290030181865afa158015610fdf573d6000803e3d6000fd5b505050506040513d601f19601f82011682018060405250810190611003919061199f565b9050806001600160a01b03166391d14854826001600160a01b031663e58378bb6040518163ffffffff1660e01b8152600401602060405180830381865afa158015611052573d6000803e3d6000fd5b505050506040513d601f19601f8201168201806040525081019061107691906119bc565b6040516001600160e01b031960e084901b1681526004810191909152336024820152604401602060405180830381865afa1580156110b8573d6000803e3d6000fd5b505050506040513d601f19601f820116820180604052508101906110dc91906119e5565b806111b95750806001600160a01b03166391d14854826001600160a01b031663b536818a6040518163ffffffff1660e01b8152600401602060405180830381865afa15801561112f573d6000803e3d6000fd5b505050506040513d601f19601f8201168201806040525081019061115391906119bc565b6040516001600160e01b031960e084901b1681526004810191909152336024820152604401602060405180830381865afa158015611195573d6000803e3d6000fd5b505050506040513d601f19601f820116820180604052508101906111b991906119e5565b6111ff5760405162461bcd60e51b815260206004820152601760248201527621286f776e6572526f6c65206f7220676f76526f6c652960481b6044820152606401610309565b610ce76117ff565b600054610100900460ff16158080156112275750600054600160ff909116105b806112415750303b158015611241575060005460ff166001145b6112a45760405162461bcd60e51b815260206004820152602e60248201527f496e697469616c697a61626c653a20636f6e747261637420697320616c72656160448201526d191e481a5b9a5d1a585b1a5e995960921b6064820152608401610309565b6000805460ff1916600117905580156112c7576000805461ff0019166101001790555b6112cf61183c565b6112d761186b565b6000826001600160a01b0316636f3a3bfc6040518163ffffffff1660e01b81526004016020604051808303816000875af1158015611319573d6000803e3d6000fd5b505050506040513d601f19601f8201168201806040525081019061133d91906119bc565b10156113a55760405162461bcd60e51b815260206004820152603160248201527f46697865645370726561644c69717569646174696f6e53747261746567792f69604482015270373b30b634b216b137b7b5a5b2b2b832b960791b6064820152608401610309565b609780546001600160a01b0319166001600160a01b0384161790556b033b2e3c9fd0803ce80000006098556001609955801561141b576000805461ff0019169055604051600181527f7f26b83ff96e1f2b6a682f133852f6798a09c465da95921460cefb38474024989060200160405180910390a15b5050565b6097546040805163c8cc243f60e01b815290516000926001600160a01b03169163c8cc243f9160048083019260209291908290030181865afa158015611469573d6000803e3d6000fd5b505050506040513d601f19601f8201168201806040525081019061148d919061199f565b9050806001600160a01b03166391d14854826001600160a01b031663e58378bb6040518163ffffffff1660e01b8152600401602060405180830381865afa1580156114dc573d6000803e3d6000fd5b505050506040513d601f19601f8201168201806040525081019061150091906119bc565b6040516001600160e01b031960e084901b1681526004810191909152336024820152604401602060405180830381865afa158015611542573d6000803e3d6000fd5b505050506040513d601f19601f8201168201806040525081019061156691906119e5565b806116435750806001600160a01b03166391d14854826001600160a01b031663d7a47a696040518163ffffffff1660e01b8152600401602060405180830381865afa1580156115b9573d6000803e3d6000fd5b505050506040513d601f19601f820116820180604052508101906115dd91906119bc565b6040516001600160e01b031960e084901b1681526004810191909152336024820152604401602060405180830381865afa15801561161f573d6000803e3d6000fd5b505050506040513d601f19601f8201168201806040525081019061164391906119e5565b61168f5760405162461bcd60e51b815260206004820152601f60248201527f21286f776e6572526f6c65206f722073686f7753746f70706572526f6c6529006044820152606401610309565b609954156116d75760405162461bcd60e51b8152602060048201526015602482015274141c9a58d953dc9858db194bdb9bdd0b58d859d959605a1b6044820152606401610309565b60016099556040517f1868a6ced217213f36be87ba9aee25cde5381b42e85c8f88e73b18772c0bd07390600090a150565b60335460ff161561174e5760405162461bcd60e51b815260206004820152601060248201526f14185d5cd8589b194e881c185d5cd95960821b6044820152606401610309565b565b6000811580611774575082826117668183611b56565b92506117729083611b7b565b145b61177d57600080fd5b92915050565b60008161179c846b033b2e3c9fd0803ce8000000611750565b6117a69190611b7b565b9392505050565b6117b561189a565b6033805460ff191690557f5db9ee0a495bf2e6ff9c91a7834c1ba4fdd244a5e8aa4e537bd38aeae4b073aa335b6040516001600160a01b03909116815260200160405180910390a1565b611807611708565b6033805460ff191660011790557f62e78cea01bee320cd4e420270b5ea74000d11b0c9f74754ebdbfc544b05a2586117e23390565b600054610100900460ff166118635760405162461bcd60e51b815260040161030990611b9d565b61174e6118e3565b600054610100900460ff166118925760405162461bcd60e51b815260040161030990611b9d565b61174e611916565b60335460ff1661174e5760405162461bcd60e51b815260206004820152601460248201527314185d5cd8589b194e881b9bdd081c185d5cd95960621b6044820152606401610309565b600054610100900460ff1661190a5760405162461bcd60e51b815260040161030990611b9d565b6033805460ff19169055565b600054610100900460ff1661193d5760405162461bcd60e51b815260040161030990611b9d565b6001606555565b60006020828403121561195657600080fd5b5035919050565b6001600160a01b0381168114610ce757600080fd5b60006020828403121561198457600080fd5b81356117a68161195d565b805161199a8161195d565b919050565b6000602082840312156119b157600080fd5b81516117a68161195d565b6000602082840312156119ce57600080fd5b5051919050565b8051801515811461199a57600080fd5b6000602082840312156119f757600080fd5b6117a6826119d5565b60208082526014908201527350726963654f7261636c652f6e6f742d6c69766560601b604082015260600190565b6040516101c0810167ffffffffffffffff81118282101715611a6057634e487b7160e01b600052604160045260246000fd5b60405290565b60006101c08284031215611a7957600080fd5b611a81611a2e565b8251815260208301516020820152604083015160408201526060830151606082015260808301516080820152611ab960a0840161198f565b60a082015260c083015160c082015260e083015160e0820152610100808401518183015250610120611aec81850161198f565b908201526101408381015190820152610160808401519082015261018080840151908201526101a0611b1f81850161198f565b908201529392505050565b60008060408385031215611b3d57600080fd5b82519150611b4d602084016119d5565b90509250929050565b808202811582820484141761177d57634e487b7160e01b600052601160045260246000fd5b600082611b9857634e487b7160e01b600052601260045260246000fd5b500490565b6020808252602b908201527f496e697469616c697a61626c653a20636f6e7472616374206973206e6f74206960408201526a6e697469616c697a696e6760a81b60608201526080019056fea2646970667358221220ebb5ae424e2b1a5979116c7d8ba5189cd586ab28e5b3f983401d70c55c0a29d764736f6c63430008110033",
    "immutableReferences": {},
    "source": "// SPDX-License-Identifier: AGPL-3.0-or-later\npragma solidity 0.8.17;\n\nimport \"@openzeppelin/contracts-upgradeable/security/PausableUpgradeable.sol\";\nimport \"@openzeppelin/contracts-upgradeable/access/AccessControlUpgradeable.sol\";\nimport \"@openzeppelin/contracts-upgradeable/security/ReentrancyGuardUpgradeable.sol\";\n\nimport \"../interfaces/IBookKeeper.sol\";\nimport \"../interfaces/IPriceFeed.sol\";\nimport \"../interfaces/IPriceOracle.sol\";\nimport \"../interfaces/ICagable.sol\";\nimport \"../interfaces/ICollateralPoolConfig.sol\";\nimport \"../interfaces/IPausable.sol\";\n\ncontract PriceOracleMath {\n    uint256 internal constant ONE = 10 ** 27;\n\n    function mul(uint256 _x, uint256 _y) internal pure returns (uint256 _z) {\n        require(_y == 0 || (_z = _x * _y) / _y == _x);\n    }\n\n    function rdiv(uint256 _x, uint256 _y) internal pure returns (uint256 _z) {\n        _z = mul(_x, ONE) / _y;\n    }\n}\n\n/** @notice A contract which is the price oracle of the BookKeeper to keep all collateral pools updated with the latest price of the collateral.\n    The price oracle is important in reflecting the current state of the market price.\n*/\ncontract PriceOracle is PriceOracleMath, PausableUpgradeable, ReentrancyGuardUpgradeable, IPriceOracle, ICagable, IPausable {\n    struct CollateralPool {\n        IPriceFeed priceFeed; // Price Feed\n        uint256 liquidationRatio; // Liquidation ratio or Collateral ratio [ray]\n    }\n\n    uint256 internal constant MIN_REFERENCE_PRICE = 10 ** 24;\n    uint256 internal constant MAX_REFERENCE_PRICE = 2 * (10 ** 27);\n\n    IBookKeeper public bookKeeper; // CDP Engine\n    uint256 public override stableCoinReferencePrice; // ref per FUSD [ray] :: value of stablecoin in the reference asset (e.g. $1 per Fathom USD)\n\n    uint256 public live;\n\n    event LogSetPrice(\n        bytes32 indexed _poolId,\n        bytes32 _rawPrice, // Raw price from price feed [wad]\n        uint256 _priceWithSafetyMargin, // Price with safety margin [ray]\n        uint256 _rawPriceUint // Raw price from price feed in uint256\n    );\n\n    event LogSetStableCoinReferencePrice(address indexed _caller, uint256 _data);\n\n    modifier onlyOwner() {\n        IAccessControlConfig _accessControlConfig = IAccessControlConfig(bookKeeper.accessControlConfig());\n        require(_accessControlConfig.hasRole(_accessControlConfig.OWNER_ROLE(), msg.sender), \"!ownerRole\");\n        _;\n    }\n\n    modifier onlyOwnerOrGov() {\n        IAccessControlConfig _accessControlConfig = IAccessControlConfig(IBookKeeper(bookKeeper).accessControlConfig());\n        require(\n            _accessControlConfig.hasRole(_accessControlConfig.OWNER_ROLE(), msg.sender) ||\n                _accessControlConfig.hasRole(_accessControlConfig.GOV_ROLE(), msg.sender),\n            \"!(ownerRole or govRole)\"\n        );\n        _;\n    }\n\n    modifier onlyOwnerOrShowStopper() {\n        IAccessControlConfig _accessControlConfig = IAccessControlConfig(IBookKeeper(bookKeeper).accessControlConfig());\n        require(\n            _accessControlConfig.hasRole(_accessControlConfig.OWNER_ROLE(), msg.sender) ||\n                _accessControlConfig.hasRole(_accessControlConfig.SHOW_STOPPER_ROLE(), msg.sender),\n            \"!(ownerRole or showStopperRole)\"\n        );\n        _;\n    }\n\n    modifier isLive() {\n        require(live == 1, \"PriceOracle/not-live\");\n        _;\n    }\n\n    function initialize(address _bookKeeper) external initializer {\n        PausableUpgradeable.__Pausable_init();\n        ReentrancyGuardUpgradeable.__ReentrancyGuard_init();\n\n        require(IBookKeeper(_bookKeeper).totalStablecoinIssued() >= 0, \"FixedSpreadLiquidationStrategy/invalid-bookKeeper\"); // Sanity Check Call\n        bookKeeper = IBookKeeper(_bookKeeper);\n        stableCoinReferencePrice = ONE;\n        live = 1;\n    }\n\n    function setBookKeeper(address _bookKeeper) external onlyOwner isLive {\n        require(IBookKeeper(_bookKeeper).totalStablecoinIssued() >= 0, \"ShowStopper/invalid-bookKeeper\"); // Sanity Check Call\n        bookKeeper = IBookKeeper(_bookKeeper);\n    }\n\n    function setStableCoinReferencePrice(uint256 _referencePrice) external onlyOwner isLive {\n        require(_referencePrice > 0, \"PriceOracle/zero-reference-price\");\n        require(_referencePrice > MIN_REFERENCE_PRICE && _referencePrice < MAX_REFERENCE_PRICE, \"PriceOracle/invalid-reference-price\");\n        stableCoinReferencePrice = _referencePrice;\n        emit LogSetStableCoinReferencePrice(msg.sender, _referencePrice);\n    }\n\n    function setPrice(bytes32 _collateralPoolId) external whenNotPaused isLive {\n        IPriceFeed _priceFeed = IPriceFeed(ICollateralPoolConfig(bookKeeper.collateralPoolConfig()).collateralPools(_collateralPoolId).priceFeed);\n        uint256 _liquidationRatio = ICollateralPoolConfig(bookKeeper.collateralPoolConfig()).getLiquidationRatio(_collateralPoolId);\n        (bytes32 _rawPrice, bool _hasPrice) = _priceFeed.peekPrice();\n        uint256 _priceWithSafetyMargin = _hasPrice ? rdiv(rdiv(mul(uint256(_rawPrice), 10 ** 9), stableCoinReferencePrice), _liquidationRatio) : 0;\n        address _collateralPoolConfig = address(bookKeeper.collateralPoolConfig());\n        ICollateralPoolConfig(_collateralPoolConfig).setPriceWithSafetyMargin(_collateralPoolId, _priceWithSafetyMargin);\n        uint256 _rawPriceInUint = uint256(_rawPrice);\n        emit LogSetPrice(_collateralPoolId, _rawPrice, _priceWithSafetyMargin, _rawPriceInUint);\n    }\n\n    function cage() external override onlyOwnerOrShowStopper {\n        if (live == 1) {\n            live = 0;\n            emit LogCage();\n        }\n    }\n\n    function uncage() external override onlyOwnerOrShowStopper {\n        require(live == 0, \"PriceOracle/not-caged\");\n        live = 1;\n        emit LogUncage();\n    }\n\n    function pause() external override onlyOwnerOrGov {\n        _pause();\n    }\n\n    function unpause() external override onlyOwnerOrGov {\n        _unpause();\n    }\n}\n",
    "sourcePath": "/Users/sangjun.lee/Sangjun/fathom-stablecoin-smart-contracts/contracts/main/stablecoin-core/PriceOracle.sol",
    "compiler": {
        "name": "solc",
        "version": "0.8.17+commit.8df45f5f.Emscripten.clang"
    },
    "schemaVersion": "3.4.10",
    "updatedAt": "2023-04-14T12:23:30.875Z",
    "devdoc": {
        "kind": "dev",
        "methods": {
            "paused()": {
                "details": "Returns true if the contract is paused, and false otherwise."
            }
        },
        "version": 1
    },
    "userdoc": {
        "kind": "user",
        "methods": {},
        "notice": "A contract which is the price oracle of the BookKeeper to keep all collateral pools updated with the latest price of the collateral. The price oracle is important in reflecting the current state of the market price.",
        "version": 1
    }
}