{
    "contractName": "PriceOracle",
    "abi": [
        {
            "anonymous": false,
            "inputs": [
                {
                    "indexed": false,
                    "internalType": "uint8",
                    "name": "version",
                    "type": "uint8"
                }
            ],
            "name": "Initialized",
            "type": "event"
        },
        {
            "anonymous": false,
            "inputs": [],
            "name": "LogCage",
            "type": "event"
        },
        {
            "anonymous": false,
            "inputs": [
                {
                    "indexed": true,
                    "internalType": "bytes32",
                    "name": "_poolId",
                    "type": "bytes32"
                },
                {
                    "indexed": false,
                    "internalType": "uint256",
                    "name": "_rawPrice",
                    "type": "uint256"
                },
                {
                    "indexed": false,
                    "internalType": "uint256",
                    "name": "_priceWithSafetyMargin",
                    "type": "uint256"
                }
            ],
            "name": "LogSetPrice",
            "type": "event"
        },
        {
            "anonymous": false,
            "inputs": [
                {
                    "indexed": true,
                    "internalType": "address",
                    "name": "_caller",
                    "type": "address"
                },
                {
                    "indexed": false,
                    "internalType": "uint256",
                    "name": "_data",
                    "type": "uint256"
                }
            ],
            "name": "LogSetStableCoinReferencePrice",
            "type": "event"
        },
        {
            "anonymous": false,
            "inputs": [],
            "name": "LogUncage",
            "type": "event"
        },
        {
            "anonymous": false,
            "inputs": [
                {
                    "indexed": false,
                    "internalType": "address",
                    "name": "account",
                    "type": "address"
                }
            ],
            "name": "Paused",
            "type": "event"
        },
        {
            "anonymous": false,
            "inputs": [
                {
                    "indexed": false,
                    "internalType": "address",
                    "name": "account",
                    "type": "address"
                }
            ],
            "name": "Unpaused",
            "type": "event"
        },
        {
            "inputs": [],
            "name": "bookKeeper",
            "outputs": [
                {
                    "internalType": "contract IBookKeeper",
                    "name": "",
                    "type": "address"
                }
            ],
            "stateMutability": "view",
            "type": "function"
        },
        {
            "inputs": [],
            "name": "live",
            "outputs": [
                {
                    "internalType": "uint256",
                    "name": "",
                    "type": "uint256"
                }
            ],
            "stateMutability": "view",
            "type": "function"
        },
        {
            "inputs": [],
            "name": "paused",
            "outputs": [
                {
                    "internalType": "bool",
                    "name": "",
                    "type": "bool"
                }
            ],
            "stateMutability": "view",
            "type": "function"
        },
        {
            "inputs": [],
            "name": "stableCoinReferencePrice",
            "outputs": [
                {
                    "internalType": "uint256",
                    "name": "",
                    "type": "uint256"
                }
            ],
            "stateMutability": "view",
            "type": "function"
        },
        {
            "inputs": [
                {
                    "internalType": "address",
                    "name": "_bookKeeper",
                    "type": "address"
                }
            ],
            "name": "initialize",
            "outputs": [],
            "stateMutability": "nonpayable",
            "type": "function"
        },
        {
            "inputs": [
                {
                    "internalType": "address",
                    "name": "_bookKeeper",
                    "type": "address"
                }
            ],
            "name": "setBookKeeper",
            "outputs": [],
            "stateMutability": "nonpayable",
            "type": "function"
        },
        {
            "inputs": [
                {
                    "internalType": "uint256",
                    "name": "_referencePrice",
                    "type": "uint256"
                }
            ],
            "name": "setStableCoinReferencePrice",
            "outputs": [],
            "stateMutability": "nonpayable",
            "type": "function"
        },
        {
            "inputs": [
                {
                    "internalType": "bytes32",
                    "name": "_collateralPoolId",
                    "type": "bytes32"
                }
            ],
            "name": "setPrice",
            "outputs": [],
            "stateMutability": "nonpayable",
            "type": "function"
        },
        {
            "inputs": [],
            "name": "cage",
            "outputs": [],
            "stateMutability": "nonpayable",
            "type": "function"
        },
        {
            "inputs": [],
            "name": "uncage",
            "outputs": [],
            "stateMutability": "nonpayable",
            "type": "function"
        },
        {
            "inputs": [],
            "name": "pause",
            "outputs": [],
            "stateMutability": "nonpayable",
            "type": "function"
        },
        {
            "inputs": [],
            "name": "unpause",
            "outputs": [],
            "stateMutability": "nonpayable",
            "type": "function"
        }
    ],
    "bytecode": "0x608060405234801561001057600080fd5b50611bbb806100206000396000f3fe608060405234801561001057600080fd5b50600436106100b45760003560e01c80638456cb59116100715780638456cb591461011f578063957aa58c146101275780639d1eea781461013e578063c4d66de814610147578063d63b23b21461015a578063e3b3932a1461016257600080fd5b8063038a2f0d146100b957806307d8bd88146100ce578063285da53b146100e15780633f4ba83a146100f45780635c975abb146100fc5780636924500914610117575b600080fd5b6100cc6100c73660046118d4565b61018d565b005b6100cc6100dc366004611902565b61043e565b6100cc6100ef3660046118d4565b6106b7565b6100cc610a6a565b60335460ff1660405190151581526020015b60405180910390f35b6100cc610cdf565b6100cc610f8a565b61013060675481565b60405190815260200161010e565b61013060665481565b6100cc610155366004611902565b6111fc565b6100cc61140c565b606554610175906001600160a01b031681565b6040516001600160a01b03909116815260200161010e565b6065546040805163c8cc243f60e01b815290516000926001600160a01b03169163c8cc243f9160048083019260209291908290030181865afa1580156101d7573d6000803e3d6000fd5b505050506040513d601f19601f820116820180604052508101906101fb919061192f565b9050806001600160a01b03166391d14854826001600160a01b031663e58378bb6040518163ffffffff1660e01b8152600401602060405180830381865afa15801561024a573d6000803e3d6000fd5b505050506040513d601f19601f8201168201806040525081019061026e919061194c565b6040516001600160e01b031960e084901b1681526004810191909152336024820152604401602060405180830381865afa1580156102b0573d6000803e3d6000fd5b505050506040513d601f19601f820116820180604052508101906102d49190611975565b6103125760405162461bcd60e51b815260206004820152600a602482015269216f776e6572526f6c6560b01b60448201526064015b60405180910390fd5b6067546001146103345760405162461bcd60e51b815260040161030990611990565b600082116103845760405162461bcd60e51b815260206004820181905260248201527f50726963654f7261636c652f7a65726f2d7265666572656e63652d70726963656044820152606401610309565b69d3c21bcecceda1000000821180156103a857506b06765c793fa10079d000000082105b6104005760405162461bcd60e51b815260206004820152602360248201527f50726963654f7261636c652f696e76616c69642d7265666572656e63652d707260448201526269636560e81b6064820152608401610309565b606682905560405182815233907f981464cdb0035497ee4816c35dc8771b2d26e321e79163de2b51ee8b6d51df139060200160405180910390a25050565b6065546040805163c8cc243f60e01b815290516000926001600160a01b03169163c8cc243f9160048083019260209291908290030181865afa158015610488573d6000803e3d6000fd5b505050506040513d601f19601f820116820180604052508101906104ac919061192f565b9050806001600160a01b03166391d14854826001600160a01b031663e58378bb6040518163ffffffff1660e01b8152600401602060405180830381865afa1580156104fb573d6000803e3d6000fd5b505050506040513d601f19601f8201168201806040525081019061051f919061194c565b6040516001600160e01b031960e084901b1681526004810191909152336024820152604401602060405180830381865afa158015610561573d6000803e3d6000fd5b505050506040513d601f19601f820116820180604052508101906105859190611975565b6105be5760405162461bcd60e51b815260206004820152600a602482015269216f776e6572526f6c6560b01b6044820152606401610309565b6067546001146105e05760405162461bcd60e51b815260040161030990611990565b6000826001600160a01b0316636f3a3bfc6040518163ffffffff1660e01b81526004016020604051808303816000875af1158015610622573d6000803e3d6000fd5b505050506040513d601f19601f82011682018060405250810190610646919061194c565b10156106945760405162461bcd60e51b815260206004820152601e60248201527f53686f7753746f707065722f696e76616c69642d626f6f6b4b656570657200006044820152606401610309565b50606580546001600160a01b0319166001600160a01b0392909216919091179055565b6106bf6116f5565b6067546001146106e15760405162461bcd60e51b815260040161030990611990565b6065546040805163d868246160e01b815290516000926001600160a01b03169163d86824619160048083019260209291908290030181865afa15801561072b573d6000803e3d6000fd5b505050506040513d601f19601f8201168201806040525081019061074f919061192f565b6001600160a01b031663d97a3649836040518263ffffffff1660e01b815260040161077c91815260200190565b6101e060405180830381865afa15801561079a573d6000803e3d6000fd5b505050506040513d601f19601f820116820180604052508101906107be91906119f6565b60a0015190506000606560009054906101000a90046001600160a01b03166001600160a01b031663d86824616040518163ffffffff1660e01b8152600401602060405180830381865afa158015610819573d6000803e3d6000fd5b505050506040513d601f19601f8201168201806040525081019061083d919061192f565b6001600160a01b03166344d0c937846040518263ffffffff1660e01b815260040161086a91815260200190565b602060405180830381865afa158015610887573d6000803e3d6000fd5b505050506040513d601f19601f820116820180604052508101906108ab919061194c565b9050600080836001600160a01b031663140d27206040518163ffffffff1660e01b815260040160408051808303816000875af11580156108ef573d6000803e3d6000fd5b505050506040513d601f19601f820116820180604052508101906109139190611ac7565b91509150600081610925576000610947565b61094761094161093985633b9aca0061173d565b606654611770565b85611770565b90506000606560009054906101000a90046001600160a01b03166001600160a01b031663d86824616040518163ffffffff1660e01b8152600401602060405180830381865afa15801561099e573d6000803e3d6000fd5b505050506040513d601f19601f820116820180604052508101906109c2919061192f565b604051635f3e4f9960e11b815260048101899052602481018490529091506001600160a01b0382169063be7c9f3290604401600060405180830381600087803b158015610a0e57600080fd5b505af1158015610a22573d6000803e3d6000fd5b505060408051878152602081018690528a93507ffaa687d46bf00de5909dbac324c7f4d287144d889cb873d50ebeb219ea68f51792500160405180910390a250505050505050565b6065546040805163c8cc243f60e01b815290516000926001600160a01b03169163c8cc243f9160048083019260209291908290030181865afa158015610ab4573d6000803e3d6000fd5b505050506040513d601f19601f82011682018060405250810190610ad8919061192f565b9050806001600160a01b03166391d14854826001600160a01b031663e58378bb6040518163ffffffff1660e01b8152600401602060405180830381865afa158015610b27573d6000803e3d6000fd5b505050506040513d601f19601f82011682018060405250810190610b4b919061194c565b6040516001600160e01b031960e084901b1681526004810191909152336024820152604401602060405180830381865afa158015610b8d573d6000803e3d6000fd5b505050506040513d601f19601f82011682018060405250810190610bb19190611975565b80610c8e5750806001600160a01b03166391d14854826001600160a01b031663b536818a6040518163ffffffff1660e01b8152600401602060405180830381865afa158015610c04573d6000803e3d6000fd5b505050506040513d601f19601f82011682018060405250810190610c28919061194c565b6040516001600160e01b031960e084901b1681526004810191909152336024820152604401602060405180830381865afa158015610c6a573d6000803e3d6000fd5b505050506040513d601f19601f82011682018060405250810190610c8e9190611975565b610cd45760405162461bcd60e51b815260206004820152601760248201527621286f776e6572526f6c65206f7220676f76526f6c652960481b6044820152606401610309565b610cdc61179a565b50565b6065546040805163c8cc243f60e01b815290516000926001600160a01b03169163c8cc243f9160048083019260209291908290030181865afa158015610d29573d6000803e3d6000fd5b505050506040513d601f19601f82011682018060405250810190610d4d919061192f565b9050806001600160a01b03166391d14854826001600160a01b031663e58378bb6040518163ffffffff1660e01b8152600401602060405180830381865afa158015610d9c573d6000803e3d6000fd5b505050506040513d601f19601f82011682018060405250810190610dc0919061194c565b6040516001600160e01b031960e084901b1681526004810191909152336024820152604401602060405180830381865afa158015610e02573d6000803e3d6000fd5b505050506040513d601f19601f82011682018060405250810190610e269190611975565b80610f035750806001600160a01b03166391d14854826001600160a01b031663d7a47a696040518163ffffffff1660e01b8152600401602060405180830381865afa158015610e79573d6000803e3d6000fd5b505050506040513d601f19601f82011682018060405250810190610e9d919061194c565b6040516001600160e01b031960e084901b1681526004810191909152336024820152604401602060405180830381865afa158015610edf573d6000803e3d6000fd5b505050506040513d601f19601f82011682018060405250810190610f039190611975565b610f4f5760405162461bcd60e51b815260206004820152601f60248201527f21286f776e6572526f6c65206f722073686f7753746f70706572526f6c6529006044820152606401610309565b606754600103610cdc57600060678190556040517fbf689b4aae670d200b1d2b971ace2e0c3bef88a9c5e93f36705c7b86eab630b99190a150565b6065546040805163c8cc243f60e01b815290516000926001600160a01b03169163c8cc243f9160048083019260209291908290030181865afa158015610fd4573d6000803e3d6000fd5b505050506040513d601f19601f82011682018060405250810190610ff8919061192f565b9050806001600160a01b03166391d14854826001600160a01b031663e58378bb6040518163ffffffff1660e01b8152600401602060405180830381865afa158015611047573d6000803e3d6000fd5b505050506040513d601f19601f8201168201806040525081019061106b919061194c565b6040516001600160e01b031960e084901b1681526004810191909152336024820152604401602060405180830381865afa1580156110ad573d6000803e3d6000fd5b505050506040513d601f19601f820116820180604052508101906110d19190611975565b806111ae5750806001600160a01b03166391d14854826001600160a01b031663b536818a6040518163ffffffff1660e01b8152600401602060405180830381865afa158015611124573d6000803e3d6000fd5b505050506040513d601f19601f82011682018060405250810190611148919061194c565b6040516001600160e01b031960e084901b1681526004810191909152336024820152604401602060405180830381865afa15801561118a573d6000803e3d6000fd5b505050506040513d601f19601f820116820180604052508101906111ae9190611975565b6111f45760405162461bcd60e51b815260206004820152601760248201527621286f776e6572526f6c65206f7220676f76526f6c652960481b6044820152606401610309565b610cdc6117ec565b600054610100900460ff161580801561121c5750600054600160ff909116105b806112365750303b158015611236575060005460ff166001145b6112995760405162461bcd60e51b815260206004820152602e60248201527f496e697469616c697a61626c653a20636f6e747261637420697320616c72656160448201526d191e481a5b9a5d1a585b1a5e995960921b6064820152608401610309565b6000805460ff1916600117905580156112bc576000805461ff0019166101001790555b6112c4611829565b6000826001600160a01b0316636f3a3bfc6040518163ffffffff1660e01b81526004016020604051808303816000875af1158015611306573d6000803e3d6000fd5b505050506040513d601f19601f8201168201806040525081019061132a919061194c565b10156113925760405162461bcd60e51b815260206004820152603160248201527f46697865645370726561644c69717569646174696f6e53747261746567792f69604482015270373b30b634b216b137b7b5a5b2b2b832b960791b6064820152608401610309565b606580546001600160a01b0319166001600160a01b0384161790556b033b2e3c9fd0803ce800000060665560016067558015611408576000805461ff0019169055604051600181527f7f26b83ff96e1f2b6a682f133852f6798a09c465da95921460cefb38474024989060200160405180910390a15b5050565b6065546040805163c8cc243f60e01b815290516000926001600160a01b03169163c8cc243f9160048083019260209291908290030181865afa158015611456573d6000803e3d6000fd5b505050506040513d601f19601f8201168201806040525081019061147a919061192f565b9050806001600160a01b03166391d14854826001600160a01b031663e58378bb6040518163ffffffff1660e01b8152600401602060405180830381865afa1580156114c9573d6000803e3d6000fd5b505050506040513d601f19601f820116820180604052508101906114ed919061194c565b6040516001600160e01b031960e084901b1681526004810191909152336024820152604401602060405180830381865afa15801561152f573d6000803e3d6000fd5b505050506040513d601f19601f820116820180604052508101906115539190611975565b806116305750806001600160a01b03166391d14854826001600160a01b031663d7a47a696040518163ffffffff1660e01b8152600401602060405180830381865afa1580156115a6573d6000803e3d6000fd5b505050506040513d601f19601f820116820180604052508101906115ca919061194c565b6040516001600160e01b031960e084901b1681526004810191909152336024820152604401602060405180830381865afa15801561160c573d6000803e3d6000fd5b505050506040513d601f19601f820116820180604052508101906116309190611975565b61167c5760405162461bcd60e51b815260206004820152601f60248201527f21286f776e6572526f6c65206f722073686f7753746f70706572526f6c6529006044820152606401610309565b606754156116c45760405162461bcd60e51b8152602060048201526015602482015274141c9a58d953dc9858db194bdb9bdd0b58d859d959605a1b6044820152606401610309565b60016067556040517f1868a6ced217213f36be87ba9aee25cde5381b42e85c8f88e73b18772c0bd07390600090a150565b60335460ff161561173b5760405162461bcd60e51b815260206004820152601060248201526f14185d5cd8589b194e881c185d5cd95960821b6044820152606401610309565b565b6000811580611761575082826117538183611af3565b925061175f9083611b18565b145b61176a57600080fd5b92915050565b600081611789846b033b2e3c9fd0803ce800000061173d565b6117939190611b18565b9392505050565b6117a2611858565b6033805460ff191690557f5db9ee0a495bf2e6ff9c91a7834c1ba4fdd244a5e8aa4e537bd38aeae4b073aa335b6040516001600160a01b03909116815260200160405180910390a1565b6117f46116f5565b6033805460ff191660011790557f62e78cea01bee320cd4e420270b5ea74000d11b0c9f74754ebdbfc544b05a2586117cf3390565b600054610100900460ff166118505760405162461bcd60e51b815260040161030990611b3a565b61173b6118a1565b60335460ff1661173b5760405162461bcd60e51b815260206004820152601460248201527314185d5cd8589b194e881b9bdd081c185d5cd95960621b6044820152606401610309565b600054610100900460ff166118c85760405162461bcd60e51b815260040161030990611b3a565b6033805460ff19169055565b6000602082840312156118e657600080fd5b5035919050565b6001600160a01b0381168114610cdc57600080fd5b60006020828403121561191457600080fd5b8135611793816118ed565b805161192a816118ed565b919050565b60006020828403121561194157600080fd5b8151611793816118ed565b60006020828403121561195e57600080fd5b5051919050565b8051801515811461192a57600080fd5b60006020828403121561198757600080fd5b61179382611965565b60208082526014908201527350726963654f7261636c652f6e6f742d6c69766560601b604082015260600190565b6040516101e0810167ffffffffffffffff811182821017156119f057634e487b7160e01b600052604160045260246000fd5b60405290565b60006101e08284031215611a0957600080fd5b611a116119be565b8251815260208301516020820152604083015160408201526060830151606082015260808301516080820152611a4960a0840161191f565b60a082015260c083015160c082015260e083015160e0820152610100808401518183015250610120611a7c81850161191f565b908201526101408381015190820152610160808401519082015261018080840151908201526101a0611aaf81850161191f565b908201526101c0928301519281019290925250919050565b60008060408385031215611ada57600080fd5b82519150611aea60208401611965565b90509250929050565b808202811582820484141761176a57634e487b7160e01b600052601160045260246000fd5b600082611b3557634e487b7160e01b600052601260045260246000fd5b500490565b6020808252602b908201527f496e697469616c697a61626c653a20636f6e7472616374206973206e6f74206960408201526a6e697469616c697a696e6760a81b60608201526080019056fea26469706673582212207ad689cab7f89339e7618b777eae0e8429bf296ef558489b4bc745cdce3ca8cb64736f6c63430008110033",
    "immutableReferences": {},
    "source": "// SPDX-License-Identifier: AGPL-3.0-or-later\npragma solidity 0.8.17;\n\nimport \"@openzeppelin/contracts-upgradeable/security/PausableUpgradeable.sol\";\nimport \"@openzeppelin/contracts-upgradeable/access/AccessControlUpgradeable.sol\";\n\nimport \"../interfaces/IBookKeeper.sol\";\nimport \"../interfaces/IPriceFeed.sol\";\nimport \"../interfaces/IPriceOracle.sol\";\nimport \"../interfaces/ICagable.sol\";\nimport \"../interfaces/ICollateralPoolConfig.sol\";\nimport \"../interfaces/IPausable.sol\";\nimport \"../interfaces/ISetPrice.sol\";\n\ncontract PriceOracleMath {\n    uint256 internal constant ONE = 10 ** 27;\n\n    function mul(uint256 _x, uint256 _y) internal pure returns (uint256 _z) {\n        require(_y == 0 || (_z = _x * _y) / _y == _x);\n    }\n\n    function rdiv(uint256 _x, uint256 _y) internal pure returns (uint256 _z) {\n        _z = mul(_x, ONE) / _y;\n    }\n}\n\n/** @notice A contract which is the price oracle of the BookKeeper to keep all collateral pools updated with the latest price of the collateral.\n    The price oracle is important in reflecting the current state of the market price.\n*/\ncontract PriceOracle is PriceOracleMath, PausableUpgradeable, IPriceOracle, ICagable, IPausable, ISetPrice {\n    struct CollateralPool {\n        IPriceFeed priceFeed; // Price Feed\n        uint256 liquidationRatio; // Liquidation ratio or Collateral ratio [ray]\n    }\n\n    uint256 internal constant MIN_REFERENCE_PRICE = 10 ** 24;\n    uint256 internal constant MAX_REFERENCE_PRICE = 2 * (10 ** 27);\n\n    IBookKeeper public bookKeeper; // CDP Engine\n    uint256 public override stableCoinReferencePrice; // ref per FUSD [ray] :: value of stablecoin in the reference asset (e.g. $1 per Fathom USD)\n\n    uint256 public live;\n\n    event LogSetPrice(\n        bytes32 indexed _poolId,\n        uint256 _rawPrice, // Raw price from price feed [wad]\n        uint256 _priceWithSafetyMargin // Price with safety margin [ray]\n    );\n\n    event LogSetStableCoinReferencePrice(address indexed _caller, uint256 _data);\n\n    modifier onlyOwner() {\n        IAccessControlConfig _accessControlConfig = IAccessControlConfig(bookKeeper.accessControlConfig());\n        require(_accessControlConfig.hasRole(_accessControlConfig.OWNER_ROLE(), msg.sender), \"!ownerRole\");\n        _;\n    }\n\n    modifier onlyOwnerOrGov() {\n        IAccessControlConfig _accessControlConfig = IAccessControlConfig(IBookKeeper(bookKeeper).accessControlConfig());\n        require(\n            _accessControlConfig.hasRole(_accessControlConfig.OWNER_ROLE(), msg.sender) ||\n                _accessControlConfig.hasRole(_accessControlConfig.GOV_ROLE(), msg.sender),\n            \"!(ownerRole or govRole)\"\n        );\n        _;\n    }\n\n    modifier onlyOwnerOrShowStopper() {\n        IAccessControlConfig _accessControlConfig = IAccessControlConfig(IBookKeeper(bookKeeper).accessControlConfig());\n        require(\n            _accessControlConfig.hasRole(_accessControlConfig.OWNER_ROLE(), msg.sender) ||\n                _accessControlConfig.hasRole(_accessControlConfig.SHOW_STOPPER_ROLE(), msg.sender),\n            \"!(ownerRole or showStopperRole)\"\n        );\n        _;\n    }\n\n    modifier isLive() {\n        require(live == 1, \"PriceOracle/not-live\");\n        _;\n    }\n\n    function initialize(address _bookKeeper) external initializer {\n        PausableUpgradeable.__Pausable_init();\n        require(IBookKeeper(_bookKeeper).totalStablecoinIssued() >= 0, \"FixedSpreadLiquidationStrategy/invalid-bookKeeper\"); // Sanity Check Call\n        bookKeeper = IBookKeeper(_bookKeeper);\n        stableCoinReferencePrice = ONE;\n        live = 1;\n    }\n\n    function setBookKeeper(address _bookKeeper) external onlyOwner isLive {\n        require(IBookKeeper(_bookKeeper).totalStablecoinIssued() >= 0, \"ShowStopper/invalid-bookKeeper\"); // Sanity Check Call\n        bookKeeper = IBookKeeper(_bookKeeper);\n    }\n\n    function setStableCoinReferencePrice(uint256 _referencePrice) external onlyOwner isLive {\n        require(_referencePrice > 0, \"PriceOracle/zero-reference-price\");\n        require(_referencePrice > MIN_REFERENCE_PRICE && _referencePrice < MAX_REFERENCE_PRICE, \"PriceOracle/invalid-reference-price\");\n        stableCoinReferencePrice = _referencePrice;\n        emit LogSetStableCoinReferencePrice(msg.sender, _referencePrice);\n    }\n\n    function setPrice(bytes32 _collateralPoolId) external override whenNotPaused isLive {\n        IPriceFeed _priceFeed = IPriceFeed(ICollateralPoolConfig(bookKeeper.collateralPoolConfig()).collateralPools(_collateralPoolId).priceFeed);\n        uint256 _liquidationRatio = ICollateralPoolConfig(bookKeeper.collateralPoolConfig()).getLiquidationRatio(_collateralPoolId);\n        (uint256 _rawPrice, bool _hasPrice) = _priceFeed.peekPrice();\n        uint256 _priceWithSafetyMargin = _hasPrice ? rdiv(rdiv(mul(_rawPrice, 10 ** 9), stableCoinReferencePrice), _liquidationRatio) : 0;\n        address _collateralPoolConfig = address(bookKeeper.collateralPoolConfig());\n        ICollateralPoolConfig(_collateralPoolConfig).setPriceWithSafetyMargin(_collateralPoolId, _priceWithSafetyMargin);\n        emit LogSetPrice(_collateralPoolId, _rawPrice, _priceWithSafetyMargin);\n    }\n\n    function cage() external override onlyOwnerOrShowStopper {\n        if (live == 1) {\n            live = 0;\n            emit LogCage();\n        }\n    }\n\n    function uncage() external override onlyOwnerOrShowStopper {\n        require(live == 0, \"PriceOracle/not-caged\");\n        live = 1;\n        emit LogUncage();\n    }\n\n    function pause() external override onlyOwnerOrGov {\n        _pause();\n    }\n\n    function unpause() external override onlyOwnerOrGov {\n        _unpause();\n    }\n}\n",
    "sourcePath": "/Users/sangjun.lee/Sangjun/fathom-stablecoin-smart-contracts/contracts/main/stablecoin-core/PriceOracle.sol",
    "compiler": {
        "name": "solc",
        "version": "0.8.17+commit.8df45f5f.Emscripten.clang"
    },
    "schemaVersion": "3.4.10",
    "updatedAt": "2023-07-03T12:59:12.489Z",
    "devdoc": {
        "kind": "dev",
        "methods": {
            "paused()": {
                "details": "Returns true if the contract is paused, and false otherwise."
            }
        },
        "version": 1
    },
    "userdoc": {
        "kind": "user",
        "methods": {},
        "notice": "A contract which is the price oracle of the BookKeeper to keep all collateral pools updated with the latest price of the collateral. The price oracle is important in reflecting the current state of the market price.",
        "version": 1
    }
}