{
    "contractName": "StableSwapModule",
    "abi": [
        {
            "anonymous": false,
            "inputs": [
                {
                    "indexed": false,
                    "internalType": "uint8",
                    "name": "version",
                    "type": "uint8"
                }
            ],
            "name": "Initialized",
            "type": "event"
        },
        {
            "anonymous": false,
            "inputs": [
                {
                    "indexed": false,
                    "internalType": "uint256",
                    "name": "_newDailySwapLimit",
                    "type": "uint256"
                },
                {
                    "indexed": false,
                    "internalType": "uint256",
                    "name": "_oldDailySwapLimit",
                    "type": "uint256"
                }
            ],
            "name": "LogDailySwapLimitUpdate",
            "type": "event"
        },
        {
            "anonymous": false,
            "inputs": [
                {
                    "indexed": true,
                    "internalType": "address",
                    "name": "_owner",
                    "type": "address"
                },
                {
                    "indexed": true,
                    "internalType": "address",
                    "name": "_token",
                    "type": "address"
                },
                {
                    "indexed": false,
                    "internalType": "uint256",
                    "name": "_value",
                    "type": "uint256"
                }
            ],
            "name": "LogDepositToken",
            "type": "event"
        },
        {
            "anonymous": false,
            "inputs": [
                {
                    "indexed": true,
                    "internalType": "address",
                    "name": "_account",
                    "type": "address"
                }
            ],
            "name": "LogEmergencyWithdraw",
            "type": "event"
        },
        {
            "anonymous": false,
            "inputs": [
                {
                    "indexed": false,
                    "internalType": "uint256",
                    "name": "_remainingDailySwapAmount",
                    "type": "uint256"
                }
            ],
            "name": "LogRemainingDailySwapAmount",
            "type": "event"
        },
        {
            "anonymous": false,
            "inputs": [
                {
                    "indexed": true,
                    "internalType": "address",
                    "name": "_caller",
                    "type": "address"
                },
                {
                    "indexed": false,
                    "internalType": "uint256",
                    "name": "_feeIn",
                    "type": "uint256"
                }
            ],
            "name": "LogSetFeeIn",
            "type": "event"
        },
        {
            "anonymous": false,
            "inputs": [
                {
                    "indexed": true,
                    "internalType": "address",
                    "name": "_caller",
                    "type": "address"
                },
                {
                    "indexed": false,
                    "internalType": "uint256",
                    "name": "_feeOut",
                    "type": "uint256"
                }
            ],
            "name": "LogSetFeeOut",
            "type": "event"
        },
        {
            "anonymous": false,
            "inputs": [
                {
                    "indexed": false,
                    "internalType": "bool",
                    "name": "_pauseState",
                    "type": "bool"
                }
            ],
            "name": "LogStableSwapPauseState",
            "type": "event"
        },
        {
            "anonymous": false,
            "inputs": [
                {
                    "indexed": true,
                    "internalType": "address",
                    "name": "_owner",
                    "type": "address"
                },
                {
                    "indexed": false,
                    "internalType": "uint256",
                    "name": "_value",
                    "type": "uint256"
                },
                {
                    "indexed": false,
                    "internalType": "uint256",
                    "name": "_fee",
                    "type": "uint256"
                }
            ],
            "name": "LogSwapStablecoinToToken",
            "type": "event"
        },
        {
            "anonymous": false,
            "inputs": [
                {
                    "indexed": true,
                    "internalType": "address",
                    "name": "_owner",
                    "type": "address"
                },
                {
                    "indexed": false,
                    "internalType": "uint256",
                    "name": "_value",
                    "type": "uint256"
                },
                {
                    "indexed": false,
                    "internalType": "uint256",
                    "name": "_fee",
                    "type": "uint256"
                }
            ],
            "name": "LogSwapTokenToStablecoin",
            "type": "event"
        },
        {
            "anonymous": false,
            "inputs": [
                {
                    "indexed": true,
                    "internalType": "address",
                    "name": "_account",
                    "type": "address"
                },
                {
                    "indexed": false,
                    "internalType": "uint256",
                    "name": "_fees",
                    "type": "uint256"
                }
            ],
            "name": "LogWithdrawFees",
            "type": "event"
        },
        {
            "anonymous": false,
            "inputs": [
                {
                    "indexed": false,
                    "internalType": "address",
                    "name": "account",
                    "type": "address"
                }
            ],
            "name": "Paused",
            "type": "event"
        },
        {
            "anonymous": false,
            "inputs": [
                {
                    "indexed": false,
                    "internalType": "address",
                    "name": "account",
                    "type": "address"
                }
            ],
            "name": "Unpaused",
            "type": "event"
        },
        {
            "inputs": [],
            "name": "MINIMUM_DAILY_SWAP_LIMIT",
            "outputs": [
                {
                    "internalType": "uint256",
                    "name": "",
                    "type": "uint256"
                }
            ],
            "stateMutability": "view",
            "type": "function"
        },
        {
            "inputs": [],
            "name": "ONE_DAY",
            "outputs": [
                {
                    "internalType": "uint256",
                    "name": "",
                    "type": "uint256"
                }
            ],
            "stateMutability": "view",
            "type": "function"
        },
        {
            "inputs": [],
            "name": "bookKeeper",
            "outputs": [
                {
                    "internalType": "contract IBookKeeper",
                    "name": "",
                    "type": "address"
                }
            ],
            "stateMutability": "view",
            "type": "function"
        },
        {
            "inputs": [],
            "name": "dailySwapLimit",
            "outputs": [
                {
                    "internalType": "uint256",
                    "name": "",
                    "type": "uint256"
                }
            ],
            "stateMutability": "view",
            "type": "function"
        },
        {
            "inputs": [],
            "name": "feeIn",
            "outputs": [
                {
                    "internalType": "uint256",
                    "name": "",
                    "type": "uint256"
                }
            ],
            "stateMutability": "view",
            "type": "function"
        },
        {
            "inputs": [],
            "name": "feeOut",
            "outputs": [
                {
                    "internalType": "uint256",
                    "name": "",
                    "type": "uint256"
                }
            ],
            "stateMutability": "view",
            "type": "function"
        },
        {
            "inputs": [],
            "name": "lastUpdate",
            "outputs": [
                {
                    "internalType": "uint256",
                    "name": "",
                    "type": "uint256"
                }
            ],
            "stateMutability": "view",
            "type": "function"
        },
        {
            "inputs": [],
            "name": "paused",
            "outputs": [
                {
                    "internalType": "bool",
                    "name": "",
                    "type": "bool"
                }
            ],
            "stateMutability": "view",
            "type": "function"
        },
        {
            "inputs": [],
            "name": "remainingDailySwapAmount",
            "outputs": [
                {
                    "internalType": "uint256",
                    "name": "",
                    "type": "uint256"
                }
            ],
            "stateMutability": "view",
            "type": "function"
        },
        {
            "inputs": [],
            "name": "stablecoin",
            "outputs": [
                {
                    "internalType": "contract IStablecoin",
                    "name": "",
                    "type": "address"
                }
            ],
            "stateMutability": "view",
            "type": "function"
        },
        {
            "inputs": [],
            "name": "token",
            "outputs": [
                {
                    "internalType": "address",
                    "name": "",
                    "type": "address"
                }
            ],
            "stateMutability": "view",
            "type": "function"
        },
        {
            "inputs": [
                {
                    "internalType": "address",
                    "name": "",
                    "type": "address"
                }
            ],
            "name": "tokenBalance",
            "outputs": [
                {
                    "internalType": "uint256",
                    "name": "",
                    "type": "uint256"
                }
            ],
            "stateMutability": "view",
            "type": "function"
        },
        {
            "inputs": [],
            "name": "totalFeeBalance",
            "outputs": [
                {
                    "internalType": "uint256",
                    "name": "",
                    "type": "uint256"
                }
            ],
            "stateMutability": "view",
            "type": "function"
        },
        {
            "inputs": [
                {
                    "internalType": "address",
                    "name": "_bookKeeper",
                    "type": "address"
                },
                {
                    "internalType": "address",
                    "name": "_token",
                    "type": "address"
                },
                {
                    "internalType": "address",
                    "name": "_stablecoin",
                    "type": "address"
                },
                {
                    "internalType": "uint256",
                    "name": "_dailySwapLimit",
                    "type": "uint256"
                }
            ],
            "name": "initialize",
            "outputs": [],
            "stateMutability": "nonpayable",
            "type": "function"
        },
        {
            "inputs": [
                {
                    "internalType": "uint256",
                    "name": "newdailySwapLimit",
                    "type": "uint256"
                }
            ],
            "name": "setDailySwapLimit",
            "outputs": [],
            "stateMutability": "nonpayable",
            "type": "function"
        },
        {
            "inputs": [
                {
                    "internalType": "uint256",
                    "name": "_feeIn",
                    "type": "uint256"
                }
            ],
            "name": "setFeeIn",
            "outputs": [],
            "stateMutability": "nonpayable",
            "type": "function"
        },
        {
            "inputs": [
                {
                    "internalType": "uint256",
                    "name": "_feeOut",
                    "type": "uint256"
                }
            ],
            "name": "setFeeOut",
            "outputs": [],
            "stateMutability": "nonpayable",
            "type": "function"
        },
        {
            "inputs": [
                {
                    "internalType": "address",
                    "name": "_usr",
                    "type": "address"
                },
                {
                    "internalType": "uint256",
                    "name": "_tokenAmount",
                    "type": "uint256"
                }
            ],
            "name": "swapTokenToStablecoin",
            "outputs": [],
            "stateMutability": "nonpayable",
            "type": "function"
        },
        {
            "inputs": [
                {
                    "internalType": "address",
                    "name": "_usr",
                    "type": "address"
                },
                {
                    "internalType": "uint256",
                    "name": "_tokenAmount",
                    "type": "uint256"
                }
            ],
            "name": "swapStablecoinToToken",
            "outputs": [],
            "stateMutability": "nonpayable",
            "type": "function"
        },
        {
            "inputs": [
                {
                    "internalType": "address",
                    "name": "_token",
                    "type": "address"
                },
                {
                    "internalType": "uint256",
                    "name": "_amount",
                    "type": "uint256"
                }
            ],
            "name": "depositToken",
            "outputs": [],
            "stateMutability": "nonpayable",
            "type": "function"
        },
        {
            "inputs": [
                {
                    "internalType": "address",
                    "name": "_account",
                    "type": "address"
                }
            ],
            "name": "withdrawFees",
            "outputs": [],
            "stateMutability": "nonpayable",
            "type": "function"
        },
        {
            "inputs": [],
            "name": "pause",
            "outputs": [],
            "stateMutability": "nonpayable",
            "type": "function"
        },
        {
            "inputs": [],
            "name": "unpause",
            "outputs": [],
            "stateMutability": "nonpayable",
            "type": "function"
        },
        {
            "inputs": [
                {
                    "internalType": "address",
                    "name": "_account",
                    "type": "address"
                }
            ],
            "name": "emergencyWithdraw",
            "outputs": [],
            "stateMutability": "nonpayable",
            "type": "function"
        }
    ],
    "bytecode": "0x608060405234801561001057600080fd5b506128e5806100206000396000f3fe608060405234801561001057600080fd5b50600436106101585760003560e01c8063769a48d9116100c3578063cf756fdf1161007c578063cf756fdf14610277578063e35cc69b1461028a578063e3b3932a14610293578063e9cbd822146102be578063eedc966a146102d1578063fc0c546a146102f157600080fd5b8063769a48d91461023757806381e28cc7146102405780638456cb5914610253578063863e76db1461025b578063a21c1c8f14610265578063c04637111461026e57600080fd5b80633f4ba83a116101155780633f4ba83a146101cd57806340853dce146101d557806342e8a972146101e857806355725d41146101fb5780635c975abb1461020e5780636ff1c9bc1461022457600080fd5b80630696819f1461015d5780630c5ce3ae14610179578063164e68de14610182578063231d3bc114610197578063338b5dea146101a75780633cdabd9c146101ba575b600080fd5b610166609d5481565b6040519081526020015b60405180910390f35b61016660a15481565b6101956101903660046124a0565b610304565b005b610166683635c9adc5dea0000081565b6101956101b53660046124c4565b610689565b6101956101c83660046124f0565b610a09565b610195610bd8565b6101956101e33660046124c4565b610e58565b6101956101f63660046124f0565b6110b7565b6101956102093660046124f0565b6112b1565b60335460ff166040519015158152602001610170565b6101956102323660046124a0565b6114a3565b610166609c5481565b61019561024e3660046124c4565b611819565b610195611a63565b6101666201518081565b610166609f5481565b610166609e5481565b610195610285366004612509565b611cdc565b61016660a05481565b6097546102a6906001600160a01b031681565b6040516001600160a01b039091168152602001610170565b6098546102a6906001600160a01b031681565b6101666102df3660046124a0565b609b6020526000908152604090205481565b6099546102a6906001600160a01b031681565b60026065540361032f5760405162461bcd60e51b81526004016103269061255a565b60405180910390fd5b60026065556097546040805163c8cc243f60e01b815290516000926001600160a01b03169163c8cc243f9160048083019260209291908290030181865afa15801561037e573d6000803e3d6000fd5b505050506040513d601f19601f820116820180604052508101906103a29190612591565b9050806001600160a01b03166391d14854826001600160a01b031663e58378bb6040518163ffffffff1660e01b8152600401602060405180830381865afa1580156103f1573d6000803e3d6000fd5b505050506040513d601f19601f8201168201806040525081019061041591906125ae565b6040516001600160e01b031960e084901b1681526004810191909152336024820152604401602060405180830381865afa158015610457573d6000803e3d6000fd5b505050506040513d601f19601f8201168201806040525081019061047b91906125c7565b806105585750806001600160a01b03166391d14854826001600160a01b031663b536818a6040518163ffffffff1660e01b8152600401602060405180830381865afa1580156104ce573d6000803e3d6000fd5b505050506040513d601f19601f820116820180604052508101906104f291906125ae565b6040516001600160e01b031960e084901b1681526004810191909152336024820152604401602060405180830381865afa158015610534573d6000803e3d6000fd5b505050506040513d601f19601f8201168201806040525081019061055891906125c7565b6105745760405162461bcd60e51b8152600401610326906125e9565b6001600160a01b0382166105ca5760405162461bcd60e51b815260206004820152601a60248201527f7769746864726177466565732f656d7074792d6163636f756e740000000000006044820152606401610326565b60a15460000361061c5760405162461bcd60e51b815260206004820152601b60248201527f7769746864726177466565732f6e6f2d6665652d62616c616e636500000000006044820152606401610326565b60a18054600090915560985461063c906001600160a01b03168483611ede565b826001600160a01b03167fbe641c3ffc44b2d6c184f023fa4ed7bda4b6ffa71e03b3c98ae0c776da1f17e78260405161067791815260200190565b60405180910390a25050600160655550565b6002606554036106ab5760405162461bcd60e51b81526004016103269061255a565b60026065556106b8611fe2565b6097546040805163c8cc243f60e01b815290516000926001600160a01b03169163c8cc243f9160048083019260209291908290030181865afa158015610702573d6000803e3d6000fd5b505050506040513d601f19601f820116820180604052508101906107269190612591565b9050806001600160a01b03166391d14854826001600160a01b031663e58378bb6040518163ffffffff1660e01b8152600401602060405180830381865afa158015610775573d6000803e3d6000fd5b505050506040513d601f19601f8201168201806040525081019061079991906125ae565b6040516001600160e01b031960e084901b1681526004810191909152336024820152604401602060405180830381865afa1580156107db573d6000803e3d6000fd5b505050506040513d601f19601f820116820180604052508101906107ff91906125c7565b806108dc5750806001600160a01b03166391d14854826001600160a01b031663b536818a6040518163ffffffff1660e01b8152600401602060405180830381865afa158015610852573d6000803e3d6000fd5b505050506040513d601f19601f8201168201806040525081019061087691906125ae565b6040516001600160e01b031960e084901b1681526004810191909152336024820152604401602060405180830381865afa1580156108b8573d6000803e3d6000fd5b505050506040513d601f19601f820116820180604052508101906108dc91906125c7565b6108f85760405162461bcd60e51b8152600401610326906125e9565b8161090c6001600160a01b0385163361202a565b10156109725760405162461bcd60e51b815260206004820152602f60248201527f6465706f736974537461626c65636f696e2f6e6f742d656e6f7567682d73746160448201526e626c65636f696e2d62616c616e636560881b6064820152608401610326565b6098546001600160a01b03166000908152609b602052604090205461099790836120a1565b6001600160a01b0384166000818152609b60205260409020919091556109bf903330856120bc565b6040518281526001600160a01b0384169033907fb024cc5591038c18f7e2348d474092b453a32212dd1ebcc0370c4ac2e42cce439060200160405180910390a35050600160655550565b6097546040805163c8cc243f60e01b815290516000926001600160a01b03169163c8cc243f9160048083019260209291908290030181865afa158015610a53573d6000803e3d6000fd5b505050506040513d601f19601f82011682018060405250810190610a779190612591565b9050806001600160a01b03166391d14854826001600160a01b031663e58378bb6040518163ffffffff1660e01b8152600401602060405180830381865afa158015610ac6573d6000803e3d6000fd5b505050506040513d601f19601f82011682018060405250810190610aea91906125ae565b6040516001600160e01b031960e084901b1681526004810191909152336024820152604401602060405180830381865afa158015610b2c573d6000803e3d6000fd5b505050506040513d601f19601f82011682018060405250810190610b5091906125c7565b610b6c5760405162461bcd60e51b815260040161032690612620565b683635c9adc5dea00000821015610b955760405162461bcd60e51b815260040161032690612644565b60a0546040805184815260208101929092527f91fc53b44c6fd2d041f17f6121e3caacab265cf4b02f97d3fc6e2bc0c9d1ffe7910160405180910390a15060a055565b6097546040805163c8cc243f60e01b815290516000926001600160a01b03169163c8cc243f9160048083019260209291908290030181865afa158015610c22573d6000803e3d6000fd5b505050506040513d601f19601f82011682018060405250810190610c469190612591565b9050806001600160a01b03166391d14854826001600160a01b031663e58378bb6040518163ffffffff1660e01b8152600401602060405180830381865afa158015610c95573d6000803e3d6000fd5b505050506040513d601f19601f82011682018060405250810190610cb991906125ae565b6040516001600160e01b031960e084901b1681526004810191909152336024820152604401602060405180830381865afa158015610cfb573d6000803e3d6000fd5b505050506040513d601f19601f82011682018060405250810190610d1f91906125c7565b80610dfc5750806001600160a01b03166391d14854826001600160a01b031663b536818a6040518163ffffffff1660e01b8152600401602060405180830381865afa158015610d72573d6000803e3d6000fd5b505050506040513d601f19601f82011682018060405250810190610d9691906125ae565b6040516001600160e01b031960e084901b1681526004810191909152336024820152604401602060405180830381865afa158015610dd8573d6000803e3d6000fd5b505050506040513d601f19601f82011682018060405250810190610dfc91906125c7565b610e185760405162461bcd60e51b8152600401610326906125e9565b610e206121d4565b604051600081527fcdd780009e0ca26d4eb3c3ec7a679e3b2581bfb5b6f89856108a50f5b1fa2bcb906020015b60405180910390a150565b600260655403610e7a5760405162461bcd60e51b81526004016103269061255a565b6002606555610e87611fe2565b80600003610ed75760405162461bcd60e51b815260206004820152601c60248201527f537461626c65537761704d6f64756c652f616d6f756e742d7a65726f000000006044820152606401610326565b6000610ee582609a54612226565b90506000670de0b6b3a7640000610efe83609c54612226565b610f0891906126a7565b90506000610f168383612253565b6098546001600160a01b03166000908152609b6020526040902054909150811115610f9f5760405162461bcd60e51b815260206004820152603360248201527f73776170546f6b656e546f537461626c65636f696e2f6e6f742d656e6f7567686044820152722d737461626c65636f696e2d62616c616e636560681b6064820152608401610326565b610fa88461226e565b6098546001600160a01b03166000908152609b6020526040902054610fcd9082612253565b6098546001600160a01b039081166000908152609b6020526040808220939093556099549091168152205461100290856120a1565b6099546001600160a01b03166000908152609b602052604081209190915560a180548492906110329084906126c9565b909155505060995461104f906001600160a01b03163330876120bc565b609854611066906001600160a01b03168683611ede565b60408051858152602081018490526001600160a01b038716917febeefb54ae6b697f8f7b14ec942871ef2fc051ec90c2a221007e5a5702a4d7f291015b60405180910390a250506001606555505050565b6097546040805163c8cc243f60e01b815290516000926001600160a01b03169163c8cc243f9160048083019260209291908290030181865afa158015611101573d6000803e3d6000fd5b505050506040513d601f19601f820116820180604052508101906111259190612591565b9050806001600160a01b03166391d14854826001600160a01b031663e58378bb6040518163ffffffff1660e01b8152600401602060405180830381865afa158015611174573d6000803e3d6000fd5b505050506040513d601f19601f8201168201806040525081019061119891906125ae565b6040516001600160e01b031960e084901b1681526004810191909152336024820152604401602060405180830381865afa1580156111da573d6000803e3d6000fd5b505050506040513d601f19601f820116820180604052508101906111fe91906125c7565b61121a5760405162461bcd60e51b815260040161032690612620565b6706f05b59d3b200008211156112725760405162461bcd60e51b815260206004820181905260248201527f537461626c65537761704d6f64756c652f696e76616c69642d6665652d6f75746044820152606401610326565b609d82905560405182815233907fca068f6ffd884c8217e477778ef3821efcb5e96690cff9e680c7dbd077d1d1bd906020015b60405180910390a25050565b6097546040805163c8cc243f60e01b815290516000926001600160a01b03169163c8cc243f9160048083019260209291908290030181865afa1580156112fb573d6000803e3d6000fd5b505050506040513d601f19601f8201168201806040525081019061131f9190612591565b9050806001600160a01b03166391d14854826001600160a01b031663e58378bb6040518163ffffffff1660e01b8152600401602060405180830381865afa15801561136e573d6000803e3d6000fd5b505050506040513d601f19601f8201168201806040525081019061139291906125ae565b6040516001600160e01b031960e084901b1681526004810191909152336024820152604401602060405180830381865afa1580156113d4573d6000803e3d6000fd5b505050506040513d601f19601f820116820180604052508101906113f891906125c7565b6114145760405162461bcd60e51b815260040161032690612620565b6706f05b59d3b2000082111561146c5760405162461bcd60e51b815260206004820152601f60248201527f537461626c65537761704d6f64756c652f696e76616c69642d6665652d696e006044820152606401610326565b609c82905560405182815233907f761b3141cbb42e607f4e550cf06b417f5d0fe476ee4fb6b9fbb34c4ae134b813906020016112a5565b6002606554036114c55760405162461bcd60e51b81526004016103269061255a565b60026065556097546040805163c8cc243f60e01b815290516000926001600160a01b03169163c8cc243f9160048083019260209291908290030181865afa158015611514573d6000803e3d6000fd5b505050506040513d601f19601f820116820180604052508101906115389190612591565b9050806001600160a01b03166391d14854826001600160a01b031663e58378bb6040518163ffffffff1660e01b8152600401602060405180830381865afa158015611587573d6000803e3d6000fd5b505050506040513d601f19601f820116820180604052508101906115ab91906125ae565b6040516001600160e01b031960e084901b1681526004810191909152336024820152604401602060405180830381865afa1580156115ed573d6000803e3d6000fd5b505050506040513d601f19601f8201168201806040525081019061161191906125c7565b806116ee5750806001600160a01b03166391d14854826001600160a01b031663b536818a6040518163ffffffff1660e01b8152600401602060405180830381865afa158015611664573d6000803e3d6000fd5b505050506040513d601f19601f8201168201806040525081019061168891906125ae565b6040516001600160e01b031960e084901b1681526004810191909152336024820152604401602060405180830381865afa1580156116ca573d6000803e3d6000fd5b505050506040513d601f19601f820116820180604052508101906116ee91906125c7565b61170a5760405162461bcd60e51b8152600401610326906125e9565b60335460ff1661175c5760405162461bcd60e51b815260206004820152601c60248201527f656d657267656e637957697468647261772f6e6f742d706175736564000000006044820152606401610326565b609980546001600160a01b039081166000908152609b60205260408082208290556098548316825281205590546117ad91849161179a91163061202a565b6099546001600160a01b03169190611ede565b6098546117dc9083906117c9906001600160a01b03163061202a565b6098546001600160a01b03169190611ede565b6040516001600160a01b038316907f66b4c12417b17d45e180a77a43b566ff7cdec1cc047789840043d696de3acb4890600090a250506001606555565b60026065540361183b5760405162461bcd60e51b81526004016103269061255a565b6002606555611848611fe2565b806000036118985760405162461bcd60e51b815260206004820152601c60248201527f537461626c65537761704d6f64756c652f616d6f756e742d7a65726f000000006044820152606401610326565b60006118a682609a54612226565b90506000670de0b6b3a76400006118bf83609d54612226565b6118c991906126a7565b905060006118d783836120a1565b6099546001600160a01b03166000908152609b602052604090205490915084111561195b5760405162461bcd60e51b815260206004820152602e60248201527f73776170537461626c65636f696e546f546f6b656e2f6e6f742d656e6f75676860448201526d2d746f6b656e2d62616c616e636560901b6064820152608401610326565b6119648461226e565b6099546001600160a01b03166000908152609b60205260409020546119899085612253565b6099546001600160a01b039081166000908152609b602052604080822093909355609854909116815220546119be90826120a1565b6098546001600160a01b03166000908152609b602052604081209190915560a180548492906119ee9084906126c9565b9091555050609854611a0b906001600160a01b03163330846120bc565b609954611a22906001600160a01b03168686611ede565b60408051858152602081018490526001600160a01b038716917f19db3e213473ea73ae4b6c76a26cbcb2a43d954d78caca305d507dec79b24e8291016110a3565b6097546040805163c8cc243f60e01b815290516000926001600160a01b03169163c8cc243f9160048083019260209291908290030181865afa158015611aad573d6000803e3d6000fd5b505050506040513d601f19601f82011682018060405250810190611ad19190612591565b9050806001600160a01b03166391d14854826001600160a01b031663e58378bb6040518163ffffffff1660e01b8152600401602060405180830381865afa158015611b20573d6000803e3d6000fd5b505050506040513d601f19601f82011682018060405250810190611b4491906125ae565b6040516001600160e01b031960e084901b1681526004810191909152336024820152604401602060405180830381865afa158015611b86573d6000803e3d6000fd5b505050506040513d601f19601f82011682018060405250810190611baa91906125c7565b80611c875750806001600160a01b03166391d14854826001600160a01b031663b536818a6040518163ffffffff1660e01b8152600401602060405180830381865afa158015611bfd573d6000803e3d6000fd5b505050506040513d601f19601f82011682018060405250810190611c2191906125ae565b6040516001600160e01b031960e084901b1681526004810191909152336024820152604401602060405180830381865afa158015611c63573d6000803e3d6000fd5b505050506040513d601f19601f82011682018060405250810190611c8791906125c7565b611ca35760405162461bcd60e51b8152600401610326906125e9565b611cab612343565b604051600181527fcdd780009e0ca26d4eb3c3ec7a679e3b2581bfb5b6f89856108a50f5b1fa2bcb90602001610e4d565b600054610100900460ff1615808015611cfc5750600054600160ff909116105b80611d165750303b158015611d16575060005460ff166001145b611d795760405162461bcd60e51b815260206004820152602e60248201527f496e697469616c697a61626c653a20636f6e747261637420697320616c72656160448201526d191e481a5b9a5d1a585b1a5e995960921b6064820152608401610326565b6000805460ff191660011790558015611d9c576000805461ff0019166101001790555b611da4612380565b611dac6123af565b683635c9adc5dea00000821015611dd55760405162461bcd60e51b815260040161032690612644565b609780546001600160a01b038088166001600160a01b031992831617909255609880548684169083168117909155609980549388169390921692909217905560a08390556040805163313ce56760e01b8152905163313ce567916004808201926020929091908290030181865afa158015611e54573d6000803e3d6000fd5b505050506040513d601f19601f82011682018060405250810190611e7891906126dc565b611e839060126126ff565b611e8e90600a6127fc565b609a558015611ed7576000805461ff0019169055604051600181527f7f26b83ff96e1f2b6a682f133852f6798a09c465da95921460cefb38474024989060200160405180910390a15b5050505050565b604080516001600160a01b038481166024830152604480830185905283518084039091018152606490920183526020820180516001600160e01b031663a9059cbb60e01b1790529151600092839290871691611f3a919061280b565b6000604051808303816000865af19150503d8060008114611f77576040519150601f19603f3d011682016040523d82523d6000602084013e611f7c565b606091505b5091509150818015611fa6575080511580611fa6575080806020019051810190611fa691906125c7565b611ed75760405162461bcd60e51b815260206004820152600d60248201526c10b9b0b332aa3930b739b332b960991b6044820152606401610326565b60335460ff16156120285760405162461bcd60e51b815260206004820152601060248201526f14185d5cd8589b194e881c185d5cd95960821b6044820152606401610326565b565b6040516370a0823160e01b81526001600160a01b038281166004830152600091908416906370a0823190602401602060405180830381865afa158015612074573d6000803e3d6000fd5b505050506040513d601f19601f8201168201806040525081019061209891906125ae565b90505b92915050565b6000826120ae83826126c9565b915081101561209b57600080fd5b604080516001600160a01b0385811660248301528481166044830152606480830185905283518084039091018152608490920183526020820180516001600160e01b03166323b872dd60e01b1790529151600092839290881691612120919061280b565b6000604051808303816000865af19150503d806000811461215d576040519150601f19603f3d011682016040523d82523d6000602084013e612162565b606091505b509150915081801561218c57508051158061218c57508080602001905181019061218c91906125c7565b6121cc5760405162461bcd60e51b815260206004820152601160248201527021736166655472616e7366657246726f6d60781b6044820152606401610326565b505050505050565b6121dc6123de565b6033805460ff191690557f5db9ee0a495bf2e6ff9c91a7834c1ba4fdd244a5e8aa4e537bd38aeae4b073aa335b6040516001600160a01b03909116815260200160405180910390a1565b600081158061224a5750828261223c818361283a565b925061224890836126a7565b145b61209b57600080fd5b6000826122608382612851565b915081111561209b57600080fd5b62015180609e54426122809190612851565b106122905742609e5560a054609f555b80609f5410156122f95760405162461bcd60e51b815260206004820152602e60248201527f5f756470617465416e64436865636b4461696c794c696d69742f6461696c792d60448201526d1b1a5b5a5d0b595e18d95959195960921b6064820152608401610326565b80609f600082825461230b9190612851565b9091555050609f546040519081527f3ba6536311b1b8c63364031768ec0197123478d2fc4b4c54f710b85c32c12b3190602001610e4d565b61234b611fe2565b6033805460ff191660011790557f62e78cea01bee320cd4e420270b5ea74000d11b0c9f74754ebdbfc544b05a2586122093390565b600054610100900460ff166123a75760405162461bcd60e51b815260040161032690612864565b612028612427565b600054610100900460ff166123d65760405162461bcd60e51b815260040161032690612864565b61202861245a565b60335460ff166120285760405162461bcd60e51b815260206004820152601460248201527314185d5cd8589b194e881b9bdd081c185d5cd95960621b6044820152606401610326565b600054610100900460ff1661244e5760405162461bcd60e51b815260040161032690612864565b6033805460ff19169055565b600054610100900460ff166124815760405162461bcd60e51b815260040161032690612864565b6001606555565b6001600160a01b038116811461249d57600080fd5b50565b6000602082840312156124b257600080fd5b81356124bd81612488565b9392505050565b600080604083850312156124d757600080fd5b82356124e281612488565b946020939093013593505050565b60006020828403121561250257600080fd5b5035919050565b6000806000806080858703121561251f57600080fd5b843561252a81612488565b9350602085013561253a81612488565b9250604085013561254a81612488565b9396929550929360600135925050565b6020808252601f908201527f5265656e7472616e637947756172643a207265656e7472616e742063616c6c00604082015260600190565b6000602082840312156125a357600080fd5b81516124bd81612488565b6000602082840312156125c057600080fd5b5051919050565b6000602082840312156125d957600080fd5b815180151581146124bd57600080fd5b60208082526017908201527f21286f776e6572526f6c65206f7220676f76526f6c6529000000000000000000604082015260600190565b6020808252600a9082015269216f776e6572526f6c6560b01b604082015260600190565b6020808252602d908201527f696e697469616c697a652f6c6573732d7468616e2d6d696e696d756d2d64616960408201526c1b1e4b5cddd85c0b5b1a5b5a5d609a1b606082015260800190565b634e487b7160e01b600052601160045260246000fd5b6000826126c457634e487b7160e01b600052601260045260246000fd5b500490565b8082018082111561209b5761209b612691565b6000602082840312156126ee57600080fd5b815160ff811681146124bd57600080fd5b60ff828116828216039081111561209b5761209b612691565b600181815b8085111561275357816000190482111561273957612739612691565b8085161561274657918102915b93841c939080029061271d565b509250929050565b60008261276a5750600161209b565b816127775750600061209b565b816001811461278d5760028114612797576127b3565b600191505061209b565b60ff8411156127a8576127a8612691565b50506001821b61209b565b5060208310610133831016604e8410600b84101617156127d6575081810a61209b565b6127e08383612718565b80600019048211156127f4576127f4612691565b029392505050565b600061209860ff84168361275b565b6000825160005b8181101561282c5760208186018101518583015201612812565b506000920191825250919050565b808202811582820484141761209b5761209b612691565b8181038181111561209b5761209b612691565b6020808252602b908201527f496e697469616c697a61626c653a20636f6e7472616374206973206e6f74206960408201526a6e697469616c697a696e6760a81b60608201526080019056fea2646970667358221220acf0464730632754f066669f6a2b34ba011a2479c632d344d8933bc6a229f79f64736f6c63430008110033",
    "immutableReferences": {},
    "source": "// SPDX-License-Identifier: AGPL-3.0-or-later\npragma solidity 0.8.17;\n\nimport \"@openzeppelin/contracts-upgradeable/access/OwnableUpgradeable.sol\";\nimport \"@openzeppelin/contracts-upgradeable/security/PausableUpgradeable.sol\";\nimport \"@openzeppelin/contracts-upgradeable/access/AccessControlUpgradeable.sol\";\nimport \"@openzeppelin/contracts-upgradeable/security/ReentrancyGuardUpgradeable.sol\";\n\nimport \"../interfaces/IStablecoinAdapter.sol\";\nimport \"../interfaces/IStablecoin.sol\";\nimport \"../interfaces/IBookKeeper.sol\";\nimport \"../interfaces/IAuthTokenAdapter.sol\";\nimport \"../interfaces/IStableSwapModule.sol\";\nimport \"../utils/SafeToken.sol\";\n\n// Stable Swap Module\n// Allows anyone to go between FUSD and the Token by pooling the liquidity\n// An optional fee is charged for incoming and outgoing transfers\ncontract StableSwapModule is PausableUpgradeable, ReentrancyGuardUpgradeable, IStableSwapModule {\n    using SafeToken for address;\n\n    IBookKeeper public bookKeeper;\n    IStablecoin public stablecoin;\n    address public token;\n    \n    uint256 internal to18ConversionFactor;\n    mapping(address => uint256) public tokenBalance;\n\n    uint256 public feeIn; // fee in [wad]\n    uint256 public feeOut; // fee out [wad]\n    uint256 public lastUpdate;\n\n    uint256 public remainingDailySwapAmount;\n    uint256 public dailySwapLimit;\n\n    uint256 public totalFeeBalance;\n\n    uint256 public constant ONE_DAY = 86400;\n    uint256 public constant MINIMUM_DAILY_SWAP_LIMIT = 1000*1e18;\n\n\n    event LogSetFeeIn(address indexed _caller, uint256 _feeIn);\n    event LogSetFeeOut(address indexed _caller, uint256 _feeOut);\n    event LogSwapTokenToStablecoin(address indexed _owner, uint256 _value, uint256 _fee);\n    event LogSwapStablecoinToToken(address indexed _owner, uint256 _value, uint256 _fee);\n    event LogDailySwapLimitUpdate(uint256 _newDailySwapLimit, uint256 _oldDailySwapLimit);\n    event LogDepositToken(address indexed _owner, address indexed _token, uint256 _value);\n    event LogWithdrawFees(address indexed _account, uint256 _fees);\n    event LogRemainingDailySwapAmount(uint256 _remainingDailySwapAmount);\n    event LogStableSwapPauseState(bool _pauseState);\n    event LogEmergencyWithdraw(address indexed _account);\n\n    modifier onlyOwner() {\n        IAccessControlConfig _accessControlConfig = IAccessControlConfig(bookKeeper.accessControlConfig());\n        require(_accessControlConfig.hasRole(_accessControlConfig.OWNER_ROLE(), msg.sender), \"!ownerRole\");\n        _;\n    }\n\n    modifier onlyOwnerOrGov() {\n        IAccessControlConfig _accessControlConfig = IAccessControlConfig(IBookKeeper(bookKeeper).accessControlConfig());\n        require(\n            _accessControlConfig.hasRole(_accessControlConfig.OWNER_ROLE(), msg.sender) ||\n                _accessControlConfig.hasRole(_accessControlConfig.GOV_ROLE(), msg.sender),\n            \"!(ownerRole or govRole)\"\n        );\n        _;\n    }\n\n    function initialize(address _bookKeeper,address _token, address _stablecoin, uint256 _dailySwapLimit) external initializer {\n        PausableUpgradeable.__Pausable_init();\n        ReentrancyGuardUpgradeable.__ReentrancyGuard_init();\n        require(_dailySwapLimit >= MINIMUM_DAILY_SWAP_LIMIT,\"initialize/less-than-minimum-daily-swap-limit\");\n        bookKeeper = IBookKeeper(_bookKeeper);\n        stablecoin = IStablecoin(_stablecoin);\n        token = _token;\n        dailySwapLimit = _dailySwapLimit;\n        to18ConversionFactor = 10 ** (18 - stablecoin.decimals());\n        \n    }\n\n    uint256 constant WAD = 10 ** 18;\n    uint256 constant RAY = 10 ** 27;\n\n    function add(uint256 _x, uint256 _y) internal pure returns (uint256 _z) {\n        require((_z = _x + _y) >= _x);\n    }\n\n    function sub(uint256 _x, uint256 _y) internal pure returns (uint256 _z) {\n        require((_z = _x - _y) <= _x);\n    }\n\n    function mul(uint256 _x, uint256 _y) internal pure returns (uint256 _z) {\n        require(_y == 0 || (_z = _x * _y) / _y == _x);\n    }\n\n    function setDailySwapLimit(uint256 newdailySwapLimit) external onlyOwner {\n        require(newdailySwapLimit >= MINIMUM_DAILY_SWAP_LIMIT,\"initialize/less-than-minimum-daily-swap-limit\");\n        emit LogDailySwapLimitUpdate(newdailySwapLimit, dailySwapLimit);\n        dailySwapLimit = newdailySwapLimit;\n    }\n\n    function setFeeIn(uint256 _feeIn) external onlyOwner {\n        require(_feeIn <= 5 * 1e17, \"StableSwapModule/invalid-fee-in\"); // Max feeIn is 0.5 Ethers or 50%\n        feeIn = _feeIn;\n        emit LogSetFeeIn(msg.sender, _feeIn);\n    }\n\n    function setFeeOut(uint256 _feeOut) external onlyOwner {\n        require(_feeOut <= 5 * 1e17, \"StableSwapModule/invalid-fee-out\"); // Max feeOut is 0.5 Ethers or 50%\n        feeOut = _feeOut;\n        emit LogSetFeeOut(msg.sender, _feeOut);\n    }\n\n    \n    function swapTokenToStablecoin(address _usr,uint256 _tokenAmount) external override nonReentrant whenNotPaused {\n        require(_tokenAmount != 0, \"StableSwapModule/amount-zero\");\n        \n        uint256 _tokenAmount18 = mul(_tokenAmount, to18ConversionFactor);\n        uint256 _fee = mul(_tokenAmount18, feeIn) / WAD;\n        uint256 _stablecoinAmount = sub(_tokenAmount18, _fee);\n        \n        require(tokenBalance[address(stablecoin)] >= _stablecoinAmount, \"swapTokenToStablecoin/not-enough-stablecoin-balance\");\n        \n        _udpateAndCheckDailyLimit(_tokenAmount);\n        \n        tokenBalance[address(stablecoin)] = sub(tokenBalance[address(stablecoin)], _stablecoinAmount);\n        tokenBalance[address(token)] = add(tokenBalance[address(token)], _tokenAmount);\n        totalFeeBalance += _fee;\n        \n        token.safeTransferFrom(msg.sender, address(this), _tokenAmount);\n        address(stablecoin).safeTransfer(_usr, _stablecoinAmount);\n        emit LogSwapTokenToStablecoin(_usr, _tokenAmount, _fee);\n    }\n    \n\n    function swapStablecoinToToken(address _usr,uint256 _tokenAmount) external override nonReentrant whenNotPaused {\n        require(_tokenAmount != 0, \"StableSwapModule/amount-zero\");\n        uint256 _tokenAmount18 = mul(_tokenAmount, to18ConversionFactor);\n        uint256 _fee = mul(_tokenAmount18, feeOut) / WAD;\n        uint256 _stablecoinAmount = add(_tokenAmount18, _fee);\n        \n        require(tokenBalance[address(token)] >= _tokenAmount,\"swapStablecoinToToken/not-enough-token-balance\");\n        \n        _udpateAndCheckDailyLimit(_tokenAmount);\n        \n        tokenBalance[address(token)] = sub(tokenBalance[address(token)], _tokenAmount);\n        tokenBalance[address(stablecoin)] = add(tokenBalance[address(stablecoin)], _stablecoinAmount);\n        totalFeeBalance += _fee;\n        \n        address(stablecoin).safeTransferFrom(msg.sender, address(this), _stablecoinAmount);\n        token.safeTransfer(_usr, _tokenAmount);\n        emit LogSwapStablecoinToToken(_usr, _tokenAmount, _fee);\n    }\n\n    function depositToken(address _token,uint256 _amount) external override nonReentrant whenNotPaused onlyOwnerOrGov{\n        require(address(_token).balanceOf(msg.sender) >= _amount,\"depositStablecoin/not-enough-stablecoin-balance\");\n        tokenBalance[address(_token)] = add(tokenBalance[address(stablecoin)], _amount);\n        _token.safeTransferFrom(msg.sender,address(this), _amount);\n        emit LogDepositToken(msg.sender, _token, _amount);\n    }\n\n    function withdrawFees(address _account) external override nonReentrant onlyOwnerOrGov{\n        require(_account!= address(0),\"withdrawFees/empty-account\");\n        require(totalFeeBalance!=0,\"withdrawFees/no-fee-balance\");\n        uint256 pendingFeeBalance = totalFeeBalance;\n        totalFeeBalance = 0;\n        address(stablecoin).safeTransfer(_account,  pendingFeeBalance);\n        emit LogWithdrawFees(_account, pendingFeeBalance);\n    }   \n\n    function pause() external onlyOwnerOrGov {\n        _pause();\n        emit LogStableSwapPauseState(true);\n    }\n\n    function unpause() external onlyOwnerOrGov {\n        _unpause();\n        emit LogStableSwapPauseState(false);\n    }\n\n    function emergencyWithdraw(address _account) external override nonReentrant onlyOwnerOrGov{\n        require(paused(),\"emergencyWithdraw/not-paused\");\n        tokenBalance[address(token)] = 0;\n        tokenBalance[address(stablecoin)] = 0;\n        token.safeTransfer(_account, token.balanceOf(address(this)));\n        address(stablecoin).safeTransfer(_account, address(stablecoin).balanceOf(address(this)));\n        emit LogEmergencyWithdraw(_account);\n    }\n\n    function _udpateAndCheckDailyLimit(uint256 _amount) internal {\n        if(block.timestamp - lastUpdate >= ONE_DAY){\n            lastUpdate = block.timestamp;\n            remainingDailySwapAmount= dailySwapLimit;\n        }\n        require(remainingDailySwapAmount >= _amount,\"_udpateAndCheckDailyLimit/daily-limit-exceeded\");\n        remainingDailySwapAmount -= _amount;\n        emit LogRemainingDailySwapAmount(remainingDailySwapAmount);\n    }\n}\n",
    "sourcePath": "/Users/tarun.sharma/Tarun/Projects/stablecoin/fathom-stablecoin-smartcontract/fathom-stablecoin-smart-contracts/contracts/main/stablecoin-core/StableSwapModule.sol",
    "compiler": {
        "name": "solc",
        "version": "0.8.17+commit.8df45f5f.Emscripten.clang"
    },
    "schemaVersion": "3.4.10",
    "updatedAt": "2023-01-26T12:28:45.904Z",
    "devdoc": {
        "kind": "dev",
        "methods": {
            "paused()": {
                "details": "Returns true if the contract is paused, and false otherwise."
            }
        },
        "version": 1
    },
    "userdoc": {
        "kind": "user",
        "methods": {},
        "version": 1
    }
}