{
    "contractName": "StableSwapModule",
    "abi": [
        {
            "anonymous": false,
            "inputs": [
                {
                    "indexed": false,
                    "internalType": "uint8",
                    "name": "version",
                    "type": "uint8"
                }
            ],
            "name": "Initialized",
            "type": "event"
        },
        {
            "anonymous": false,
            "inputs": [
                {
                    "indexed": false,
                    "internalType": "uint256",
                    "name": "_newDailySwapLimit",
                    "type": "uint256"
                },
                {
                    "indexed": false,
                    "internalType": "uint256",
                    "name": "_oldDailySwapLimit",
                    "type": "uint256"
                }
            ],
            "name": "LogDailySwapLimitUpdate",
            "type": "event"
        },
        {
            "anonymous": false,
            "inputs": [
                {
                    "indexed": true,
                    "internalType": "address",
                    "name": "_owner",
                    "type": "address"
                },
                {
                    "indexed": true,
                    "internalType": "address",
                    "name": "_token",
                    "type": "address"
                },
                {
                    "indexed": false,
                    "internalType": "uint256",
                    "name": "_value",
                    "type": "uint256"
                }
            ],
            "name": "LogDepositToken",
            "type": "event"
        },
        {
            "anonymous": false,
            "inputs": [
                {
                    "indexed": true,
                    "internalType": "address",
                    "name": "_account",
                    "type": "address"
                }
            ],
            "name": "LogEmergencyWithdraw",
            "type": "event"
        },
        {
            "anonymous": false,
            "inputs": [
                {
                    "indexed": false,
                    "internalType": "uint256",
                    "name": "_remainingDailySwapAmount",
                    "type": "uint256"
                }
            ],
            "name": "LogRemainingDailySwapAmount",
            "type": "event"
        },
        {
            "anonymous": false,
            "inputs": [
                {
                    "indexed": true,
                    "internalType": "address",
                    "name": "_caller",
                    "type": "address"
                },
                {
                    "indexed": false,
                    "internalType": "uint256",
                    "name": "_feeIn",
                    "type": "uint256"
                }
            ],
            "name": "LogSetFeeIn",
            "type": "event"
        },
        {
            "anonymous": false,
            "inputs": [
                {
                    "indexed": true,
                    "internalType": "address",
                    "name": "_caller",
                    "type": "address"
                },
                {
                    "indexed": false,
                    "internalType": "uint256",
                    "name": "_feeOut",
                    "type": "uint256"
                }
            ],
            "name": "LogSetFeeOut",
            "type": "event"
        },
        {
            "anonymous": false,
            "inputs": [
                {
                    "indexed": false,
                    "internalType": "bool",
                    "name": "_pauseState",
                    "type": "bool"
                }
            ],
            "name": "LogStableSwapPauseState",
            "type": "event"
        },
        {
            "anonymous": false,
            "inputs": [
                {
                    "indexed": true,
                    "internalType": "address",
                    "name": "_owner",
                    "type": "address"
                },
                {
                    "indexed": false,
                    "internalType": "uint256",
                    "name": "_value",
                    "type": "uint256"
                },
                {
                    "indexed": false,
                    "internalType": "uint256",
                    "name": "_fee",
                    "type": "uint256"
                }
            ],
            "name": "LogSwapStablecoinToToken",
            "type": "event"
        },
        {
            "anonymous": false,
            "inputs": [
                {
                    "indexed": true,
                    "internalType": "address",
                    "name": "_owner",
                    "type": "address"
                },
                {
                    "indexed": false,
                    "internalType": "uint256",
                    "name": "_value",
                    "type": "uint256"
                },
                {
                    "indexed": false,
                    "internalType": "uint256",
                    "name": "_fee",
                    "type": "uint256"
                }
            ],
            "name": "LogSwapTokenToStablecoin",
            "type": "event"
        },
        {
            "anonymous": false,
            "inputs": [
                {
                    "indexed": true,
                    "internalType": "address",
                    "name": "_destination",
                    "type": "address"
                },
                {
                    "indexed": false,
                    "internalType": "uint256",
                    "name": "_stablecoinFee",
                    "type": "uint256"
                },
                {
                    "indexed": false,
                    "internalType": "uint256",
                    "name": "_tokenFee",
                    "type": "uint256"
                }
            ],
            "name": "LogWithdrawFees",
            "type": "event"
        },
        {
            "anonymous": false,
            "inputs": [
                {
                    "indexed": false,
                    "internalType": "address",
                    "name": "account",
                    "type": "address"
                }
            ],
            "name": "Paused",
            "type": "event"
        },
        {
            "anonymous": false,
            "inputs": [
                {
                    "indexed": false,
                    "internalType": "address",
                    "name": "account",
                    "type": "address"
                }
            ],
            "name": "Unpaused",
            "type": "event"
        },
        {
            "inputs": [],
            "name": "MINIMUM_DAILY_SWAP_LIMIT",
            "outputs": [
                {
                    "internalType": "uint256",
                    "name": "",
                    "type": "uint256"
                }
            ],
            "stateMutability": "view",
            "type": "function"
        },
        {
            "inputs": [],
            "name": "ONE_DAY",
            "outputs": [
                {
                    "internalType": "uint256",
                    "name": "",
                    "type": "uint256"
                }
            ],
            "stateMutability": "view",
            "type": "function"
        },
        {
            "inputs": [],
            "name": "bookKeeper",
            "outputs": [
                {
                    "internalType": "contract IBookKeeper",
                    "name": "",
                    "type": "address"
                }
            ],
            "stateMutability": "view",
            "type": "function"
        },
        {
            "inputs": [],
            "name": "dailySwapLimit",
            "outputs": [
                {
                    "internalType": "uint256",
                    "name": "",
                    "type": "uint256"
                }
            ],
            "stateMutability": "view",
            "type": "function"
        },
        {
            "inputs": [],
            "name": "feeIn",
            "outputs": [
                {
                    "internalType": "uint256",
                    "name": "",
                    "type": "uint256"
                }
            ],
            "stateMutability": "view",
            "type": "function"
        },
        {
            "inputs": [],
            "name": "feeOut",
            "outputs": [
                {
                    "internalType": "uint256",
                    "name": "",
                    "type": "uint256"
                }
            ],
            "stateMutability": "view",
            "type": "function"
        },
        {
            "inputs": [],
            "name": "lastUpdate",
            "outputs": [
                {
                    "internalType": "uint256",
                    "name": "",
                    "type": "uint256"
                }
            ],
            "stateMutability": "view",
            "type": "function"
        },
        {
            "inputs": [],
            "name": "paused",
            "outputs": [
                {
                    "internalType": "bool",
                    "name": "",
                    "type": "bool"
                }
            ],
            "stateMutability": "view",
            "type": "function"
        },
        {
            "inputs": [],
            "name": "remainingDailySwapAmount",
            "outputs": [
                {
                    "internalType": "uint256",
                    "name": "",
                    "type": "uint256"
                }
            ],
            "stateMutability": "view",
            "type": "function"
        },
        {
            "inputs": [],
            "name": "stablecoin",
            "outputs": [
                {
                    "internalType": "address",
                    "name": "",
                    "type": "address"
                }
            ],
            "stateMutability": "view",
            "type": "function"
        },
        {
            "inputs": [],
            "name": "token",
            "outputs": [
                {
                    "internalType": "address",
                    "name": "",
                    "type": "address"
                }
            ],
            "stateMutability": "view",
            "type": "function"
        },
        {
            "inputs": [
                {
                    "internalType": "address",
                    "name": "",
                    "type": "address"
                }
            ],
            "name": "tokenBalance",
            "outputs": [
                {
                    "internalType": "uint256",
                    "name": "",
                    "type": "uint256"
                }
            ],
            "stateMutability": "view",
            "type": "function"
        },
        {
            "inputs": [],
            "name": "totalFXDFeeBalance",
            "outputs": [
                {
                    "internalType": "uint256",
                    "name": "",
                    "type": "uint256"
                }
            ],
            "stateMutability": "view",
            "type": "function"
        },
        {
            "inputs": [],
            "name": "totalTokenFeeBalance",
            "outputs": [
                {
                    "internalType": "uint256",
                    "name": "",
                    "type": "uint256"
                }
            ],
            "stateMutability": "view",
            "type": "function"
        },
        {
            "inputs": [
                {
                    "internalType": "address",
                    "name": "_bookKeeper",
                    "type": "address"
                },
                {
                    "internalType": "address",
                    "name": "_token",
                    "type": "address"
                },
                {
                    "internalType": "address",
                    "name": "_stablecoin",
                    "type": "address"
                },
                {
                    "internalType": "uint256",
                    "name": "_dailySwapLimit",
                    "type": "uint256"
                }
            ],
            "name": "initialize",
            "outputs": [],
            "stateMutability": "nonpayable",
            "type": "function"
        },
        {
            "inputs": [
                {
                    "internalType": "uint256",
                    "name": "newdailySwapLimit",
                    "type": "uint256"
                }
            ],
            "name": "setDailySwapLimit",
            "outputs": [],
            "stateMutability": "nonpayable",
            "type": "function"
        },
        {
            "inputs": [
                {
                    "internalType": "uint256",
                    "name": "_feeIn",
                    "type": "uint256"
                }
            ],
            "name": "setFeeIn",
            "outputs": [],
            "stateMutability": "nonpayable",
            "type": "function"
        },
        {
            "inputs": [
                {
                    "internalType": "uint256",
                    "name": "_feeOut",
                    "type": "uint256"
                }
            ],
            "name": "setFeeOut",
            "outputs": [],
            "stateMutability": "nonpayable",
            "type": "function"
        },
        {
            "inputs": [
                {
                    "internalType": "address",
                    "name": "_usr",
                    "type": "address"
                },
                {
                    "internalType": "uint256",
                    "name": "_amount",
                    "type": "uint256"
                }
            ],
            "name": "swapTokenToStablecoin",
            "outputs": [],
            "stateMutability": "nonpayable",
            "type": "function"
        },
        {
            "inputs": [
                {
                    "internalType": "address",
                    "name": "_usr",
                    "type": "address"
                },
                {
                    "internalType": "uint256",
                    "name": "_amount",
                    "type": "uint256"
                }
            ],
            "name": "swapStablecoinToToken",
            "outputs": [],
            "stateMutability": "nonpayable",
            "type": "function"
        },
        {
            "inputs": [
                {
                    "internalType": "address",
                    "name": "_token",
                    "type": "address"
                },
                {
                    "internalType": "uint256",
                    "name": "_amount",
                    "type": "uint256"
                }
            ],
            "name": "depositToken",
            "outputs": [],
            "stateMutability": "nonpayable",
            "type": "function"
        },
        {
            "inputs": [
                {
                    "internalType": "address",
                    "name": "_destination",
                    "type": "address"
                }
            ],
            "name": "withdrawFees",
            "outputs": [],
            "stateMutability": "nonpayable",
            "type": "function"
        },
        {
            "inputs": [],
            "name": "pause",
            "outputs": [],
            "stateMutability": "nonpayable",
            "type": "function"
        },
        {
            "inputs": [],
            "name": "unpause",
            "outputs": [],
            "stateMutability": "nonpayable",
            "type": "function"
        },
        {
            "inputs": [
                {
                    "internalType": "address",
                    "name": "_account",
                    "type": "address"
                }
            ],
            "name": "emergencyWithdraw",
            "outputs": [],
            "stateMutability": "nonpayable",
            "type": "function"
        }
    ],
    "bytecode": "0x608060405234801561001057600080fd5b50612a65806100206000396000f3fe608060405234801561001057600080fd5b50600436106101735760003560e01c80636ff1c9bc116100de578063c046371111610097578063e3b3932a11610071578063e3b3932a146102b7578063e9cbd822146102e2578063eedc966a146102f5578063fc0c546a1461031557600080fd5b8063c046371114610292578063cf756fdf1461029b578063e35cc69b146102ae57600080fd5b80636ff1c9bc14610248578063769a48d91461025b57806381e28cc7146102645780638456cb5914610277578063863e76db1461027f578063a21c1c8f1461028957600080fd5b806340853dce1161013057806340853dce146101e757806342e8a972146101fa57806355725d411461020d5780635c975abb14610220578063651507f0146102365780636c1cbef01461023f57600080fd5b80630696819f14610178578063164e68de14610194578063231d3bc1146101a9578063338b5dea146101b95780633cdabd9c146101cc5780633f4ba83a146101df575b600080fd5b610181609c5481565b6040519081526020015b60405180910390f35b6101a76101a23660046126a4565b610328565b005b610181683635c9adc5dea0000081565b6101a76101c73660046126c8565b6106ca565b6101a76101da3660046126f4565b610adf565b6101a7610cfa565b6101a76101f53660046126c8565b610f7a565b6101a76102083660046126f4565b61121a565b6101a761021b3660046126f4565b611414565b60335460ff16604051901515815260200161018b565b61018160a15481565b61018160a05481565b6101a76102563660046126a4565b611606565b610181609b5481565b6101a76102723660046126c8565b61196b565b6101a7611c4d565b6101816201518081565b610181609e5481565b610181609d5481565b6101a76102a936600461270d565b611ec6565b610181609f5481565b6097546102ca906001600160a01b031681565b6040516001600160a01b03909116815260200161018b565b6098546102ca906001600160a01b031681565b6101816103033660046126a4565b609a6020526000908152604090205481565b6099546102ca906001600160a01b031681565b610330612094565b6097546040805163c8cc243f60e01b815290516000926001600160a01b03169163c8cc243f9160048083019260209291908290030181865afa15801561037a573d6000803e3d6000fd5b505050506040513d601f19601f8201168201806040525081019061039e919061275e565b9050806001600160a01b03166391d14854826001600160a01b031663e58378bb6040518163ffffffff1660e01b8152600401602060405180830381865afa1580156103ed573d6000803e3d6000fd5b505050506040513d601f19601f82011682018060405250810190610411919061277b565b6040516001600160e01b031960e084901b1681526004810191909152336024820152604401602060405180830381865afa158015610453573d6000803e3d6000fd5b505050506040513d601f19601f820116820180604052508101906104779190612794565b806105545750806001600160a01b03166391d14854826001600160a01b031663b536818a6040518163ffffffff1660e01b8152600401602060405180830381865afa1580156104ca573d6000803e3d6000fd5b505050506040513d601f19601f820116820180604052508101906104ee919061277b565b6040516001600160e01b031960e084901b1681526004810191909152336024820152604401602060405180830381865afa158015610530573d6000803e3d6000fd5b505050506040513d601f19601f820116820180604052508101906105549190612794565b6105795760405162461bcd60e51b8152600401610570906127b6565b60405180910390fd5b6001600160a01b0382166105cf5760405162461bcd60e51b815260206004820152601e60248201527f7769746864726177466565732f77726f6e672d64657374696e6174696f6e00006044820152606401610570565b60a1541515806105e0575060a05415155b61062c5760405162461bcd60e51b815260206004820152601b60248201527f7769746864726177466565732f6e6f2d6665652d62616c616e636500000000006044820152606401610570565b60a154801561065157600060a155609854610651906001600160a01b031684836120ed565b60a054801561067657600060a055609954610676906001600160a01b031685836120ed565b60408051838152602081018390526001600160a01b038616917f231dfe65cdfbccb5fa65cf5ce027aef6dac6d15b4c7cd98400164f726f775850910160405180910390a25050506106c76001606555565b50565b6106d2612094565b6106da6121f8565b6097546040805163c8cc243f60e01b815290516000926001600160a01b03169163c8cc243f9160048083019260209291908290030181865afa158015610724573d6000803e3d6000fd5b505050506040513d601f19601f82011682018060405250810190610748919061275e565b9050806001600160a01b03166391d14854826001600160a01b031663e58378bb6040518163ffffffff1660e01b8152600401602060405180830381865afa158015610797573d6000803e3d6000fd5b505050506040513d601f19601f820116820180604052508101906107bb919061277b565b6040516001600160e01b031960e084901b1681526004810191909152336024820152604401602060405180830381865afa1580156107fd573d6000803e3d6000fd5b505050506040513d601f19601f820116820180604052508101906108219190612794565b806108fe5750806001600160a01b03166391d14854826001600160a01b031663b536818a6040518163ffffffff1660e01b8152600401602060405180830381865afa158015610874573d6000803e3d6000fd5b505050506040513d601f19601f82011682018060405250810190610898919061277b565b6040516001600160e01b031960e084901b1681526004810191909152336024820152604401602060405180830381865afa1580156108da573d6000803e3d6000fd5b505050506040513d601f19601f820116820180604052508101906108fe9190612794565b61091a5760405162461bcd60e51b8152600401610570906127b6565b6099546001600160a01b038481169116148061094357506098546001600160a01b038481169116145b61098f5760405162461bcd60e51b815260206004820152601f60248201527f6465706f736974537461626c65636f696e2f696e76616c69642d746f6b656e006044820152606401610570565b816000036109df5760405162461bcd60e51b815260206004820152601d60248201527f6465706f736974537461626c65636f696e2f616d6f756e742d7a65726f0000006044820152606401610570565b816109f36001600160a01b03851633612240565b1015610a4d5760405162461bcd60e51b8152602060048201526024808201527f6465706f736974537461626c65636f696e2f6e6f742d656e6f7567682d62616c604482015263616e636560e01b6064820152608401610570565b6001600160a01b0383166000908152609a602052604081208054849290610a75908490612803565b90915550610a9090506001600160a01b0384163330856122b7565b6040518281526001600160a01b0384169033907fb024cc5591038c18f7e2348d474092b453a32212dd1ebcc0370c4ac2e42cce439060200160405180910390a350610adb6001606555565b5050565b6097546040805163c8cc243f60e01b815290516000926001600160a01b03169163c8cc243f9160048083019260209291908290030181865afa158015610b29573d6000803e3d6000fd5b505050506040513d601f19601f82011682018060405250810190610b4d919061275e565b9050806001600160a01b03166391d14854826001600160a01b031663e58378bb6040518163ffffffff1660e01b8152600401602060405180830381865afa158015610b9c573d6000803e3d6000fd5b505050506040513d601f19601f82011682018060405250810190610bc0919061277b565b6040516001600160e01b031960e084901b1681526004810191909152336024820152604401602060405180830381865afa158015610c02573d6000803e3d6000fd5b505050506040513d601f19601f82011682018060405250810190610c269190612794565b610c425760405162461bcd60e51b815260040161057090612816565b683635c9adc5dea00000821015610cb75760405162461bcd60e51b815260206004820152603360248201527f537461626c65537761704d6f64756c652f6c6573732d7468616e2d6d696e696d6044820152721d5b4b59185a5b1e4b5cddd85c0b5b1a5b5a5d606a1b6064820152608401610570565b609f546040805184815260208101929092527f91fc53b44c6fd2d041f17f6121e3caacab265cf4b02f97d3fc6e2bc0c9d1ffe7910160405180910390a150609f55565b6097546040805163c8cc243f60e01b815290516000926001600160a01b03169163c8cc243f9160048083019260209291908290030181865afa158015610d44573d6000803e3d6000fd5b505050506040513d601f19601f82011682018060405250810190610d68919061275e565b9050806001600160a01b03166391d14854826001600160a01b031663e58378bb6040518163ffffffff1660e01b8152600401602060405180830381865afa158015610db7573d6000803e3d6000fd5b505050506040513d601f19601f82011682018060405250810190610ddb919061277b565b6040516001600160e01b031960e084901b1681526004810191909152336024820152604401602060405180830381865afa158015610e1d573d6000803e3d6000fd5b505050506040513d601f19601f82011682018060405250810190610e419190612794565b80610f1e5750806001600160a01b03166391d14854826001600160a01b031663b536818a6040518163ffffffff1660e01b8152600401602060405180830381865afa158015610e94573d6000803e3d6000fd5b505050506040513d601f19601f82011682018060405250810190610eb8919061277b565b6040516001600160e01b031960e084901b1681526004810191909152336024820152604401602060405180830381865afa158015610efa573d6000803e3d6000fd5b505050506040513d601f19601f82011682018060405250810190610f1e9190612794565b610f3a5760405162461bcd60e51b8152600401610570906127b6565b610f426123cf565b604051600081527fcdd780009e0ca26d4eb3c3ec7a679e3b2581bfb5b6f89856108a50f5b1fa2bcb906020015b60405180910390a150565b610f82612094565b610f8a6121f8565b80600003610fda5760405162461bcd60e51b815260206004820152601c60248201527f537461626c65537761704d6f64756c652f616d6f756e742d7a65726f000000006044820152606401610570565b600061105e82609960009054906101000a90046001600160a01b03166001600160a01b031663313ce5676040518163ffffffff1660e01b8152600401602060405180830381865afa158015611033573d6000803e3d6000fd5b505050506040513d601f19601f82011682018060405250810190611057919061283a565b6012612421565b90506000670de0b6b3a7640000609b5483611079919061285d565b6110839190612874565b905060006110918284612896565b6098546001600160a01b03166000908152609a602052604090205490915081111561111a5760405162461bcd60e51b815260206004820152603360248201527f73776170546f6b656e546f537461626c65636f696e2f6e6f742d656e6f7567686044820152722d737461626c65636f696e2d62616c616e636560681b6064820152608401610570565b6111238361247c565b6098546001600160a01b03166000908152609a60205260408120805483929061114d908490612896565b90915550506099546001600160a01b03166000908152609a60205260408120805486929061117c908490612803565b925050819055508160a160008282546111959190612803565b90915550506099546111b2906001600160a01b03163330876122b7565b6098546111c9906001600160a01b031686836120ed565b60408051858152602081018490526001600160a01b038716917febeefb54ae6b697f8f7b14ec942871ef2fc051ec90c2a221007e5a5702a4d7f2910160405180910390a2505050610adb6001606555565b6097546040805163c8cc243f60e01b815290516000926001600160a01b03169163c8cc243f9160048083019260209291908290030181865afa158015611264573d6000803e3d6000fd5b505050506040513d601f19601f82011682018060405250810190611288919061275e565b9050806001600160a01b03166391d14854826001600160a01b031663e58378bb6040518163ffffffff1660e01b8152600401602060405180830381865afa1580156112d7573d6000803e3d6000fd5b505050506040513d601f19601f820116820180604052508101906112fb919061277b565b6040516001600160e01b031960e084901b1681526004810191909152336024820152604401602060405180830381865afa15801561133d573d6000803e3d6000fd5b505050506040513d601f19601f820116820180604052508101906113619190612794565b61137d5760405162461bcd60e51b815260040161057090612816565b6706f05b59d3b200008211156113d55760405162461bcd60e51b815260206004820181905260248201527f537461626c65537761704d6f64756c652f696e76616c69642d6665652d6f75746044820152606401610570565b609c82905560405182815233907fca068f6ffd884c8217e477778ef3821efcb5e96690cff9e680c7dbd077d1d1bd906020015b60405180910390a25050565b6097546040805163c8cc243f60e01b815290516000926001600160a01b03169163c8cc243f9160048083019260209291908290030181865afa15801561145e573d6000803e3d6000fd5b505050506040513d601f19601f82011682018060405250810190611482919061275e565b9050806001600160a01b03166391d14854826001600160a01b031663e58378bb6040518163ffffffff1660e01b8152600401602060405180830381865afa1580156114d1573d6000803e3d6000fd5b505050506040513d601f19601f820116820180604052508101906114f5919061277b565b6040516001600160e01b031960e084901b1681526004810191909152336024820152604401602060405180830381865afa158015611537573d6000803e3d6000fd5b505050506040513d601f19601f8201168201806040525081019061155b9190612794565b6115775760405162461bcd60e51b815260040161057090612816565b6706f05b59d3b200008211156115cf5760405162461bcd60e51b815260206004820152601f60248201527f537461626c65537761704d6f64756c652f696e76616c69642d6665652d696e006044820152606401610570565b609b82905560405182815233907f761b3141cbb42e607f4e550cf06b417f5d0fe476ee4fb6b9fbb34c4ae134b81390602001611408565b61160e612094565b6097546040805163c8cc243f60e01b815290516000926001600160a01b03169163c8cc243f9160048083019260209291908290030181865afa158015611658573d6000803e3d6000fd5b505050506040513d601f19601f8201168201806040525081019061167c919061275e565b9050806001600160a01b03166391d14854826001600160a01b031663e58378bb6040518163ffffffff1660e01b8152600401602060405180830381865afa1580156116cb573d6000803e3d6000fd5b505050506040513d601f19601f820116820180604052508101906116ef919061277b565b6040516001600160e01b031960e084901b1681526004810191909152336024820152604401602060405180830381865afa158015611731573d6000803e3d6000fd5b505050506040513d601f19601f820116820180604052508101906117559190612794565b806118325750806001600160a01b03166391d14854826001600160a01b031663b536818a6040518163ffffffff1660e01b8152600401602060405180830381865afa1580156117a8573d6000803e3d6000fd5b505050506040513d601f19601f820116820180604052508101906117cc919061277b565b6040516001600160e01b031960e084901b1681526004810191909152336024820152604401602060405180830381865afa15801561180e573d6000803e3d6000fd5b505050506040513d601f19601f820116820180604052508101906118329190612794565b61184e5760405162461bcd60e51b8152600401610570906127b6565b611856612551565b6001600160a01b0382166118ac5760405162461bcd60e51b815260206004820152601a60248201527f7769746864726177466565732f656d7074792d6163636f756e740000000000006044820152606401610570565b609980546001600160a01b039081166000908152609a60205260408082208290556098548316825281205590546118fd9184916118ea911630612240565b6099546001600160a01b031691906120ed565b60985461192c908390611919906001600160a01b031630612240565b6098546001600160a01b031691906120ed565b6040516001600160a01b038316907f66b4c12417b17d45e180a77a43b566ff7cdec1cc047789840043d696de3acb4890600090a2506106c76001606555565b611973612094565b61197b6121f8565b806000036119cb5760405162461bcd60e51b815260206004820152601c60248201527f537461626c65537761704d6f64756c652f616d6f756e742d7a65726f000000006044820152606401610570565b6000670de0b6b3a7640000609c54836119e4919061285d565b6119ee9190612874565b90506000611a726119ff8385612896565b6099546040805163313ce56760e01b815290516012926001600160a01b03169163313ce5679160048083019260209291908290030181865afa158015611a49573d6000803e3d6000fd5b505050506040513d601f19601f82011682018060405250810190611a6d919061283a565b612421565b6099546001600160a01b03166000908152609a6020526040902054909150811115611af65760405162461bcd60e51b815260206004820152602e60248201527f73776170537461626c65636f696e546f546f6b656e2f6e6f742d656e6f75676860448201526d2d746f6b656e2d62616c616e636560901b6064820152608401610570565b611aff8361247c565b6099546001600160a01b03166000908152609a602052604081208054839290611b29908490612896565b90915550506098546001600160a01b03166000908152609a602052604081208054859290611b58908490612803565b92505081905550611bb8826012609960009054906101000a90046001600160a01b03166001600160a01b031663313ce5676040518163ffffffff1660e01b8152600401602060405180830381865afa158015611a49573d6000803e3d6000fd5b60a06000828254611bc99190612803565b9091555050609854611be6906001600160a01b03163330866122b7565b609954611bfd906001600160a01b031685836120ed565b60408051848152602081018490526001600160a01b038616917f19db3e213473ea73ae4b6c76a26cbcb2a43d954d78caca305d507dec79b24e82910160405180910390a25050610adb6001606555565b6097546040805163c8cc243f60e01b815290516000926001600160a01b03169163c8cc243f9160048083019260209291908290030181865afa158015611c97573d6000803e3d6000fd5b505050506040513d601f19601f82011682018060405250810190611cbb919061275e565b9050806001600160a01b03166391d14854826001600160a01b031663e58378bb6040518163ffffffff1660e01b8152600401602060405180830381865afa158015611d0a573d6000803e3d6000fd5b505050506040513d601f19601f82011682018060405250810190611d2e919061277b565b6040516001600160e01b031960e084901b1681526004810191909152336024820152604401602060405180830381865afa158015611d70573d6000803e3d6000fd5b505050506040513d601f19601f82011682018060405250810190611d949190612794565b80611e715750806001600160a01b03166391d14854826001600160a01b031663b536818a6040518163ffffffff1660e01b8152600401602060405180830381865afa158015611de7573d6000803e3d6000fd5b505050506040513d601f19601f82011682018060405250810190611e0b919061277b565b6040516001600160e01b031960e084901b1681526004810191909152336024820152604401602060405180830381865afa158015611e4d573d6000803e3d6000fd5b505050506040513d601f19601f82011682018060405250810190611e719190612794565b611e8d5760405162461bcd60e51b8152600401610570906127b6565b611e9561259a565b604051600181527fcdd780009e0ca26d4eb3c3ec7a679e3b2581bfb5b6f89856108a50f5b1fa2bcb90602001610f6f565b600054610100900460ff1615808015611ee65750600054600160ff909116105b80611f005750303b158015611f00575060005460ff166001145b611f635760405162461bcd60e51b815260206004820152602e60248201527f496e697469616c697a61626c653a20636f6e747261637420697320616c72656160448201526d191e481a5b9a5d1a585b1a5e995960921b6064820152608401610570565b6000805460ff191660011790558015611f86576000805461ff0019166101001790555b611f8e6125d7565b611f96612606565b683635c9adc5dea000008210156120055760405162461bcd60e51b815260206004820152602d60248201527f696e697469616c697a652f6c6573732d7468616e2d6d696e696d756d2d64616960448201526c1b1e4b5cddd85c0b5b1a5b5a5d609a1b6064820152608401610570565b609780546001600160a01b038088166001600160a01b031992831617909255609880548684169083161790556099805492871692909116919091179055609f829055801561208d576000805461ff0019169055604051600181527f7f26b83ff96e1f2b6a682f133852f6798a09c465da95921460cefb38474024989060200160405180910390a15b5050505050565b6002606554036120e65760405162461bcd60e51b815260206004820152601f60248201527f5265656e7472616e637947756172643a207265656e7472616e742063616c6c006044820152606401610570565b6002606555565b604080516001600160a01b038481166024830152604480830185905283518084039091018152606490920183526020820180516001600160e01b031663a9059cbb60e01b179052915160009283929087169161214991906128a9565b6000604051808303816000865af19150503d8060008114612186576040519150601f19603f3d011682016040523d82523d6000602084013e61218b565b606091505b50915091508180156121b55750805115806121b55750808060200190518101906121b59190612794565b61208d5760405162461bcd60e51b815260206004820152600d60248201526c10b9b0b332aa3930b739b332b960991b6044820152606401610570565b6001606555565b60335460ff161561223e5760405162461bcd60e51b815260206004820152601060248201526f14185d5cd8589b194e881c185d5cd95960821b6044820152606401610570565b565b6040516370a0823160e01b81526001600160a01b038281166004830152600091908416906370a0823190602401602060405180830381865afa15801561228a573d6000803e3d6000fd5b505050506040513d601f19601f820116820180604052508101906122ae919061277b565b90505b92915050565b604080516001600160a01b0385811660248301528481166044830152606480830185905283518084039091018152608490920183526020820180516001600160e01b03166323b872dd60e01b179052915160009283929088169161231b91906128a9565b6000604051808303816000865af19150503d8060008114612358576040519150601f19603f3d011682016040523d82523d6000602084013e61235d565b606091505b50915091508180156123875750805115806123875750808060200190518101906123879190612794565b6123c75760405162461bcd60e51b815260206004820152601160248201527021736166655472616e7366657246726f6d60781b6044820152606401610570565b505050505050565b6123d7612551565b6033805460ff191690557f5db9ee0a495bf2e6ff9c91a7834c1ba4fdd244a5e8aa4e537bd38aeae4b073aa335b6040516001600160a01b03909116815260200160405180910390a1565b60008260ff168260ff1610156124555761243b82846128d8565b61244690600a6129d5565b6124509085612874565b612474565b61245f83836128d8565b61246a90600a6129d5565b612474908561285d565b949350505050565b62015180609d544261248e9190612896565b1061249e5742609d55609f54609e555b80609e5410156125075760405162461bcd60e51b815260206004820152602e60248201527f5f756470617465416e64436865636b4461696c794c696d69742f6461696c792d60448201526d1b1a5b5a5d0b595e18d95959195960921b6064820152608401610570565b80609e60008282546125199190612896565b9091555050609e546040519081527f3ba6536311b1b8c63364031768ec0197123478d2fc4b4c54f710b85c32c12b3190602001610f6f565b60335460ff1661223e5760405162461bcd60e51b815260206004820152601460248201527314185d5cd8589b194e881b9bdd081c185d5cd95960621b6044820152606401610570565b6125a26121f8565b6033805460ff191660011790557f62e78cea01bee320cd4e420270b5ea74000d11b0c9f74754ebdbfc544b05a2586124043390565b600054610100900460ff166125fe5760405162461bcd60e51b8152600401610570906129e4565b61223e612635565b600054610100900460ff1661262d5760405162461bcd60e51b8152600401610570906129e4565b61223e612668565b600054610100900460ff1661265c5760405162461bcd60e51b8152600401610570906129e4565b6033805460ff19169055565b600054610100900460ff166121f15760405162461bcd60e51b8152600401610570906129e4565b6001600160a01b03811681146106c757600080fd5b6000602082840312156126b657600080fd5b81356126c18161268f565b9392505050565b600080604083850312156126db57600080fd5b82356126e68161268f565b946020939093013593505050565b60006020828403121561270657600080fd5b5035919050565b6000806000806080858703121561272357600080fd5b843561272e8161268f565b9350602085013561273e8161268f565b9250604085013561274e8161268f565b9396929550929360600135925050565b60006020828403121561277057600080fd5b81516126c18161268f565b60006020828403121561278d57600080fd5b5051919050565b6000602082840312156127a657600080fd5b815180151581146126c157600080fd5b60208082526017908201527f21286f776e6572526f6c65206f7220676f76526f6c6529000000000000000000604082015260600190565b634e487b7160e01b600052601160045260246000fd5b808201808211156122b1576122b16127ed565b6020808252600a9082015269216f776e6572526f6c6560b01b604082015260600190565b60006020828403121561284c57600080fd5b815160ff811681146126c157600080fd5b80820281158282048414176122b1576122b16127ed565b60008261289157634e487b7160e01b600052601260045260246000fd5b500490565b818103818111156122b1576122b16127ed565b6000825160005b818110156128ca57602081860181015185830152016128b0565b506000920191825250919050565b60ff82811682821603908111156122b1576122b16127ed565b600181815b8085111561292c578160001904821115612912576129126127ed565b8085161561291f57918102915b93841c93908002906128f6565b509250929050565b600082612943575060016122b1565b81612950575060006122b1565b816001811461296657600281146129705761298c565b60019150506122b1565b60ff841115612981576129816127ed565b50506001821b6122b1565b5060208310610133831016604e8410600b84101617156129af575081810a6122b1565b6129b983836128f1565b80600019048211156129cd576129cd6127ed565b029392505050565b60006122ae60ff841683612934565b6020808252602b908201527f496e697469616c697a61626c653a20636f6e7472616374206973206e6f74206960408201526a6e697469616c697a696e6760a81b60608201526080019056fea2646970667358221220b9d1322ed1bf0bf6541e9d154eb7283af74245602bc645ee180ed0cfe2da5a1864736f6c63430008110033",
    "immutableReferences": {},
    "source": "// SPDX-License-Identifier: AGPL-3.0-or-later\npragma solidity 0.8.17;\n\nimport \"@openzeppelin/contracts-upgradeable/access/OwnableUpgradeable.sol\";\nimport \"@openzeppelin/contracts-upgradeable/security/PausableUpgradeable.sol\";\nimport \"@openzeppelin/contracts-upgradeable/access/AccessControlUpgradeable.sol\";\nimport \"@openzeppelin/contracts-upgradeable/security/ReentrancyGuardUpgradeable.sol\";\n\nimport \"../interfaces/IToken.sol\";\nimport \"../interfaces/IStablecoinAdapter.sol\";\nimport \"../interfaces/IStablecoin.sol\";\nimport \"../interfaces/IBookKeeper.sol\";\nimport \"../interfaces/IStableSwapModule.sol\";\nimport \"../interfaces/IPausable.sol\";\nimport \"../utils/SafeToken.sol\";\n\n// Stable Swap Module\n// Allows anyone to go between FUSD and the Token by pooling the liquidity\n// An optional fee is charged for incoming and outgoing transfers\ncontract StableSwapModule is PausableUpgradeable, ReentrancyGuardUpgradeable, IStableSwapModule, IPausable {\n    using SafeToken for address;\n\n    IBookKeeper public bookKeeper;\n    address public stablecoin;\n    address public token;\n\n    mapping(address => uint256) public tokenBalance;\n\n    uint256 public feeIn; // fee in [wad]\n    uint256 public feeOut; // fee out [wad]\n    uint256 public lastUpdate;\n\n    uint256 public remainingDailySwapAmount; // [wad]\n    uint256 public dailySwapLimit; // [wad]\n    uint256 public totalTokenFeeBalance; // [wad]\n    uint256 public totalFXDFeeBalance; // [wad]\n\n    uint256 public constant ONE_DAY = 86400;\n    uint256 public constant MINIMUM_DAILY_SWAP_LIMIT = 1000 * 1e18;\n\n    event LogSetFeeIn(address indexed _caller, uint256 _feeIn);\n    event LogSetFeeOut(address indexed _caller, uint256 _feeOut);\n    event LogSwapTokenToStablecoin(address indexed _owner, uint256 _value, uint256 _fee);\n    event LogSwapStablecoinToToken(address indexed _owner, uint256 _value, uint256 _fee);\n    event LogDailySwapLimitUpdate(uint256 _newDailySwapLimit, uint256 _oldDailySwapLimit);\n    event LogDepositToken(address indexed _owner, address indexed _token, uint256 _value);\n    event LogWithdrawFees(address indexed _destination, uint256 _stablecoinFee, uint256 _tokenFee);\n    event LogRemainingDailySwapAmount(uint256 _remainingDailySwapAmount);\n    event LogStableSwapPauseState(bool _pauseState);\n    event LogEmergencyWithdraw(address indexed _account);\n\n    modifier onlyOwner() {\n        IAccessControlConfig _accessControlConfig = IAccessControlConfig(bookKeeper.accessControlConfig());\n        require(_accessControlConfig.hasRole(_accessControlConfig.OWNER_ROLE(), msg.sender), \"!ownerRole\");\n        _;\n    }\n\n    modifier onlyOwnerOrGov() {\n        IAccessControlConfig _accessControlConfig = IAccessControlConfig(IBookKeeper(bookKeeper).accessControlConfig());\n        require(\n            _accessControlConfig.hasRole(_accessControlConfig.OWNER_ROLE(), msg.sender) ||\n                _accessControlConfig.hasRole(_accessControlConfig.GOV_ROLE(), msg.sender),\n            \"!(ownerRole or govRole)\"\n        );\n        _;\n    }\n\n    function initialize(\n        address _bookKeeper,\n        address _token,\n        address _stablecoin,\n        uint256 _dailySwapLimit\n    ) external initializer {\n        PausableUpgradeable.__Pausable_init();\n        ReentrancyGuardUpgradeable.__ReentrancyGuard_init();\n        require(_dailySwapLimit >= MINIMUM_DAILY_SWAP_LIMIT, \"initialize/less-than-minimum-daily-swap-limit\");\n        bookKeeper = IBookKeeper(_bookKeeper);\n        stablecoin = _stablecoin;\n        token = _token;\n        dailySwapLimit = _dailySwapLimit;\n    }\n\n    uint256 constant WAD = 10**18;\n\n    function setDailySwapLimit(uint256 newdailySwapLimit) external onlyOwner {\n        require(newdailySwapLimit >= MINIMUM_DAILY_SWAP_LIMIT, \"StableSwapModule/less-than-minimum-daily-swap-limit\");\n        emit LogDailySwapLimitUpdate(newdailySwapLimit, dailySwapLimit);\n        dailySwapLimit = newdailySwapLimit;\n    }\n\n    function setFeeIn(uint256 _feeIn) external onlyOwner {\n        require(_feeIn <= 5 * 1e17, \"StableSwapModule/invalid-fee-in\"); // Max feeIn is 0.5 Ethers or 50%\n        feeIn = _feeIn;\n        emit LogSetFeeIn(msg.sender, _feeIn);\n    }\n\n    function setFeeOut(uint256 _feeOut) external onlyOwner {\n        require(_feeOut <= 5 * 1e17, \"StableSwapModule/invalid-fee-out\"); // Max feeOut is 0.5 Ethers or 50%\n        feeOut = _feeOut;\n        emit LogSetFeeOut(msg.sender, _feeOut);\n    }\n\n    function swapTokenToStablecoin(address _usr, uint256 _amount) external override nonReentrant whenNotPaused {\n        require(_amount != 0, \"StableSwapModule/amount-zero\");\n\n        uint256 tokenAmount18 = _convertDecimals(_amount, IToken(token).decimals(), 18);\n        uint256 fee = (tokenAmount18 * feeIn) / WAD;\n        uint256 stablecoinAmount = tokenAmount18 - fee;\n        require(tokenBalance[stablecoin] >= stablecoinAmount, \"swapTokenToStablecoin/not-enough-stablecoin-balance\");\n\n        _udpateAndCheckDailyLimit(tokenAmount18);\n\n        tokenBalance[stablecoin] -= stablecoinAmount;\n        tokenBalance[token] += _amount;\n        totalFXDFeeBalance += fee;\n\n        token.safeTransferFrom(msg.sender, address(this), _amount);\n        stablecoin.safeTransfer(_usr, stablecoinAmount);\n        emit LogSwapTokenToStablecoin(_usr, _amount, fee);\n    }\n\n    function swapStablecoinToToken(address _usr, uint256 _amount) external override nonReentrant whenNotPaused {\n        require(_amount != 0, \"StableSwapModule/amount-zero\");\n\n        uint256 fee = (_amount * feeOut) / WAD;\n        uint256 tokenAmount = _convertDecimals(_amount - fee, 18, IToken(token).decimals());\n\n        require(tokenBalance[token] >= tokenAmount, \"swapStablecoinToToken/not-enough-token-balance\");\n\n        _udpateAndCheckDailyLimit(_amount);\n\n        tokenBalance[token] -= tokenAmount;\n        tokenBalance[stablecoin] += _amount;\n        totalTokenFeeBalance += _convertDecimals(fee, 18, IToken(token).decimals());\n\n        stablecoin.safeTransferFrom(msg.sender, address(this), _amount);\n        token.safeTransfer(_usr, tokenAmount);\n        emit LogSwapStablecoinToToken(_usr, _amount, fee);\n    }\n\n    function depositToken(address _token, uint256 _amount) external override nonReentrant whenNotPaused onlyOwnerOrGov {\n        require(_token == token || _token == stablecoin, \"depositStablecoin/invalid-token\");\n        require(_amount != 0, \"depositStablecoin/amount-zero\");\n        require(_token.balanceOf(msg.sender) >= _amount, \"depositStablecoin/not-enough-balance\");\n        tokenBalance[_token] += _amount;\n        _token.safeTransferFrom(msg.sender, address(this), _amount);\n        emit LogDepositToken(msg.sender, _token, _amount);\n    }\n\n    function withdrawFees(address _destination) external override nonReentrant onlyOwnerOrGov {\n        require(_destination != address(0), \"withdrawFees/wrong-destination\");\n        require(totalFXDFeeBalance != 0 || totalTokenFeeBalance != 0, \"withdrawFees/no-fee-balance\");\n        uint256 pendingFXDBalance = totalFXDFeeBalance;\n        if(pendingFXDBalance !=0) {\n            totalFXDFeeBalance = 0;\n            stablecoin.safeTransfer(_destination, pendingFXDBalance);\n        }\n        uint256 pendingTokenBalance = totalTokenFeeBalance;\n        if(pendingTokenBalance !=0) {\n            totalTokenFeeBalance = 0;\n            token.safeTransfer(_destination, pendingTokenBalance);\n        }\n\n        emit LogWithdrawFees(_destination, pendingFXDBalance, pendingTokenBalance);\n    }\n\n    function pause() external override onlyOwnerOrGov {\n        _pause();\n        emit LogStableSwapPauseState(true);\n    }\n\n    function unpause() external override onlyOwnerOrGov {\n        _unpause();\n        emit LogStableSwapPauseState(false);\n    }\n\n    function emergencyWithdraw(address _account) external override nonReentrant onlyOwnerOrGov whenPaused {\n        require(_account != address(0), \"withdrawFees/empty-account\");\n        tokenBalance[token] = 0;\n        tokenBalance[stablecoin] = 0;\n        token.safeTransfer(_account, token.balanceOf(address(this)));\n        stablecoin.safeTransfer(_account, stablecoin.balanceOf(address(this)));\n        emit LogEmergencyWithdraw(_account);\n    }\n\n    function _udpateAndCheckDailyLimit(uint256 _amount) internal {\n        if (block.timestamp - lastUpdate >= ONE_DAY) {\n            lastUpdate = block.timestamp;\n            remainingDailySwapAmount = dailySwapLimit;\n        }\n        require(remainingDailySwapAmount >= _amount, \"_udpateAndCheckDailyLimit/daily-limit-exceeded\");\n        remainingDailySwapAmount -= _amount;\n        emit LogRemainingDailySwapAmount(remainingDailySwapAmount);\n    }\n\n    function _convertDecimals(\n        uint256 _amount,\n        uint8 _fromDecimals,\n        uint8 _toDecimals\n    ) internal pure returns (uint256 result) {\n        result = _toDecimals >= _fromDecimals ? _amount * (10**(_toDecimals - _fromDecimals)) : _amount / (10**(_fromDecimals - _toDecimals));\n    }\n}\n",
    "sourcePath": "/Users/sangjun.lee/Sangjun/fathom-stablecoin-smart-contracts/contracts/main/stablecoin-core/StableSwapModule.sol",
    "compiler": {
        "name": "solc",
        "version": "0.8.17+commit.8df45f5f.Emscripten.clang"
    },
    "schemaVersion": "3.4.10",
    "updatedAt": "2023-03-31T14:11:53.026Z",
    "devdoc": {
        "kind": "dev",
        "methods": {
            "paused()": {
                "details": "Returns true if the contract is paused, and false otherwise."
            }
        },
        "version": 1
    },
    "userdoc": {
        "kind": "user",
        "methods": {},
        "version": 1
    }
}